{
  "_format": "hh-sol-artifact-1",
  "contractName": "ProductTracking",
  "sourceName": "contracts/Upload.sol",
  "abi": [
    {
      "anonymous": false,
      "inputs": [
        {
          "indexed": false,
          "internalType": "string",
          "name": "productId",
          "type": "string"
        },
        {
          "indexed": false,
          "internalType": "string",
          "name": "forestId",
          "type": "string"
        },
        {
          "indexed": false,
          "internalType": "string",
          "name": "woodType",
          "type": "string"
        }
      ],
      "name": "HarvestDataAdded",
      "type": "event"
    },
    {
      "anonymous": false,
      "inputs": [
        {
          "indexed": false,
          "internalType": "string",
          "name": "productId",
          "type": "string"
        },
        {
          "indexed": false,
          "internalType": "uint256",
          "name": "plannedStartDate",
          "type": "uint256"
        }
      ],
      "name": "ManufacturingRecordCreated",
      "type": "event"
    },
    {
      "anonymous": false,
      "inputs": [
        {
          "indexed": false,
          "internalType": "string",
          "name": "productId",
          "type": "string"
        },
        {
          "indexed": false,
          "internalType": "uint256",
          "name": "stepId",
          "type": "uint256"
        },
        {
          "indexed": false,
          "internalType": "string",
          "name": "name",
          "type": "string"
        }
      ],
      "name": "ManufacturingStepAdded",
      "type": "event"
    },
    {
      "anonymous": false,
      "inputs": [
        {
          "indexed": false,
          "internalType": "string",
          "name": "productId",
          "type": "string"
        },
        {
          "indexed": false,
          "internalType": "string",
          "name": "productType",
          "type": "string"
        },
        {
          "indexed": false,
          "internalType": "address",
          "name": "manufacturer",
          "type": "address"
        }
      ],
      "name": "ProductCreated",
      "type": "event"
    },
    {
      "anonymous": false,
      "inputs": [
        {
          "indexed": false,
          "internalType": "string",
          "name": "productId",
          "type": "string"
        },
        {
          "indexed": false,
          "internalType": "string",
          "name": "check",
          "type": "string"
        }
      ],
      "name": "QualityCheckAdded",
      "type": "event"
    },
    {
      "anonymous": false,
      "inputs": [
        {
          "indexed": false,
          "internalType": "string",
          "name": "shipmentId",
          "type": "string"
        },
        {
          "indexed": false,
          "internalType": "string",
          "name": "productId",
          "type": "string"
        }
      ],
      "name": "ShipmentCreated",
      "type": "event"
    },
    {
      "anonymous": false,
      "inputs": [
        {
          "indexed": false,
          "internalType": "string",
          "name": "shipmentId",
          "type": "string"
        },
        {
          "indexed": false,
          "internalType": "int256",
          "name": "latitude",
          "type": "int256"
        },
        {
          "indexed": false,
          "internalType": "int256",
          "name": "longitude",
          "type": "int256"
        }
      ],
      "name": "ShipmentLocationUpdated",
      "type": "event"
    },
    {
      "anonymous": false,
      "inputs": [
        {
          "indexed": false,
          "internalType": "string",
          "name": "shipmentId",
          "type": "string"
        },
        {
          "indexed": false,
          "internalType": "string",
          "name": "origin",
          "type": "string"
        },
        {
          "indexed": false,
          "internalType": "string",
          "name": "destination",
          "type": "string"
        }
      ],
      "name": "ShipmentRoutePointAdded",
      "type": "event"
    },
    {
      "inputs": [
        {
          "internalType": "string",
          "name": "_productId",
          "type": "string"
        },
        {
          "internalType": "string",
          "name": "_forestId",
          "type": "string"
        },
        {
          "internalType": "string",
          "name": "_woodType",
          "type": "string"
        },
        {
          "internalType": "int256",
          "name": "_latitude",
          "type": "int256"
        },
        {
          "internalType": "int256",
          "name": "_longitude",
          "type": "int256"
        },
        {
          "internalType": "string",
          "name": "_certificationId",
          "type": "string"
        }
      ],
      "name": "addHarvestData",
      "outputs": [],
      "stateMutability": "nonpayable",
      "type": "function"
    },
    {
      "inputs": [
        {
          "internalType": "string",
          "name": "_productId",
          "type": "string"
        },
        {
          "internalType": "string",
          "name": "_name",
          "type": "string"
        },
        {
          "internalType": "string",
          "name": "_estimatedDuration",
          "type": "string"
        },
        {
          "internalType": "string[]",
          "name": "_toolsRequired",
          "type": "string[]"
        }
      ],
      "name": "addManufacturingStep",
      "outputs": [],
      "stateMutability": "nonpayable",
      "type": "function"
    },
    {
      "inputs": [
        {
          "internalType": "string",
          "name": "_productId",
          "type": "string"
        },
        {
          "internalType": "string",
          "name": "_check",
          "type": "string"
        }
      ],
      "name": "addQualityCheck",
      "outputs": [],
      "stateMutability": "nonpayable",
      "type": "function"
    },
    {
      "inputs": [
        {
          "internalType": "string",
          "name": "_productId",
          "type": "string"
        },
        {
          "internalType": "string",
          "name": "_shipmentId",
          "type": "string"
        },
        {
          "internalType": "string",
          "name": "_origin",
          "type": "string"
        },
        {
          "internalType": "string",
          "name": "_destination",
          "type": "string"
        }
      ],
      "name": "addRoutePoint",
      "outputs": [],
      "stateMutability": "nonpayable",
      "type": "function"
    },
    {
      "inputs": [
        {
          "internalType": "string",
          "name": "_productId",
          "type": "string"
        },
        {
          "internalType": "uint256",
          "name": "_plannedStartDate",
          "type": "uint256"
        },
        {
          "internalType": "string",
          "name": "_estimatedDuration",
          "type": "string"
        },
        {
          "internalType": "string",
          "name": "_estimatedEnergyUsage",
          "type": "string"
        },
        {
          "internalType": "string",
          "name": "_estimatedWaterUsage",
          "type": "string"
        },
        {
          "internalType": "string",
          "name": "_estimatedWaste",
          "type": "string"
        }
      ],
      "name": "createManufacturingRecord",
      "outputs": [],
      "stateMutability": "nonpayable",
      "type": "function"
    },
    {
      "inputs": [
        {
          "internalType": "string",
          "name": "_materialId",
          "type": "string"
        },
        {
          "internalType": "string",
          "name": "_facilityId",
          "type": "string"
        },
        {
          "internalType": "string",
          "name": "_productType",
          "type": "string"
        }
      ],
      "name": "createProduct",
      "outputs": [
        {
          "internalType": "string",
          "name": "",
          "type": "string"
        }
      ],
      "stateMutability": "nonpayable",
      "type": "function"
    },
    {
      "inputs": [
        {
          "internalType": "string",
          "name": "_productId",
          "type": "string"
        },
        {
          "internalType": "uint256",
          "name": "_fuelConsumption",
          "type": "uint256"
        },
        {
          "internalType": "uint256",
          "name": "_distance",
          "type": "uint256"
        }
      ],
      "name": "createShipment",
      "outputs": [
        {
          "internalType": "string",
          "name": "",
          "type": "string"
        }
      ],
      "stateMutability": "nonpayable",
      "type": "function"
    },
    {
      "inputs": [
        {
          "internalType": "string",
          "name": "_productId",
          "type": "string"
        }
      ],
      "name": "getManufacturingSteps",
      "outputs": [
        {
          "components": [
            {
              "internalType": "uint256",
              "name": "stepId",
              "type": "uint256"
            },
            {
              "internalType": "string",
              "name": "name",
              "type": "string"
            },
            {
              "internalType": "string",
              "name": "estimatedDuration",
              "type": "string"
            }
          ],
          "internalType": "struct ProductTracking.ManufacturingStep[]",
          "name": "steps",
          "type": "tuple[]"
        },
        {
          "internalType": "string[][]",
          "name": "tools",
          "type": "string[][]"
        }
      ],
      "stateMutability": "view",
      "type": "function"
    },
    {
      "inputs": [
        {
          "internalType": "string",
          "name": "_productId",
          "type": "string"
        }
      ],
      "name": "getProductDetails",
      "outputs": [
        {
          "components": [
            {
              "internalType": "string",
              "name": "productId",
              "type": "string"
            },
            {
              "internalType": "string",
              "name": "materialId",
              "type": "string"
            },
            {
              "internalType": "string",
              "name": "facilityId",
              "type": "string"
            },
            {
              "internalType": "string",
              "name": "productType",
              "type": "string"
            },
            {
              "internalType": "address",
              "name": "manufacturer",
              "type": "address"
            },
            {
              "internalType": "uint256",
              "name": "manufacturingTimestamp",
              "type": "uint256"
            },
            {
              "internalType": "bool",
              "name": "isActive",
              "type": "bool"
            }
          ],
          "internalType": "struct ProductTracking.Product",
          "name": "product",
          "type": "tuple"
        },
        {
          "components": [
            {
              "internalType": "string",
              "name": "forestId",
              "type": "string"
            },
            {
              "internalType": "string",
              "name": "woodType",
              "type": "string"
            },
            {
              "internalType": "int256",
              "name": "latitude",
              "type": "int256"
            },
            {
              "internalType": "int256",
              "name": "longitude",
              "type": "int256"
            },
            {
              "internalType": "string",
              "name": "certificationId",
              "type": "string"
            }
          ],
          "internalType": "struct ProductTracking.HarvestData",
          "name": "harvestData",
          "type": "tuple"
        },
        {
          "components": [
            {
              "internalType": "string",
              "name": "productId",
              "type": "string"
            },
            {
              "internalType": "uint256",
              "name": "plannedStartDate",
              "type": "uint256"
            },
            {
              "internalType": "string",
              "name": "estimatedDuration",
              "type": "string"
            },
            {
              "internalType": "uint256",
              "name": "stepCount",
              "type": "uint256"
            },
            {
              "components": [
                {
                  "internalType": "string",
                  "name": "estimatedEnergyUsage",
                  "type": "string"
                },
                {
                  "internalType": "string",
                  "name": "estimatedWaterUsage",
                  "type": "string"
                },
                {
                  "internalType": "string",
                  "name": "estimatedWaste",
                  "type": "string"
                }
              ],
              "internalType": "struct ProductTracking.EnvironmentalMetrics",
              "name": "environmentalMetrics",
              "type": "tuple"
            },
            {
              "internalType": "uint256",
              "name": "timestamp",
              "type": "uint256"
            }
          ],
          "internalType": "struct ProductTracking.ManufacturingRecord",
          "name": "manufacturingRecord",
          "type": "tuple"
        }
      ],
      "stateMutability": "view",
      "type": "function"
    },
    {
      "inputs": [
        {
          "internalType": "string",
          "name": "_productId",
          "type": "string"
        },
        {
          "internalType": "string",
          "name": "_shipmentId",
          "type": "string"
        }
      ],
      "name": "getShipmentDetails",
      "outputs": [
        {
          "components": [
            {
              "internalType": "string",
              "name": "shipmentId",
              "type": "string"
            },
            {
              "internalType": "string",
              "name": "productId",
              "type": "string"
            },
            {
              "internalType": "string",
              "name": "status",
              "type": "string"
            },
            {
              "internalType": "uint256",
              "name": "routePointsCount",
              "type": "uint256"
            },
            {
              "components": [
                {
                  "internalType": "uint256",
                  "name": "fuelConsumption",
                  "type": "uint256"
                },
                {
                  "internalType": "uint256",
                  "name": "distance",
                  "type": "uint256"
                }
              ],
              "internalType": "struct ProductTracking.ShipmentMetrics",
              "name": "metrics",
              "type": "tuple"
            },
            {
              "internalType": "uint256",
              "name": "timestamp",
              "type": "uint256"
            },
            {
              "internalType": "address",
              "name": "carrier",
              "type": "address"
            }
          ],
          "internalType": "struct ProductTracking.Shipment",
          "name": "shipment",
          "type": "tuple"
        },
        {
          "components": [
            {
              "internalType": "string",
              "name": "origin",
              "type": "string"
            },
            {
              "internalType": "string",
              "name": "destination",
              "type": "string"
            }
          ],
          "internalType": "struct ProductTracking.RoutePoint[]",
          "name": "routePoints",
          "type": "tuple[]"
        },
        {
          "components": [
            {
              "internalType": "uint256",
              "name": "timestamp",
              "type": "uint256"
            },
            {
              "internalType": "int256",
              "name": "latitude",
              "type": "int256"
            },
            {
              "internalType": "int256",
              "name": "longitude",
              "type": "int256"
            }
          ],
          "internalType": "struct ProductTracking.LocationUpdate[]",
          "name": "locationUpdates",
          "type": "tuple[]"
        }
      ],
      "stateMutability": "view",
      "type": "function"
    },
    {
      "inputs": [
        {
          "internalType": "string",
          "name": "",
          "type": "string"
        }
      ],
      "name": "manufacturingRecords",
      "outputs": [
        {
          "internalType": "string",
          "name": "productId",
          "type": "string"
        },
        {
          "internalType": "uint256",
          "name": "plannedStartDate",
          "type": "uint256"
        },
        {
          "internalType": "string",
          "name": "estimatedDuration",
          "type": "string"
        },
        {
          "internalType": "uint256",
          "name": "stepCount",
          "type": "uint256"
        },
        {
          "components": [
            {
              "internalType": "string",
              "name": "estimatedEnergyUsage",
              "type": "string"
            },
            {
              "internalType": "string",
              "name": "estimatedWaterUsage",
              "type": "string"
            },
            {
              "internalType": "string",
              "name": "estimatedWaste",
              "type": "string"
            }
          ],
          "internalType": "struct ProductTracking.EnvironmentalMetrics",
          "name": "environmentalMetrics",
          "type": "tuple"
        },
        {
          "internalType": "uint256",
          "name": "timestamp",
          "type": "uint256"
        }
      ],
      "stateMutability": "view",
      "type": "function"
    },
    {
      "inputs": [
        {
          "internalType": "string",
          "name": "",
          "type": "string"
        },
        {
          "internalType": "uint256",
          "name": "",
          "type": "uint256"
        }
      ],
      "name": "manufacturingSteps",
      "outputs": [
        {
          "internalType": "uint256",
          "name": "stepId",
          "type": "uint256"
        },
        {
          "internalType": "string",
          "name": "name",
          "type": "string"
        },
        {
          "internalType": "string",
          "name": "estimatedDuration",
          "type": "string"
        }
      ],
      "stateMutability": "view",
      "type": "function"
    },
    {
      "inputs": [
        {
          "internalType": "string",
          "name": "",
          "type": "string"
        },
        {
          "internalType": "uint256",
          "name": "",
          "type": "uint256"
        },
        {
          "internalType": "uint256",
          "name": "",
          "type": "uint256"
        }
      ],
      "name": "manufacturingToolsRequired",
      "outputs": [
        {
          "internalType": "string",
          "name": "",
          "type": "string"
        }
      ],
      "stateMutability": "view",
      "type": "function"
    },
    {
      "inputs": [
        {
          "internalType": "string",
          "name": "",
          "type": "string"
        }
      ],
      "name": "productHarvestData",
      "outputs": [
        {
          "internalType": "string",
          "name": "forestId",
          "type": "string"
        },
        {
          "internalType": "string",
          "name": "woodType",
          "type": "string"
        },
        {
          "internalType": "int256",
          "name": "latitude",
          "type": "int256"
        },
        {
          "internalType": "int256",
          "name": "longitude",
          "type": "int256"
        },
        {
          "internalType": "string",
          "name": "certificationId",
          "type": "string"
        }
      ],
      "stateMutability": "view",
      "type": "function"
    },
    {
      "inputs": [
        {
          "internalType": "string",
          "name": "",
          "type": "string"
        },
        {
          "internalType": "uint256",
          "name": "",
          "type": "uint256"
        }
      ],
      "name": "productShipments",
      "outputs": [
        {
          "internalType": "string",
          "name": "shipmentId",
          "type": "string"
        },
        {
          "internalType": "string",
          "name": "productId",
          "type": "string"
        },
        {
          "internalType": "string",
          "name": "status",
          "type": "string"
        },
        {
          "internalType": "uint256",
          "name": "routePointsCount",
          "type": "uint256"
        },
        {
          "components": [
            {
              "internalType": "uint256",
              "name": "fuelConsumption",
              "type": "uint256"
            },
            {
              "internalType": "uint256",
              "name": "distance",
              "type": "uint256"
            }
          ],
          "internalType": "struct ProductTracking.ShipmentMetrics",
          "name": "metrics",
          "type": "tuple"
        },
        {
          "internalType": "uint256",
          "name": "timestamp",
          "type": "uint256"
        },
        {
          "internalType": "address",
          "name": "carrier",
          "type": "address"
        }
      ],
      "stateMutability": "view",
      "type": "function"
    },
    {
      "inputs": [
        {
          "internalType": "string",
          "name": "",
          "type": "string"
        }
      ],
      "name": "products",
      "outputs": [
        {
          "internalType": "string",
          "name": "productId",
          "type": "string"
        },
        {
          "internalType": "string",
          "name": "materialId",
          "type": "string"
        },
        {
          "internalType": "string",
          "name": "facilityId",
          "type": "string"
        },
        {
          "internalType": "string",
          "name": "productType",
          "type": "string"
        },
        {
          "internalType": "address",
          "name": "manufacturer",
          "type": "address"
        },
        {
          "internalType": "uint256",
          "name": "manufacturingTimestamp",
          "type": "uint256"
        },
        {
          "internalType": "bool",
          "name": "isActive",
          "type": "bool"
        }
      ],
      "stateMutability": "view",
      "type": "function"
    },
    {
      "inputs": [
        {
          "internalType": "string",
          "name": "",
          "type": "string"
        },
        {
          "internalType": "uint256",
          "name": "",
          "type": "uint256"
        }
      ],
      "name": "qualityChecks",
      "outputs": [
        {
          "internalType": "string",
          "name": "",
          "type": "string"
        }
      ],
      "stateMutability": "view",
      "type": "function"
    },
    {
      "inputs": [
        {
          "internalType": "string",
          "name": "",
          "type": "string"
        },
        {
          "internalType": "string",
          "name": "",
          "type": "string"
        },
        {
          "internalType": "uint256",
          "name": "",
          "type": "uint256"
        }
      ],
      "name": "shipmentLocationUpdates",
      "outputs": [
        {
          "internalType": "uint256",
          "name": "timestamp",
          "type": "uint256"
        },
        {
          "internalType": "int256",
          "name": "latitude",
          "type": "int256"
        },
        {
          "internalType": "int256",
          "name": "longitude",
          "type": "int256"
        }
      ],
      "stateMutability": "view",
      "type": "function"
    },
    {
      "inputs": [
        {
          "internalType": "string",
          "name": "",
          "type": "string"
        },
        {
          "internalType": "string",
          "name": "",
          "type": "string"
        },
        {
          "internalType": "uint256",
          "name": "",
          "type": "uint256"
        }
      ],
      "name": "shipmentRoutePoints",
      "outputs": [
        {
          "internalType": "string",
          "name": "origin",
          "type": "string"
        },
        {
          "internalType": "string",
          "name": "destination",
          "type": "string"
        }
      ],
      "stateMutability": "view",
      "type": "function"
    },
    {
      "inputs": [
        {
          "internalType": "string",
          "name": "_productId",
          "type": "string"
        },
        {
          "internalType": "string",
          "name": "_shipmentId",
          "type": "string"
        },
        {
          "internalType": "string",
          "name": "_newStatus",
          "type": "string"
        },
        {
          "internalType": "int256",
          "name": "_latitude",
          "type": "int256"
        },
        {
          "internalType": "int256",
          "name": "_longitude",
          "type": "int256"
        }
      ],
      "name": "updateShipmentLocation",
      "outputs": [],
      "stateMutability": "nonpayable",
      "type": "function"
    }
  ],
  "bytecode": "0x608060405260006009556000600a5534801561001a57600080fd5b50615fd7806200002b6000396000f3fe608060405234801561001057600080fd5b506004361061012c5760003560e01c8063a7a9a865116100ad578063d768468b11610071578063d768468b146103b2578063dac3f98e146103e2578063e050227414610418578063f8c041211461044a578063fd241168146104665761012c565b8063a7a9a865146102fd578063b227c01514610319578063b4a78d6d1461034a578063bc0f4c6e1461037a578063d471b460146103965761012c565b806328216a5f116100f457806328216a5f1461022f57806328a2cf381461026457806328bd56171461029457806338fcf662146102c557806351a5f4b2146102e15761012c565b80630186a423146101315780630297ba04146101675780630652bd261461019b57806308c69414146101cb578063198c59b0146101fd575b600080fd5b61014b60048036038101906101469190614164565b610498565b60405161015e97969594939291906142aa565b60405180910390f35b610181600480360381019061017c9190614164565b61073d565b60405161019295949392919061434e565b60405180910390f35b6101b560048036038101906101b091906143e2565b610921565b6040516101c29190614451565b60405180910390f35b6101e560048036038101906101e09190614473565b610bb5565b6040516101f4939291906144cf565b60405180910390f35b61021760048036038101906102129190614164565b610d12565b604051610226939291906147c4565b60405180910390f35b61024960048036038101906102449190614164565b6115c2565b60405161025b9695949392919061486e565b60405180910390f35b61027e60048036038101906102799190614473565b6118e4565b60405161028b9190614451565b60405180910390f35b6102ae60048036038101906102a991906148e4565b6119b3565b6040516102bc92919061496f565b60405180910390f35b6102df60048036038101906102da91906149a6565b611b2d565b005b6102fb60048036038101906102f69190614abf565b611db4565b005b61031760048036038101906103129190614b96565b61216c565b005b610333600480360381019061032e9190614164565b61231e565b604051610341929190614eab565b60405180910390f35b610364600480360381019061035f91906143e2565b6126d0565b6040516103719190614451565b60405180910390f35b610394600480360381019061038f9190614fc8565b6127ac565b005b6103b060048036038101906103ab91906150cb565b612a2c565b005b6103cc60048036038101906103c791906151c8565b612c3f565b6040516103d99190614451565b60405180910390f35b6103fc60048036038101906103f79190614473565b612e6f565b60405161040f979695949392919061529e565b60405180910390f35b610432600480360381019061042d91906148e4565b6130ba565b60405161044193929190615323565b60405180910390f35b610464600480360381019061045f919061535a565b61313a565b005b610480600480360381019061047b9190614b96565b6134c5565b60405161048f939291906156fa565b60405180910390f35b6000818051602081018201805184825260208301602085012081835280955050505050506000915090508060000180546104d190615775565b80601f01602080910402602001604051908101604052809291908181526020018280546104fd90615775565b801561054a5780601f1061051f5761010080835404028352916020019161054a565b820191906000526020600020905b81548152906001019060200180831161052d57829003601f168201915b50505050509080600101805461055f90615775565b80601f016020809104026020016040519081016040528092919081815260200182805461058b90615775565b80156105d85780601f106105ad576101008083540402835291602001916105d8565b820191906000526020600020905b8154815290600101906020018083116105bb57829003601f168201915b5050505050908060020180546105ed90615775565b80601f016020809104026020016040519081016040528092919081815260200182805461061990615775565b80156106665780601f1061063b57610100808354040283529160200191610666565b820191906000526020600020905b81548152906001019060200180831161064957829003601f168201915b50505050509080600301805461067b90615775565b80601f01602080910402602001604051908101604052809291908181526020018280546106a790615775565b80156106f45780601f106106c9576101008083540402835291602001916106f4565b820191906000526020600020905b8154815290600101906020018083116106d757829003601f168201915b5050505050908060040160009054906101000a900473ffffffffffffffffffffffffffffffffffffffff16908060050154908060060160009054906101000a900460ff16905087565b60018180516020810182018051848252602083016020850120818352809550505050505060009150905080600001805461077690615775565b80601f01602080910402602001604051908101604052809291908181526020018280546107a290615775565b80156107ef5780601f106107c4576101008083540402835291602001916107ef565b820191906000526020600020905b8154815290600101906020018083116107d257829003601f168201915b50505050509080600101805461080490615775565b80601f016020809104026020016040519081016040528092919081815260200182805461083090615775565b801561087d5780601f106108525761010080835404028352916020019161087d565b820191906000526020600020905b81548152906001019060200180831161086057829003601f168201915b50505050509080600201549080600301549080600401805461089e90615775565b80601f01602080910402602001604051908101604052809291908181526020018280546108ca90615775565b80156109175780601f106108ec57610100808354040283529160200191610917565b820191906000526020600020905b8154815290600101906020018083116108fa57829003601f168201915b5050505050905085565b606060008460405161093391906157e3565b908152602001604051809103902060060160009054906101000a900460ff16610991576040517f08c379a000000000000000000000000000000000000000000000000000000000815260040161098890615846565b60405180910390fd5b600a60008154809291906109a490615895565b919050555060006109b6600a54613b6d565b90506000604051806040016040528086815260200185815250905060006040518060e001604052808481526020018881526020016040518060400160405280600981526020017f494e4954494154454400000000000000000000000000000000000000000000008152508152602001600081526020018381526020014281526020013373ffffffffffffffffffffffffffffffffffffffff168152509050600687604051610a6491906157e3565b90815260200160405180910390208190806001815401808255809150506001900390600052602060002090600802016000909190919091506000820151816000019080519060200190610ab8929190613d14565b506020820151816001019080519060200190610ad5929190613d14565b506040820151816002019080519060200190610af2929190613d14565b50606082015181600301556080820151816004016000820151816000015560208201518160010155505060a0820151816006015560c08201518160070160006101000a81548173ffffffffffffffffffffffffffffffffffffffff021916908373ffffffffffffffffffffffffffffffffffffffff16021790555050507f8e9787190c8ebd55b5deef01b678d15ec9fb6d20e79555290004a4e8cf3a93088388604051610ba092919061496f565b60405180910390a18293505050509392505050565b60038280516020810182018051848252602083016020850120818352809550505050505060205280600052604060002060009150915050806000015490806001018054610c0190615775565b80601f0160208091040260200160405190810160405280929190818152602001828054610c2d90615775565b8015610c7a5780601f10610c4f57610100808354040283529160200191610c7a565b820191906000526020600020905b815481529060010190602001808311610c5d57829003601f168201915b505050505090806002018054610c8f90615775565b80601f0160208091040260200160405190810160405280929190818152602001828054610cbb90615775565b8015610d085780601f10610cdd57610100808354040283529160200191610d08565b820191906000526020600020905b815481529060010190602001808311610ceb57829003601f168201915b5050505050905083565b610d1a613d9a565b610d22613def565b610d2a613e1e565b600084604051610d3a91906157e3565b908152602001604051809103902060060160009054906101000a900460ff16610d98576040517f08c379a0000000000000000000000000000000000000000000000000000000008152600401610d8f90615846565b60405180910390fd5b600084604051610da891906157e3565b9081526020016040518091039020600185604051610dc691906157e3565b9081526020016040518091039020600286604051610de491906157e3565b9081526020016040518091039020826040518060e0016040529081600082018054610e0e90615775565b80601f0160208091040260200160405190810160405280929190818152602001828054610e3a90615775565b8015610e875780601f10610e5c57610100808354040283529160200191610e87565b820191906000526020600020905b815481529060010190602001808311610e6a57829003601f168201915b50505050508152602001600182018054610ea090615775565b80601f0160208091040260200160405190810160405280929190818152602001828054610ecc90615775565b8015610f195780601f10610eee57610100808354040283529160200191610f19565b820191906000526020600020905b815481529060010190602001808311610efc57829003601f168201915b50505050508152602001600282018054610f3290615775565b80601f0160208091040260200160405190810160405280929190818152602001828054610f5e90615775565b8015610fab5780601f10610f8057610100808354040283529160200191610fab565b820191906000526020600020905b815481529060010190602001808311610f8e57829003601f168201915b50505050508152602001600382018054610fc490615775565b80601f0160208091040260200160405190810160405280929190818152602001828054610ff090615775565b801561103d5780601f106110125761010080835404028352916020019161103d565b820191906000526020600020905b81548152906001019060200180831161102057829003601f168201915b505050505081526020016004820160009054906101000a900473ffffffffffffffffffffffffffffffffffffffff1673ffffffffffffffffffffffffffffffffffffffff1673ffffffffffffffffffffffffffffffffffffffff168152602001600582015481526020016006820160009054906101000a900460ff1615151515815250509250816040518060a00160405290816000820180546110df90615775565b80601f016020809104026020016040519081016040528092919081815260200182805461110b90615775565b80156111585780601f1061112d57610100808354040283529160200191611158565b820191906000526020600020905b81548152906001019060200180831161113b57829003601f168201915b5050505050815260200160018201805461117190615775565b80601f016020809104026020016040519081016040528092919081815260200182805461119d90615775565b80156111ea5780601f106111bf576101008083540402835291602001916111ea565b820191906000526020600020905b8154815290600101906020018083116111cd57829003601f168201915b50505050508152602001600282015481526020016003820154815260200160048201805461121790615775565b80601f016020809104026020016040519081016040528092919081815260200182805461124390615775565b80156112905780601f1061126557610100808354040283529160200191611290565b820191906000526020600020905b81548152906001019060200180831161127357829003601f168201915b5050505050815250509150806040518060c00160405290816000820180546112b790615775565b80601f01602080910402602001604051908101604052809291908181526020018280546112e390615775565b80156113305780601f1061130557610100808354040283529160200191611330565b820191906000526020600020905b81548152906001019060200180831161131357829003601f168201915b505050505081526020016001820154815260200160028201805461135390615775565b80601f016020809104026020016040519081016040528092919081815260200182805461137f90615775565b80156113cc5780601f106113a1576101008083540402835291602001916113cc565b820191906000526020600020905b8154815290600101906020018083116113af57829003601f168201915b5050505050815260200160038201548152602001600482016040518060600160405290816000820180546113ff90615775565b80601f016020809104026020016040519081016040528092919081815260200182805461142b90615775565b80156114785780601f1061144d57610100808354040283529160200191611478565b820191906000526020600020905b81548152906001019060200180831161145b57829003601f168201915b5050505050815260200160018201805461149190615775565b80601f01602080910402602001604051908101604052809291908181526020018280546114bd90615775565b801561150a5780601f106114df5761010080835404028352916020019161150a565b820191906000526020600020905b8154815290600101906020018083116114ed57829003601f168201915b5050505050815260200160028201805461152390615775565b80601f016020809104026020016040519081016040528092919081815260200182805461154f90615775565b801561159c5780601f106115715761010080835404028352916020019161159c565b820191906000526020600020905b81548152906001019060200180831161157f57829003601f168201915b505050505081525050815260200160078201548152505090509250925092509193909250565b6002818051602081018201805184825260208301602085012081835280955050505050506000915090508060000180546115fb90615775565b80601f016020809104026020016040519081016040528092919081815260200182805461162790615775565b80156116745780601f1061164957610100808354040283529160200191611674565b820191906000526020600020905b81548152906001019060200180831161165757829003601f168201915b50505050509080600101549080600201805461168f90615775565b80601f01602080910402602001604051908101604052809291908181526020018280546116bb90615775565b80156117085780601f106116dd57610100808354040283529160200191611708565b820191906000526020600020905b8154815290600101906020018083116116eb57829003601f168201915b5050505050908060030154908060040160405180606001604052908160008201805461173390615775565b80601f016020809104026020016040519081016040528092919081815260200182805461175f90615775565b80156117ac5780601f10611781576101008083540402835291602001916117ac565b820191906000526020600020905b81548152906001019060200180831161178f57829003601f168201915b505050505081526020016001820180546117c590615775565b80601f01602080910402602001604051908101604052809291908181526020018280546117f190615775565b801561183e5780601f106118135761010080835404028352916020019161183e565b820191906000526020600020905b81548152906001019060200180831161182157829003601f168201915b5050505050815260200160028201805461185790615775565b80601f016020809104026020016040519081016040528092919081815260200182805461188390615775565b80156118d05780601f106118a5576101008083540402835291602001916118d0565b820191906000526020600020905b8154815290600101906020018083116118b357829003601f168201915b505050505081525050908060070154905086565b600582805160208101820180518482526020830160208501208183528095505050505050818154811061191657600080fd5b9060005260206000200160009150915050805461193290615775565b80601f016020809104026020016040519081016040528092919081815260200182805461195e90615775565b80156119ab5780601f10611980576101008083540402835291602001916119ab565b820191906000526020600020905b81548152906001019060200180831161198e57829003601f168201915b505050505081565b600783805160208101820180518482526020830160208501208183528095505050505050828051602081018201805184825260208301602085012081835280955050505050506020528060005260406000206000925092505050806000018054611a1c90615775565b80601f0160208091040260200160405190810160405280929190818152602001828054611a4890615775565b8015611a955780601f10611a6a57610100808354040283529160200191611a95565b820191906000526020600020905b815481529060010190602001808311611a7857829003601f168201915b505050505090806001018054611aaa90615775565b80601f0160208091040260200160405190810160405280929190818152602001828054611ad690615775565b8015611b235780601f10611af857610100808354040283529160200191611b23565b820191906000526020600020905b815481529060010190602001808311611b0657829003601f168201915b5050505050905082565b600086604051611b3d91906157e3565b908152602001604051809103902060060160009054906101000a900460ff16611b9b576040517f08c379a0000000000000000000000000000000000000000000000000000000008152600401611b9290615846565b60405180910390fd5b3373ffffffffffffffffffffffffffffffffffffffff16600087604051611bc291906157e3565b908152602001604051809103902060040160009054906101000a900473ffffffffffffffffffffffffffffffffffffffff1673ffffffffffffffffffffffffffffffffffffffff1614611c4a576040517f08c379a0000000000000000000000000000000000000000000000000000000008152600401611c4190615950565b60405180910390fd5b600060405180606001604052808581526020018481526020018381525090506040518060c001604052808881526020018781526020018681526020016000815260200182815260200142815250600288604051611ca791906157e3565b90815260200160405180910390206000820151816000019080519060200190611cd1929190613d14565b50602082015181600101556040820151816002019080519060200190611cf8929190613d14565b50606082015181600301556080820151816004016000820151816000019080519060200190611d28929190613d14565b506020820151816001019080519060200190611d45929190613d14565b506040820151816002019080519060200190611d62929190613d14565b50505060a082015181600701559050507f968e07b7782097ce5138e06e36a63a1226dc1f8d3b782fe1f0a64c87a03385e78787604051611da3929190615970565b60405180910390a150505050505050565b600084604051611dc491906157e3565b908152602001604051809103902060060160009054906101000a900460ff16611e22576040517f08c379a0000000000000000000000000000000000000000000000000000000008152600401611e1990615846565b60405180910390fd5b6000600685604051611e3491906157e3565b908152602001604051809103902090506000806000905060005b8380549050811015611fe657611f10848281548110611e7057611e6f6159a0565b5b90600052602060002090600802016000018054611e8c90615775565b80601f0160208091040260200160405190810160405280929190818152602001828054611eb890615775565b8015611f055780601f10611eda57610100808354040283529160200191611f05565b820191906000526020600020905b815481529060010190602001808311611ee857829003601f168201915b505050505088613cf9565b15611fd3573373ffffffffffffffffffffffffffffffffffffffff16848281548110611f3f57611f3e6159a0565b5b906000526020600020906008020160070160009054906101000a900473ffffffffffffffffffffffffffffffffffffffff1673ffffffffffffffffffffffffffffffffffffffff1614611fc7576040517f08c379a0000000000000000000000000000000000000000000000000000000008152600401611fbe90615a41565b60405180910390fd5b80925060019150611fe6565b8080611fde90615895565b915050611e4e565b5080612027576040517f08c379a000000000000000000000000000000000000000000000000000000000815260040161201e90615aad565b60405180910390fd5b82828154811061203a576120396159a0565b5b9060005260206000209060080201600301600081548092919061205c90615895565b91905055506000838381548110612076576120756159a0565b5b90600052602060002090600802016003015490506040518060400160405280878152602001868152506007896040516120af91906157e3565b9081526020016040518091039020886040516120cb91906157e3565b908152602001604051809103902060008381526020019081526020016000206000820151816000019080519060200190612106929190613d14565b506020820151816001019080519060200190612123929190613d14565b509050507ff03570bebdcb6a10fb55d959053c187a085ff4aa8afbe3b793a3eb225014be3987878760405161215a93929190615acd565b60405180910390a15050505050505050565b60008260405161217c91906157e3565b908152602001604051809103902060060160009054906101000a900460ff166121da576040517f08c379a00000000000000000000000000000000000000000000000000000000081526004016121d190615846565b60405180910390fd5b3373ffffffffffffffffffffffffffffffffffffffff1660008360405161220191906157e3565b908152602001604051809103902060040160009054906101000a900473ffffffffffffffffffffffffffffffffffffffff1673ffffffffffffffffffffffffffffffffffffffff1614612289576040517f08c379a000000000000000000000000000000000000000000000000000000000815260040161228090615b8b565b60405180910390fd5b60058260405161229991906157e3565b9081526020016040518091039020819080600181540180825580915050600190039060005260206000200160009091909190915090805190602001906122e0929190613d14565b507f3295e870dc2b7f3995cb85c0f3c917c1c64252fa98feea8e078d6a267081057f828260405161231292919061496f565b60405180910390a15050565b606080600060028460405161233391906157e3565b90815260200160405180910390206003015490508067ffffffffffffffff81111561236157612360614039565b5b60405190808252806020026020018201604052801561239a57816020015b612387613e5a565b81526020019060019003908161237f5790505b5092508067ffffffffffffffff8111156123b7576123b6614039565b5b6040519080825280602002602001820160405280156123ea57816020015b60608152602001906001900390816123d55790505b5091506000600190505b8181116126c95760038560405161240b91906157e3565b908152602001604051809103902060008281526020019081526020016000206040518060600160405290816000820154815260200160018201805461244f90615775565b80601f016020809104026020016040519081016040528092919081815260200182805461247b90615775565b80156124c85780601f1061249d576101008083540402835291602001916124c8565b820191906000526020600020905b8154815290600101906020018083116124ab57829003601f168201915b505050505081526020016002820180546124e190615775565b80601f016020809104026020016040519081016040528092919081815260200182805461250d90615775565b801561255a5780601f1061252f5761010080835404028352916020019161255a565b820191906000526020600020905b81548152906001019060200180831161253d57829003601f168201915b505050505081525050846001836125719190615bab565b81518110612582576125816159a0565b5b602002602001018190525060048560405161259d91906157e3565b90815260200160405180910390206000828152602001908152602001600020805480602002602001604051908101604052809291908181526020016000905b828210156126885783829060005260206000200180546125fb90615775565b80601f016020809104026020016040519081016040528092919081815260200182805461262790615775565b80156126745780601f1061264957610100808354040283529160200191612674565b820191906000526020600020905b81548152906001019060200180831161265757829003601f168201915b5050505050815260200190600101906125dc565b505050508360018361269a9190615bab565b815181106126ab576126aa6159a0565b5b602002602001018190525080806126c190615895565b9150506123f4565b5050915091565b600483805160208101820180518482526020830160208501208183528095505050505050602052816000526040600020818154811061270e57600080fd5b906000526020600020016000925092505050805461272b90615775565b80601f016020809104026020016040519081016040528092919081815260200182805461275790615775565b80156127a45780601f10612779576101008083540402835291602001916127a4565b820191906000526020600020905b81548152906001019060200180831161278757829003601f168201915b505050505081565b6000846040516127bc91906157e3565b908152602001604051809103902060060160009054906101000a900460ff1661281a576040517f08c379a000000000000000000000000000000000000000000000000000000000815260040161281190615846565b60405180910390fd5b3373ffffffffffffffffffffffffffffffffffffffff1660008560405161284191906157e3565b908152602001604051809103902060040160009054906101000a900473ffffffffffffffffffffffffffffffffffffffff1673ffffffffffffffffffffffffffffffffffffffff16146128c9576040517f08c379a00000000000000000000000000000000000000000000000000000000081526004016128c090615c2b565b60405180910390fd5b60006002856040516128db91906157e3565b9081526020016040518091039020905080600301600081548092919061290090615895565b91905055506040518060600160405280826003015481526020018581526020018481525060038660405161293491906157e3565b908152602001604051809103902060008360030154815260200190815260200160002060008201518160000155602082015181600101908051906020019061297d929190613d14565b50604082015181600201908051906020019061299a929190613d14565b50905050816004866040516129af91906157e3565b908152602001604051809103902060008360030154815260200190815260200160002090805190602001906129e5929190613e7b565b507f3dc066186762d16263387d6d76f22d24597ccefe766f6cc0787cfb2e99f7f00885826003015486604051612a1d93929190615c4b565b60405180910390a15050505050565b600086604051612a3c91906157e3565b908152602001604051809103902060060160009054906101000a900460ff16612a9a576040517f08c379a0000000000000000000000000000000000000000000000000000000008152600401612a9190615846565b60405180910390fd5b3373ffffffffffffffffffffffffffffffffffffffff16600087604051612ac191906157e3565b908152602001604051809103902060040160009054906101000a900473ffffffffffffffffffffffffffffffffffffffff1673ffffffffffffffffffffffffffffffffffffffff1614612b49576040517f08c379a0000000000000000000000000000000000000000000000000000000008152600401612b4090615d02565b60405180910390fd5b6040518060a0016040528086815260200185815260200184815260200183815260200182815250600187604051612b8091906157e3565b90815260200160405180910390206000820151816000019080519060200190612baa929190613d14565b506020820151816001019080519060200190612bc7929190613d14565b5060408201518160020155606082015181600301556080820151816004019080519060200190612bf8929190613d14565b509050507f7c2b356c02b41de3027868657476e5106d8df117e6913ff1d834140f551413c7868686604051612c2f93929190615acd565b60405180910390a1505050505050565b606060096000815480929190612c5490615895565b91905055506000612c66600954613b6d565b905060008082604051612c7991906157e3565b90815260200160405180910390206000018054612c9590615775565b905014612cd7576040517f08c379a0000000000000000000000000000000000000000000000000000000008152600401612cce90615d6e565b60405180910390fd5b6040518060e001604052808281526020018681526020018581526020018481526020013373ffffffffffffffffffffffffffffffffffffffff16815260200142815260200160011515815250600082604051612d3391906157e3565b90815260200160405180910390206000820151816000019080519060200190612d5d929190613d14565b506020820151816001019080519060200190612d7a929190613d14565b506040820151816002019080519060200190612d97929190613d14565b506060820151816003019080519060200190612db4929190613d14565b5060808201518160040160006101000a81548173ffffffffffffffffffffffffffffffffffffffff021916908373ffffffffffffffffffffffffffffffffffffffff16021790555060a0820151816005015560c08201518160060160006101000a81548160ff0219169083151502179055509050507f4478fdb5cca1a28d79052038c209db14519451af9c6bc6e753a2614e5ea43f1a818433604051612e5c93929190615d8e565b60405180910390a1809150509392505050565b6006828051602081018201805184825260208301602085012081835280955050505050508181548110612ea157600080fd5b906000526020600020906008020160009150915050806000018054612ec590615775565b80601f0160208091040260200160405190810160405280929190818152602001828054612ef190615775565b8015612f3e5780601f10612f1357610100808354040283529160200191612f3e565b820191906000526020600020905b815481529060010190602001808311612f2157829003601f168201915b505050505090806001018054612f5390615775565b80601f0160208091040260200160405190810160405280929190818152602001828054612f7f90615775565b8015612fcc5780601f10612fa157610100808354040283529160200191612fcc565b820191906000526020600020905b815481529060010190602001808311612faf57829003601f168201915b505050505090806002018054612fe190615775565b80601f016020809104026020016040519081016040528092919081815260200182805461300d90615775565b801561305a5780601f1061302f5761010080835404028352916020019161305a565b820191906000526020600020905b81548152906001019060200180831161303d57829003601f168201915b5050505050908060030154908060040160405180604001604052908160008201548152602001600182015481525050908060060154908060070160009054906101000a900473ffffffffffffffffffffffffffffffffffffffff16905087565b60088380516020810182018051848252602083016020850120818352809550505050505082805160208101820180518482526020830160208501208183528095505050505050818154811061310e57600080fd5b906000526020600020906003020160009250925050508060000154908060010154908060020154905083565b60008560405161314a91906157e3565b908152602001604051809103902060060160009054906101000a900460ff166131a8576040517f08c379a000000000000000000000000000000000000000000000000000000000815260040161319f90615846565b60405180910390fd5b60006006866040516131ba91906157e3565b908152602001604051809103902090506000805b828054905081101561339c576132908382815481106131f0576131ef6159a0565b5b9060005260206000209060080201600001805461320c90615775565b80601f016020809104026020016040519081016040528092919081815260200182805461323890615775565b80156132855780601f1061325a57610100808354040283529160200191613285565b820191906000526020600020905b81548152906001019060200180831161326857829003601f168201915b505050505088613cf9565b15613389573373ffffffffffffffffffffffffffffffffffffffff168382815481106132bf576132be6159a0565b5b906000526020600020906008020160070160009054906101000a900473ffffffffffffffffffffffffffffffffffffffff1673ffffffffffffffffffffffffffffffffffffffff1614613347576040517f08c379a000000000000000000000000000000000000000000000000000000000815260040161333e90615e45565b60405180910390fd5b8583828154811061335b5761335a6159a0565b5b9060005260206000209060080201600201908051906020019061337f929190613d14565b506001915061339c565b808061339490615895565b9150506131ce565b50806133dd576040517f08c379a00000000000000000000000000000000000000000000000000000000081526004016133d490615aad565b60405180910390fd5b6000604051806060016040528042815260200186815260200185815250905060088860405161340c91906157e3565b90815260200160405180910390208760405161342891906157e3565b908152602001604051809103902081908060018154018082558091505060019003906000526020600020906003020160009091909190915060008201518160000155602082015181600101556040820151816002015550507f8d37ddeed0eb7ba08e329cbed9cb8b7b53a955f7f85b58d10defd20d248cd49e8786866040516134b393929190615e65565b60405180910390a15050505050505050565b6134cd613edb565b60608060006006866040516134e291906157e3565b908152602001604051809103902090506000805b828054905081101561384f576135b8838281548110613518576135176159a0565b5b9060005260206000209060080201600001805461353490615775565b80601f016020809104026020016040519081016040528092919081815260200182805461356090615775565b80156135ad5780601f10613582576101008083540402835291602001916135ad565b820191906000526020600020905b81548152906001019060200180831161359057829003601f168201915b505050505088613cf9565b1561383c578281815481106135d0576135cf6159a0565b5b90600052602060002090600802016040518060e00160405290816000820180546135f990615775565b80601f016020809104026020016040519081016040528092919081815260200182805461362590615775565b80156136725780601f1061364757610100808354040283529160200191613672565b820191906000526020600020905b81548152906001019060200180831161365557829003601f168201915b5050505050815260200160018201805461368b90615775565b80601f01602080910402602001604051908101604052809291908181526020018280546136b790615775565b80156137045780601f106136d957610100808354040283529160200191613704565b820191906000526020600020905b8154815290600101906020018083116136e757829003601f168201915b5050505050815260200160028201805461371d90615775565b80601f016020809104026020016040519081016040528092919081815260200182805461374990615775565b80156137965780601f1061376b57610100808354040283529160200191613796565b820191906000526020600020905b81548152906001019060200180831161377957829003601f168201915b505050505081526020016003820154815260200160048201604051806040016040529081600082015481526020016001820154815250508152602001600682015481526020016007820160009054906101000a900473ffffffffffffffffffffffffffffffffffffffff1673ffffffffffffffffffffffffffffffffffffffff1673ffffffffffffffffffffffffffffffffffffffff168152505095506001915061384f565b808061384790615895565b9150506134f6565b5080613890576040517f08c379a000000000000000000000000000000000000000000000000000000000815260040161388790615aad565b60405180910390fd5b846060015167ffffffffffffffff8111156138ae576138ad614039565b5b6040519080825280602002602001820160405280156138e757816020015b6138d4613f34565b8152602001906001900390816138cc5790505b5093506000600190505b85606001518111613ab35760078860405161390c91906157e3565b90815260200160405180910390208760405161392891906157e3565b9081526020016040518091039020600082815260200190815260200160002060405180604001604052908160008201805461396290615775565b80601f016020809104026020016040519081016040528092919081815260200182805461398e90615775565b80156139db5780601f106139b0576101008083540402835291602001916139db565b820191906000526020600020905b8154815290600101906020018083116139be57829003601f168201915b505050505081526020016001820180546139f490615775565b80601f0160208091040260200160405190810160405280929190818152602001828054613a2090615775565b8015613a6d5780601f10613a4257610100808354040283529160200191613a6d565b820191906000526020600020905b815481529060010190602001808311613a5057829003601f168201915b50505050508152505085600183613a849190615bab565b81518110613a9557613a946159a0565b5b60200260200101819052508080613aab90615895565b9150506138f1565b50600887604051613ac491906157e3565b908152602001604051809103902086604051613ae091906157e3565b9081526020016040518091039020805480602002602001604051908101604052809291908181526020016000905b82821015613b5e5783829060005260206000209060030201604051806060016040529081600082015481526020016001820154815260200160028201548152505081526020019060010190613b0e565b50505050925050509250925092565b60606000821415613bb5576040518060400160405280600181526020017f30000000000000000000000000000000000000000000000000000000000000008152509050613cf4565b600082905060005b60008214613be7578080613bd090615895565b915050600a82613be09190615ed2565b9150613bbd565b60008167ffffffffffffffff811115613c0357613c02614039565b5b6040519080825280601f01601f191660200182016040528015613c355781602001600182028036833780820191505090505b50905060008290508593505b60008414613cec57600181613c569190615bab565b90506000600a8086613c689190615ed2565b613c729190615f03565b85613c7d9190615bab565b6030613c899190615f6a565b905060008160f81b905080848481518110613ca757613ca66159a0565b5b60200101907effffffffffffffffffffffffffffffffffffffffffffffffffffffffffffff1916908160001a905350600a86613ce39190615ed2565b95505050613c41565b819450505050505b919050565b60008180519060200120838051906020012014905092915050565b828054613d2090615775565b90600052602060002090601f016020900481019282613d425760008555613d89565b82601f10613d5b57805160ff1916838001178555613d89565b82800160010185558215613d89579182015b82811115613d88578251825591602001919060010190613d6d565b5b509050613d969190613f4e565b5090565b6040518060e0016040528060608152602001606081526020016060815260200160608152602001600073ffffffffffffffffffffffffffffffffffffffff168152602001600081526020016000151581525090565b6040518060a0016040528060608152602001606081526020016000815260200160008152602001606081525090565b6040518060c0016040528060608152602001600081526020016060815260200160008152602001613e4d613f6b565b8152602001600081525090565b60405180606001604052806000815260200160608152602001606081525090565b828054828255906000526020600020908101928215613eca579160200282015b82811115613ec9578251829080519060200190613eb9929190613d14565b5091602001919060010190613e9b565b5b509050613ed79190613f8c565b5090565b6040518060e0016040528060608152602001606081526020016060815260200160008152602001613f0a613fb0565b815260200160008152602001600073ffffffffffffffffffffffffffffffffffffffff1681525090565b604051806040016040528060608152602001606081525090565b5b80821115613f67576000816000905550600101613f4f565b5090565b60405180606001604052806060815260200160608152602001606081525090565b5b80821115613fac5760008181613fa39190613fca565b50600101613f8d565b5090565b604051806040016040528060008152602001600081525090565b508054613fd690615775565b6000825580601f10613fe85750614007565b601f0160209004906000526020600020908101906140069190613f4e565b5b50565b6000604051905090565b600080fd5b600080fd5b600080fd5b600080fd5b6000601f19601f8301169050919050565b7f4e487b7100000000000000000000000000000000000000000000000000000000600052604160045260246000fd5b61407182614028565b810181811067ffffffffffffffff821117156140905761408f614039565b5b80604052505050565b60006140a361400a565b90506140af8282614068565b919050565b600067ffffffffffffffff8211156140cf576140ce614039565b5b6140d882614028565b9050602081019050919050565b82818337600083830152505050565b6000614107614102846140b4565b614099565b90508281526020810184848401111561412357614122614023565b5b61412e8482856140e5565b509392505050565b600082601f83011261414b5761414a61401e565b5b813561415b8482602086016140f4565b91505092915050565b60006020828403121561417a57614179614014565b5b600082013567ffffffffffffffff81111561419857614197614019565b5b6141a484828501614136565b91505092915050565b600081519050919050565b600082825260208201905092915050565b60005b838110156141e75780820151818401526020810190506141cc565b838111156141f6576000848401525b50505050565b6000614207826141ad565b61421181856141b8565b93506142218185602086016141c9565b61422a81614028565b840191505092915050565b600073ffffffffffffffffffffffffffffffffffffffff82169050919050565b600061426082614235565b9050919050565b61427081614255565b82525050565b6000819050919050565b61428981614276565b82525050565b60008115159050919050565b6142a48161428f565b82525050565b600060e08201905081810360008301526142c4818a6141fc565b905081810360208301526142d881896141fc565b905081810360408301526142ec81886141fc565b9050818103606083015261430081876141fc565b905061430f6080830186614267565b61431c60a0830185614280565b61432960c083018461429b565b98975050505050505050565b6000819050919050565b61434881614335565b82525050565b600060a082019050818103600083015261436881886141fc565b9050818103602083015261437c81876141fc565b905061438b604083018661433f565b614398606083018561433f565b81810360808301526143aa81846141fc565b90509695505050505050565b6143bf81614276565b81146143ca57600080fd5b50565b6000813590506143dc816143b6565b92915050565b6000806000606084860312156143fb576143fa614014565b5b600084013567ffffffffffffffff81111561441957614418614019565b5b61442586828701614136565b9350506020614436868287016143cd565b9250506040614447868287016143cd565b9150509250925092565b6000602082019050818103600083015261446b81846141fc565b905092915050565b6000806040838503121561448a57614489614014565b5b600083013567ffffffffffffffff8111156144a8576144a7614019565b5b6144b485828601614136565b92505060206144c5858286016143cd565b9150509250929050565b60006060820190506144e46000830186614280565b81810360208301526144f681856141fc565b9050818103604083015261450a81846141fc565b9050949350505050565b600082825260208201905092915050565b6000614530826141ad565b61453a8185614514565b935061454a8185602086016141c9565b61455381614028565b840191505092915050565b61456781614255565b82525050565b61457681614276565b82525050565b6145858161428f565b82525050565b600060e08301600083015184820360008601526145a88282614525565b915050602083015184820360208601526145c28282614525565b915050604083015184820360408601526145dc8282614525565b915050606083015184820360608601526145f68282614525565b915050608083015161460b608086018261455e565b5060a083015161461e60a086018261456d565b5060c083015161463160c086018261457c565b508091505092915050565b61464581614335565b82525050565b600060a08301600083015184820360008601526146688282614525565b915050602083015184820360208601526146828282614525565b9150506040830151614697604086018261463c565b5060608301516146aa606086018261463c565b50608083015184820360808601526146c28282614525565b9150508091505092915050565b600060608301600083015184820360008601526146ec8282614525565b915050602083015184820360208601526147068282614525565b915050604083015184820360408601526147208282614525565b9150508091505092915050565b600060c083016000830151848203600086015261474a8282614525565b915050602083015161475f602086018261456d565b50604083015184820360408601526147778282614525565b915050606083015161478c606086018261456d565b50608083015184820360808601526147a482826146cf565b91505060a08301516147b960a086018261456d565b508091505092915050565b600060608201905081810360008301526147de818661458b565b905081810360208301526147f2818561464b565b90508181036040830152614806818461472d565b9050949350505050565b6000606083016000830151848203600086015261482d8282614525565b915050602083015184820360208601526148478282614525565b915050604083015184820360408601526148618282614525565b9150508091505092915050565b600060c082019050818103600083015261488881896141fc565b90506148976020830188614280565b81810360408301526148a981876141fc565b90506148b86060830186614280565b81810360808301526148ca8185614810565b90506148d960a0830184614280565b979650505050505050565b6000806000606084860312156148fd576148fc614014565b5b600084013567ffffffffffffffff81111561491b5761491a614019565b5b61492786828701614136565b935050602084013567ffffffffffffffff81111561494857614947614019565b5b61495486828701614136565b9250506040614965868287016143cd565b9150509250925092565b6000604082019050818103600083015261498981856141fc565b9050818103602083015261499d81846141fc565b90509392505050565b60008060008060008060c087890312156149c3576149c2614014565b5b600087013567ffffffffffffffff8111156149e1576149e0614019565b5b6149ed89828a01614136565b96505060206149fe89828a016143cd565b955050604087013567ffffffffffffffff811115614a1f57614a1e614019565b5b614a2b89828a01614136565b945050606087013567ffffffffffffffff811115614a4c57614a4b614019565b5b614a5889828a01614136565b935050608087013567ffffffffffffffff811115614a7957614a78614019565b5b614a8589828a01614136565b92505060a087013567ffffffffffffffff811115614aa657614aa5614019565b5b614ab289828a01614136565b9150509295509295509295565b60008060008060808587031215614ad957614ad8614014565b5b600085013567ffffffffffffffff811115614af757614af6614019565b5b614b0387828801614136565b945050602085013567ffffffffffffffff811115614b2457614b23614019565b5b614b3087828801614136565b935050604085013567ffffffffffffffff811115614b5157614b50614019565b5b614b5d87828801614136565b925050606085013567ffffffffffffffff811115614b7e57614b7d614019565b5b614b8a87828801614136565b91505092959194509250565b60008060408385031215614bad57614bac614014565b5b600083013567ffffffffffffffff811115614bcb57614bca614019565b5b614bd785828601614136565b925050602083013567ffffffffffffffff811115614bf857614bf7614019565b5b614c0485828601614136565b9150509250929050565b600081519050919050565b600082825260208201905092915050565b6000819050602082019050919050565b6000606083016000830151614c52600086018261456d565b5060208301518482036020860152614c6a8282614525565b91505060408301518482036040860152614c848282614525565b9150508091505092915050565b6000614c9d8383614c3a565b905092915050565b6000602082019050919050565b6000614cbd82614c0e565b614cc78185614c19565b935083602082028501614cd985614c2a565b8060005b85811015614d155784840389528151614cf68582614c91565b9450614d0183614ca5565b925060208a01995050600181019050614cdd565b50829750879550505050505092915050565b600081519050919050565b600082825260208201905092915050565b6000819050602082019050919050565b600081519050919050565b600082825260208201905092915050565b6000819050602082019050919050565b6000614d8b8383614525565b905092915050565b6000602082019050919050565b6000614dab82614d53565b614db58185614d5e565b935083602082028501614dc785614d6f565b8060005b85811015614e035784840389528151614de48582614d7f565b9450614def83614d93565b925060208a01995050600181019050614dcb565b50829750879550505050505092915050565b6000614e218383614da0565b905092915050565b6000602082019050919050565b6000614e4182614d27565b614e4b8185614d32565b935083602082028501614e5d85614d43565b8060005b85811015614e995784840389528151614e7a8582614e15565b9450614e8583614e29565b925060208a01995050600181019050614e61565b50829750879550505050505092915050565b60006040820190508181036000830152614ec58185614cb2565b90508181036020830152614ed98184614e36565b90509392505050565b600067ffffffffffffffff821115614efd57614efc614039565b5b602082029050602081019050919050565b600080fd5b6000614f26614f2184614ee2565b614099565b90508083825260208201905060208402830185811115614f4957614f48614f0e565b5b835b81811015614f9057803567ffffffffffffffff811115614f6e57614f6d61401e565b5b808601614f7b8982614136565b85526020850194505050602081019050614f4b565b5050509392505050565b600082601f830112614faf57614fae61401e565b5b8135614fbf848260208601614f13565b91505092915050565b60008060008060808587031215614fe257614fe1614014565b5b600085013567ffffffffffffffff81111561500057614fff614019565b5b61500c87828801614136565b945050602085013567ffffffffffffffff81111561502d5761502c614019565b5b61503987828801614136565b935050604085013567ffffffffffffffff81111561505a57615059614019565b5b61506687828801614136565b925050606085013567ffffffffffffffff81111561508757615086614019565b5b61509387828801614f9a565b91505092959194509250565b6150a881614335565b81146150b357600080fd5b50565b6000813590506150c58161509f565b92915050565b60008060008060008060c087890312156150e8576150e7614014565b5b600087013567ffffffffffffffff81111561510657615105614019565b5b61511289828a01614136565b965050602087013567ffffffffffffffff81111561513357615132614019565b5b61513f89828a01614136565b955050604087013567ffffffffffffffff8111156151605761515f614019565b5b61516c89828a01614136565b945050606061517d89828a016150b6565b935050608061518e89828a016150b6565b92505060a087013567ffffffffffffffff8111156151af576151ae614019565b5b6151bb89828a01614136565b9150509295509295509295565b6000806000606084860312156151e1576151e0614014565b5b600084013567ffffffffffffffff8111156151ff576151fe614019565b5b61520b86828701614136565b935050602084013567ffffffffffffffff81111561522c5761522b614019565b5b61523886828701614136565b925050604084013567ffffffffffffffff81111561525957615258614019565b5b61526586828701614136565b9150509250925092565b604082016000820151615285600085018261456d565b506020820151615298602085018261456d565b50505050565b60006101008201905081810360008301526152b9818a6141fc565b905081810360208301526152cd81896141fc565b905081810360408301526152e181886141fc565b90506152f06060830187614280565b6152fd608083018661526f565b61530a60c0830185614280565b61531760e0830184614267565b98975050505050505050565b60006060820190506153386000830186614280565b615345602083018561433f565b615352604083018461433f565b949350505050565b600080600080600060a0868803121561537657615375614014565b5b600086013567ffffffffffffffff81111561539457615393614019565b5b6153a088828901614136565b955050602086013567ffffffffffffffff8111156153c1576153c0614019565b5b6153cd88828901614136565b945050604086013567ffffffffffffffff8111156153ee576153ed614019565b5b6153fa88828901614136565b935050606061540b888289016150b6565b925050608061541c888289016150b6565b9150509295509295909350565b60408201600082015161543f600085018261456d565b506020820151615452602085018261456d565b50505050565b60006101008301600083015184820360008601526154768282614525565b915050602083015184820360208601526154908282614525565b915050604083015184820360408601526154aa8282614525565b91505060608301516154bf606086018261456d565b5060808301516154d26080860182615429565b5060a08301516154e560c086018261456d565b5060c08301516154f860e086018261455e565b508091505092915050565b600081519050919050565b600082825260208201905092915050565b6000819050602082019050919050565b6000604083016000830151848203600086015261554c8282614525565b915050602083015184820360208601526155668282614525565b9150508091505092915050565b600061557f838361552f565b905092915050565b6000602082019050919050565b600061559f82615503565b6155a9818561550e565b9350836020820285016155bb8561551f565b8060005b858110156155f757848403895281516155d88582615573565b94506155e383615587565b925060208a019950506001810190506155bf565b50829750879550505050505092915050565b600081519050919050565b600082825260208201905092915050565b6000819050602082019050919050565b60608201600082015161564b600085018261456d565b50602082015161565e602085018261463c565b506040820151615671604085018261463c565b50505050565b60006156838383615635565b60608301905092915050565b6000602082019050919050565b60006156a782615609565b6156b18185615614565b93506156bc83615625565b8060005b838110156156ed5781516156d48882615677565b97506156df8361568f565b9250506001810190506156c0565b5085935050505092915050565b600060608201905081810360008301526157148186615458565b905081810360208301526157288185615594565b9050818103604083015261573c818461569c565b9050949350505050565b7f4e487b7100000000000000000000000000000000000000000000000000000000600052602260045260246000fd5b6000600282049050600182168061578d57607f821691505b602082108114156157a1576157a0615746565b5b50919050565b600081905092915050565b60006157bd826141ad565b6157c781856157a7565b93506157d78185602086016141c9565b80840191505092915050565b60006157ef82846157b2565b915081905092915050565b7f50726f6475637420646f6573206e6f7420657869737400000000000000000000600082015250565b60006158306016836141b8565b915061583b826157fa565b602082019050919050565b6000602082019050818103600083015261585f81615823565b9050919050565b7f4e487b7100000000000000000000000000000000000000000000000000000000600052601160045260246000fd5b60006158a082614276565b91507fffffffffffffffffffffffffffffffffffffffffffffffffffffffffffffffff8214156158d3576158d2615866565b5b600182019050919050565b7f4f6e6c79206d616e7566616374757265722063616e206372656174652072656360008201527f6f72640000000000000000000000000000000000000000000000000000000000602082015250565b600061593a6023836141b8565b9150615945826158de565b604082019050919050565b600060208201905081810360008301526159698161592d565b9050919050565b6000604082019050818103600083015261598a81856141fc565b90506159996020830184614280565b9392505050565b7f4e487b7100000000000000000000000000000000000000000000000000000000600052603260045260246000fd5b7f4f6e6c792061737369676e656420636172726965722063616e2061646420726f60008201527f75746520706f696e747300000000000000000000000000000000000000000000602082015250565b6000615a2b602a836141b8565b9150615a36826159cf565b604082019050919050565b60006020820190508181036000830152615a5a81615a1e565b9050919050565b7f536869706d656e74206e6f7420666f756e640000000000000000000000000000600082015250565b6000615a976012836141b8565b9150615aa282615a61565b602082019050919050565b60006020820190508181036000830152615ac681615a8a565b9050919050565b60006060820190508181036000830152615ae781866141fc565b90508181036020830152615afb81856141fc565b90508181036040830152615b0f81846141fc565b9050949350505050565b7f4f6e6c79206d616e7566616374757265722063616e20616464207175616c697460008201527f7920636865636b73000000000000000000000000000000000000000000000000602082015250565b6000615b756028836141b8565b9150615b8082615b19565b604082019050919050565b60006020820190508181036000830152615ba481615b68565b9050919050565b6000615bb682614276565b9150615bc183614276565b925082821015615bd457615bd3615866565b5b828203905092915050565b7f4f6e6c79206d616e7566616374757265722063616e2061646420737465707300600082015250565b6000615c15601f836141b8565b9150615c2082615bdf565b602082019050919050565b60006020820190508181036000830152615c4481615c08565b9050919050565b60006060820190508181036000830152615c6581866141fc565b9050615c746020830185614280565b8181036040830152615c8681846141fc565b9050949350505050565b7f4f6e6c79206d616e7566616374757265722063616e206164642068617276657360008201527f7420646174610000000000000000000000000000000000000000000000000000602082015250565b6000615cec6026836141b8565b9150615cf782615c90565b604082019050919050565b60006020820190508181036000830152615d1b81615cdf565b9050919050565b7f50726f6475637420494420616c72656164792065786973747300000000000000600082015250565b6000615d586019836141b8565b9150615d6382615d22565b602082019050919050565b60006020820190508181036000830152615d8781615d4b565b9050919050565b60006060820190508181036000830152615da881866141fc565b90508181036020830152615dbc81856141fc565b9050615dcb6040830184614267565b949350505050565b7f4f6e6c792061737369676e656420636172726965722063616e2075706461746560008201527f206c6f636174696f6e0000000000000000000000000000000000000000000000602082015250565b6000615e2f6029836141b8565b9150615e3a82615dd3565b604082019050919050565b60006020820190508181036000830152615e5e81615e22565b9050919050565b60006060820190508181036000830152615e7f81866141fc565b9050615e8e602083018561433f565b615e9b604083018461433f565b949350505050565b7f4e487b7100000000000000000000000000000000000000000000000000000000600052601260045260246000fd5b6000615edd82614276565b9150615ee883614276565b925082615ef857615ef7615ea3565b5b828204905092915050565b6000615f0e82614276565b9150615f1983614276565b9250817fffffffffffffffffffffffffffffffffffffffffffffffffffffffffffffffff0483118215151615615f5257615f51615866565b5b828202905092915050565b600060ff82169050919050565b6000615f7582615f5d565b9150615f8083615f5d565b92508260ff03821115615f9657615f95615866565b5b82820190509291505056fea2646970667358221220d2194cc240f20f6225947797551c55da8af4aa8e1c64e385b95d7ba952e7382664736f6c63430008090033",
  "linkReferences": {},
  "deployedLinkReferences": {}
}