{"contracts/Upload.sol":{"ProductTracking":{"abi":[{"anonymous":false,"inputs":[{"indexed":false,"internalType":"string","name":"productId","type":"string"},{"indexed":false,"internalType":"string","name":"forestId","type":"string"},{"indexed":false,"internalType":"string","name":"woodType","type":"string"}],"name":"HarvestDataAdded","type":"event"},{"anonymous":false,"inputs":[{"indexed":false,"internalType":"string","name":"productId","type":"string"},{"indexed":false,"internalType":"uint256","name":"plannedStartDate","type":"uint256"}],"name":"ManufacturingRecordCreated","type":"event"},{"anonymous":false,"inputs":[{"indexed":false,"internalType":"string","name":"productId","type":"string"},{"indexed":false,"internalType":"uint256","name":"stepId","type":"uint256"},{"indexed":false,"internalType":"string","name":"name","type":"string"}],"name":"ManufacturingStepAdded","type":"event"},{"anonymous":false,"inputs":[{"indexed":false,"internalType":"string","name":"productId","type":"string"},{"indexed":false,"internalType":"string","name":"productType","type":"string"},{"indexed":false,"internalType":"address","name":"manufacturer","type":"address"}],"name":"ProductCreated","type":"event"},{"anonymous":false,"inputs":[{"indexed":false,"internalType":"string","name":"productId","type":"string"},{"indexed":false,"internalType":"string","name":"check","type":"string"}],"name":"QualityCheckAdded","type":"event"},{"anonymous":false,"inputs":[{"indexed":false,"internalType":"string","name":"shipmentId","type":"string"},{"indexed":false,"internalType":"string","name":"productId","type":"string"}],"name":"ShipmentCreated","type":"event"},{"anonymous":false,"inputs":[{"indexed":false,"internalType":"string","name":"shipmentId","type":"string"},{"indexed":false,"internalType":"int256","name":"latitude","type":"int256"},{"indexed":false,"internalType":"int256","name":"longitude","type":"int256"}],"name":"ShipmentLocationUpdated","type":"event"},{"anonymous":false,"inputs":[{"indexed":false,"internalType":"string","name":"shipmentId","type":"string"},{"indexed":false,"internalType":"string","name":"origin","type":"string"},{"indexed":false,"internalType":"string","name":"destination","type":"string"}],"name":"ShipmentRoutePointAdded","type":"event"},{"inputs":[{"internalType":"string","name":"_productId","type":"string"},{"internalType":"string","name":"_forestId","type":"string"},{"internalType":"string","name":"_woodType","type":"string"},{"internalType":"int256","name":"_latitude","type":"int256"},{"internalType":"int256","name":"_longitude","type":"int256"},{"internalType":"string","name":"_certificationId","type":"string"}],"name":"addHarvestData","outputs":[],"stateMutability":"nonpayable","type":"function"},{"inputs":[{"internalType":"string","name":"_productId","type":"string"},{"internalType":"string","name":"_name","type":"string"},{"internalType":"string","name":"_estimatedDuration","type":"string"},{"internalType":"string[]","name":"_toolsRequired","type":"string[]"}],"name":"addManufacturingStep","outputs":[],"stateMutability":"nonpayable","type":"function"},{"inputs":[{"internalType":"string","name":"_productId","type":"string"},{"internalType":"string","name":"_check","type":"string"}],"name":"addQualityCheck","outputs":[],"stateMutability":"nonpayable","type":"function"},{"inputs":[{"internalType":"string","name":"_productId","type":"string"},{"internalType":"string","name":"_shipmentId","type":"string"},{"internalType":"string","name":"_origin","type":"string"},{"internalType":"string","name":"_destination","type":"string"}],"name":"addRoutePoint","outputs":[],"stateMutability":"nonpayable","type":"function"},{"inputs":[{"internalType":"string","name":"_productId","type":"string"},{"internalType":"uint256","name":"_plannedStartDate","type":"uint256"},{"internalType":"string","name":"_estimatedDuration","type":"string"},{"internalType":"string","name":"_estimatedEnergyUsage","type":"string"},{"internalType":"string","name":"_estimatedWaterUsage","type":"string"},{"internalType":"string","name":"_estimatedWaste","type":"string"}],"name":"createManufacturingRecord","outputs":[],"stateMutability":"nonpayable","type":"function"},{"inputs":[{"internalType":"string","name":"_materialId","type":"string"},{"internalType":"string","name":"_facilityId","type":"string"},{"internalType":"string","name":"_productType","type":"string"}],"name":"createProduct","outputs":[{"internalType":"string","name":"","type":"string"}],"stateMutability":"nonpayable","type":"function"},{"inputs":[{"internalType":"string","name":"_productId","type":"string"},{"internalType":"uint256","name":"_fuelConsumption","type":"uint256"},{"internalType":"uint256","name":"_distance","type":"uint256"}],"name":"createShipment","outputs":[{"internalType":"string","name":"","type":"string"}],"stateMutability":"nonpayable","type":"function"},{"inputs":[{"internalType":"string","name":"_productId","type":"string"}],"name":"getManufacturingSteps","outputs":[{"components":[{"internalType":"uint256","name":"stepId","type":"uint256"},{"internalType":"string","name":"name","type":"string"},{"internalType":"string","name":"estimatedDuration","type":"string"}],"internalType":"struct ProductTracking.ManufacturingStep[]","name":"steps","type":"tuple[]"},{"internalType":"string[][]","name":"tools","type":"string[][]"}],"stateMutability":"view","type":"function"},{"inputs":[{"internalType":"string","name":"_productId","type":"string"}],"name":"getProductDetails","outputs":[{"components":[{"internalType":"string","name":"productId","type":"string"},{"internalType":"string","name":"materialId","type":"string"},{"internalType":"string","name":"facilityId","type":"string"},{"internalType":"string","name":"productType","type":"string"},{"internalType":"address","name":"manufacturer","type":"address"},{"internalType":"uint256","name":"manufacturingTimestamp","type":"uint256"},{"internalType":"bool","name":"isActive","type":"bool"}],"internalType":"struct ProductTracking.Product","name":"product","type":"tuple"},{"components":[{"internalType":"string","name":"forestId","type":"string"},{"internalType":"string","name":"woodType","type":"string"},{"internalType":"int256","name":"latitude","type":"int256"},{"internalType":"int256","name":"longitude","type":"int256"},{"internalType":"string","name":"certificationId","type":"string"}],"internalType":"struct ProductTracking.HarvestData","name":"harvestData","type":"tuple"},{"components":[{"internalType":"string","name":"productId","type":"string"},{"internalType":"uint256","name":"plannedStartDate","type":"uint256"},{"internalType":"string","name":"estimatedDuration","type":"string"},{"internalType":"uint256","name":"stepCount","type":"uint256"},{"components":[{"internalType":"string","name":"estimatedEnergyUsage","type":"string"},{"internalType":"string","name":"estimatedWaterUsage","type":"string"},{"internalType":"string","name":"estimatedWaste","type":"string"}],"internalType":"struct ProductTracking.EnvironmentalMetrics","name":"environmentalMetrics","type":"tuple"},{"internalType":"uint256","name":"timestamp","type":"uint256"}],"internalType":"struct ProductTracking.ManufacturingRecord","name":"manufacturingRecord","type":"tuple"}],"stateMutability":"view","type":"function"},{"inputs":[{"internalType":"string","name":"_productId","type":"string"},{"internalType":"string","name":"_shipmentId","type":"string"}],"name":"getShipmentDetails","outputs":[{"components":[{"internalType":"string","name":"shipmentId","type":"string"},{"internalType":"string","name":"productId","type":"string"},{"internalType":"string","name":"status","type":"string"},{"internalType":"uint256","name":"routePointsCount","type":"uint256"},{"components":[{"internalType":"uint256","name":"fuelConsumption","type":"uint256"},{"internalType":"uint256","name":"distance","type":"uint256"}],"internalType":"struct ProductTracking.ShipmentMetrics","name":"metrics","type":"tuple"},{"internalType":"uint256","name":"timestamp","type":"uint256"},{"internalType":"address","name":"carrier","type":"address"}],"internalType":"struct ProductTracking.Shipment","name":"shipment","type":"tuple"},{"components":[{"internalType":"string","name":"origin","type":"string"},{"internalType":"string","name":"destination","type":"string"}],"internalType":"struct ProductTracking.RoutePoint[]","name":"routePoints","type":"tuple[]"},{"components":[{"internalType":"uint256","name":"timestamp","type":"uint256"},{"internalType":"int256","name":"latitude","type":"int256"},{"internalType":"int256","name":"longitude","type":"int256"}],"internalType":"struct ProductTracking.LocationUpdate[]","name":"locationUpdates","type":"tuple[]"}],"stateMutability":"view","type":"function"},{"inputs":[{"internalType":"string","name":"","type":"string"}],"name":"manufacturingRecords","outputs":[{"internalType":"string","name":"productId","type":"string"},{"internalType":"uint256","name":"plannedStartDate","type":"uint256"},{"internalType":"string","name":"estimatedDuration","type":"string"},{"internalType":"uint256","name":"stepCount","type":"uint256"},{"components":[{"internalType":"string","name":"estimatedEnergyUsage","type":"string"},{"internalType":"string","name":"estimatedWaterUsage","type":"string"},{"internalType":"string","name":"estimatedWaste","type":"string"}],"internalType":"struct ProductTracking.EnvironmentalMetrics","name":"environmentalMetrics","type":"tuple"},{"internalType":"uint256","name":"timestamp","type":"uint256"}],"stateMutability":"view","type":"function"},{"inputs":[{"internalType":"string","name":"","type":"string"},{"internalType":"uint256","name":"","type":"uint256"}],"name":"manufacturingSteps","outputs":[{"internalType":"uint256","name":"stepId","type":"uint256"},{"internalType":"string","name":"name","type":"string"},{"internalType":"string","name":"estimatedDuration","type":"string"}],"stateMutability":"view","type":"function"},{"inputs":[{"internalType":"string","name":"","type":"string"},{"internalType":"uint256","name":"","type":"uint256"},{"internalType":"uint256","name":"","type":"uint256"}],"name":"manufacturingToolsRequired","outputs":[{"internalType":"string","name":"","type":"string"}],"stateMutability":"view","type":"function"},{"inputs":[{"internalType":"string","name":"","type":"string"}],"name":"productHarvestData","outputs":[{"internalType":"string","name":"forestId","type":"string"},{"internalType":"string","name":"woodType","type":"string"},{"internalType":"int256","name":"latitude","type":"int256"},{"internalType":"int256","name":"longitude","type":"int256"},{"internalType":"string","name":"certificationId","type":"string"}],"stateMutability":"view","type":"function"},{"inputs":[{"internalType":"string","name":"","type":"string"},{"internalType":"uint256","name":"","type":"uint256"}],"name":"productShipments","outputs":[{"internalType":"string","name":"shipmentId","type":"string"},{"internalType":"string","name":"productId","type":"string"},{"internalType":"string","name":"status","type":"string"},{"internalType":"uint256","name":"routePointsCount","type":"uint256"},{"components":[{"internalType":"uint256","name":"fuelConsumption","type":"uint256"},{"internalType":"uint256","name":"distance","type":"uint256"}],"internalType":"struct ProductTracking.ShipmentMetrics","name":"metrics","type":"tuple"},{"internalType":"uint256","name":"timestamp","type":"uint256"},{"internalType":"address","name":"carrier","type":"address"}],"stateMutability":"view","type":"function"},{"inputs":[{"internalType":"string","name":"","type":"string"}],"name":"products","outputs":[{"internalType":"string","name":"productId","type":"string"},{"internalType":"string","name":"materialId","type":"string"},{"internalType":"string","name":"facilityId","type":"string"},{"internalType":"string","name":"productType","type":"string"},{"internalType":"address","name":"manufacturer","type":"address"},{"internalType":"uint256","name":"manufacturingTimestamp","type":"uint256"},{"internalType":"bool","name":"isActive","type":"bool"}],"stateMutability":"view","type":"function"},{"inputs":[{"internalType":"string","name":"","type":"string"},{"internalType":"uint256","name":"","type":"uint256"}],"name":"qualityChecks","outputs":[{"internalType":"string","name":"","type":"string"}],"stateMutability":"view","type":"function"},{"inputs":[{"internalType":"string","name":"","type":"string"},{"internalType":"string","name":"","type":"string"},{"internalType":"uint256","name":"","type":"uint256"}],"name":"shipmentLocationUpdates","outputs":[{"internalType":"uint256","name":"timestamp","type":"uint256"},{"internalType":"int256","name":"latitude","type":"int256"},{"internalType":"int256","name":"longitude","type":"int256"}],"stateMutability":"view","type":"function"},{"inputs":[{"internalType":"string","name":"","type":"string"},{"internalType":"string","name":"","type":"string"},{"internalType":"uint256","name":"","type":"uint256"}],"name":"shipmentRoutePoints","outputs":[{"internalType":"string","name":"origin","type":"string"},{"internalType":"string","name":"destination","type":"string"}],"stateMutability":"view","type":"function"},{"inputs":[{"internalType":"string","name":"_productId","type":"string"},{"internalType":"string","name":"_shipmentId","type":"string"},{"internalType":"string","name":"_newStatus","type":"string"},{"internalType":"int256","name":"_latitude","type":"int256"},{"internalType":"int256","name":"_longitude","type":"int256"}],"name":"updateShipmentLocation","outputs":[],"stateMutability":"nonpayable","type":"function"}],"evm":{"bytecode":{"linkReferences":{},"object":"608060405260006009556000600a5534801561001a57600080fd5b50615fd7806200002b6000396000f3fe608060405234801561001057600080fd5b506004361061012c5760003560e01c8063a7a9a865116100ad578063d768468b11610071578063d768468b146103b2578063dac3f98e146103e2578063e050227414610418578063f8c041211461044a578063fd241168146104665761012c565b8063a7a9a865146102fd578063b227c01514610319578063b4a78d6d1461034a578063bc0f4c6e1461037a578063d471b460146103965761012c565b806328216a5f116100f457806328216a5f1461022f57806328a2cf381461026457806328bd56171461029457806338fcf662146102c557806351a5f4b2146102e15761012c565b80630186a423146101315780630297ba04146101675780630652bd261461019b57806308c69414146101cb578063198c59b0146101fd575b600080fd5b61014b60048036038101906101469190614164565b610498565b60405161015e97969594939291906142aa565b60405180910390f35b610181600480360381019061017c9190614164565b61073d565b60405161019295949392919061434e565b60405180910390f35b6101b560048036038101906101b091906143e2565b610921565b6040516101c29190614451565b60405180910390f35b6101e560048036038101906101e09190614473565b610bb5565b6040516101f4939291906144cf565b60405180910390f35b61021760048036038101906102129190614164565b610d12565b604051610226939291906147c4565b60405180910390f35b61024960048036038101906102449190614164565b6115c2565b60405161025b9695949392919061486e565b60405180910390f35b61027e60048036038101906102799190614473565b6118e4565b60405161028b9190614451565b60405180910390f35b6102ae60048036038101906102a991906148e4565b6119b3565b6040516102bc92919061496f565b60405180910390f35b6102df60048036038101906102da91906149a6565b611b2d565b005b6102fb60048036038101906102f69190614abf565b611db4565b005b61031760048036038101906103129190614b96565b61216c565b005b610333600480360381019061032e9190614164565b61231e565b604051610341929190614eab565b60405180910390f35b610364600480360381019061035f91906143e2565b6126d0565b6040516103719190614451565b60405180910390f35b610394600480360381019061038f9190614fc8565b6127ac565b005b6103b060048036038101906103ab91906150cb565b612a2c565b005b6103cc60048036038101906103c791906151c8565b612c3f565b6040516103d99190614451565b60405180910390f35b6103fc60048036038101906103f79190614473565b612e6f565b60405161040f979695949392919061529e565b60405180910390f35b610432600480360381019061042d91906148e4565b6130ba565b60405161044193929190615323565b60405180910390f35b610464600480360381019061045f919061535a565b61313a565b005b610480600480360381019061047b9190614b96565b6134c5565b60405161048f939291906156fa565b60405180910390f35b6000818051602081018201805184825260208301602085012081835280955050505050506000915090508060000180546104d190615775565b80601f01602080910402602001604051908101604052809291908181526020018280546104fd90615775565b801561054a5780601f1061051f5761010080835404028352916020019161054a565b820191906000526020600020905b81548152906001019060200180831161052d57829003601f168201915b50505050509080600101805461055f90615775565b80601f016020809104026020016040519081016040528092919081815260200182805461058b90615775565b80156105d85780601f106105ad576101008083540402835291602001916105d8565b820191906000526020600020905b8154815290600101906020018083116105bb57829003601f168201915b5050505050908060020180546105ed90615775565b80601f016020809104026020016040519081016040528092919081815260200182805461061990615775565b80156106665780601f1061063b57610100808354040283529160200191610666565b820191906000526020600020905b81548152906001019060200180831161064957829003601f168201915b50505050509080600301805461067b90615775565b80601f01602080910402602001604051908101604052809291908181526020018280546106a790615775565b80156106f45780601f106106c9576101008083540402835291602001916106f4565b820191906000526020600020905b8154815290600101906020018083116106d757829003601f168201915b5050505050908060040160009054906101000a900473ffffffffffffffffffffffffffffffffffffffff16908060050154908060060160009054906101000a900460ff16905087565b60018180516020810182018051848252602083016020850120818352809550505050505060009150905080600001805461077690615775565b80601f01602080910402602001604051908101604052809291908181526020018280546107a290615775565b80156107ef5780601f106107c4576101008083540402835291602001916107ef565b820191906000526020600020905b8154815290600101906020018083116107d257829003601f168201915b50505050509080600101805461080490615775565b80601f016020809104026020016040519081016040528092919081815260200182805461083090615775565b801561087d5780601f106108525761010080835404028352916020019161087d565b820191906000526020600020905b81548152906001019060200180831161086057829003601f168201915b50505050509080600201549080600301549080600401805461089e90615775565b80601f01602080910402602001604051908101604052809291908181526020018280546108ca90615775565b80156109175780601f106108ec57610100808354040283529160200191610917565b820191906000526020600020905b8154815290600101906020018083116108fa57829003601f168201915b5050505050905085565b606060008460405161093391906157e3565b908152602001604051809103902060060160009054906101000a900460ff16610991576040517f08c379a000000000000000000000000000000000000000000000000000000000815260040161098890615846565b60405180910390fd5b600a60008154809291906109a490615895565b919050555060006109b6600a54613b6d565b90506000604051806040016040528086815260200185815250905060006040518060e001604052808481526020018881526020016040518060400160405280600981526020017f494e4954494154454400000000000000000000000000000000000000000000008152508152602001600081526020018381526020014281526020013373ffffffffffffffffffffffffffffffffffffffff168152509050600687604051610a6491906157e3565b90815260200160405180910390208190806001815401808255809150506001900390600052602060002090600802016000909190919091506000820151816000019080519060200190610ab8929190613d14565b506020820151816001019080519060200190610ad5929190613d14565b506040820151816002019080519060200190610af2929190613d14565b50606082015181600301556080820151816004016000820151816000015560208201518160010155505060a0820151816006015560c08201518160070160006101000a81548173ffffffffffffffffffffffffffffffffffffffff021916908373ffffffffffffffffffffffffffffffffffffffff16021790555050507f8e9787190c8ebd55b5deef01b678d15ec9fb6d20e79555290004a4e8cf3a93088388604051610ba092919061496f565b60405180910390a18293505050509392505050565b60038280516020810182018051848252602083016020850120818352809550505050505060205280600052604060002060009150915050806000015490806001018054610c0190615775565b80601f0160208091040260200160405190810160405280929190818152602001828054610c2d90615775565b8015610c7a5780601f10610c4f57610100808354040283529160200191610c7a565b820191906000526020600020905b815481529060010190602001808311610c5d57829003601f168201915b505050505090806002018054610c8f90615775565b80601f0160208091040260200160405190810160405280929190818152602001828054610cbb90615775565b8015610d085780601f10610cdd57610100808354040283529160200191610d08565b820191906000526020600020905b815481529060010190602001808311610ceb57829003601f168201915b5050505050905083565b610d1a613d9a565b610d22613def565b610d2a613e1e565b600084604051610d3a91906157e3565b908152602001604051809103902060060160009054906101000a900460ff16610d98576040517f08c379a0000000000000000000000000000000000000000000000000000000008152600401610d8f90615846565b60405180910390fd5b600084604051610da891906157e3565b9081526020016040518091039020600185604051610dc691906157e3565b9081526020016040518091039020600286604051610de491906157e3565b9081526020016040518091039020826040518060e0016040529081600082018054610e0e90615775565b80601f0160208091040260200160405190810160405280929190818152602001828054610e3a90615775565b8015610e875780601f10610e5c57610100808354040283529160200191610e87565b820191906000526020600020905b815481529060010190602001808311610e6a57829003601f168201915b50505050508152602001600182018054610ea090615775565b80601f0160208091040260200160405190810160405280929190818152602001828054610ecc90615775565b8015610f195780601f10610eee57610100808354040283529160200191610f19565b820191906000526020600020905b815481529060010190602001808311610efc57829003601f168201915b50505050508152602001600282018054610f3290615775565b80601f0160208091040260200160405190810160405280929190818152602001828054610f5e90615775565b8015610fab5780601f10610f8057610100808354040283529160200191610fab565b820191906000526020600020905b815481529060010190602001808311610f8e57829003601f168201915b50505050508152602001600382018054610fc490615775565b80601f0160208091040260200160405190810160405280929190818152602001828054610ff090615775565b801561103d5780601f106110125761010080835404028352916020019161103d565b820191906000526020600020905b81548152906001019060200180831161102057829003601f168201915b505050505081526020016004820160009054906101000a900473ffffffffffffffffffffffffffffffffffffffff1673ffffffffffffffffffffffffffffffffffffffff1673ffffffffffffffffffffffffffffffffffffffff168152602001600582015481526020016006820160009054906101000a900460ff1615151515815250509250816040518060a00160405290816000820180546110df90615775565b80601f016020809104026020016040519081016040528092919081815260200182805461110b90615775565b80156111585780601f1061112d57610100808354040283529160200191611158565b820191906000526020600020905b81548152906001019060200180831161113b57829003601f168201915b5050505050815260200160018201805461117190615775565b80601f016020809104026020016040519081016040528092919081815260200182805461119d90615775565b80156111ea5780601f106111bf576101008083540402835291602001916111ea565b820191906000526020600020905b8154815290600101906020018083116111cd57829003601f168201915b50505050508152602001600282015481526020016003820154815260200160048201805461121790615775565b80601f016020809104026020016040519081016040528092919081815260200182805461124390615775565b80156112905780601f1061126557610100808354040283529160200191611290565b820191906000526020600020905b81548152906001019060200180831161127357829003601f168201915b5050505050815250509150806040518060c00160405290816000820180546112b790615775565b80601f01602080910402602001604051908101604052809291908181526020018280546112e390615775565b80156113305780601f1061130557610100808354040283529160200191611330565b820191906000526020600020905b81548152906001019060200180831161131357829003601f168201915b505050505081526020016001820154815260200160028201805461135390615775565b80601f016020809104026020016040519081016040528092919081815260200182805461137f90615775565b80156113cc5780601f106113a1576101008083540402835291602001916113cc565b820191906000526020600020905b8154815290600101906020018083116113af57829003601f168201915b5050505050815260200160038201548152602001600482016040518060600160405290816000820180546113ff90615775565b80601f016020809104026020016040519081016040528092919081815260200182805461142b90615775565b80156114785780601f1061144d57610100808354040283529160200191611478565b820191906000526020600020905b81548152906001019060200180831161145b57829003601f168201915b5050505050815260200160018201805461149190615775565b80601f01602080910402602001604051908101604052809291908181526020018280546114bd90615775565b801561150a5780601f106114df5761010080835404028352916020019161150a565b820191906000526020600020905b8154815290600101906020018083116114ed57829003601f168201915b5050505050815260200160028201805461152390615775565b80601f016020809104026020016040519081016040528092919081815260200182805461154f90615775565b801561159c5780601f106115715761010080835404028352916020019161159c565b820191906000526020600020905b81548152906001019060200180831161157f57829003601f168201915b505050505081525050815260200160078201548152505090509250925092509193909250565b6002818051602081018201805184825260208301602085012081835280955050505050506000915090508060000180546115fb90615775565b80601f016020809104026020016040519081016040528092919081815260200182805461162790615775565b80156116745780601f1061164957610100808354040283529160200191611674565b820191906000526020600020905b81548152906001019060200180831161165757829003601f168201915b50505050509080600101549080600201805461168f90615775565b80601f01602080910402602001604051908101604052809291908181526020018280546116bb90615775565b80156117085780601f106116dd57610100808354040283529160200191611708565b820191906000526020600020905b8154815290600101906020018083116116eb57829003601f168201915b5050505050908060030154908060040160405180606001604052908160008201805461173390615775565b80601f016020809104026020016040519081016040528092919081815260200182805461175f90615775565b80156117ac5780601f10611781576101008083540402835291602001916117ac565b820191906000526020600020905b81548152906001019060200180831161178f57829003601f168201915b505050505081526020016001820180546117c590615775565b80601f01602080910402602001604051908101604052809291908181526020018280546117f190615775565b801561183e5780601f106118135761010080835404028352916020019161183e565b820191906000526020600020905b81548152906001019060200180831161182157829003601f168201915b5050505050815260200160028201805461185790615775565b80601f016020809104026020016040519081016040528092919081815260200182805461188390615775565b80156118d05780601f106118a5576101008083540402835291602001916118d0565b820191906000526020600020905b8154815290600101906020018083116118b357829003601f168201915b505050505081525050908060070154905086565b600582805160208101820180518482526020830160208501208183528095505050505050818154811061191657600080fd5b9060005260206000200160009150915050805461193290615775565b80601f016020809104026020016040519081016040528092919081815260200182805461195e90615775565b80156119ab5780601f10611980576101008083540402835291602001916119ab565b820191906000526020600020905b81548152906001019060200180831161198e57829003601f168201915b505050505081565b600783805160208101820180518482526020830160208501208183528095505050505050828051602081018201805184825260208301602085012081835280955050505050506020528060005260406000206000925092505050806000018054611a1c90615775565b80601f0160208091040260200160405190810160405280929190818152602001828054611a4890615775565b8015611a955780601f10611a6a57610100808354040283529160200191611a95565b820191906000526020600020905b815481529060010190602001808311611a7857829003601f168201915b505050505090806001018054611aaa90615775565b80601f0160208091040260200160405190810160405280929190818152602001828054611ad690615775565b8015611b235780601f10611af857610100808354040283529160200191611b23565b820191906000526020600020905b815481529060010190602001808311611b0657829003601f168201915b5050505050905082565b600086604051611b3d91906157e3565b908152602001604051809103902060060160009054906101000a900460ff16611b9b576040517f08c379a0000000000000000000000000000000000000000000000000000000008152600401611b9290615846565b60405180910390fd5b3373ffffffffffffffffffffffffffffffffffffffff16600087604051611bc291906157e3565b908152602001604051809103902060040160009054906101000a900473ffffffffffffffffffffffffffffffffffffffff1673ffffffffffffffffffffffffffffffffffffffff1614611c4a576040517f08c379a0000000000000000000000000000000000000000000000000000000008152600401611c4190615950565b60405180910390fd5b600060405180606001604052808581526020018481526020018381525090506040518060c001604052808881526020018781526020018681526020016000815260200182815260200142815250600288604051611ca791906157e3565b90815260200160405180910390206000820151816000019080519060200190611cd1929190613d14565b50602082015181600101556040820151816002019080519060200190611cf8929190613d14565b50606082015181600301556080820151816004016000820151816000019080519060200190611d28929190613d14565b506020820151816001019080519060200190611d45929190613d14565b506040820151816002019080519060200190611d62929190613d14565b50505060a082015181600701559050507f968e07b7782097ce5138e06e36a63a1226dc1f8d3b782fe1f0a64c87a03385e78787604051611da3929190615970565b60405180910390a150505050505050565b600084604051611dc491906157e3565b908152602001604051809103902060060160009054906101000a900460ff16611e22576040517f08c379a0000000000000000000000000000000000000000000000000000000008152600401611e1990615846565b60405180910390fd5b6000600685604051611e3491906157e3565b908152602001604051809103902090506000806000905060005b8380549050811015611fe657611f10848281548110611e7057611e6f6159a0565b5b90600052602060002090600802016000018054611e8c90615775565b80601f0160208091040260200160405190810160405280929190818152602001828054611eb890615775565b8015611f055780601f10611eda57610100808354040283529160200191611f05565b820191906000526020600020905b815481529060010190602001808311611ee857829003601f168201915b505050505088613cf9565b15611fd3573373ffffffffffffffffffffffffffffffffffffffff16848281548110611f3f57611f3e6159a0565b5b906000526020600020906008020160070160009054906101000a900473ffffffffffffffffffffffffffffffffffffffff1673ffffffffffffffffffffffffffffffffffffffff1614611fc7576040517f08c379a0000000000000000000000000000000000000000000000000000000008152600401611fbe90615a41565b60405180910390fd5b80925060019150611fe6565b8080611fde90615895565b915050611e4e565b5080612027576040517f08c379a000000000000000000000000000000000000000000000000000000000815260040161201e90615aad565b60405180910390fd5b82828154811061203a576120396159a0565b5b9060005260206000209060080201600301600081548092919061205c90615895565b91905055506000838381548110612076576120756159a0565b5b90600052602060002090600802016003015490506040518060400160405280878152602001868152506007896040516120af91906157e3565b9081526020016040518091039020886040516120cb91906157e3565b908152602001604051809103902060008381526020019081526020016000206000820151816000019080519060200190612106929190613d14565b506020820151816001019080519060200190612123929190613d14565b509050507ff03570bebdcb6a10fb55d959053c187a085ff4aa8afbe3b793a3eb225014be3987878760405161215a93929190615acd565b60405180910390a15050505050505050565b60008260405161217c91906157e3565b908152602001604051809103902060060160009054906101000a900460ff166121da576040517f08c379a00000000000000000000000000000000000000000000000000000000081526004016121d190615846565b60405180910390fd5b3373ffffffffffffffffffffffffffffffffffffffff1660008360405161220191906157e3565b908152602001604051809103902060040160009054906101000a900473ffffffffffffffffffffffffffffffffffffffff1673ffffffffffffffffffffffffffffffffffffffff1614612289576040517f08c379a000000000000000000000000000000000000000000000000000000000815260040161228090615b8b565b60405180910390fd5b60058260405161229991906157e3565b9081526020016040518091039020819080600181540180825580915050600190039060005260206000200160009091909190915090805190602001906122e0929190613d14565b507f3295e870dc2b7f3995cb85c0f3c917c1c64252fa98feea8e078d6a267081057f828260405161231292919061496f565b60405180910390a15050565b606080600060028460405161233391906157e3565b90815260200160405180910390206003015490508067ffffffffffffffff81111561236157612360614039565b5b60405190808252806020026020018201604052801561239a57816020015b612387613e5a565b81526020019060019003908161237f5790505b5092508067ffffffffffffffff8111156123b7576123b6614039565b5b6040519080825280602002602001820160405280156123ea57816020015b60608152602001906001900390816123d55790505b5091506000600190505b8181116126c95760038560405161240b91906157e3565b908152602001604051809103902060008281526020019081526020016000206040518060600160405290816000820154815260200160018201805461244f90615775565b80601f016020809104026020016040519081016040528092919081815260200182805461247b90615775565b80156124c85780601f1061249d576101008083540402835291602001916124c8565b820191906000526020600020905b8154815290600101906020018083116124ab57829003601f168201915b505050505081526020016002820180546124e190615775565b80601f016020809104026020016040519081016040528092919081815260200182805461250d90615775565b801561255a5780601f1061252f5761010080835404028352916020019161255a565b820191906000526020600020905b81548152906001019060200180831161253d57829003601f168201915b505050505081525050846001836125719190615bab565b81518110612582576125816159a0565b5b602002602001018190525060048560405161259d91906157e3565b90815260200160405180910390206000828152602001908152602001600020805480602002602001604051908101604052809291908181526020016000905b828210156126885783829060005260206000200180546125fb90615775565b80601f016020809104026020016040519081016040528092919081815260200182805461262790615775565b80156126745780601f1061264957610100808354040283529160200191612674565b820191906000526020600020905b81548152906001019060200180831161265757829003601f168201915b5050505050815260200190600101906125dc565b505050508360018361269a9190615bab565b815181106126ab576126aa6159a0565b5b602002602001018190525080806126c190615895565b9150506123f4565b5050915091565b600483805160208101820180518482526020830160208501208183528095505050505050602052816000526040600020818154811061270e57600080fd5b906000526020600020016000925092505050805461272b90615775565b80601f016020809104026020016040519081016040528092919081815260200182805461275790615775565b80156127a45780601f10612779576101008083540402835291602001916127a4565b820191906000526020600020905b81548152906001019060200180831161278757829003601f168201915b505050505081565b6000846040516127bc91906157e3565b908152602001604051809103902060060160009054906101000a900460ff1661281a576040517f08c379a000000000000000000000000000000000000000000000000000000000815260040161281190615846565b60405180910390fd5b3373ffffffffffffffffffffffffffffffffffffffff1660008560405161284191906157e3565b908152602001604051809103902060040160009054906101000a900473ffffffffffffffffffffffffffffffffffffffff1673ffffffffffffffffffffffffffffffffffffffff16146128c9576040517f08c379a00000000000000000000000000000000000000000000000000000000081526004016128c090615c2b565b60405180910390fd5b60006002856040516128db91906157e3565b9081526020016040518091039020905080600301600081548092919061290090615895565b91905055506040518060600160405280826003015481526020018581526020018481525060038660405161293491906157e3565b908152602001604051809103902060008360030154815260200190815260200160002060008201518160000155602082015181600101908051906020019061297d929190613d14565b50604082015181600201908051906020019061299a929190613d14565b50905050816004866040516129af91906157e3565b908152602001604051809103902060008360030154815260200190815260200160002090805190602001906129e5929190613e7b565b507f3dc066186762d16263387d6d76f22d24597ccefe766f6cc0787cfb2e99f7f00885826003015486604051612a1d93929190615c4b565b60405180910390a15050505050565b600086604051612a3c91906157e3565b908152602001604051809103902060060160009054906101000a900460ff16612a9a576040517f08c379a0000000000000000000000000000000000000000000000000000000008152600401612a9190615846565b60405180910390fd5b3373ffffffffffffffffffffffffffffffffffffffff16600087604051612ac191906157e3565b908152602001604051809103902060040160009054906101000a900473ffffffffffffffffffffffffffffffffffffffff1673ffffffffffffffffffffffffffffffffffffffff1614612b49576040517f08c379a0000000000000000000000000000000000000000000000000000000008152600401612b4090615d02565b60405180910390fd5b6040518060a0016040528086815260200185815260200184815260200183815260200182815250600187604051612b8091906157e3565b90815260200160405180910390206000820151816000019080519060200190612baa929190613d14565b506020820151816001019080519060200190612bc7929190613d14565b5060408201518160020155606082015181600301556080820151816004019080519060200190612bf8929190613d14565b509050507f7c2b356c02b41de3027868657476e5106d8df117e6913ff1d834140f551413c7868686604051612c2f93929190615acd565b60405180910390a1505050505050565b606060096000815480929190612c5490615895565b91905055506000612c66600954613b6d565b905060008082604051612c7991906157e3565b90815260200160405180910390206000018054612c9590615775565b905014612cd7576040517f08c379a0000000000000000000000000000000000000000000000000000000008152600401612cce90615d6e565b60405180910390fd5b6040518060e001604052808281526020018681526020018581526020018481526020013373ffffffffffffffffffffffffffffffffffffffff16815260200142815260200160011515815250600082604051612d3391906157e3565b90815260200160405180910390206000820151816000019080519060200190612d5d929190613d14565b506020820151816001019080519060200190612d7a929190613d14565b506040820151816002019080519060200190612d97929190613d14565b506060820151816003019080519060200190612db4929190613d14565b5060808201518160040160006101000a81548173ffffffffffffffffffffffffffffffffffffffff021916908373ffffffffffffffffffffffffffffffffffffffff16021790555060a0820151816005015560c08201518160060160006101000a81548160ff0219169083151502179055509050507f4478fdb5cca1a28d79052038c209db14519451af9c6bc6e753a2614e5ea43f1a818433604051612e5c93929190615d8e565b60405180910390a1809150509392505050565b6006828051602081018201805184825260208301602085012081835280955050505050508181548110612ea157600080fd5b906000526020600020906008020160009150915050806000018054612ec590615775565b80601f0160208091040260200160405190810160405280929190818152602001828054612ef190615775565b8015612f3e5780601f10612f1357610100808354040283529160200191612f3e565b820191906000526020600020905b815481529060010190602001808311612f2157829003601f168201915b505050505090806001018054612f5390615775565b80601f0160208091040260200160405190810160405280929190818152602001828054612f7f90615775565b8015612fcc5780601f10612fa157610100808354040283529160200191612fcc565b820191906000526020600020905b815481529060010190602001808311612faf57829003601f168201915b505050505090806002018054612fe190615775565b80601f016020809104026020016040519081016040528092919081815260200182805461300d90615775565b801561305a5780601f1061302f5761010080835404028352916020019161305a565b820191906000526020600020905b81548152906001019060200180831161303d57829003601f168201915b5050505050908060030154908060040160405180604001604052908160008201548152602001600182015481525050908060060154908060070160009054906101000a900473ffffffffffffffffffffffffffffffffffffffff16905087565b60088380516020810182018051848252602083016020850120818352809550505050505082805160208101820180518482526020830160208501208183528095505050505050818154811061310e57600080fd5b906000526020600020906003020160009250925050508060000154908060010154908060020154905083565b60008560405161314a91906157e3565b908152602001604051809103902060060160009054906101000a900460ff166131a8576040517f08c379a000000000000000000000000000000000000000000000000000000000815260040161319f90615846565b60405180910390fd5b60006006866040516131ba91906157e3565b908152602001604051809103902090506000805b828054905081101561339c576132908382815481106131f0576131ef6159a0565b5b9060005260206000209060080201600001805461320c90615775565b80601f016020809104026020016040519081016040528092919081815260200182805461323890615775565b80156132855780601f1061325a57610100808354040283529160200191613285565b820191906000526020600020905b81548152906001019060200180831161326857829003601f168201915b505050505088613cf9565b15613389573373ffffffffffffffffffffffffffffffffffffffff168382815481106132bf576132be6159a0565b5b906000526020600020906008020160070160009054906101000a900473ffffffffffffffffffffffffffffffffffffffff1673ffffffffffffffffffffffffffffffffffffffff1614613347576040517f08c379a000000000000000000000000000000000000000000000000000000000815260040161333e90615e45565b60405180910390fd5b8583828154811061335b5761335a6159a0565b5b9060005260206000209060080201600201908051906020019061337f929190613d14565b506001915061339c565b808061339490615895565b9150506131ce565b50806133dd576040517f08c379a00000000000000000000000000000000000000000000000000000000081526004016133d490615aad565b60405180910390fd5b6000604051806060016040528042815260200186815260200185815250905060088860405161340c91906157e3565b90815260200160405180910390208760405161342891906157e3565b908152602001604051809103902081908060018154018082558091505060019003906000526020600020906003020160009091909190915060008201518160000155602082015181600101556040820151816002015550507f8d37ddeed0eb7ba08e329cbed9cb8b7b53a955f7f85b58d10defd20d248cd49e8786866040516134b393929190615e65565b60405180910390a15050505050505050565b6134cd613edb565b60608060006006866040516134e291906157e3565b908152602001604051809103902090506000805b828054905081101561384f576135b8838281548110613518576135176159a0565b5b9060005260206000209060080201600001805461353490615775565b80601f016020809104026020016040519081016040528092919081815260200182805461356090615775565b80156135ad5780601f10613582576101008083540402835291602001916135ad565b820191906000526020600020905b81548152906001019060200180831161359057829003601f168201915b505050505088613cf9565b1561383c578281815481106135d0576135cf6159a0565b5b90600052602060002090600802016040518060e00160405290816000820180546135f990615775565b80601f016020809104026020016040519081016040528092919081815260200182805461362590615775565b80156136725780601f1061364757610100808354040283529160200191613672565b820191906000526020600020905b81548152906001019060200180831161365557829003601f168201915b5050505050815260200160018201805461368b90615775565b80601f01602080910402602001604051908101604052809291908181526020018280546136b790615775565b80156137045780601f106136d957610100808354040283529160200191613704565b820191906000526020600020905b8154815290600101906020018083116136e757829003601f168201915b5050505050815260200160028201805461371d90615775565b80601f016020809104026020016040519081016040528092919081815260200182805461374990615775565b80156137965780601f1061376b57610100808354040283529160200191613796565b820191906000526020600020905b81548152906001019060200180831161377957829003601f168201915b505050505081526020016003820154815260200160048201604051806040016040529081600082015481526020016001820154815250508152602001600682015481526020016007820160009054906101000a900473ffffffffffffffffffffffffffffffffffffffff1673ffffffffffffffffffffffffffffffffffffffff1673ffffffffffffffffffffffffffffffffffffffff168152505095506001915061384f565b808061384790615895565b9150506134f6565b5080613890576040517f08c379a000000000000000000000000000000000000000000000000000000000815260040161388790615aad565b60405180910390fd5b846060015167ffffffffffffffff8111156138ae576138ad614039565b5b6040519080825280602002602001820160405280156138e757816020015b6138d4613f34565b8152602001906001900390816138cc5790505b5093506000600190505b85606001518111613ab35760078860405161390c91906157e3565b90815260200160405180910390208760405161392891906157e3565b9081526020016040518091039020600082815260200190815260200160002060405180604001604052908160008201805461396290615775565b80601f016020809104026020016040519081016040528092919081815260200182805461398e90615775565b80156139db5780601f106139b0576101008083540402835291602001916139db565b820191906000526020600020905b8154815290600101906020018083116139be57829003601f168201915b505050505081526020016001820180546139f490615775565b80601f0160208091040260200160405190810160405280929190818152602001828054613a2090615775565b8015613a6d5780601f10613a4257610100808354040283529160200191613a6d565b820191906000526020600020905b815481529060010190602001808311613a5057829003601f168201915b50505050508152505085600183613a849190615bab565b81518110613a9557613a946159a0565b5b60200260200101819052508080613aab90615895565b9150506138f1565b50600887604051613ac491906157e3565b908152602001604051809103902086604051613ae091906157e3565b9081526020016040518091039020805480602002602001604051908101604052809291908181526020016000905b82821015613b5e5783829060005260206000209060030201604051806060016040529081600082015481526020016001820154815260200160028201548152505081526020019060010190613b0e565b50505050925050509250925092565b60606000821415613bb5576040518060400160405280600181526020017f30000000000000000000000000000000000000000000000000000000000000008152509050613cf4565b600082905060005b60008214613be7578080613bd090615895565b915050600a82613be09190615ed2565b9150613bbd565b60008167ffffffffffffffff811115613c0357613c02614039565b5b6040519080825280601f01601f191660200182016040528015613c355781602001600182028036833780820191505090505b50905060008290508593505b60008414613cec57600181613c569190615bab565b90506000600a8086613c689190615ed2565b613c729190615f03565b85613c7d9190615bab565b6030613c899190615f6a565b905060008160f81b905080848481518110613ca757613ca66159a0565b5b60200101907effffffffffffffffffffffffffffffffffffffffffffffffffffffffffffff1916908160001a905350600a86613ce39190615ed2565b95505050613c41565b819450505050505b919050565b60008180519060200120838051906020012014905092915050565b828054613d2090615775565b90600052602060002090601f016020900481019282613d425760008555613d89565b82601f10613d5b57805160ff1916838001178555613d89565b82800160010185558215613d89579182015b82811115613d88578251825591602001919060010190613d6d565b5b509050613d969190613f4e565b5090565b6040518060e0016040528060608152602001606081526020016060815260200160608152602001600073ffffffffffffffffffffffffffffffffffffffff168152602001600081526020016000151581525090565b6040518060a0016040528060608152602001606081526020016000815260200160008152602001606081525090565b6040518060c0016040528060608152602001600081526020016060815260200160008152602001613e4d613f6b565b8152602001600081525090565b60405180606001604052806000815260200160608152602001606081525090565b828054828255906000526020600020908101928215613eca579160200282015b82811115613ec9578251829080519060200190613eb9929190613d14565b5091602001919060010190613e9b565b5b509050613ed79190613f8c565b5090565b6040518060e0016040528060608152602001606081526020016060815260200160008152602001613f0a613fb0565b815260200160008152602001600073ffffffffffffffffffffffffffffffffffffffff1681525090565b604051806040016040528060608152602001606081525090565b5b80821115613f67576000816000905550600101613f4f565b5090565b60405180606001604052806060815260200160608152602001606081525090565b5b80821115613fac5760008181613fa39190613fca565b50600101613f8d565b5090565b604051806040016040528060008152602001600081525090565b508054613fd690615775565b6000825580601f10613fe85750614007565b601f0160209004906000526020600020908101906140069190613f4e565b5b50565b6000604051905090565b600080fd5b600080fd5b600080fd5b600080fd5b6000601f19601f8301169050919050565b7f4e487b7100000000000000000000000000000000000000000000000000000000600052604160045260246000fd5b61407182614028565b810181811067ffffffffffffffff821117156140905761408f614039565b5b80604052505050565b60006140a361400a565b90506140af8282614068565b919050565b600067ffffffffffffffff8211156140cf576140ce614039565b5b6140d882614028565b9050602081019050919050565b82818337600083830152505050565b6000614107614102846140b4565b614099565b90508281526020810184848401111561412357614122614023565b5b61412e8482856140e5565b509392505050565b600082601f83011261414b5761414a61401e565b5b813561415b8482602086016140f4565b91505092915050565b60006020828403121561417a57614179614014565b5b600082013567ffffffffffffffff81111561419857614197614019565b5b6141a484828501614136565b91505092915050565b600081519050919050565b600082825260208201905092915050565b60005b838110156141e75780820151818401526020810190506141cc565b838111156141f6576000848401525b50505050565b6000614207826141ad565b61421181856141b8565b93506142218185602086016141c9565b61422a81614028565b840191505092915050565b600073ffffffffffffffffffffffffffffffffffffffff82169050919050565b600061426082614235565b9050919050565b61427081614255565b82525050565b6000819050919050565b61428981614276565b82525050565b60008115159050919050565b6142a48161428f565b82525050565b600060e08201905081810360008301526142c4818a6141fc565b905081810360208301526142d881896141fc565b905081810360408301526142ec81886141fc565b9050818103606083015261430081876141fc565b905061430f6080830186614267565b61431c60a0830185614280565b61432960c083018461429b565b98975050505050505050565b6000819050919050565b61434881614335565b82525050565b600060a082019050818103600083015261436881886141fc565b9050818103602083015261437c81876141fc565b905061438b604083018661433f565b614398606083018561433f565b81810360808301526143aa81846141fc565b90509695505050505050565b6143bf81614276565b81146143ca57600080fd5b50565b6000813590506143dc816143b6565b92915050565b6000806000606084860312156143fb576143fa614014565b5b600084013567ffffffffffffffff81111561441957614418614019565b5b61442586828701614136565b9350506020614436868287016143cd565b9250506040614447868287016143cd565b9150509250925092565b6000602082019050818103600083015261446b81846141fc565b905092915050565b6000806040838503121561448a57614489614014565b5b600083013567ffffffffffffffff8111156144a8576144a7614019565b5b6144b485828601614136565b92505060206144c5858286016143cd565b9150509250929050565b60006060820190506144e46000830186614280565b81810360208301526144f681856141fc565b9050818103604083015261450a81846141fc565b9050949350505050565b600082825260208201905092915050565b6000614530826141ad565b61453a8185614514565b935061454a8185602086016141c9565b61455381614028565b840191505092915050565b61456781614255565b82525050565b61457681614276565b82525050565b6145858161428f565b82525050565b600060e08301600083015184820360008601526145a88282614525565b915050602083015184820360208601526145c28282614525565b915050604083015184820360408601526145dc8282614525565b915050606083015184820360608601526145f68282614525565b915050608083015161460b608086018261455e565b5060a083015161461e60a086018261456d565b5060c083015161463160c086018261457c565b508091505092915050565b61464581614335565b82525050565b600060a08301600083015184820360008601526146688282614525565b915050602083015184820360208601526146828282614525565b9150506040830151614697604086018261463c565b5060608301516146aa606086018261463c565b50608083015184820360808601526146c28282614525565b9150508091505092915050565b600060608301600083015184820360008601526146ec8282614525565b915050602083015184820360208601526147068282614525565b915050604083015184820360408601526147208282614525565b9150508091505092915050565b600060c083016000830151848203600086015261474a8282614525565b915050602083015161475f602086018261456d565b50604083015184820360408601526147778282614525565b915050606083015161478c606086018261456d565b50608083015184820360808601526147a482826146cf565b91505060a08301516147b960a086018261456d565b508091505092915050565b600060608201905081810360008301526147de818661458b565b905081810360208301526147f2818561464b565b90508181036040830152614806818461472d565b9050949350505050565b6000606083016000830151848203600086015261482d8282614525565b915050602083015184820360208601526148478282614525565b915050604083015184820360408601526148618282614525565b9150508091505092915050565b600060c082019050818103600083015261488881896141fc565b90506148976020830188614280565b81810360408301526148a981876141fc565b90506148b86060830186614280565b81810360808301526148ca8185614810565b90506148d960a0830184614280565b979650505050505050565b6000806000606084860312156148fd576148fc614014565b5b600084013567ffffffffffffffff81111561491b5761491a614019565b5b61492786828701614136565b935050602084013567ffffffffffffffff81111561494857614947614019565b5b61495486828701614136565b9250506040614965868287016143cd565b9150509250925092565b6000604082019050818103600083015261498981856141fc565b9050818103602083015261499d81846141fc565b90509392505050565b60008060008060008060c087890312156149c3576149c2614014565b5b600087013567ffffffffffffffff8111156149e1576149e0614019565b5b6149ed89828a01614136565b96505060206149fe89828a016143cd565b955050604087013567ffffffffffffffff811115614a1f57614a1e614019565b5b614a2b89828a01614136565b945050606087013567ffffffffffffffff811115614a4c57614a4b614019565b5b614a5889828a01614136565b935050608087013567ffffffffffffffff811115614a7957614a78614019565b5b614a8589828a01614136565b92505060a087013567ffffffffffffffff811115614aa657614aa5614019565b5b614ab289828a01614136565b9150509295509295509295565b60008060008060808587031215614ad957614ad8614014565b5b600085013567ffffffffffffffff811115614af757614af6614019565b5b614b0387828801614136565b945050602085013567ffffffffffffffff811115614b2457614b23614019565b5b614b3087828801614136565b935050604085013567ffffffffffffffff811115614b5157614b50614019565b5b614b5d87828801614136565b925050606085013567ffffffffffffffff811115614b7e57614b7d614019565b5b614b8a87828801614136565b91505092959194509250565b60008060408385031215614bad57614bac614014565b5b600083013567ffffffffffffffff811115614bcb57614bca614019565b5b614bd785828601614136565b925050602083013567ffffffffffffffff811115614bf857614bf7614019565b5b614c0485828601614136565b9150509250929050565b600081519050919050565b600082825260208201905092915050565b6000819050602082019050919050565b6000606083016000830151614c52600086018261456d565b5060208301518482036020860152614c6a8282614525565b91505060408301518482036040860152614c848282614525565b9150508091505092915050565b6000614c9d8383614c3a565b905092915050565b6000602082019050919050565b6000614cbd82614c0e565b614cc78185614c19565b935083602082028501614cd985614c2a565b8060005b85811015614d155784840389528151614cf68582614c91565b9450614d0183614ca5565b925060208a01995050600181019050614cdd565b50829750879550505050505092915050565b600081519050919050565b600082825260208201905092915050565b6000819050602082019050919050565b600081519050919050565b600082825260208201905092915050565b6000819050602082019050919050565b6000614d8b8383614525565b905092915050565b6000602082019050919050565b6000614dab82614d53565b614db58185614d5e565b935083602082028501614dc785614d6f565b8060005b85811015614e035784840389528151614de48582614d7f565b9450614def83614d93565b925060208a01995050600181019050614dcb565b50829750879550505050505092915050565b6000614e218383614da0565b905092915050565b6000602082019050919050565b6000614e4182614d27565b614e4b8185614d32565b935083602082028501614e5d85614d43565b8060005b85811015614e995784840389528151614e7a8582614e15565b9450614e8583614e29565b925060208a01995050600181019050614e61565b50829750879550505050505092915050565b60006040820190508181036000830152614ec58185614cb2565b90508181036020830152614ed98184614e36565b90509392505050565b600067ffffffffffffffff821115614efd57614efc614039565b5b602082029050602081019050919050565b600080fd5b6000614f26614f2184614ee2565b614099565b90508083825260208201905060208402830185811115614f4957614f48614f0e565b5b835b81811015614f9057803567ffffffffffffffff811115614f6e57614f6d61401e565b5b808601614f7b8982614136565b85526020850194505050602081019050614f4b565b5050509392505050565b600082601f830112614faf57614fae61401e565b5b8135614fbf848260208601614f13565b91505092915050565b60008060008060808587031215614fe257614fe1614014565b5b600085013567ffffffffffffffff81111561500057614fff614019565b5b61500c87828801614136565b945050602085013567ffffffffffffffff81111561502d5761502c614019565b5b61503987828801614136565b935050604085013567ffffffffffffffff81111561505a57615059614019565b5b61506687828801614136565b925050606085013567ffffffffffffffff81111561508757615086614019565b5b61509387828801614f9a565b91505092959194509250565b6150a881614335565b81146150b357600080fd5b50565b6000813590506150c58161509f565b92915050565b60008060008060008060c087890312156150e8576150e7614014565b5b600087013567ffffffffffffffff81111561510657615105614019565b5b61511289828a01614136565b965050602087013567ffffffffffffffff81111561513357615132614019565b5b61513f89828a01614136565b955050604087013567ffffffffffffffff8111156151605761515f614019565b5b61516c89828a01614136565b945050606061517d89828a016150b6565b935050608061518e89828a016150b6565b92505060a087013567ffffffffffffffff8111156151af576151ae614019565b5b6151bb89828a01614136565b9150509295509295509295565b6000806000606084860312156151e1576151e0614014565b5b600084013567ffffffffffffffff8111156151ff576151fe614019565b5b61520b86828701614136565b935050602084013567ffffffffffffffff81111561522c5761522b614019565b5b61523886828701614136565b925050604084013567ffffffffffffffff81111561525957615258614019565b5b61526586828701614136565b9150509250925092565b604082016000820151615285600085018261456d565b506020820151615298602085018261456d565b50505050565b60006101008201905081810360008301526152b9818a6141fc565b905081810360208301526152cd81896141fc565b905081810360408301526152e181886141fc565b90506152f06060830187614280565b6152fd608083018661526f565b61530a60c0830185614280565b61531760e0830184614267565b98975050505050505050565b60006060820190506153386000830186614280565b615345602083018561433f565b615352604083018461433f565b949350505050565b600080600080600060a0868803121561537657615375614014565b5b600086013567ffffffffffffffff81111561539457615393614019565b5b6153a088828901614136565b955050602086013567ffffffffffffffff8111156153c1576153c0614019565b5b6153cd88828901614136565b945050604086013567ffffffffffffffff8111156153ee576153ed614019565b5b6153fa88828901614136565b935050606061540b888289016150b6565b925050608061541c888289016150b6565b9150509295509295909350565b60408201600082015161543f600085018261456d565b506020820151615452602085018261456d565b50505050565b60006101008301600083015184820360008601526154768282614525565b915050602083015184820360208601526154908282614525565b915050604083015184820360408601526154aa8282614525565b91505060608301516154bf606086018261456d565b5060808301516154d26080860182615429565b5060a08301516154e560c086018261456d565b5060c08301516154f860e086018261455e565b508091505092915050565b600081519050919050565b600082825260208201905092915050565b6000819050602082019050919050565b6000604083016000830151848203600086015261554c8282614525565b915050602083015184820360208601526155668282614525565b9150508091505092915050565b600061557f838361552f565b905092915050565b6000602082019050919050565b600061559f82615503565b6155a9818561550e565b9350836020820285016155bb8561551f565b8060005b858110156155f757848403895281516155d88582615573565b94506155e383615587565b925060208a019950506001810190506155bf565b50829750879550505050505092915050565b600081519050919050565b600082825260208201905092915050565b6000819050602082019050919050565b60608201600082015161564b600085018261456d565b50602082015161565e602085018261463c565b506040820151615671604085018261463c565b50505050565b60006156838383615635565b60608301905092915050565b6000602082019050919050565b60006156a782615609565b6156b18185615614565b93506156bc83615625565b8060005b838110156156ed5781516156d48882615677565b97506156df8361568f565b9250506001810190506156c0565b5085935050505092915050565b600060608201905081810360008301526157148186615458565b905081810360208301526157288185615594565b9050818103604083015261573c818461569c565b9050949350505050565b7f4e487b7100000000000000000000000000000000000000000000000000000000600052602260045260246000fd5b6000600282049050600182168061578d57607f821691505b602082108114156157a1576157a0615746565b5b50919050565b600081905092915050565b60006157bd826141ad565b6157c781856157a7565b93506157d78185602086016141c9565b80840191505092915050565b60006157ef82846157b2565b915081905092915050565b7f50726f6475637420646f6573206e6f7420657869737400000000000000000000600082015250565b60006158306016836141b8565b915061583b826157fa565b602082019050919050565b6000602082019050818103600083015261585f81615823565b9050919050565b7f4e487b7100000000000000000000000000000000000000000000000000000000600052601160045260246000fd5b60006158a082614276565b91507fffffffffffffffffffffffffffffffffffffffffffffffffffffffffffffffff8214156158d3576158d2615866565b5b600182019050919050565b7f4f6e6c79206d616e7566616374757265722063616e206372656174652072656360008201527f6f72640000000000000000000000000000000000000000000000000000000000602082015250565b600061593a6023836141b8565b9150615945826158de565b604082019050919050565b600060208201905081810360008301526159698161592d565b9050919050565b6000604082019050818103600083015261598a81856141fc565b90506159996020830184614280565b9392505050565b7f4e487b7100000000000000000000000000000000000000000000000000000000600052603260045260246000fd5b7f4f6e6c792061737369676e656420636172726965722063616e2061646420726f60008201527f75746520706f696e747300000000000000000000000000000000000000000000602082015250565b6000615a2b602a836141b8565b9150615a36826159cf565b604082019050919050565b60006020820190508181036000830152615a5a81615a1e565b9050919050565b7f536869706d656e74206e6f7420666f756e640000000000000000000000000000600082015250565b6000615a976012836141b8565b9150615aa282615a61565b602082019050919050565b60006020820190508181036000830152615ac681615a8a565b9050919050565b60006060820190508181036000830152615ae781866141fc565b90508181036020830152615afb81856141fc565b90508181036040830152615b0f81846141fc565b9050949350505050565b7f4f6e6c79206d616e7566616374757265722063616e20616464207175616c697460008201527f7920636865636b73000000000000000000000000000000000000000000000000602082015250565b6000615b756028836141b8565b9150615b8082615b19565b604082019050919050565b60006020820190508181036000830152615ba481615b68565b9050919050565b6000615bb682614276565b9150615bc183614276565b925082821015615bd457615bd3615866565b5b828203905092915050565b7f4f6e6c79206d616e7566616374757265722063616e2061646420737465707300600082015250565b6000615c15601f836141b8565b9150615c2082615bdf565b602082019050919050565b60006020820190508181036000830152615c4481615c08565b9050919050565b60006060820190508181036000830152615c6581866141fc565b9050615c746020830185614280565b8181036040830152615c8681846141fc565b9050949350505050565b7f4f6e6c79206d616e7566616374757265722063616e206164642068617276657360008201527f7420646174610000000000000000000000000000000000000000000000000000602082015250565b6000615cec6026836141b8565b9150615cf782615c90565b604082019050919050565b60006020820190508181036000830152615d1b81615cdf565b9050919050565b7f50726f6475637420494420616c72656164792065786973747300000000000000600082015250565b6000615d586019836141b8565b9150615d6382615d22565b602082019050919050565b60006020820190508181036000830152615d8781615d4b565b9050919050565b60006060820190508181036000830152615da881866141fc565b90508181036020830152615dbc81856141fc565b9050615dcb6040830184614267565b949350505050565b7f4f6e6c792061737369676e656420636172726965722063616e2075706461746560008201527f206c6f636174696f6e0000000000000000000000000000000000000000000000602082015250565b6000615e2f6029836141b8565b9150615e3a82615dd3565b604082019050919050565b60006020820190508181036000830152615e5e81615e22565b9050919050565b60006060820190508181036000830152615e7f81866141fc565b9050615e8e602083018561433f565b615e9b604083018461433f565b949350505050565b7f4e487b7100000000000000000000000000000000000000000000000000000000600052601260045260246000fd5b6000615edd82614276565b9150615ee883614276565b925082615ef857615ef7615ea3565b5b828204905092915050565b6000615f0e82614276565b9150615f1983614276565b9250817fffffffffffffffffffffffffffffffffffffffffffffffffffffffffffffffff0483118215151615615f5257615f51615866565b5b828202905092915050565b600060ff82169050919050565b6000615f7582615f5d565b9150615f8083615f5d565b92508260ff03821115615f9657615f95615866565b5b82820190509291505056fea2646970667358221220d2194cc240f20f6225947797551c55da8af4aa8e1c64e385b95d7ba952e7382664736f6c63430008090033","opcodes":"PUSH1 0x80 PUSH1 0x40 MSTORE PUSH1 0x0 PUSH1 0x9 SSTORE PUSH1 0x0 PUSH1 0xA SSTORE CALLVALUE DUP1 ISZERO PUSH2 0x1A JUMPI PUSH1 0x0 DUP1 REVERT JUMPDEST POP PUSH2 0x5FD7 DUP1 PUSH3 0x2B PUSH1 0x0 CODECOPY PUSH1 0x0 RETURN INVALID PUSH1 0x80 PUSH1 0x40 MSTORE CALLVALUE DUP1 ISZERO PUSH2 0x10 JUMPI PUSH1 0x0 DUP1 REVERT JUMPDEST POP PUSH1 0x4 CALLDATASIZE LT PUSH2 0x12C JUMPI PUSH1 0x0 CALLDATALOAD PUSH1 0xE0 SHR DUP1 PUSH4 0xA7A9A865 GT PUSH2 0xAD JUMPI DUP1 PUSH4 0xD768468B GT PUSH2 0x71 JUMPI DUP1 PUSH4 0xD768468B EQ PUSH2 0x3B2 JUMPI DUP1 PUSH4 0xDAC3F98E EQ PUSH2 0x3E2 JUMPI DUP1 PUSH4 0xE0502274 EQ PUSH2 0x418 JUMPI DUP1 PUSH4 0xF8C04121 EQ PUSH2 0x44A JUMPI DUP1 PUSH4 0xFD241168 EQ PUSH2 0x466 JUMPI PUSH2 0x12C JUMP JUMPDEST DUP1 PUSH4 0xA7A9A865 EQ PUSH2 0x2FD JUMPI DUP1 PUSH4 0xB227C015 EQ PUSH2 0x319 JUMPI DUP1 PUSH4 0xB4A78D6D EQ PUSH2 0x34A JUMPI DUP1 PUSH4 0xBC0F4C6E EQ PUSH2 0x37A JUMPI DUP1 PUSH4 0xD471B460 EQ PUSH2 0x396 JUMPI PUSH2 0x12C JUMP JUMPDEST DUP1 PUSH4 0x28216A5F GT PUSH2 0xF4 JUMPI DUP1 PUSH4 0x28216A5F EQ PUSH2 0x22F JUMPI DUP1 PUSH4 0x28A2CF38 EQ PUSH2 0x264 JUMPI DUP1 PUSH4 0x28BD5617 EQ PUSH2 0x294 JUMPI DUP1 PUSH4 0x38FCF662 EQ PUSH2 0x2C5 JUMPI DUP1 PUSH4 0x51A5F4B2 EQ PUSH2 0x2E1 JUMPI PUSH2 0x12C JUMP JUMPDEST DUP1 PUSH4 0x186A423 EQ PUSH2 0x131 JUMPI DUP1 PUSH4 0x297BA04 EQ PUSH2 0x167 JUMPI DUP1 PUSH4 0x652BD26 EQ PUSH2 0x19B JUMPI DUP1 PUSH4 0x8C69414 EQ PUSH2 0x1CB JUMPI DUP1 PUSH4 0x198C59B0 EQ PUSH2 0x1FD JUMPI JUMPDEST PUSH1 0x0 DUP1 REVERT JUMPDEST PUSH2 0x14B PUSH1 0x4 DUP1 CALLDATASIZE SUB DUP2 ADD SWAP1 PUSH2 0x146 SWAP2 SWAP1 PUSH2 0x4164 JUMP JUMPDEST PUSH2 0x498 JUMP JUMPDEST PUSH1 0x40 MLOAD PUSH2 0x15E SWAP8 SWAP7 SWAP6 SWAP5 SWAP4 SWAP3 SWAP2 SWAP1 PUSH2 0x42AA JUMP JUMPDEST PUSH1 0x40 MLOAD DUP1 SWAP2 SUB SWAP1 RETURN JUMPDEST PUSH2 0x181 PUSH1 0x4 DUP1 CALLDATASIZE SUB DUP2 ADD SWAP1 PUSH2 0x17C SWAP2 SWAP1 PUSH2 0x4164 JUMP JUMPDEST PUSH2 0x73D JUMP JUMPDEST PUSH1 0x40 MLOAD PUSH2 0x192 SWAP6 SWAP5 SWAP4 SWAP3 SWAP2 SWAP1 PUSH2 0x434E JUMP JUMPDEST PUSH1 0x40 MLOAD DUP1 SWAP2 SUB SWAP1 RETURN JUMPDEST PUSH2 0x1B5 PUSH1 0x4 DUP1 CALLDATASIZE SUB DUP2 ADD SWAP1 PUSH2 0x1B0 SWAP2 SWAP1 PUSH2 0x43E2 JUMP JUMPDEST PUSH2 0x921 JUMP JUMPDEST PUSH1 0x40 MLOAD PUSH2 0x1C2 SWAP2 SWAP1 PUSH2 0x4451 JUMP JUMPDEST PUSH1 0x40 MLOAD DUP1 SWAP2 SUB SWAP1 RETURN JUMPDEST PUSH2 0x1E5 PUSH1 0x4 DUP1 CALLDATASIZE SUB DUP2 ADD SWAP1 PUSH2 0x1E0 SWAP2 SWAP1 PUSH2 0x4473 JUMP JUMPDEST PUSH2 0xBB5 JUMP JUMPDEST PUSH1 0x40 MLOAD PUSH2 0x1F4 SWAP4 SWAP3 SWAP2 SWAP1 PUSH2 0x44CF JUMP JUMPDEST PUSH1 0x40 MLOAD DUP1 SWAP2 SUB SWAP1 RETURN JUMPDEST PUSH2 0x217 PUSH1 0x4 DUP1 CALLDATASIZE SUB DUP2 ADD SWAP1 PUSH2 0x212 SWAP2 SWAP1 PUSH2 0x4164 JUMP JUMPDEST PUSH2 0xD12 JUMP JUMPDEST PUSH1 0x40 MLOAD PUSH2 0x226 SWAP4 SWAP3 SWAP2 SWAP1 PUSH2 0x47C4 JUMP JUMPDEST PUSH1 0x40 MLOAD DUP1 SWAP2 SUB SWAP1 RETURN JUMPDEST PUSH2 0x249 PUSH1 0x4 DUP1 CALLDATASIZE SUB DUP2 ADD SWAP1 PUSH2 0x244 SWAP2 SWAP1 PUSH2 0x4164 JUMP JUMPDEST PUSH2 0x15C2 JUMP JUMPDEST PUSH1 0x40 MLOAD PUSH2 0x25B SWAP7 SWAP6 SWAP5 SWAP4 SWAP3 SWAP2 SWAP1 PUSH2 0x486E JUMP JUMPDEST PUSH1 0x40 MLOAD DUP1 SWAP2 SUB SWAP1 RETURN JUMPDEST PUSH2 0x27E PUSH1 0x4 DUP1 CALLDATASIZE SUB DUP2 ADD SWAP1 PUSH2 0x279 SWAP2 SWAP1 PUSH2 0x4473 JUMP JUMPDEST PUSH2 0x18E4 JUMP JUMPDEST PUSH1 0x40 MLOAD PUSH2 0x28B SWAP2 SWAP1 PUSH2 0x4451 JUMP JUMPDEST PUSH1 0x40 MLOAD DUP1 SWAP2 SUB SWAP1 RETURN JUMPDEST PUSH2 0x2AE PUSH1 0x4 DUP1 CALLDATASIZE SUB DUP2 ADD SWAP1 PUSH2 0x2A9 SWAP2 SWAP1 PUSH2 0x48E4 JUMP JUMPDEST PUSH2 0x19B3 JUMP JUMPDEST PUSH1 0x40 MLOAD PUSH2 0x2BC SWAP3 SWAP2 SWAP1 PUSH2 0x496F JUMP JUMPDEST PUSH1 0x40 MLOAD DUP1 SWAP2 SUB SWAP1 RETURN JUMPDEST PUSH2 0x2DF PUSH1 0x4 DUP1 CALLDATASIZE SUB DUP2 ADD SWAP1 PUSH2 0x2DA SWAP2 SWAP1 PUSH2 0x49A6 JUMP JUMPDEST PUSH2 0x1B2D JUMP JUMPDEST STOP JUMPDEST PUSH2 0x2FB PUSH1 0x4 DUP1 CALLDATASIZE SUB DUP2 ADD SWAP1 PUSH2 0x2F6 SWAP2 SWAP1 PUSH2 0x4ABF JUMP JUMPDEST PUSH2 0x1DB4 JUMP JUMPDEST STOP JUMPDEST PUSH2 0x317 PUSH1 0x4 DUP1 CALLDATASIZE SUB DUP2 ADD SWAP1 PUSH2 0x312 SWAP2 SWAP1 PUSH2 0x4B96 JUMP JUMPDEST PUSH2 0x216C JUMP JUMPDEST STOP JUMPDEST PUSH2 0x333 PUSH1 0x4 DUP1 CALLDATASIZE SUB DUP2 ADD SWAP1 PUSH2 0x32E SWAP2 SWAP1 PUSH2 0x4164 JUMP JUMPDEST PUSH2 0x231E JUMP JUMPDEST PUSH1 0x40 MLOAD PUSH2 0x341 SWAP3 SWAP2 SWAP1 PUSH2 0x4EAB JUMP JUMPDEST PUSH1 0x40 MLOAD DUP1 SWAP2 SUB SWAP1 RETURN JUMPDEST PUSH2 0x364 PUSH1 0x4 DUP1 CALLDATASIZE SUB DUP2 ADD SWAP1 PUSH2 0x35F SWAP2 SWAP1 PUSH2 0x43E2 JUMP JUMPDEST PUSH2 0x26D0 JUMP JUMPDEST PUSH1 0x40 MLOAD PUSH2 0x371 SWAP2 SWAP1 PUSH2 0x4451 JUMP JUMPDEST PUSH1 0x40 MLOAD DUP1 SWAP2 SUB SWAP1 RETURN JUMPDEST PUSH2 0x394 PUSH1 0x4 DUP1 CALLDATASIZE SUB DUP2 ADD SWAP1 PUSH2 0x38F SWAP2 SWAP1 PUSH2 0x4FC8 JUMP JUMPDEST PUSH2 0x27AC JUMP JUMPDEST STOP JUMPDEST PUSH2 0x3B0 PUSH1 0x4 DUP1 CALLDATASIZE SUB DUP2 ADD SWAP1 PUSH2 0x3AB SWAP2 SWAP1 PUSH2 0x50CB JUMP JUMPDEST PUSH2 0x2A2C JUMP JUMPDEST STOP JUMPDEST PUSH2 0x3CC PUSH1 0x4 DUP1 CALLDATASIZE SUB DUP2 ADD SWAP1 PUSH2 0x3C7 SWAP2 SWAP1 PUSH2 0x51C8 JUMP JUMPDEST PUSH2 0x2C3F JUMP JUMPDEST PUSH1 0x40 MLOAD PUSH2 0x3D9 SWAP2 SWAP1 PUSH2 0x4451 JUMP JUMPDEST PUSH1 0x40 MLOAD DUP1 SWAP2 SUB SWAP1 RETURN JUMPDEST PUSH2 0x3FC PUSH1 0x4 DUP1 CALLDATASIZE SUB DUP2 ADD SWAP1 PUSH2 0x3F7 SWAP2 SWAP1 PUSH2 0x4473 JUMP JUMPDEST PUSH2 0x2E6F JUMP JUMPDEST PUSH1 0x40 MLOAD PUSH2 0x40F SWAP8 SWAP7 SWAP6 SWAP5 SWAP4 SWAP3 SWAP2 SWAP1 PUSH2 0x529E JUMP JUMPDEST PUSH1 0x40 MLOAD DUP1 SWAP2 SUB SWAP1 RETURN JUMPDEST PUSH2 0x432 PUSH1 0x4 DUP1 CALLDATASIZE SUB DUP2 ADD SWAP1 PUSH2 0x42D SWAP2 SWAP1 PUSH2 0x48E4 JUMP JUMPDEST PUSH2 0x30BA JUMP JUMPDEST PUSH1 0x40 MLOAD PUSH2 0x441 SWAP4 SWAP3 SWAP2 SWAP1 PUSH2 0x5323 JUMP JUMPDEST PUSH1 0x40 MLOAD DUP1 SWAP2 SUB SWAP1 RETURN JUMPDEST PUSH2 0x464 PUSH1 0x4 DUP1 CALLDATASIZE SUB DUP2 ADD SWAP1 PUSH2 0x45F SWAP2 SWAP1 PUSH2 0x535A JUMP JUMPDEST PUSH2 0x313A JUMP JUMPDEST STOP JUMPDEST PUSH2 0x480 PUSH1 0x4 DUP1 CALLDATASIZE SUB DUP2 ADD SWAP1 PUSH2 0x47B SWAP2 SWAP1 PUSH2 0x4B96 JUMP JUMPDEST PUSH2 0x34C5 JUMP JUMPDEST PUSH1 0x40 MLOAD PUSH2 0x48F SWAP4 SWAP3 SWAP2 SWAP1 PUSH2 0x56FA JUMP JUMPDEST PUSH1 0x40 MLOAD DUP1 SWAP2 SUB SWAP1 RETURN JUMPDEST PUSH1 0x0 DUP2 DUP1 MLOAD PUSH1 0x20 DUP2 ADD DUP3 ADD DUP1 MLOAD DUP5 DUP3 MSTORE PUSH1 0x20 DUP4 ADD PUSH1 0x20 DUP6 ADD KECCAK256 DUP2 DUP4 MSTORE DUP1 SWAP6 POP POP POP POP POP POP PUSH1 0x0 SWAP2 POP SWAP1 POP DUP1 PUSH1 0x0 ADD DUP1 SLOAD PUSH2 0x4D1 SWAP1 PUSH2 0x5775 JUMP JUMPDEST DUP1 PUSH1 0x1F ADD PUSH1 0x20 DUP1 SWAP2 DIV MUL PUSH1 0x20 ADD PUSH1 0x40 MLOAD SWAP1 DUP2 ADD PUSH1 0x40 MSTORE DUP1 SWAP3 SWAP2 SWAP1 DUP2 DUP2 MSTORE PUSH1 0x20 ADD DUP3 DUP1 SLOAD PUSH2 0x4FD SWAP1 PUSH2 0x5775 JUMP JUMPDEST DUP1 ISZERO PUSH2 0x54A JUMPI DUP1 PUSH1 0x1F LT PUSH2 0x51F JUMPI PUSH2 0x100 DUP1 DUP4 SLOAD DIV MUL DUP4 MSTORE SWAP2 PUSH1 0x20 ADD SWAP2 PUSH2 0x54A JUMP JUMPDEST DUP3 ADD SWAP2 SWAP1 PUSH1 0x0 MSTORE PUSH1 0x20 PUSH1 0x0 KECCAK256 SWAP1 JUMPDEST DUP2 SLOAD DUP2 MSTORE SWAP1 PUSH1 0x1 ADD SWAP1 PUSH1 0x20 ADD DUP1 DUP4 GT PUSH2 0x52D JUMPI DUP3 SWAP1 SUB PUSH1 0x1F AND DUP3 ADD SWAP2 JUMPDEST POP POP POP POP POP SWAP1 DUP1 PUSH1 0x1 ADD DUP1 SLOAD PUSH2 0x55F SWAP1 PUSH2 0x5775 JUMP JUMPDEST DUP1 PUSH1 0x1F ADD PUSH1 0x20 DUP1 SWAP2 DIV MUL PUSH1 0x20 ADD PUSH1 0x40 MLOAD SWAP1 DUP2 ADD PUSH1 0x40 MSTORE DUP1 SWAP3 SWAP2 SWAP1 DUP2 DUP2 MSTORE PUSH1 0x20 ADD DUP3 DUP1 SLOAD PUSH2 0x58B SWAP1 PUSH2 0x5775 JUMP JUMPDEST DUP1 ISZERO PUSH2 0x5D8 JUMPI DUP1 PUSH1 0x1F LT PUSH2 0x5AD JUMPI PUSH2 0x100 DUP1 DUP4 SLOAD DIV MUL DUP4 MSTORE SWAP2 PUSH1 0x20 ADD SWAP2 PUSH2 0x5D8 JUMP JUMPDEST DUP3 ADD SWAP2 SWAP1 PUSH1 0x0 MSTORE PUSH1 0x20 PUSH1 0x0 KECCAK256 SWAP1 JUMPDEST DUP2 SLOAD DUP2 MSTORE SWAP1 PUSH1 0x1 ADD SWAP1 PUSH1 0x20 ADD DUP1 DUP4 GT PUSH2 0x5BB JUMPI DUP3 SWAP1 SUB PUSH1 0x1F AND DUP3 ADD SWAP2 JUMPDEST POP POP POP POP POP SWAP1 DUP1 PUSH1 0x2 ADD DUP1 SLOAD PUSH2 0x5ED SWAP1 PUSH2 0x5775 JUMP JUMPDEST DUP1 PUSH1 0x1F ADD PUSH1 0x20 DUP1 SWAP2 DIV MUL PUSH1 0x20 ADD PUSH1 0x40 MLOAD SWAP1 DUP2 ADD PUSH1 0x40 MSTORE DUP1 SWAP3 SWAP2 SWAP1 DUP2 DUP2 MSTORE PUSH1 0x20 ADD DUP3 DUP1 SLOAD PUSH2 0x619 SWAP1 PUSH2 0x5775 JUMP JUMPDEST DUP1 ISZERO PUSH2 0x666 JUMPI DUP1 PUSH1 0x1F LT PUSH2 0x63B JUMPI PUSH2 0x100 DUP1 DUP4 SLOAD DIV MUL DUP4 MSTORE SWAP2 PUSH1 0x20 ADD SWAP2 PUSH2 0x666 JUMP JUMPDEST DUP3 ADD SWAP2 SWAP1 PUSH1 0x0 MSTORE PUSH1 0x20 PUSH1 0x0 KECCAK256 SWAP1 JUMPDEST DUP2 SLOAD DUP2 MSTORE SWAP1 PUSH1 0x1 ADD SWAP1 PUSH1 0x20 ADD DUP1 DUP4 GT PUSH2 0x649 JUMPI DUP3 SWAP1 SUB PUSH1 0x1F AND DUP3 ADD SWAP2 JUMPDEST POP POP POP POP POP SWAP1 DUP1 PUSH1 0x3 ADD DUP1 SLOAD PUSH2 0x67B SWAP1 PUSH2 0x5775 JUMP JUMPDEST DUP1 PUSH1 0x1F ADD PUSH1 0x20 DUP1 SWAP2 DIV MUL PUSH1 0x20 ADD PUSH1 0x40 MLOAD SWAP1 DUP2 ADD PUSH1 0x40 MSTORE DUP1 SWAP3 SWAP2 SWAP1 DUP2 DUP2 MSTORE PUSH1 0x20 ADD DUP3 DUP1 SLOAD PUSH2 0x6A7 SWAP1 PUSH2 0x5775 JUMP JUMPDEST DUP1 ISZERO PUSH2 0x6F4 JUMPI DUP1 PUSH1 0x1F LT PUSH2 0x6C9 JUMPI PUSH2 0x100 DUP1 DUP4 SLOAD DIV MUL DUP4 MSTORE SWAP2 PUSH1 0x20 ADD SWAP2 PUSH2 0x6F4 JUMP JUMPDEST DUP3 ADD SWAP2 SWAP1 PUSH1 0x0 MSTORE PUSH1 0x20 PUSH1 0x0 KECCAK256 SWAP1 JUMPDEST DUP2 SLOAD DUP2 MSTORE SWAP1 PUSH1 0x1 ADD SWAP1 PUSH1 0x20 ADD DUP1 DUP4 GT PUSH2 0x6D7 JUMPI DUP3 SWAP1 SUB PUSH1 0x1F AND DUP3 ADD SWAP2 JUMPDEST POP POP POP POP POP SWAP1 DUP1 PUSH1 0x4 ADD PUSH1 0x0 SWAP1 SLOAD SWAP1 PUSH2 0x100 EXP SWAP1 DIV PUSH20 0xFFFFFFFFFFFFFFFFFFFFFFFFFFFFFFFFFFFFFFFF AND SWAP1 DUP1 PUSH1 0x5 ADD SLOAD SWAP1 DUP1 PUSH1 0x6 ADD PUSH1 0x0 SWAP1 SLOAD SWAP1 PUSH2 0x100 EXP SWAP1 DIV PUSH1 0xFF AND SWAP1 POP DUP8 JUMP JUMPDEST PUSH1 0x1 DUP2 DUP1 MLOAD PUSH1 0x20 DUP2 ADD DUP3 ADD DUP1 MLOAD DUP5 DUP3 MSTORE PUSH1 0x20 DUP4 ADD PUSH1 0x20 DUP6 ADD KECCAK256 DUP2 DUP4 MSTORE DUP1 SWAP6 POP POP POP POP POP POP PUSH1 0x0 SWAP2 POP SWAP1 POP DUP1 PUSH1 0x0 ADD DUP1 SLOAD PUSH2 0x776 SWAP1 PUSH2 0x5775 JUMP JUMPDEST DUP1 PUSH1 0x1F ADD PUSH1 0x20 DUP1 SWAP2 DIV MUL PUSH1 0x20 ADD PUSH1 0x40 MLOAD SWAP1 DUP2 ADD PUSH1 0x40 MSTORE DUP1 SWAP3 SWAP2 SWAP1 DUP2 DUP2 MSTORE PUSH1 0x20 ADD DUP3 DUP1 SLOAD PUSH2 0x7A2 SWAP1 PUSH2 0x5775 JUMP JUMPDEST DUP1 ISZERO PUSH2 0x7EF JUMPI DUP1 PUSH1 0x1F LT PUSH2 0x7C4 JUMPI PUSH2 0x100 DUP1 DUP4 SLOAD DIV MUL DUP4 MSTORE SWAP2 PUSH1 0x20 ADD SWAP2 PUSH2 0x7EF JUMP JUMPDEST DUP3 ADD SWAP2 SWAP1 PUSH1 0x0 MSTORE PUSH1 0x20 PUSH1 0x0 KECCAK256 SWAP1 JUMPDEST DUP2 SLOAD DUP2 MSTORE SWAP1 PUSH1 0x1 ADD SWAP1 PUSH1 0x20 ADD DUP1 DUP4 GT PUSH2 0x7D2 JUMPI DUP3 SWAP1 SUB PUSH1 0x1F AND DUP3 ADD SWAP2 JUMPDEST POP POP POP POP POP SWAP1 DUP1 PUSH1 0x1 ADD DUP1 SLOAD PUSH2 0x804 SWAP1 PUSH2 0x5775 JUMP JUMPDEST DUP1 PUSH1 0x1F ADD PUSH1 0x20 DUP1 SWAP2 DIV MUL PUSH1 0x20 ADD PUSH1 0x40 MLOAD SWAP1 DUP2 ADD PUSH1 0x40 MSTORE DUP1 SWAP3 SWAP2 SWAP1 DUP2 DUP2 MSTORE PUSH1 0x20 ADD DUP3 DUP1 SLOAD PUSH2 0x830 SWAP1 PUSH2 0x5775 JUMP JUMPDEST DUP1 ISZERO PUSH2 0x87D JUMPI DUP1 PUSH1 0x1F LT PUSH2 0x852 JUMPI PUSH2 0x100 DUP1 DUP4 SLOAD DIV MUL DUP4 MSTORE SWAP2 PUSH1 0x20 ADD SWAP2 PUSH2 0x87D JUMP JUMPDEST DUP3 ADD SWAP2 SWAP1 PUSH1 0x0 MSTORE PUSH1 0x20 PUSH1 0x0 KECCAK256 SWAP1 JUMPDEST DUP2 SLOAD DUP2 MSTORE SWAP1 PUSH1 0x1 ADD SWAP1 PUSH1 0x20 ADD DUP1 DUP4 GT PUSH2 0x860 JUMPI DUP3 SWAP1 SUB PUSH1 0x1F AND DUP3 ADD SWAP2 JUMPDEST POP POP POP POP POP SWAP1 DUP1 PUSH1 0x2 ADD SLOAD SWAP1 DUP1 PUSH1 0x3 ADD SLOAD SWAP1 DUP1 PUSH1 0x4 ADD DUP1 SLOAD PUSH2 0x89E SWAP1 PUSH2 0x5775 JUMP JUMPDEST DUP1 PUSH1 0x1F ADD PUSH1 0x20 DUP1 SWAP2 DIV MUL PUSH1 0x20 ADD PUSH1 0x40 MLOAD SWAP1 DUP2 ADD PUSH1 0x40 MSTORE DUP1 SWAP3 SWAP2 SWAP1 DUP2 DUP2 MSTORE PUSH1 0x20 ADD DUP3 DUP1 SLOAD PUSH2 0x8CA SWAP1 PUSH2 0x5775 JUMP JUMPDEST DUP1 ISZERO PUSH2 0x917 JUMPI DUP1 PUSH1 0x1F LT PUSH2 0x8EC JUMPI PUSH2 0x100 DUP1 DUP4 SLOAD DIV MUL DUP4 MSTORE SWAP2 PUSH1 0x20 ADD SWAP2 PUSH2 0x917 JUMP JUMPDEST DUP3 ADD SWAP2 SWAP1 PUSH1 0x0 MSTORE PUSH1 0x20 PUSH1 0x0 KECCAK256 SWAP1 JUMPDEST DUP2 SLOAD DUP2 MSTORE SWAP1 PUSH1 0x1 ADD SWAP1 PUSH1 0x20 ADD DUP1 DUP4 GT PUSH2 0x8FA JUMPI DUP3 SWAP1 SUB PUSH1 0x1F AND DUP3 ADD SWAP2 JUMPDEST POP POP POP POP POP SWAP1 POP DUP6 JUMP JUMPDEST PUSH1 0x60 PUSH1 0x0 DUP5 PUSH1 0x40 MLOAD PUSH2 0x933 SWAP2 SWAP1 PUSH2 0x57E3 JUMP JUMPDEST SWAP1 DUP2 MSTORE PUSH1 0x20 ADD PUSH1 0x40 MLOAD DUP1 SWAP2 SUB SWAP1 KECCAK256 PUSH1 0x6 ADD PUSH1 0x0 SWAP1 SLOAD SWAP1 PUSH2 0x100 EXP SWAP1 DIV PUSH1 0xFF AND PUSH2 0x991 JUMPI PUSH1 0x40 MLOAD PUSH32 0x8C379A000000000000000000000000000000000000000000000000000000000 DUP2 MSTORE PUSH1 0x4 ADD PUSH2 0x988 SWAP1 PUSH2 0x5846 JUMP JUMPDEST PUSH1 0x40 MLOAD DUP1 SWAP2 SUB SWAP1 REVERT JUMPDEST PUSH1 0xA PUSH1 0x0 DUP2 SLOAD DUP1 SWAP3 SWAP2 SWAP1 PUSH2 0x9A4 SWAP1 PUSH2 0x5895 JUMP JUMPDEST SWAP2 SWAP1 POP SSTORE POP PUSH1 0x0 PUSH2 0x9B6 PUSH1 0xA SLOAD PUSH2 0x3B6D JUMP JUMPDEST SWAP1 POP PUSH1 0x0 PUSH1 0x40 MLOAD DUP1 PUSH1 0x40 ADD PUSH1 0x40 MSTORE DUP1 DUP7 DUP2 MSTORE PUSH1 0x20 ADD DUP6 DUP2 MSTORE POP SWAP1 POP PUSH1 0x0 PUSH1 0x40 MLOAD DUP1 PUSH1 0xE0 ADD PUSH1 0x40 MSTORE DUP1 DUP5 DUP2 MSTORE PUSH1 0x20 ADD DUP9 DUP2 MSTORE PUSH1 0x20 ADD PUSH1 0x40 MLOAD DUP1 PUSH1 0x40 ADD PUSH1 0x40 MSTORE DUP1 PUSH1 0x9 DUP2 MSTORE PUSH1 0x20 ADD PUSH32 0x494E495449415445440000000000000000000000000000000000000000000000 DUP2 MSTORE POP DUP2 MSTORE PUSH1 0x20 ADD PUSH1 0x0 DUP2 MSTORE PUSH1 0x20 ADD DUP4 DUP2 MSTORE PUSH1 0x20 ADD TIMESTAMP DUP2 MSTORE PUSH1 0x20 ADD CALLER PUSH20 0xFFFFFFFFFFFFFFFFFFFFFFFFFFFFFFFFFFFFFFFF AND DUP2 MSTORE POP SWAP1 POP PUSH1 0x6 DUP8 PUSH1 0x40 MLOAD PUSH2 0xA64 SWAP2 SWAP1 PUSH2 0x57E3 JUMP JUMPDEST SWAP1 DUP2 MSTORE PUSH1 0x20 ADD PUSH1 0x40 MLOAD DUP1 SWAP2 SUB SWAP1 KECCAK256 DUP2 SWAP1 DUP1 PUSH1 0x1 DUP2 SLOAD ADD DUP1 DUP3 SSTORE DUP1 SWAP2 POP POP PUSH1 0x1 SWAP1 SUB SWAP1 PUSH1 0x0 MSTORE PUSH1 0x20 PUSH1 0x0 KECCAK256 SWAP1 PUSH1 0x8 MUL ADD PUSH1 0x0 SWAP1 SWAP2 SWAP1 SWAP2 SWAP1 SWAP2 POP PUSH1 0x0 DUP3 ADD MLOAD DUP2 PUSH1 0x0 ADD SWAP1 DUP1 MLOAD SWAP1 PUSH1 0x20 ADD SWAP1 PUSH2 0xAB8 SWAP3 SWAP2 SWAP1 PUSH2 0x3D14 JUMP JUMPDEST POP PUSH1 0x20 DUP3 ADD MLOAD DUP2 PUSH1 0x1 ADD SWAP1 DUP1 MLOAD SWAP1 PUSH1 0x20 ADD SWAP1 PUSH2 0xAD5 SWAP3 SWAP2 SWAP1 PUSH2 0x3D14 JUMP JUMPDEST POP PUSH1 0x40 DUP3 ADD MLOAD DUP2 PUSH1 0x2 ADD SWAP1 DUP1 MLOAD SWAP1 PUSH1 0x20 ADD SWAP1 PUSH2 0xAF2 SWAP3 SWAP2 SWAP1 PUSH2 0x3D14 JUMP JUMPDEST POP PUSH1 0x60 DUP3 ADD MLOAD DUP2 PUSH1 0x3 ADD SSTORE PUSH1 0x80 DUP3 ADD MLOAD DUP2 PUSH1 0x4 ADD PUSH1 0x0 DUP3 ADD MLOAD DUP2 PUSH1 0x0 ADD SSTORE PUSH1 0x20 DUP3 ADD MLOAD DUP2 PUSH1 0x1 ADD SSTORE POP POP PUSH1 0xA0 DUP3 ADD MLOAD DUP2 PUSH1 0x6 ADD SSTORE PUSH1 0xC0 DUP3 ADD MLOAD DUP2 PUSH1 0x7 ADD PUSH1 0x0 PUSH2 0x100 EXP DUP2 SLOAD DUP2 PUSH20 0xFFFFFFFFFFFFFFFFFFFFFFFFFFFFFFFFFFFFFFFF MUL NOT AND SWAP1 DUP4 PUSH20 0xFFFFFFFFFFFFFFFFFFFFFFFFFFFFFFFFFFFFFFFF AND MUL OR SWAP1 SSTORE POP POP POP PUSH32 0x8E9787190C8EBD55B5DEEF01B678D15EC9FB6D20E79555290004A4E8CF3A9308 DUP4 DUP9 PUSH1 0x40 MLOAD PUSH2 0xBA0 SWAP3 SWAP2 SWAP1 PUSH2 0x496F JUMP JUMPDEST PUSH1 0x40 MLOAD DUP1 SWAP2 SUB SWAP1 LOG1 DUP3 SWAP4 POP POP POP POP SWAP4 SWAP3 POP POP POP JUMP JUMPDEST PUSH1 0x3 DUP3 DUP1 MLOAD PUSH1 0x20 DUP2 ADD DUP3 ADD DUP1 MLOAD DUP5 DUP3 MSTORE PUSH1 0x20 DUP4 ADD PUSH1 0x20 DUP6 ADD KECCAK256 DUP2 DUP4 MSTORE DUP1 SWAP6 POP POP POP POP POP POP PUSH1 0x20 MSTORE DUP1 PUSH1 0x0 MSTORE PUSH1 0x40 PUSH1 0x0 KECCAK256 PUSH1 0x0 SWAP2 POP SWAP2 POP POP DUP1 PUSH1 0x0 ADD SLOAD SWAP1 DUP1 PUSH1 0x1 ADD DUP1 SLOAD PUSH2 0xC01 SWAP1 PUSH2 0x5775 JUMP JUMPDEST DUP1 PUSH1 0x1F ADD PUSH1 0x20 DUP1 SWAP2 DIV MUL PUSH1 0x20 ADD PUSH1 0x40 MLOAD SWAP1 DUP2 ADD PUSH1 0x40 MSTORE DUP1 SWAP3 SWAP2 SWAP1 DUP2 DUP2 MSTORE PUSH1 0x20 ADD DUP3 DUP1 SLOAD PUSH2 0xC2D SWAP1 PUSH2 0x5775 JUMP JUMPDEST DUP1 ISZERO PUSH2 0xC7A JUMPI DUP1 PUSH1 0x1F LT PUSH2 0xC4F JUMPI PUSH2 0x100 DUP1 DUP4 SLOAD DIV MUL DUP4 MSTORE SWAP2 PUSH1 0x20 ADD SWAP2 PUSH2 0xC7A JUMP JUMPDEST DUP3 ADD SWAP2 SWAP1 PUSH1 0x0 MSTORE PUSH1 0x20 PUSH1 0x0 KECCAK256 SWAP1 JUMPDEST DUP2 SLOAD DUP2 MSTORE SWAP1 PUSH1 0x1 ADD SWAP1 PUSH1 0x20 ADD DUP1 DUP4 GT PUSH2 0xC5D JUMPI DUP3 SWAP1 SUB PUSH1 0x1F AND DUP3 ADD SWAP2 JUMPDEST POP POP POP POP POP SWAP1 DUP1 PUSH1 0x2 ADD DUP1 SLOAD PUSH2 0xC8F SWAP1 PUSH2 0x5775 JUMP JUMPDEST DUP1 PUSH1 0x1F ADD PUSH1 0x20 DUP1 SWAP2 DIV MUL PUSH1 0x20 ADD PUSH1 0x40 MLOAD SWAP1 DUP2 ADD PUSH1 0x40 MSTORE DUP1 SWAP3 SWAP2 SWAP1 DUP2 DUP2 MSTORE PUSH1 0x20 ADD DUP3 DUP1 SLOAD PUSH2 0xCBB SWAP1 PUSH2 0x5775 JUMP JUMPDEST DUP1 ISZERO PUSH2 0xD08 JUMPI DUP1 PUSH1 0x1F LT PUSH2 0xCDD JUMPI PUSH2 0x100 DUP1 DUP4 SLOAD DIV MUL DUP4 MSTORE SWAP2 PUSH1 0x20 ADD SWAP2 PUSH2 0xD08 JUMP JUMPDEST DUP3 ADD SWAP2 SWAP1 PUSH1 0x0 MSTORE PUSH1 0x20 PUSH1 0x0 KECCAK256 SWAP1 JUMPDEST DUP2 SLOAD DUP2 MSTORE SWAP1 PUSH1 0x1 ADD SWAP1 PUSH1 0x20 ADD DUP1 DUP4 GT PUSH2 0xCEB JUMPI DUP3 SWAP1 SUB PUSH1 0x1F AND DUP3 ADD SWAP2 JUMPDEST POP POP POP POP POP SWAP1 POP DUP4 JUMP JUMPDEST PUSH2 0xD1A PUSH2 0x3D9A JUMP JUMPDEST PUSH2 0xD22 PUSH2 0x3DEF JUMP JUMPDEST PUSH2 0xD2A PUSH2 0x3E1E JUMP JUMPDEST PUSH1 0x0 DUP5 PUSH1 0x40 MLOAD PUSH2 0xD3A SWAP2 SWAP1 PUSH2 0x57E3 JUMP JUMPDEST SWAP1 DUP2 MSTORE PUSH1 0x20 ADD PUSH1 0x40 MLOAD DUP1 SWAP2 SUB SWAP1 KECCAK256 PUSH1 0x6 ADD PUSH1 0x0 SWAP1 SLOAD SWAP1 PUSH2 0x100 EXP SWAP1 DIV PUSH1 0xFF AND PUSH2 0xD98 JUMPI PUSH1 0x40 MLOAD PUSH32 0x8C379A000000000000000000000000000000000000000000000000000000000 DUP2 MSTORE PUSH1 0x4 ADD PUSH2 0xD8F SWAP1 PUSH2 0x5846 JUMP JUMPDEST PUSH1 0x40 MLOAD DUP1 SWAP2 SUB SWAP1 REVERT JUMPDEST PUSH1 0x0 DUP5 PUSH1 0x40 MLOAD PUSH2 0xDA8 SWAP2 SWAP1 PUSH2 0x57E3 JUMP JUMPDEST SWAP1 DUP2 MSTORE PUSH1 0x20 ADD PUSH1 0x40 MLOAD DUP1 SWAP2 SUB SWAP1 KECCAK256 PUSH1 0x1 DUP6 PUSH1 0x40 MLOAD PUSH2 0xDC6 SWAP2 SWAP1 PUSH2 0x57E3 JUMP JUMPDEST SWAP1 DUP2 MSTORE PUSH1 0x20 ADD PUSH1 0x40 MLOAD DUP1 SWAP2 SUB SWAP1 KECCAK256 PUSH1 0x2 DUP7 PUSH1 0x40 MLOAD PUSH2 0xDE4 SWAP2 SWAP1 PUSH2 0x57E3 JUMP JUMPDEST SWAP1 DUP2 MSTORE PUSH1 0x20 ADD PUSH1 0x40 MLOAD DUP1 SWAP2 SUB SWAP1 KECCAK256 DUP3 PUSH1 0x40 MLOAD DUP1 PUSH1 0xE0 ADD PUSH1 0x40 MSTORE SWAP1 DUP2 PUSH1 0x0 DUP3 ADD DUP1 SLOAD PUSH2 0xE0E SWAP1 PUSH2 0x5775 JUMP JUMPDEST DUP1 PUSH1 0x1F ADD PUSH1 0x20 DUP1 SWAP2 DIV MUL PUSH1 0x20 ADD PUSH1 0x40 MLOAD SWAP1 DUP2 ADD PUSH1 0x40 MSTORE DUP1 SWAP3 SWAP2 SWAP1 DUP2 DUP2 MSTORE PUSH1 0x20 ADD DUP3 DUP1 SLOAD PUSH2 0xE3A SWAP1 PUSH2 0x5775 JUMP JUMPDEST DUP1 ISZERO PUSH2 0xE87 JUMPI DUP1 PUSH1 0x1F LT PUSH2 0xE5C JUMPI PUSH2 0x100 DUP1 DUP4 SLOAD DIV MUL DUP4 MSTORE SWAP2 PUSH1 0x20 ADD SWAP2 PUSH2 0xE87 JUMP JUMPDEST DUP3 ADD SWAP2 SWAP1 PUSH1 0x0 MSTORE PUSH1 0x20 PUSH1 0x0 KECCAK256 SWAP1 JUMPDEST DUP2 SLOAD DUP2 MSTORE SWAP1 PUSH1 0x1 ADD SWAP1 PUSH1 0x20 ADD DUP1 DUP4 GT PUSH2 0xE6A JUMPI DUP3 SWAP1 SUB PUSH1 0x1F AND DUP3 ADD SWAP2 JUMPDEST POP POP POP POP POP DUP2 MSTORE PUSH1 0x20 ADD PUSH1 0x1 DUP3 ADD DUP1 SLOAD PUSH2 0xEA0 SWAP1 PUSH2 0x5775 JUMP JUMPDEST DUP1 PUSH1 0x1F ADD PUSH1 0x20 DUP1 SWAP2 DIV MUL PUSH1 0x20 ADD PUSH1 0x40 MLOAD SWAP1 DUP2 ADD PUSH1 0x40 MSTORE DUP1 SWAP3 SWAP2 SWAP1 DUP2 DUP2 MSTORE PUSH1 0x20 ADD DUP3 DUP1 SLOAD PUSH2 0xECC SWAP1 PUSH2 0x5775 JUMP JUMPDEST DUP1 ISZERO PUSH2 0xF19 JUMPI DUP1 PUSH1 0x1F LT PUSH2 0xEEE JUMPI PUSH2 0x100 DUP1 DUP4 SLOAD DIV MUL DUP4 MSTORE SWAP2 PUSH1 0x20 ADD SWAP2 PUSH2 0xF19 JUMP JUMPDEST DUP3 ADD SWAP2 SWAP1 PUSH1 0x0 MSTORE PUSH1 0x20 PUSH1 0x0 KECCAK256 SWAP1 JUMPDEST DUP2 SLOAD DUP2 MSTORE SWAP1 PUSH1 0x1 ADD SWAP1 PUSH1 0x20 ADD DUP1 DUP4 GT PUSH2 0xEFC JUMPI DUP3 SWAP1 SUB PUSH1 0x1F AND DUP3 ADD SWAP2 JUMPDEST POP POP POP POP POP DUP2 MSTORE PUSH1 0x20 ADD PUSH1 0x2 DUP3 ADD DUP1 SLOAD PUSH2 0xF32 SWAP1 PUSH2 0x5775 JUMP JUMPDEST DUP1 PUSH1 0x1F ADD PUSH1 0x20 DUP1 SWAP2 DIV MUL PUSH1 0x20 ADD PUSH1 0x40 MLOAD SWAP1 DUP2 ADD PUSH1 0x40 MSTORE DUP1 SWAP3 SWAP2 SWAP1 DUP2 DUP2 MSTORE PUSH1 0x20 ADD DUP3 DUP1 SLOAD PUSH2 0xF5E SWAP1 PUSH2 0x5775 JUMP JUMPDEST DUP1 ISZERO PUSH2 0xFAB JUMPI DUP1 PUSH1 0x1F LT PUSH2 0xF80 JUMPI PUSH2 0x100 DUP1 DUP4 SLOAD DIV MUL DUP4 MSTORE SWAP2 PUSH1 0x20 ADD SWAP2 PUSH2 0xFAB JUMP JUMPDEST DUP3 ADD SWAP2 SWAP1 PUSH1 0x0 MSTORE PUSH1 0x20 PUSH1 0x0 KECCAK256 SWAP1 JUMPDEST DUP2 SLOAD DUP2 MSTORE SWAP1 PUSH1 0x1 ADD SWAP1 PUSH1 0x20 ADD DUP1 DUP4 GT PUSH2 0xF8E JUMPI DUP3 SWAP1 SUB PUSH1 0x1F AND DUP3 ADD SWAP2 JUMPDEST POP POP POP POP POP DUP2 MSTORE PUSH1 0x20 ADD PUSH1 0x3 DUP3 ADD DUP1 SLOAD PUSH2 0xFC4 SWAP1 PUSH2 0x5775 JUMP JUMPDEST DUP1 PUSH1 0x1F ADD PUSH1 0x20 DUP1 SWAP2 DIV MUL PUSH1 0x20 ADD PUSH1 0x40 MLOAD SWAP1 DUP2 ADD PUSH1 0x40 MSTORE DUP1 SWAP3 SWAP2 SWAP1 DUP2 DUP2 MSTORE PUSH1 0x20 ADD DUP3 DUP1 SLOAD PUSH2 0xFF0 SWAP1 PUSH2 0x5775 JUMP JUMPDEST DUP1 ISZERO PUSH2 0x103D JUMPI DUP1 PUSH1 0x1F LT PUSH2 0x1012 JUMPI PUSH2 0x100 DUP1 DUP4 SLOAD DIV MUL DUP4 MSTORE SWAP2 PUSH1 0x20 ADD SWAP2 PUSH2 0x103D JUMP JUMPDEST DUP3 ADD SWAP2 SWAP1 PUSH1 0x0 MSTORE PUSH1 0x20 PUSH1 0x0 KECCAK256 SWAP1 JUMPDEST DUP2 SLOAD DUP2 MSTORE SWAP1 PUSH1 0x1 ADD SWAP1 PUSH1 0x20 ADD DUP1 DUP4 GT PUSH2 0x1020 JUMPI DUP3 SWAP1 SUB PUSH1 0x1F AND DUP3 ADD SWAP2 JUMPDEST POP POP POP POP POP DUP2 MSTORE PUSH1 0x20 ADD PUSH1 0x4 DUP3 ADD PUSH1 0x0 SWAP1 SLOAD SWAP1 PUSH2 0x100 EXP SWAP1 DIV PUSH20 0xFFFFFFFFFFFFFFFFFFFFFFFFFFFFFFFFFFFFFFFF AND PUSH20 0xFFFFFFFFFFFFFFFFFFFFFFFFFFFFFFFFFFFFFFFF AND PUSH20 0xFFFFFFFFFFFFFFFFFFFFFFFFFFFFFFFFFFFFFFFF AND DUP2 MSTORE PUSH1 0x20 ADD PUSH1 0x5 DUP3 ADD SLOAD DUP2 MSTORE PUSH1 0x20 ADD PUSH1 0x6 DUP3 ADD PUSH1 0x0 SWAP1 SLOAD SWAP1 PUSH2 0x100 EXP SWAP1 DIV PUSH1 0xFF AND ISZERO ISZERO ISZERO ISZERO DUP2 MSTORE POP POP SWAP3 POP DUP2 PUSH1 0x40 MLOAD DUP1 PUSH1 0xA0 ADD PUSH1 0x40 MSTORE SWAP1 DUP2 PUSH1 0x0 DUP3 ADD DUP1 SLOAD PUSH2 0x10DF SWAP1 PUSH2 0x5775 JUMP JUMPDEST DUP1 PUSH1 0x1F ADD PUSH1 0x20 DUP1 SWAP2 DIV MUL PUSH1 0x20 ADD PUSH1 0x40 MLOAD SWAP1 DUP2 ADD PUSH1 0x40 MSTORE DUP1 SWAP3 SWAP2 SWAP1 DUP2 DUP2 MSTORE PUSH1 0x20 ADD DUP3 DUP1 SLOAD PUSH2 0x110B SWAP1 PUSH2 0x5775 JUMP JUMPDEST DUP1 ISZERO PUSH2 0x1158 JUMPI DUP1 PUSH1 0x1F LT PUSH2 0x112D JUMPI PUSH2 0x100 DUP1 DUP4 SLOAD DIV MUL DUP4 MSTORE SWAP2 PUSH1 0x20 ADD SWAP2 PUSH2 0x1158 JUMP JUMPDEST DUP3 ADD SWAP2 SWAP1 PUSH1 0x0 MSTORE PUSH1 0x20 PUSH1 0x0 KECCAK256 SWAP1 JUMPDEST DUP2 SLOAD DUP2 MSTORE SWAP1 PUSH1 0x1 ADD SWAP1 PUSH1 0x20 ADD DUP1 DUP4 GT PUSH2 0x113B JUMPI DUP3 SWAP1 SUB PUSH1 0x1F AND DUP3 ADD SWAP2 JUMPDEST POP POP POP POP POP DUP2 MSTORE PUSH1 0x20 ADD PUSH1 0x1 DUP3 ADD DUP1 SLOAD PUSH2 0x1171 SWAP1 PUSH2 0x5775 JUMP JUMPDEST DUP1 PUSH1 0x1F ADD PUSH1 0x20 DUP1 SWAP2 DIV MUL PUSH1 0x20 ADD PUSH1 0x40 MLOAD SWAP1 DUP2 ADD PUSH1 0x40 MSTORE DUP1 SWAP3 SWAP2 SWAP1 DUP2 DUP2 MSTORE PUSH1 0x20 ADD DUP3 DUP1 SLOAD PUSH2 0x119D SWAP1 PUSH2 0x5775 JUMP JUMPDEST DUP1 ISZERO PUSH2 0x11EA JUMPI DUP1 PUSH1 0x1F LT PUSH2 0x11BF JUMPI PUSH2 0x100 DUP1 DUP4 SLOAD DIV MUL DUP4 MSTORE SWAP2 PUSH1 0x20 ADD SWAP2 PUSH2 0x11EA JUMP JUMPDEST DUP3 ADD SWAP2 SWAP1 PUSH1 0x0 MSTORE PUSH1 0x20 PUSH1 0x0 KECCAK256 SWAP1 JUMPDEST DUP2 SLOAD DUP2 MSTORE SWAP1 PUSH1 0x1 ADD SWAP1 PUSH1 0x20 ADD DUP1 DUP4 GT PUSH2 0x11CD JUMPI DUP3 SWAP1 SUB PUSH1 0x1F AND DUP3 ADD SWAP2 JUMPDEST POP POP POP POP POP DUP2 MSTORE PUSH1 0x20 ADD PUSH1 0x2 DUP3 ADD SLOAD DUP2 MSTORE PUSH1 0x20 ADD PUSH1 0x3 DUP3 ADD SLOAD DUP2 MSTORE PUSH1 0x20 ADD PUSH1 0x4 DUP3 ADD DUP1 SLOAD PUSH2 0x1217 SWAP1 PUSH2 0x5775 JUMP JUMPDEST DUP1 PUSH1 0x1F ADD PUSH1 0x20 DUP1 SWAP2 DIV MUL PUSH1 0x20 ADD PUSH1 0x40 MLOAD SWAP1 DUP2 ADD PUSH1 0x40 MSTORE DUP1 SWAP3 SWAP2 SWAP1 DUP2 DUP2 MSTORE PUSH1 0x20 ADD DUP3 DUP1 SLOAD PUSH2 0x1243 SWAP1 PUSH2 0x5775 JUMP JUMPDEST DUP1 ISZERO PUSH2 0x1290 JUMPI DUP1 PUSH1 0x1F LT PUSH2 0x1265 JUMPI PUSH2 0x100 DUP1 DUP4 SLOAD DIV MUL DUP4 MSTORE SWAP2 PUSH1 0x20 ADD SWAP2 PUSH2 0x1290 JUMP JUMPDEST DUP3 ADD SWAP2 SWAP1 PUSH1 0x0 MSTORE PUSH1 0x20 PUSH1 0x0 KECCAK256 SWAP1 JUMPDEST DUP2 SLOAD DUP2 MSTORE SWAP1 PUSH1 0x1 ADD SWAP1 PUSH1 0x20 ADD DUP1 DUP4 GT PUSH2 0x1273 JUMPI DUP3 SWAP1 SUB PUSH1 0x1F AND DUP3 ADD SWAP2 JUMPDEST POP POP POP POP POP DUP2 MSTORE POP POP SWAP2 POP DUP1 PUSH1 0x40 MLOAD DUP1 PUSH1 0xC0 ADD PUSH1 0x40 MSTORE SWAP1 DUP2 PUSH1 0x0 DUP3 ADD DUP1 SLOAD PUSH2 0x12B7 SWAP1 PUSH2 0x5775 JUMP JUMPDEST DUP1 PUSH1 0x1F ADD PUSH1 0x20 DUP1 SWAP2 DIV MUL PUSH1 0x20 ADD PUSH1 0x40 MLOAD SWAP1 DUP2 ADD PUSH1 0x40 MSTORE DUP1 SWAP3 SWAP2 SWAP1 DUP2 DUP2 MSTORE PUSH1 0x20 ADD DUP3 DUP1 SLOAD PUSH2 0x12E3 SWAP1 PUSH2 0x5775 JUMP JUMPDEST DUP1 ISZERO PUSH2 0x1330 JUMPI DUP1 PUSH1 0x1F LT PUSH2 0x1305 JUMPI PUSH2 0x100 DUP1 DUP4 SLOAD DIV MUL DUP4 MSTORE SWAP2 PUSH1 0x20 ADD SWAP2 PUSH2 0x1330 JUMP JUMPDEST DUP3 ADD SWAP2 SWAP1 PUSH1 0x0 MSTORE PUSH1 0x20 PUSH1 0x0 KECCAK256 SWAP1 JUMPDEST DUP2 SLOAD DUP2 MSTORE SWAP1 PUSH1 0x1 ADD SWAP1 PUSH1 0x20 ADD DUP1 DUP4 GT PUSH2 0x1313 JUMPI DUP3 SWAP1 SUB PUSH1 0x1F AND DUP3 ADD SWAP2 JUMPDEST POP POP POP POP POP DUP2 MSTORE PUSH1 0x20 ADD PUSH1 0x1 DUP3 ADD SLOAD DUP2 MSTORE PUSH1 0x20 ADD PUSH1 0x2 DUP3 ADD DUP1 SLOAD PUSH2 0x1353 SWAP1 PUSH2 0x5775 JUMP JUMPDEST DUP1 PUSH1 0x1F ADD PUSH1 0x20 DUP1 SWAP2 DIV MUL PUSH1 0x20 ADD PUSH1 0x40 MLOAD SWAP1 DUP2 ADD PUSH1 0x40 MSTORE DUP1 SWAP3 SWAP2 SWAP1 DUP2 DUP2 MSTORE PUSH1 0x20 ADD DUP3 DUP1 SLOAD PUSH2 0x137F SWAP1 PUSH2 0x5775 JUMP JUMPDEST DUP1 ISZERO PUSH2 0x13CC JUMPI DUP1 PUSH1 0x1F LT PUSH2 0x13A1 JUMPI PUSH2 0x100 DUP1 DUP4 SLOAD DIV MUL DUP4 MSTORE SWAP2 PUSH1 0x20 ADD SWAP2 PUSH2 0x13CC JUMP JUMPDEST DUP3 ADD SWAP2 SWAP1 PUSH1 0x0 MSTORE PUSH1 0x20 PUSH1 0x0 KECCAK256 SWAP1 JUMPDEST DUP2 SLOAD DUP2 MSTORE SWAP1 PUSH1 0x1 ADD SWAP1 PUSH1 0x20 ADD DUP1 DUP4 GT PUSH2 0x13AF JUMPI DUP3 SWAP1 SUB PUSH1 0x1F AND DUP3 ADD SWAP2 JUMPDEST POP POP POP POP POP DUP2 MSTORE PUSH1 0x20 ADD PUSH1 0x3 DUP3 ADD SLOAD DUP2 MSTORE PUSH1 0x20 ADD PUSH1 0x4 DUP3 ADD PUSH1 0x40 MLOAD DUP1 PUSH1 0x60 ADD PUSH1 0x40 MSTORE SWAP1 DUP2 PUSH1 0x0 DUP3 ADD DUP1 SLOAD PUSH2 0x13FF SWAP1 PUSH2 0x5775 JUMP JUMPDEST DUP1 PUSH1 0x1F ADD PUSH1 0x20 DUP1 SWAP2 DIV MUL PUSH1 0x20 ADD PUSH1 0x40 MLOAD SWAP1 DUP2 ADD PUSH1 0x40 MSTORE DUP1 SWAP3 SWAP2 SWAP1 DUP2 DUP2 MSTORE PUSH1 0x20 ADD DUP3 DUP1 SLOAD PUSH2 0x142B SWAP1 PUSH2 0x5775 JUMP JUMPDEST DUP1 ISZERO PUSH2 0x1478 JUMPI DUP1 PUSH1 0x1F LT PUSH2 0x144D JUMPI PUSH2 0x100 DUP1 DUP4 SLOAD DIV MUL DUP4 MSTORE SWAP2 PUSH1 0x20 ADD SWAP2 PUSH2 0x1478 JUMP JUMPDEST DUP3 ADD SWAP2 SWAP1 PUSH1 0x0 MSTORE PUSH1 0x20 PUSH1 0x0 KECCAK256 SWAP1 JUMPDEST DUP2 SLOAD DUP2 MSTORE SWAP1 PUSH1 0x1 ADD SWAP1 PUSH1 0x20 ADD DUP1 DUP4 GT PUSH2 0x145B JUMPI DUP3 SWAP1 SUB PUSH1 0x1F AND DUP3 ADD SWAP2 JUMPDEST POP POP POP POP POP DUP2 MSTORE PUSH1 0x20 ADD PUSH1 0x1 DUP3 ADD DUP1 SLOAD PUSH2 0x1491 SWAP1 PUSH2 0x5775 JUMP JUMPDEST DUP1 PUSH1 0x1F ADD PUSH1 0x20 DUP1 SWAP2 DIV MUL PUSH1 0x20 ADD PUSH1 0x40 MLOAD SWAP1 DUP2 ADD PUSH1 0x40 MSTORE DUP1 SWAP3 SWAP2 SWAP1 DUP2 DUP2 MSTORE PUSH1 0x20 ADD DUP3 DUP1 SLOAD PUSH2 0x14BD SWAP1 PUSH2 0x5775 JUMP JUMPDEST DUP1 ISZERO PUSH2 0x150A JUMPI DUP1 PUSH1 0x1F LT PUSH2 0x14DF JUMPI PUSH2 0x100 DUP1 DUP4 SLOAD DIV MUL DUP4 MSTORE SWAP2 PUSH1 0x20 ADD SWAP2 PUSH2 0x150A JUMP JUMPDEST DUP3 ADD SWAP2 SWAP1 PUSH1 0x0 MSTORE PUSH1 0x20 PUSH1 0x0 KECCAK256 SWAP1 JUMPDEST DUP2 SLOAD DUP2 MSTORE SWAP1 PUSH1 0x1 ADD SWAP1 PUSH1 0x20 ADD DUP1 DUP4 GT PUSH2 0x14ED JUMPI DUP3 SWAP1 SUB PUSH1 0x1F AND DUP3 ADD SWAP2 JUMPDEST POP POP POP POP POP DUP2 MSTORE PUSH1 0x20 ADD PUSH1 0x2 DUP3 ADD DUP1 SLOAD PUSH2 0x1523 SWAP1 PUSH2 0x5775 JUMP JUMPDEST DUP1 PUSH1 0x1F ADD PUSH1 0x20 DUP1 SWAP2 DIV MUL PUSH1 0x20 ADD PUSH1 0x40 MLOAD SWAP1 DUP2 ADD PUSH1 0x40 MSTORE DUP1 SWAP3 SWAP2 SWAP1 DUP2 DUP2 MSTORE PUSH1 0x20 ADD DUP3 DUP1 SLOAD PUSH2 0x154F SWAP1 PUSH2 0x5775 JUMP JUMPDEST DUP1 ISZERO PUSH2 0x159C JUMPI DUP1 PUSH1 0x1F LT PUSH2 0x1571 JUMPI PUSH2 0x100 DUP1 DUP4 SLOAD DIV MUL DUP4 MSTORE SWAP2 PUSH1 0x20 ADD SWAP2 PUSH2 0x159C JUMP JUMPDEST DUP3 ADD SWAP2 SWAP1 PUSH1 0x0 MSTORE PUSH1 0x20 PUSH1 0x0 KECCAK256 SWAP1 JUMPDEST DUP2 SLOAD DUP2 MSTORE SWAP1 PUSH1 0x1 ADD SWAP1 PUSH1 0x20 ADD DUP1 DUP4 GT PUSH2 0x157F JUMPI DUP3 SWAP1 SUB PUSH1 0x1F AND DUP3 ADD SWAP2 JUMPDEST POP POP POP POP POP DUP2 MSTORE POP POP DUP2 MSTORE PUSH1 0x20 ADD PUSH1 0x7 DUP3 ADD SLOAD DUP2 MSTORE POP POP SWAP1 POP SWAP3 POP SWAP3 POP SWAP3 POP SWAP2 SWAP4 SWAP1 SWAP3 POP JUMP JUMPDEST PUSH1 0x2 DUP2 DUP1 MLOAD PUSH1 0x20 DUP2 ADD DUP3 ADD DUP1 MLOAD DUP5 DUP3 MSTORE PUSH1 0x20 DUP4 ADD PUSH1 0x20 DUP6 ADD KECCAK256 DUP2 DUP4 MSTORE DUP1 SWAP6 POP POP POP POP POP POP PUSH1 0x0 SWAP2 POP SWAP1 POP DUP1 PUSH1 0x0 ADD DUP1 SLOAD PUSH2 0x15FB SWAP1 PUSH2 0x5775 JUMP JUMPDEST DUP1 PUSH1 0x1F ADD PUSH1 0x20 DUP1 SWAP2 DIV MUL PUSH1 0x20 ADD PUSH1 0x40 MLOAD SWAP1 DUP2 ADD PUSH1 0x40 MSTORE DUP1 SWAP3 SWAP2 SWAP1 DUP2 DUP2 MSTORE PUSH1 0x20 ADD DUP3 DUP1 SLOAD PUSH2 0x1627 SWAP1 PUSH2 0x5775 JUMP JUMPDEST DUP1 ISZERO PUSH2 0x1674 JUMPI DUP1 PUSH1 0x1F LT PUSH2 0x1649 JUMPI PUSH2 0x100 DUP1 DUP4 SLOAD DIV MUL DUP4 MSTORE SWAP2 PUSH1 0x20 ADD SWAP2 PUSH2 0x1674 JUMP JUMPDEST DUP3 ADD SWAP2 SWAP1 PUSH1 0x0 MSTORE PUSH1 0x20 PUSH1 0x0 KECCAK256 SWAP1 JUMPDEST DUP2 SLOAD DUP2 MSTORE SWAP1 PUSH1 0x1 ADD SWAP1 PUSH1 0x20 ADD DUP1 DUP4 GT PUSH2 0x1657 JUMPI DUP3 SWAP1 SUB PUSH1 0x1F AND DUP3 ADD SWAP2 JUMPDEST POP POP POP POP POP SWAP1 DUP1 PUSH1 0x1 ADD SLOAD SWAP1 DUP1 PUSH1 0x2 ADD DUP1 SLOAD PUSH2 0x168F SWAP1 PUSH2 0x5775 JUMP JUMPDEST DUP1 PUSH1 0x1F ADD PUSH1 0x20 DUP1 SWAP2 DIV MUL PUSH1 0x20 ADD PUSH1 0x40 MLOAD SWAP1 DUP2 ADD PUSH1 0x40 MSTORE DUP1 SWAP3 SWAP2 SWAP1 DUP2 DUP2 MSTORE PUSH1 0x20 ADD DUP3 DUP1 SLOAD PUSH2 0x16BB SWAP1 PUSH2 0x5775 JUMP JUMPDEST DUP1 ISZERO PUSH2 0x1708 JUMPI DUP1 PUSH1 0x1F LT PUSH2 0x16DD JUMPI PUSH2 0x100 DUP1 DUP4 SLOAD DIV MUL DUP4 MSTORE SWAP2 PUSH1 0x20 ADD SWAP2 PUSH2 0x1708 JUMP JUMPDEST DUP3 ADD SWAP2 SWAP1 PUSH1 0x0 MSTORE PUSH1 0x20 PUSH1 0x0 KECCAK256 SWAP1 JUMPDEST DUP2 SLOAD DUP2 MSTORE SWAP1 PUSH1 0x1 ADD SWAP1 PUSH1 0x20 ADD DUP1 DUP4 GT PUSH2 0x16EB JUMPI DUP3 SWAP1 SUB PUSH1 0x1F AND DUP3 ADD SWAP2 JUMPDEST POP POP POP POP POP SWAP1 DUP1 PUSH1 0x3 ADD SLOAD SWAP1 DUP1 PUSH1 0x4 ADD PUSH1 0x40 MLOAD DUP1 PUSH1 0x60 ADD PUSH1 0x40 MSTORE SWAP1 DUP2 PUSH1 0x0 DUP3 ADD DUP1 SLOAD PUSH2 0x1733 SWAP1 PUSH2 0x5775 JUMP JUMPDEST DUP1 PUSH1 0x1F ADD PUSH1 0x20 DUP1 SWAP2 DIV MUL PUSH1 0x20 ADD PUSH1 0x40 MLOAD SWAP1 DUP2 ADD PUSH1 0x40 MSTORE DUP1 SWAP3 SWAP2 SWAP1 DUP2 DUP2 MSTORE PUSH1 0x20 ADD DUP3 DUP1 SLOAD PUSH2 0x175F SWAP1 PUSH2 0x5775 JUMP JUMPDEST DUP1 ISZERO PUSH2 0x17AC JUMPI DUP1 PUSH1 0x1F LT PUSH2 0x1781 JUMPI PUSH2 0x100 DUP1 DUP4 SLOAD DIV MUL DUP4 MSTORE SWAP2 PUSH1 0x20 ADD SWAP2 PUSH2 0x17AC JUMP JUMPDEST DUP3 ADD SWAP2 SWAP1 PUSH1 0x0 MSTORE PUSH1 0x20 PUSH1 0x0 KECCAK256 SWAP1 JUMPDEST DUP2 SLOAD DUP2 MSTORE SWAP1 PUSH1 0x1 ADD SWAP1 PUSH1 0x20 ADD DUP1 DUP4 GT PUSH2 0x178F JUMPI DUP3 SWAP1 SUB PUSH1 0x1F AND DUP3 ADD SWAP2 JUMPDEST POP POP POP POP POP DUP2 MSTORE PUSH1 0x20 ADD PUSH1 0x1 DUP3 ADD DUP1 SLOAD PUSH2 0x17C5 SWAP1 PUSH2 0x5775 JUMP JUMPDEST DUP1 PUSH1 0x1F ADD PUSH1 0x20 DUP1 SWAP2 DIV MUL PUSH1 0x20 ADD PUSH1 0x40 MLOAD SWAP1 DUP2 ADD PUSH1 0x40 MSTORE DUP1 SWAP3 SWAP2 SWAP1 DUP2 DUP2 MSTORE PUSH1 0x20 ADD DUP3 DUP1 SLOAD PUSH2 0x17F1 SWAP1 PUSH2 0x5775 JUMP JUMPDEST DUP1 ISZERO PUSH2 0x183E JUMPI DUP1 PUSH1 0x1F LT PUSH2 0x1813 JUMPI PUSH2 0x100 DUP1 DUP4 SLOAD DIV MUL DUP4 MSTORE SWAP2 PUSH1 0x20 ADD SWAP2 PUSH2 0x183E JUMP JUMPDEST DUP3 ADD SWAP2 SWAP1 PUSH1 0x0 MSTORE PUSH1 0x20 PUSH1 0x0 KECCAK256 SWAP1 JUMPDEST DUP2 SLOAD DUP2 MSTORE SWAP1 PUSH1 0x1 ADD SWAP1 PUSH1 0x20 ADD DUP1 DUP4 GT PUSH2 0x1821 JUMPI DUP3 SWAP1 SUB PUSH1 0x1F AND DUP3 ADD SWAP2 JUMPDEST POP POP POP POP POP DUP2 MSTORE PUSH1 0x20 ADD PUSH1 0x2 DUP3 ADD DUP1 SLOAD PUSH2 0x1857 SWAP1 PUSH2 0x5775 JUMP JUMPDEST DUP1 PUSH1 0x1F ADD PUSH1 0x20 DUP1 SWAP2 DIV MUL PUSH1 0x20 ADD PUSH1 0x40 MLOAD SWAP1 DUP2 ADD PUSH1 0x40 MSTORE DUP1 SWAP3 SWAP2 SWAP1 DUP2 DUP2 MSTORE PUSH1 0x20 ADD DUP3 DUP1 SLOAD PUSH2 0x1883 SWAP1 PUSH2 0x5775 JUMP JUMPDEST DUP1 ISZERO PUSH2 0x18D0 JUMPI DUP1 PUSH1 0x1F LT PUSH2 0x18A5 JUMPI PUSH2 0x100 DUP1 DUP4 SLOAD DIV MUL DUP4 MSTORE SWAP2 PUSH1 0x20 ADD SWAP2 PUSH2 0x18D0 JUMP JUMPDEST DUP3 ADD SWAP2 SWAP1 PUSH1 0x0 MSTORE PUSH1 0x20 PUSH1 0x0 KECCAK256 SWAP1 JUMPDEST DUP2 SLOAD DUP2 MSTORE SWAP1 PUSH1 0x1 ADD SWAP1 PUSH1 0x20 ADD DUP1 DUP4 GT PUSH2 0x18B3 JUMPI DUP3 SWAP1 SUB PUSH1 0x1F AND DUP3 ADD SWAP2 JUMPDEST POP POP POP POP POP DUP2 MSTORE POP POP SWAP1 DUP1 PUSH1 0x7 ADD SLOAD SWAP1 POP DUP7 JUMP JUMPDEST PUSH1 0x5 DUP3 DUP1 MLOAD PUSH1 0x20 DUP2 ADD DUP3 ADD DUP1 MLOAD DUP5 DUP3 MSTORE PUSH1 0x20 DUP4 ADD PUSH1 0x20 DUP6 ADD KECCAK256 DUP2 DUP4 MSTORE DUP1 SWAP6 POP POP POP POP POP POP DUP2 DUP2 SLOAD DUP2 LT PUSH2 0x1916 JUMPI PUSH1 0x0 DUP1 REVERT JUMPDEST SWAP1 PUSH1 0x0 MSTORE PUSH1 0x20 PUSH1 0x0 KECCAK256 ADD PUSH1 0x0 SWAP2 POP SWAP2 POP POP DUP1 SLOAD PUSH2 0x1932 SWAP1 PUSH2 0x5775 JUMP JUMPDEST DUP1 PUSH1 0x1F ADD PUSH1 0x20 DUP1 SWAP2 DIV MUL PUSH1 0x20 ADD PUSH1 0x40 MLOAD SWAP1 DUP2 ADD PUSH1 0x40 MSTORE DUP1 SWAP3 SWAP2 SWAP1 DUP2 DUP2 MSTORE PUSH1 0x20 ADD DUP3 DUP1 SLOAD PUSH2 0x195E SWAP1 PUSH2 0x5775 JUMP JUMPDEST DUP1 ISZERO PUSH2 0x19AB JUMPI DUP1 PUSH1 0x1F LT PUSH2 0x1980 JUMPI PUSH2 0x100 DUP1 DUP4 SLOAD DIV MUL DUP4 MSTORE SWAP2 PUSH1 0x20 ADD SWAP2 PUSH2 0x19AB JUMP JUMPDEST DUP3 ADD SWAP2 SWAP1 PUSH1 0x0 MSTORE PUSH1 0x20 PUSH1 0x0 KECCAK256 SWAP1 JUMPDEST DUP2 SLOAD DUP2 MSTORE SWAP1 PUSH1 0x1 ADD SWAP1 PUSH1 0x20 ADD DUP1 DUP4 GT PUSH2 0x198E JUMPI DUP3 SWAP1 SUB PUSH1 0x1F AND DUP3 ADD SWAP2 JUMPDEST POP POP POP POP POP DUP2 JUMP JUMPDEST PUSH1 0x7 DUP4 DUP1 MLOAD PUSH1 0x20 DUP2 ADD DUP3 ADD DUP1 MLOAD DUP5 DUP3 MSTORE PUSH1 0x20 DUP4 ADD PUSH1 0x20 DUP6 ADD KECCAK256 DUP2 DUP4 MSTORE DUP1 SWAP6 POP POP POP POP POP POP DUP3 DUP1 MLOAD PUSH1 0x20 DUP2 ADD DUP3 ADD DUP1 MLOAD DUP5 DUP3 MSTORE PUSH1 0x20 DUP4 ADD PUSH1 0x20 DUP6 ADD KECCAK256 DUP2 DUP4 MSTORE DUP1 SWAP6 POP POP POP POP POP POP PUSH1 0x20 MSTORE DUP1 PUSH1 0x0 MSTORE PUSH1 0x40 PUSH1 0x0 KECCAK256 PUSH1 0x0 SWAP3 POP SWAP3 POP POP POP DUP1 PUSH1 0x0 ADD DUP1 SLOAD PUSH2 0x1A1C SWAP1 PUSH2 0x5775 JUMP JUMPDEST DUP1 PUSH1 0x1F ADD PUSH1 0x20 DUP1 SWAP2 DIV MUL PUSH1 0x20 ADD PUSH1 0x40 MLOAD SWAP1 DUP2 ADD PUSH1 0x40 MSTORE DUP1 SWAP3 SWAP2 SWAP1 DUP2 DUP2 MSTORE PUSH1 0x20 ADD DUP3 DUP1 SLOAD PUSH2 0x1A48 SWAP1 PUSH2 0x5775 JUMP JUMPDEST DUP1 ISZERO PUSH2 0x1A95 JUMPI DUP1 PUSH1 0x1F LT PUSH2 0x1A6A JUMPI PUSH2 0x100 DUP1 DUP4 SLOAD DIV MUL DUP4 MSTORE SWAP2 PUSH1 0x20 ADD SWAP2 PUSH2 0x1A95 JUMP JUMPDEST DUP3 ADD SWAP2 SWAP1 PUSH1 0x0 MSTORE PUSH1 0x20 PUSH1 0x0 KECCAK256 SWAP1 JUMPDEST DUP2 SLOAD DUP2 MSTORE SWAP1 PUSH1 0x1 ADD SWAP1 PUSH1 0x20 ADD DUP1 DUP4 GT PUSH2 0x1A78 JUMPI DUP3 SWAP1 SUB PUSH1 0x1F AND DUP3 ADD SWAP2 JUMPDEST POP POP POP POP POP SWAP1 DUP1 PUSH1 0x1 ADD DUP1 SLOAD PUSH2 0x1AAA SWAP1 PUSH2 0x5775 JUMP JUMPDEST DUP1 PUSH1 0x1F ADD PUSH1 0x20 DUP1 SWAP2 DIV MUL PUSH1 0x20 ADD PUSH1 0x40 MLOAD SWAP1 DUP2 ADD PUSH1 0x40 MSTORE DUP1 SWAP3 SWAP2 SWAP1 DUP2 DUP2 MSTORE PUSH1 0x20 ADD DUP3 DUP1 SLOAD PUSH2 0x1AD6 SWAP1 PUSH2 0x5775 JUMP JUMPDEST DUP1 ISZERO PUSH2 0x1B23 JUMPI DUP1 PUSH1 0x1F LT PUSH2 0x1AF8 JUMPI PUSH2 0x100 DUP1 DUP4 SLOAD DIV MUL DUP4 MSTORE SWAP2 PUSH1 0x20 ADD SWAP2 PUSH2 0x1B23 JUMP JUMPDEST DUP3 ADD SWAP2 SWAP1 PUSH1 0x0 MSTORE PUSH1 0x20 PUSH1 0x0 KECCAK256 SWAP1 JUMPDEST DUP2 SLOAD DUP2 MSTORE SWAP1 PUSH1 0x1 ADD SWAP1 PUSH1 0x20 ADD DUP1 DUP4 GT PUSH2 0x1B06 JUMPI DUP3 SWAP1 SUB PUSH1 0x1F AND DUP3 ADD SWAP2 JUMPDEST POP POP POP POP POP SWAP1 POP DUP3 JUMP JUMPDEST PUSH1 0x0 DUP7 PUSH1 0x40 MLOAD PUSH2 0x1B3D SWAP2 SWAP1 PUSH2 0x57E3 JUMP JUMPDEST SWAP1 DUP2 MSTORE PUSH1 0x20 ADD PUSH1 0x40 MLOAD DUP1 SWAP2 SUB SWAP1 KECCAK256 PUSH1 0x6 ADD PUSH1 0x0 SWAP1 SLOAD SWAP1 PUSH2 0x100 EXP SWAP1 DIV PUSH1 0xFF AND PUSH2 0x1B9B JUMPI PUSH1 0x40 MLOAD PUSH32 0x8C379A000000000000000000000000000000000000000000000000000000000 DUP2 MSTORE PUSH1 0x4 ADD PUSH2 0x1B92 SWAP1 PUSH2 0x5846 JUMP JUMPDEST PUSH1 0x40 MLOAD DUP1 SWAP2 SUB SWAP1 REVERT JUMPDEST CALLER PUSH20 0xFFFFFFFFFFFFFFFFFFFFFFFFFFFFFFFFFFFFFFFF AND PUSH1 0x0 DUP8 PUSH1 0x40 MLOAD PUSH2 0x1BC2 SWAP2 SWAP1 PUSH2 0x57E3 JUMP JUMPDEST SWAP1 DUP2 MSTORE PUSH1 0x20 ADD PUSH1 0x40 MLOAD DUP1 SWAP2 SUB SWAP1 KECCAK256 PUSH1 0x4 ADD PUSH1 0x0 SWAP1 SLOAD SWAP1 PUSH2 0x100 EXP SWAP1 DIV PUSH20 0xFFFFFFFFFFFFFFFFFFFFFFFFFFFFFFFFFFFFFFFF AND PUSH20 0xFFFFFFFFFFFFFFFFFFFFFFFFFFFFFFFFFFFFFFFF AND EQ PUSH2 0x1C4A JUMPI PUSH1 0x40 MLOAD PUSH32 0x8C379A000000000000000000000000000000000000000000000000000000000 DUP2 MSTORE PUSH1 0x4 ADD PUSH2 0x1C41 SWAP1 PUSH2 0x5950 JUMP JUMPDEST PUSH1 0x40 MLOAD DUP1 SWAP2 SUB SWAP1 REVERT JUMPDEST PUSH1 0x0 PUSH1 0x40 MLOAD DUP1 PUSH1 0x60 ADD PUSH1 0x40 MSTORE DUP1 DUP6 DUP2 MSTORE PUSH1 0x20 ADD DUP5 DUP2 MSTORE PUSH1 0x20 ADD DUP4 DUP2 MSTORE POP SWAP1 POP PUSH1 0x40 MLOAD DUP1 PUSH1 0xC0 ADD PUSH1 0x40 MSTORE DUP1 DUP9 DUP2 MSTORE PUSH1 0x20 ADD DUP8 DUP2 MSTORE PUSH1 0x20 ADD DUP7 DUP2 MSTORE PUSH1 0x20 ADD PUSH1 0x0 DUP2 MSTORE PUSH1 0x20 ADD DUP3 DUP2 MSTORE PUSH1 0x20 ADD TIMESTAMP DUP2 MSTORE POP PUSH1 0x2 DUP9 PUSH1 0x40 MLOAD PUSH2 0x1CA7 SWAP2 SWAP1 PUSH2 0x57E3 JUMP JUMPDEST SWAP1 DUP2 MSTORE PUSH1 0x20 ADD PUSH1 0x40 MLOAD DUP1 SWAP2 SUB SWAP1 KECCAK256 PUSH1 0x0 DUP3 ADD MLOAD DUP2 PUSH1 0x0 ADD SWAP1 DUP1 MLOAD SWAP1 PUSH1 0x20 ADD SWAP1 PUSH2 0x1CD1 SWAP3 SWAP2 SWAP1 PUSH2 0x3D14 JUMP JUMPDEST POP PUSH1 0x20 DUP3 ADD MLOAD DUP2 PUSH1 0x1 ADD SSTORE PUSH1 0x40 DUP3 ADD MLOAD DUP2 PUSH1 0x2 ADD SWAP1 DUP1 MLOAD SWAP1 PUSH1 0x20 ADD SWAP1 PUSH2 0x1CF8 SWAP3 SWAP2 SWAP1 PUSH2 0x3D14 JUMP JUMPDEST POP PUSH1 0x60 DUP3 ADD MLOAD DUP2 PUSH1 0x3 ADD SSTORE PUSH1 0x80 DUP3 ADD MLOAD DUP2 PUSH1 0x4 ADD PUSH1 0x0 DUP3 ADD MLOAD DUP2 PUSH1 0x0 ADD SWAP1 DUP1 MLOAD SWAP1 PUSH1 0x20 ADD SWAP1 PUSH2 0x1D28 SWAP3 SWAP2 SWAP1 PUSH2 0x3D14 JUMP JUMPDEST POP PUSH1 0x20 DUP3 ADD MLOAD DUP2 PUSH1 0x1 ADD SWAP1 DUP1 MLOAD SWAP1 PUSH1 0x20 ADD SWAP1 PUSH2 0x1D45 SWAP3 SWAP2 SWAP1 PUSH2 0x3D14 JUMP JUMPDEST POP PUSH1 0x40 DUP3 ADD MLOAD DUP2 PUSH1 0x2 ADD SWAP1 DUP1 MLOAD SWAP1 PUSH1 0x20 ADD SWAP1 PUSH2 0x1D62 SWAP3 SWAP2 SWAP1 PUSH2 0x3D14 JUMP JUMPDEST POP POP POP PUSH1 0xA0 DUP3 ADD MLOAD DUP2 PUSH1 0x7 ADD SSTORE SWAP1 POP POP PUSH32 0x968E07B7782097CE5138E06E36A63A1226DC1F8D3B782FE1F0A64C87A03385E7 DUP8 DUP8 PUSH1 0x40 MLOAD PUSH2 0x1DA3 SWAP3 SWAP2 SWAP1 PUSH2 0x5970 JUMP JUMPDEST PUSH1 0x40 MLOAD DUP1 SWAP2 SUB SWAP1 LOG1 POP POP POP POP POP POP POP JUMP JUMPDEST PUSH1 0x0 DUP5 PUSH1 0x40 MLOAD PUSH2 0x1DC4 SWAP2 SWAP1 PUSH2 0x57E3 JUMP JUMPDEST SWAP1 DUP2 MSTORE PUSH1 0x20 ADD PUSH1 0x40 MLOAD DUP1 SWAP2 SUB SWAP1 KECCAK256 PUSH1 0x6 ADD PUSH1 0x0 SWAP1 SLOAD SWAP1 PUSH2 0x100 EXP SWAP1 DIV PUSH1 0xFF AND PUSH2 0x1E22 JUMPI PUSH1 0x40 MLOAD PUSH32 0x8C379A000000000000000000000000000000000000000000000000000000000 DUP2 MSTORE PUSH1 0x4 ADD PUSH2 0x1E19 SWAP1 PUSH2 0x5846 JUMP JUMPDEST PUSH1 0x40 MLOAD DUP1 SWAP2 SUB SWAP1 REVERT JUMPDEST PUSH1 0x0 PUSH1 0x6 DUP6 PUSH1 0x40 MLOAD PUSH2 0x1E34 SWAP2 SWAP1 PUSH2 0x57E3 JUMP JUMPDEST SWAP1 DUP2 MSTORE PUSH1 0x20 ADD PUSH1 0x40 MLOAD DUP1 SWAP2 SUB SWAP1 KECCAK256 SWAP1 POP PUSH1 0x0 DUP1 PUSH1 0x0 SWAP1 POP PUSH1 0x0 JUMPDEST DUP4 DUP1 SLOAD SWAP1 POP DUP2 LT ISZERO PUSH2 0x1FE6 JUMPI PUSH2 0x1F10 DUP5 DUP3 DUP2 SLOAD DUP2 LT PUSH2 0x1E70 JUMPI PUSH2 0x1E6F PUSH2 0x59A0 JUMP JUMPDEST JUMPDEST SWAP1 PUSH1 0x0 MSTORE PUSH1 0x20 PUSH1 0x0 KECCAK256 SWAP1 PUSH1 0x8 MUL ADD PUSH1 0x0 ADD DUP1 SLOAD PUSH2 0x1E8C SWAP1 PUSH2 0x5775 JUMP JUMPDEST DUP1 PUSH1 0x1F ADD PUSH1 0x20 DUP1 SWAP2 DIV MUL PUSH1 0x20 ADD PUSH1 0x40 MLOAD SWAP1 DUP2 ADD PUSH1 0x40 MSTORE DUP1 SWAP3 SWAP2 SWAP1 DUP2 DUP2 MSTORE PUSH1 0x20 ADD DUP3 DUP1 SLOAD PUSH2 0x1EB8 SWAP1 PUSH2 0x5775 JUMP JUMPDEST DUP1 ISZERO PUSH2 0x1F05 JUMPI DUP1 PUSH1 0x1F LT PUSH2 0x1EDA JUMPI PUSH2 0x100 DUP1 DUP4 SLOAD DIV MUL DUP4 MSTORE SWAP2 PUSH1 0x20 ADD SWAP2 PUSH2 0x1F05 JUMP JUMPDEST DUP3 ADD SWAP2 SWAP1 PUSH1 0x0 MSTORE PUSH1 0x20 PUSH1 0x0 KECCAK256 SWAP1 JUMPDEST DUP2 SLOAD DUP2 MSTORE SWAP1 PUSH1 0x1 ADD SWAP1 PUSH1 0x20 ADD DUP1 DUP4 GT PUSH2 0x1EE8 JUMPI DUP3 SWAP1 SUB PUSH1 0x1F AND DUP3 ADD SWAP2 JUMPDEST POP POP POP POP POP DUP9 PUSH2 0x3CF9 JUMP JUMPDEST ISZERO PUSH2 0x1FD3 JUMPI CALLER PUSH20 0xFFFFFFFFFFFFFFFFFFFFFFFFFFFFFFFFFFFFFFFF AND DUP5 DUP3 DUP2 SLOAD DUP2 LT PUSH2 0x1F3F JUMPI PUSH2 0x1F3E PUSH2 0x59A0 JUMP JUMPDEST JUMPDEST SWAP1 PUSH1 0x0 MSTORE PUSH1 0x20 PUSH1 0x0 KECCAK256 SWAP1 PUSH1 0x8 MUL ADD PUSH1 0x7 ADD PUSH1 0x0 SWAP1 SLOAD SWAP1 PUSH2 0x100 EXP SWAP1 DIV PUSH20 0xFFFFFFFFFFFFFFFFFFFFFFFFFFFFFFFFFFFFFFFF AND PUSH20 0xFFFFFFFFFFFFFFFFFFFFFFFFFFFFFFFFFFFFFFFF AND EQ PUSH2 0x1FC7 JUMPI PUSH1 0x40 MLOAD PUSH32 0x8C379A000000000000000000000000000000000000000000000000000000000 DUP2 MSTORE PUSH1 0x4 ADD PUSH2 0x1FBE SWAP1 PUSH2 0x5A41 JUMP JUMPDEST PUSH1 0x40 MLOAD DUP1 SWAP2 SUB SWAP1 REVERT JUMPDEST DUP1 SWAP3 POP PUSH1 0x1 SWAP2 POP PUSH2 0x1FE6 JUMP JUMPDEST DUP1 DUP1 PUSH2 0x1FDE SWAP1 PUSH2 0x5895 JUMP JUMPDEST SWAP2 POP POP PUSH2 0x1E4E JUMP JUMPDEST POP DUP1 PUSH2 0x2027 JUMPI PUSH1 0x40 MLOAD PUSH32 0x8C379A000000000000000000000000000000000000000000000000000000000 DUP2 MSTORE PUSH1 0x4 ADD PUSH2 0x201E SWAP1 PUSH2 0x5AAD JUMP JUMPDEST PUSH1 0x40 MLOAD DUP1 SWAP2 SUB SWAP1 REVERT JUMPDEST DUP3 DUP3 DUP2 SLOAD DUP2 LT PUSH2 0x203A JUMPI PUSH2 0x2039 PUSH2 0x59A0 JUMP JUMPDEST JUMPDEST SWAP1 PUSH1 0x0 MSTORE PUSH1 0x20 PUSH1 0x0 KECCAK256 SWAP1 PUSH1 0x8 MUL ADD PUSH1 0x3 ADD PUSH1 0x0 DUP2 SLOAD DUP1 SWAP3 SWAP2 SWAP1 PUSH2 0x205C SWAP1 PUSH2 0x5895 JUMP JUMPDEST SWAP2 SWAP1 POP SSTORE POP PUSH1 0x0 DUP4 DUP4 DUP2 SLOAD DUP2 LT PUSH2 0x2076 JUMPI PUSH2 0x2075 PUSH2 0x59A0 JUMP JUMPDEST JUMPDEST SWAP1 PUSH1 0x0 MSTORE PUSH1 0x20 PUSH1 0x0 KECCAK256 SWAP1 PUSH1 0x8 MUL ADD PUSH1 0x3 ADD SLOAD SWAP1 POP PUSH1 0x40 MLOAD DUP1 PUSH1 0x40 ADD PUSH1 0x40 MSTORE DUP1 DUP8 DUP2 MSTORE PUSH1 0x20 ADD DUP7 DUP2 MSTORE POP PUSH1 0x7 DUP10 PUSH1 0x40 MLOAD PUSH2 0x20AF SWAP2 SWAP1 PUSH2 0x57E3 JUMP JUMPDEST SWAP1 DUP2 MSTORE PUSH1 0x20 ADD PUSH1 0x40 MLOAD DUP1 SWAP2 SUB SWAP1 KECCAK256 DUP9 PUSH1 0x40 MLOAD PUSH2 0x20CB SWAP2 SWAP1 PUSH2 0x57E3 JUMP JUMPDEST SWAP1 DUP2 MSTORE PUSH1 0x20 ADD PUSH1 0x40 MLOAD DUP1 SWAP2 SUB SWAP1 KECCAK256 PUSH1 0x0 DUP4 DUP2 MSTORE PUSH1 0x20 ADD SWAP1 DUP2 MSTORE PUSH1 0x20 ADD PUSH1 0x0 KECCAK256 PUSH1 0x0 DUP3 ADD MLOAD DUP2 PUSH1 0x0 ADD SWAP1 DUP1 MLOAD SWAP1 PUSH1 0x20 ADD SWAP1 PUSH2 0x2106 SWAP3 SWAP2 SWAP1 PUSH2 0x3D14 JUMP JUMPDEST POP PUSH1 0x20 DUP3 ADD MLOAD DUP2 PUSH1 0x1 ADD SWAP1 DUP1 MLOAD SWAP1 PUSH1 0x20 ADD SWAP1 PUSH2 0x2123 SWAP3 SWAP2 SWAP1 PUSH2 0x3D14 JUMP JUMPDEST POP SWAP1 POP POP PUSH32 0xF03570BEBDCB6A10FB55D959053C187A085FF4AA8AFBE3B793A3EB225014BE39 DUP8 DUP8 DUP8 PUSH1 0x40 MLOAD PUSH2 0x215A SWAP4 SWAP3 SWAP2 SWAP1 PUSH2 0x5ACD JUMP JUMPDEST PUSH1 0x40 MLOAD DUP1 SWAP2 SUB SWAP1 LOG1 POP POP POP POP POP POP POP POP JUMP JUMPDEST PUSH1 0x0 DUP3 PUSH1 0x40 MLOAD PUSH2 0x217C SWAP2 SWAP1 PUSH2 0x57E3 JUMP JUMPDEST SWAP1 DUP2 MSTORE PUSH1 0x20 ADD PUSH1 0x40 MLOAD DUP1 SWAP2 SUB SWAP1 KECCAK256 PUSH1 0x6 ADD PUSH1 0x0 SWAP1 SLOAD SWAP1 PUSH2 0x100 EXP SWAP1 DIV PUSH1 0xFF AND PUSH2 0x21DA JUMPI PUSH1 0x40 MLOAD PUSH32 0x8C379A000000000000000000000000000000000000000000000000000000000 DUP2 MSTORE PUSH1 0x4 ADD PUSH2 0x21D1 SWAP1 PUSH2 0x5846 JUMP JUMPDEST PUSH1 0x40 MLOAD DUP1 SWAP2 SUB SWAP1 REVERT JUMPDEST CALLER PUSH20 0xFFFFFFFFFFFFFFFFFFFFFFFFFFFFFFFFFFFFFFFF AND PUSH1 0x0 DUP4 PUSH1 0x40 MLOAD PUSH2 0x2201 SWAP2 SWAP1 PUSH2 0x57E3 JUMP JUMPDEST SWAP1 DUP2 MSTORE PUSH1 0x20 ADD PUSH1 0x40 MLOAD DUP1 SWAP2 SUB SWAP1 KECCAK256 PUSH1 0x4 ADD PUSH1 0x0 SWAP1 SLOAD SWAP1 PUSH2 0x100 EXP SWAP1 DIV PUSH20 0xFFFFFFFFFFFFFFFFFFFFFFFFFFFFFFFFFFFFFFFF AND PUSH20 0xFFFFFFFFFFFFFFFFFFFFFFFFFFFFFFFFFFFFFFFF AND EQ PUSH2 0x2289 JUMPI PUSH1 0x40 MLOAD PUSH32 0x8C379A000000000000000000000000000000000000000000000000000000000 DUP2 MSTORE PUSH1 0x4 ADD PUSH2 0x2280 SWAP1 PUSH2 0x5B8B JUMP JUMPDEST PUSH1 0x40 MLOAD DUP1 SWAP2 SUB SWAP1 REVERT JUMPDEST PUSH1 0x5 DUP3 PUSH1 0x40 MLOAD PUSH2 0x2299 SWAP2 SWAP1 PUSH2 0x57E3 JUMP JUMPDEST SWAP1 DUP2 MSTORE PUSH1 0x20 ADD PUSH1 0x40 MLOAD DUP1 SWAP2 SUB SWAP1 KECCAK256 DUP2 SWAP1 DUP1 PUSH1 0x1 DUP2 SLOAD ADD DUP1 DUP3 SSTORE DUP1 SWAP2 POP POP PUSH1 0x1 SWAP1 SUB SWAP1 PUSH1 0x0 MSTORE PUSH1 0x20 PUSH1 0x0 KECCAK256 ADD PUSH1 0x0 SWAP1 SWAP2 SWAP1 SWAP2 SWAP1 SWAP2 POP SWAP1 DUP1 MLOAD SWAP1 PUSH1 0x20 ADD SWAP1 PUSH2 0x22E0 SWAP3 SWAP2 SWAP1 PUSH2 0x3D14 JUMP JUMPDEST POP PUSH32 0x3295E870DC2B7F3995CB85C0F3C917C1C64252FA98FEEA8E078D6A267081057F DUP3 DUP3 PUSH1 0x40 MLOAD PUSH2 0x2312 SWAP3 SWAP2 SWAP1 PUSH2 0x496F JUMP JUMPDEST PUSH1 0x40 MLOAD DUP1 SWAP2 SUB SWAP1 LOG1 POP POP JUMP JUMPDEST PUSH1 0x60 DUP1 PUSH1 0x0 PUSH1 0x2 DUP5 PUSH1 0x40 MLOAD PUSH2 0x2333 SWAP2 SWAP1 PUSH2 0x57E3 JUMP JUMPDEST SWAP1 DUP2 MSTORE PUSH1 0x20 ADD PUSH1 0x40 MLOAD DUP1 SWAP2 SUB SWAP1 KECCAK256 PUSH1 0x3 ADD SLOAD SWAP1 POP DUP1 PUSH8 0xFFFFFFFFFFFFFFFF DUP2 GT ISZERO PUSH2 0x2361 JUMPI PUSH2 0x2360 PUSH2 0x4039 JUMP JUMPDEST JUMPDEST PUSH1 0x40 MLOAD SWAP1 DUP1 DUP3 MSTORE DUP1 PUSH1 0x20 MUL PUSH1 0x20 ADD DUP3 ADD PUSH1 0x40 MSTORE DUP1 ISZERO PUSH2 0x239A JUMPI DUP2 PUSH1 0x20 ADD JUMPDEST PUSH2 0x2387 PUSH2 0x3E5A JUMP JUMPDEST DUP2 MSTORE PUSH1 0x20 ADD SWAP1 PUSH1 0x1 SWAP1 SUB SWAP1 DUP2 PUSH2 0x237F JUMPI SWAP1 POP JUMPDEST POP SWAP3 POP DUP1 PUSH8 0xFFFFFFFFFFFFFFFF DUP2 GT ISZERO PUSH2 0x23B7 JUMPI PUSH2 0x23B6 PUSH2 0x4039 JUMP JUMPDEST JUMPDEST PUSH1 0x40 MLOAD SWAP1 DUP1 DUP3 MSTORE DUP1 PUSH1 0x20 MUL PUSH1 0x20 ADD DUP3 ADD PUSH1 0x40 MSTORE DUP1 ISZERO PUSH2 0x23EA JUMPI DUP2 PUSH1 0x20 ADD JUMPDEST PUSH1 0x60 DUP2 MSTORE PUSH1 0x20 ADD SWAP1 PUSH1 0x1 SWAP1 SUB SWAP1 DUP2 PUSH2 0x23D5 JUMPI SWAP1 POP JUMPDEST POP SWAP2 POP PUSH1 0x0 PUSH1 0x1 SWAP1 POP JUMPDEST DUP2 DUP2 GT PUSH2 0x26C9 JUMPI PUSH1 0x3 DUP6 PUSH1 0x40 MLOAD PUSH2 0x240B SWAP2 SWAP1 PUSH2 0x57E3 JUMP JUMPDEST SWAP1 DUP2 MSTORE PUSH1 0x20 ADD PUSH1 0x40 MLOAD DUP1 SWAP2 SUB SWAP1 KECCAK256 PUSH1 0x0 DUP3 DUP2 MSTORE PUSH1 0x20 ADD SWAP1 DUP2 MSTORE PUSH1 0x20 ADD PUSH1 0x0 KECCAK256 PUSH1 0x40 MLOAD DUP1 PUSH1 0x60 ADD PUSH1 0x40 MSTORE SWAP1 DUP2 PUSH1 0x0 DUP3 ADD SLOAD DUP2 MSTORE PUSH1 0x20 ADD PUSH1 0x1 DUP3 ADD DUP1 SLOAD PUSH2 0x244F SWAP1 PUSH2 0x5775 JUMP JUMPDEST DUP1 PUSH1 0x1F ADD PUSH1 0x20 DUP1 SWAP2 DIV MUL PUSH1 0x20 ADD PUSH1 0x40 MLOAD SWAP1 DUP2 ADD PUSH1 0x40 MSTORE DUP1 SWAP3 SWAP2 SWAP1 DUP2 DUP2 MSTORE PUSH1 0x20 ADD DUP3 DUP1 SLOAD PUSH2 0x247B SWAP1 PUSH2 0x5775 JUMP JUMPDEST DUP1 ISZERO PUSH2 0x24C8 JUMPI DUP1 PUSH1 0x1F LT PUSH2 0x249D JUMPI PUSH2 0x100 DUP1 DUP4 SLOAD DIV MUL DUP4 MSTORE SWAP2 PUSH1 0x20 ADD SWAP2 PUSH2 0x24C8 JUMP JUMPDEST DUP3 ADD SWAP2 SWAP1 PUSH1 0x0 MSTORE PUSH1 0x20 PUSH1 0x0 KECCAK256 SWAP1 JUMPDEST DUP2 SLOAD DUP2 MSTORE SWAP1 PUSH1 0x1 ADD SWAP1 PUSH1 0x20 ADD DUP1 DUP4 GT PUSH2 0x24AB JUMPI DUP3 SWAP1 SUB PUSH1 0x1F AND DUP3 ADD SWAP2 JUMPDEST POP POP POP POP POP DUP2 MSTORE PUSH1 0x20 ADD PUSH1 0x2 DUP3 ADD DUP1 SLOAD PUSH2 0x24E1 SWAP1 PUSH2 0x5775 JUMP JUMPDEST DUP1 PUSH1 0x1F ADD PUSH1 0x20 DUP1 SWAP2 DIV MUL PUSH1 0x20 ADD PUSH1 0x40 MLOAD SWAP1 DUP2 ADD PUSH1 0x40 MSTORE DUP1 SWAP3 SWAP2 SWAP1 DUP2 DUP2 MSTORE PUSH1 0x20 ADD DUP3 DUP1 SLOAD PUSH2 0x250D SWAP1 PUSH2 0x5775 JUMP JUMPDEST DUP1 ISZERO PUSH2 0x255A JUMPI DUP1 PUSH1 0x1F LT PUSH2 0x252F JUMPI PUSH2 0x100 DUP1 DUP4 SLOAD DIV MUL DUP4 MSTORE SWAP2 PUSH1 0x20 ADD SWAP2 PUSH2 0x255A JUMP JUMPDEST DUP3 ADD SWAP2 SWAP1 PUSH1 0x0 MSTORE PUSH1 0x20 PUSH1 0x0 KECCAK256 SWAP1 JUMPDEST DUP2 SLOAD DUP2 MSTORE SWAP1 PUSH1 0x1 ADD SWAP1 PUSH1 0x20 ADD DUP1 DUP4 GT PUSH2 0x253D JUMPI DUP3 SWAP1 SUB PUSH1 0x1F AND DUP3 ADD SWAP2 JUMPDEST POP POP POP POP POP DUP2 MSTORE POP POP DUP5 PUSH1 0x1 DUP4 PUSH2 0x2571 SWAP2 SWAP1 PUSH2 0x5BAB JUMP JUMPDEST DUP2 MLOAD DUP2 LT PUSH2 0x2582 JUMPI PUSH2 0x2581 PUSH2 0x59A0 JUMP JUMPDEST JUMPDEST PUSH1 0x20 MUL PUSH1 0x20 ADD ADD DUP2 SWAP1 MSTORE POP PUSH1 0x4 DUP6 PUSH1 0x40 MLOAD PUSH2 0x259D SWAP2 SWAP1 PUSH2 0x57E3 JUMP JUMPDEST SWAP1 DUP2 MSTORE PUSH1 0x20 ADD PUSH1 0x40 MLOAD DUP1 SWAP2 SUB SWAP1 KECCAK256 PUSH1 0x0 DUP3 DUP2 MSTORE PUSH1 0x20 ADD SWAP1 DUP2 MSTORE PUSH1 0x20 ADD PUSH1 0x0 KECCAK256 DUP1 SLOAD DUP1 PUSH1 0x20 MUL PUSH1 0x20 ADD PUSH1 0x40 MLOAD SWAP1 DUP2 ADD PUSH1 0x40 MSTORE DUP1 SWAP3 SWAP2 SWAP1 DUP2 DUP2 MSTORE PUSH1 0x20 ADD PUSH1 0x0 SWAP1 JUMPDEST DUP3 DUP3 LT ISZERO PUSH2 0x2688 JUMPI DUP4 DUP3 SWAP1 PUSH1 0x0 MSTORE PUSH1 0x20 PUSH1 0x0 KECCAK256 ADD DUP1 SLOAD PUSH2 0x25FB SWAP1 PUSH2 0x5775 JUMP JUMPDEST DUP1 PUSH1 0x1F ADD PUSH1 0x20 DUP1 SWAP2 DIV MUL PUSH1 0x20 ADD PUSH1 0x40 MLOAD SWAP1 DUP2 ADD PUSH1 0x40 MSTORE DUP1 SWAP3 SWAP2 SWAP1 DUP2 DUP2 MSTORE PUSH1 0x20 ADD DUP3 DUP1 SLOAD PUSH2 0x2627 SWAP1 PUSH2 0x5775 JUMP JUMPDEST DUP1 ISZERO PUSH2 0x2674 JUMPI DUP1 PUSH1 0x1F LT PUSH2 0x2649 JUMPI PUSH2 0x100 DUP1 DUP4 SLOAD DIV MUL DUP4 MSTORE SWAP2 PUSH1 0x20 ADD SWAP2 PUSH2 0x2674 JUMP JUMPDEST DUP3 ADD SWAP2 SWAP1 PUSH1 0x0 MSTORE PUSH1 0x20 PUSH1 0x0 KECCAK256 SWAP1 JUMPDEST DUP2 SLOAD DUP2 MSTORE SWAP1 PUSH1 0x1 ADD SWAP1 PUSH1 0x20 ADD DUP1 DUP4 GT PUSH2 0x2657 JUMPI DUP3 SWAP1 SUB PUSH1 0x1F AND DUP3 ADD SWAP2 JUMPDEST POP POP POP POP POP DUP2 MSTORE PUSH1 0x20 ADD SWAP1 PUSH1 0x1 ADD SWAP1 PUSH2 0x25DC JUMP JUMPDEST POP POP POP POP DUP4 PUSH1 0x1 DUP4 PUSH2 0x269A SWAP2 SWAP1 PUSH2 0x5BAB JUMP JUMPDEST DUP2 MLOAD DUP2 LT PUSH2 0x26AB JUMPI PUSH2 0x26AA PUSH2 0x59A0 JUMP JUMPDEST JUMPDEST PUSH1 0x20 MUL PUSH1 0x20 ADD ADD DUP2 SWAP1 MSTORE POP DUP1 DUP1 PUSH2 0x26C1 SWAP1 PUSH2 0x5895 JUMP JUMPDEST SWAP2 POP POP PUSH2 0x23F4 JUMP JUMPDEST POP POP SWAP2 POP SWAP2 JUMP JUMPDEST PUSH1 0x4 DUP4 DUP1 MLOAD PUSH1 0x20 DUP2 ADD DUP3 ADD DUP1 MLOAD DUP5 DUP3 MSTORE PUSH1 0x20 DUP4 ADD PUSH1 0x20 DUP6 ADD KECCAK256 DUP2 DUP4 MSTORE DUP1 SWAP6 POP POP POP POP POP POP PUSH1 0x20 MSTORE DUP2 PUSH1 0x0 MSTORE PUSH1 0x40 PUSH1 0x0 KECCAK256 DUP2 DUP2 SLOAD DUP2 LT PUSH2 0x270E JUMPI PUSH1 0x0 DUP1 REVERT JUMPDEST SWAP1 PUSH1 0x0 MSTORE PUSH1 0x20 PUSH1 0x0 KECCAK256 ADD PUSH1 0x0 SWAP3 POP SWAP3 POP POP POP DUP1 SLOAD PUSH2 0x272B SWAP1 PUSH2 0x5775 JUMP JUMPDEST DUP1 PUSH1 0x1F ADD PUSH1 0x20 DUP1 SWAP2 DIV MUL PUSH1 0x20 ADD PUSH1 0x40 MLOAD SWAP1 DUP2 ADD PUSH1 0x40 MSTORE DUP1 SWAP3 SWAP2 SWAP1 DUP2 DUP2 MSTORE PUSH1 0x20 ADD DUP3 DUP1 SLOAD PUSH2 0x2757 SWAP1 PUSH2 0x5775 JUMP JUMPDEST DUP1 ISZERO PUSH2 0x27A4 JUMPI DUP1 PUSH1 0x1F LT PUSH2 0x2779 JUMPI PUSH2 0x100 DUP1 DUP4 SLOAD DIV MUL DUP4 MSTORE SWAP2 PUSH1 0x20 ADD SWAP2 PUSH2 0x27A4 JUMP JUMPDEST DUP3 ADD SWAP2 SWAP1 PUSH1 0x0 MSTORE PUSH1 0x20 PUSH1 0x0 KECCAK256 SWAP1 JUMPDEST DUP2 SLOAD DUP2 MSTORE SWAP1 PUSH1 0x1 ADD SWAP1 PUSH1 0x20 ADD DUP1 DUP4 GT PUSH2 0x2787 JUMPI DUP3 SWAP1 SUB PUSH1 0x1F AND DUP3 ADD SWAP2 JUMPDEST POP POP POP POP POP DUP2 JUMP JUMPDEST PUSH1 0x0 DUP5 PUSH1 0x40 MLOAD PUSH2 0x27BC SWAP2 SWAP1 PUSH2 0x57E3 JUMP JUMPDEST SWAP1 DUP2 MSTORE PUSH1 0x20 ADD PUSH1 0x40 MLOAD DUP1 SWAP2 SUB SWAP1 KECCAK256 PUSH1 0x6 ADD PUSH1 0x0 SWAP1 SLOAD SWAP1 PUSH2 0x100 EXP SWAP1 DIV PUSH1 0xFF AND PUSH2 0x281A JUMPI PUSH1 0x40 MLOAD PUSH32 0x8C379A000000000000000000000000000000000000000000000000000000000 DUP2 MSTORE PUSH1 0x4 ADD PUSH2 0x2811 SWAP1 PUSH2 0x5846 JUMP JUMPDEST PUSH1 0x40 MLOAD DUP1 SWAP2 SUB SWAP1 REVERT JUMPDEST CALLER PUSH20 0xFFFFFFFFFFFFFFFFFFFFFFFFFFFFFFFFFFFFFFFF AND PUSH1 0x0 DUP6 PUSH1 0x40 MLOAD PUSH2 0x2841 SWAP2 SWAP1 PUSH2 0x57E3 JUMP JUMPDEST SWAP1 DUP2 MSTORE PUSH1 0x20 ADD PUSH1 0x40 MLOAD DUP1 SWAP2 SUB SWAP1 KECCAK256 PUSH1 0x4 ADD PUSH1 0x0 SWAP1 SLOAD SWAP1 PUSH2 0x100 EXP SWAP1 DIV PUSH20 0xFFFFFFFFFFFFFFFFFFFFFFFFFFFFFFFFFFFFFFFF AND PUSH20 0xFFFFFFFFFFFFFFFFFFFFFFFFFFFFFFFFFFFFFFFF AND EQ PUSH2 0x28C9 JUMPI PUSH1 0x40 MLOAD PUSH32 0x8C379A000000000000000000000000000000000000000000000000000000000 DUP2 MSTORE PUSH1 0x4 ADD PUSH2 0x28C0 SWAP1 PUSH2 0x5C2B JUMP JUMPDEST PUSH1 0x40 MLOAD DUP1 SWAP2 SUB SWAP1 REVERT JUMPDEST PUSH1 0x0 PUSH1 0x2 DUP6 PUSH1 0x40 MLOAD PUSH2 0x28DB SWAP2 SWAP1 PUSH2 0x57E3 JUMP JUMPDEST SWAP1 DUP2 MSTORE PUSH1 0x20 ADD PUSH1 0x40 MLOAD DUP1 SWAP2 SUB SWAP1 KECCAK256 SWAP1 POP DUP1 PUSH1 0x3 ADD PUSH1 0x0 DUP2 SLOAD DUP1 SWAP3 SWAP2 SWAP1 PUSH2 0x2900 SWAP1 PUSH2 0x5895 JUMP JUMPDEST SWAP2 SWAP1 POP SSTORE POP PUSH1 0x40 MLOAD DUP1 PUSH1 0x60 ADD PUSH1 0x40 MSTORE DUP1 DUP3 PUSH1 0x3 ADD SLOAD DUP2 MSTORE PUSH1 0x20 ADD DUP6 DUP2 MSTORE PUSH1 0x20 ADD DUP5 DUP2 MSTORE POP PUSH1 0x3 DUP7 PUSH1 0x40 MLOAD PUSH2 0x2934 SWAP2 SWAP1 PUSH2 0x57E3 JUMP JUMPDEST SWAP1 DUP2 MSTORE PUSH1 0x20 ADD PUSH1 0x40 MLOAD DUP1 SWAP2 SUB SWAP1 KECCAK256 PUSH1 0x0 DUP4 PUSH1 0x3 ADD SLOAD DUP2 MSTORE PUSH1 0x20 ADD SWAP1 DUP2 MSTORE PUSH1 0x20 ADD PUSH1 0x0 KECCAK256 PUSH1 0x0 DUP3 ADD MLOAD DUP2 PUSH1 0x0 ADD SSTORE PUSH1 0x20 DUP3 ADD MLOAD DUP2 PUSH1 0x1 ADD SWAP1 DUP1 MLOAD SWAP1 PUSH1 0x20 ADD SWAP1 PUSH2 0x297D SWAP3 SWAP2 SWAP1 PUSH2 0x3D14 JUMP JUMPDEST POP PUSH1 0x40 DUP3 ADD MLOAD DUP2 PUSH1 0x2 ADD SWAP1 DUP1 MLOAD SWAP1 PUSH1 0x20 ADD SWAP1 PUSH2 0x299A SWAP3 SWAP2 SWAP1 PUSH2 0x3D14 JUMP JUMPDEST POP SWAP1 POP POP DUP2 PUSH1 0x4 DUP7 PUSH1 0x40 MLOAD PUSH2 0x29AF SWAP2 SWAP1 PUSH2 0x57E3 JUMP JUMPDEST SWAP1 DUP2 MSTORE PUSH1 0x20 ADD PUSH1 0x40 MLOAD DUP1 SWAP2 SUB SWAP1 KECCAK256 PUSH1 0x0 DUP4 PUSH1 0x3 ADD SLOAD DUP2 MSTORE PUSH1 0x20 ADD SWAP1 DUP2 MSTORE PUSH1 0x20 ADD PUSH1 0x0 KECCAK256 SWAP1 DUP1 MLOAD SWAP1 PUSH1 0x20 ADD SWAP1 PUSH2 0x29E5 SWAP3 SWAP2 SWAP1 PUSH2 0x3E7B JUMP JUMPDEST POP PUSH32 0x3DC066186762D16263387D6D76F22D24597CCEFE766F6CC0787CFB2E99F7F008 DUP6 DUP3 PUSH1 0x3 ADD SLOAD DUP7 PUSH1 0x40 MLOAD PUSH2 0x2A1D SWAP4 SWAP3 SWAP2 SWAP1 PUSH2 0x5C4B JUMP JUMPDEST PUSH1 0x40 MLOAD DUP1 SWAP2 SUB SWAP1 LOG1 POP POP POP POP POP JUMP JUMPDEST PUSH1 0x0 DUP7 PUSH1 0x40 MLOAD PUSH2 0x2A3C SWAP2 SWAP1 PUSH2 0x57E3 JUMP JUMPDEST SWAP1 DUP2 MSTORE PUSH1 0x20 ADD PUSH1 0x40 MLOAD DUP1 SWAP2 SUB SWAP1 KECCAK256 PUSH1 0x6 ADD PUSH1 0x0 SWAP1 SLOAD SWAP1 PUSH2 0x100 EXP SWAP1 DIV PUSH1 0xFF AND PUSH2 0x2A9A JUMPI PUSH1 0x40 MLOAD PUSH32 0x8C379A000000000000000000000000000000000000000000000000000000000 DUP2 MSTORE PUSH1 0x4 ADD PUSH2 0x2A91 SWAP1 PUSH2 0x5846 JUMP JUMPDEST PUSH1 0x40 MLOAD DUP1 SWAP2 SUB SWAP1 REVERT JUMPDEST CALLER PUSH20 0xFFFFFFFFFFFFFFFFFFFFFFFFFFFFFFFFFFFFFFFF AND PUSH1 0x0 DUP8 PUSH1 0x40 MLOAD PUSH2 0x2AC1 SWAP2 SWAP1 PUSH2 0x57E3 JUMP JUMPDEST SWAP1 DUP2 MSTORE PUSH1 0x20 ADD PUSH1 0x40 MLOAD DUP1 SWAP2 SUB SWAP1 KECCAK256 PUSH1 0x4 ADD PUSH1 0x0 SWAP1 SLOAD SWAP1 PUSH2 0x100 EXP SWAP1 DIV PUSH20 0xFFFFFFFFFFFFFFFFFFFFFFFFFFFFFFFFFFFFFFFF AND PUSH20 0xFFFFFFFFFFFFFFFFFFFFFFFFFFFFFFFFFFFFFFFF AND EQ PUSH2 0x2B49 JUMPI PUSH1 0x40 MLOAD PUSH32 0x8C379A000000000000000000000000000000000000000000000000000000000 DUP2 MSTORE PUSH1 0x4 ADD PUSH2 0x2B40 SWAP1 PUSH2 0x5D02 JUMP JUMPDEST PUSH1 0x40 MLOAD DUP1 SWAP2 SUB SWAP1 REVERT JUMPDEST PUSH1 0x40 MLOAD DUP1 PUSH1 0xA0 ADD PUSH1 0x40 MSTORE DUP1 DUP7 DUP2 MSTORE PUSH1 0x20 ADD DUP6 DUP2 MSTORE PUSH1 0x20 ADD DUP5 DUP2 MSTORE PUSH1 0x20 ADD DUP4 DUP2 MSTORE PUSH1 0x20 ADD DUP3 DUP2 MSTORE POP PUSH1 0x1 DUP8 PUSH1 0x40 MLOAD PUSH2 0x2B80 SWAP2 SWAP1 PUSH2 0x57E3 JUMP JUMPDEST SWAP1 DUP2 MSTORE PUSH1 0x20 ADD PUSH1 0x40 MLOAD DUP1 SWAP2 SUB SWAP1 KECCAK256 PUSH1 0x0 DUP3 ADD MLOAD DUP2 PUSH1 0x0 ADD SWAP1 DUP1 MLOAD SWAP1 PUSH1 0x20 ADD SWAP1 PUSH2 0x2BAA SWAP3 SWAP2 SWAP1 PUSH2 0x3D14 JUMP JUMPDEST POP PUSH1 0x20 DUP3 ADD MLOAD DUP2 PUSH1 0x1 ADD SWAP1 DUP1 MLOAD SWAP1 PUSH1 0x20 ADD SWAP1 PUSH2 0x2BC7 SWAP3 SWAP2 SWAP1 PUSH2 0x3D14 JUMP JUMPDEST POP PUSH1 0x40 DUP3 ADD MLOAD DUP2 PUSH1 0x2 ADD SSTORE PUSH1 0x60 DUP3 ADD MLOAD DUP2 PUSH1 0x3 ADD SSTORE PUSH1 0x80 DUP3 ADD MLOAD DUP2 PUSH1 0x4 ADD SWAP1 DUP1 MLOAD SWAP1 PUSH1 0x20 ADD SWAP1 PUSH2 0x2BF8 SWAP3 SWAP2 SWAP1 PUSH2 0x3D14 JUMP JUMPDEST POP SWAP1 POP POP PUSH32 0x7C2B356C02B41DE3027868657476E5106D8DF117E6913FF1D834140F551413C7 DUP7 DUP7 DUP7 PUSH1 0x40 MLOAD PUSH2 0x2C2F SWAP4 SWAP3 SWAP2 SWAP1 PUSH2 0x5ACD JUMP JUMPDEST PUSH1 0x40 MLOAD DUP1 SWAP2 SUB SWAP1 LOG1 POP POP POP POP POP POP JUMP JUMPDEST PUSH1 0x60 PUSH1 0x9 PUSH1 0x0 DUP2 SLOAD DUP1 SWAP3 SWAP2 SWAP1 PUSH2 0x2C54 SWAP1 PUSH2 0x5895 JUMP JUMPDEST SWAP2 SWAP1 POP SSTORE POP PUSH1 0x0 PUSH2 0x2C66 PUSH1 0x9 SLOAD PUSH2 0x3B6D JUMP JUMPDEST SWAP1 POP PUSH1 0x0 DUP1 DUP3 PUSH1 0x40 MLOAD PUSH2 0x2C79 SWAP2 SWAP1 PUSH2 0x57E3 JUMP JUMPDEST SWAP1 DUP2 MSTORE PUSH1 0x20 ADD PUSH1 0x40 MLOAD DUP1 SWAP2 SUB SWAP1 KECCAK256 PUSH1 0x0 ADD DUP1 SLOAD PUSH2 0x2C95 SWAP1 PUSH2 0x5775 JUMP JUMPDEST SWAP1 POP EQ PUSH2 0x2CD7 JUMPI PUSH1 0x40 MLOAD PUSH32 0x8C379A000000000000000000000000000000000000000000000000000000000 DUP2 MSTORE PUSH1 0x4 ADD PUSH2 0x2CCE SWAP1 PUSH2 0x5D6E JUMP JUMPDEST PUSH1 0x40 MLOAD DUP1 SWAP2 SUB SWAP1 REVERT JUMPDEST PUSH1 0x40 MLOAD DUP1 PUSH1 0xE0 ADD PUSH1 0x40 MSTORE DUP1 DUP3 DUP2 MSTORE PUSH1 0x20 ADD DUP7 DUP2 MSTORE PUSH1 0x20 ADD DUP6 DUP2 MSTORE PUSH1 0x20 ADD DUP5 DUP2 MSTORE PUSH1 0x20 ADD CALLER PUSH20 0xFFFFFFFFFFFFFFFFFFFFFFFFFFFFFFFFFFFFFFFF AND DUP2 MSTORE PUSH1 0x20 ADD TIMESTAMP DUP2 MSTORE PUSH1 0x20 ADD PUSH1 0x1 ISZERO ISZERO DUP2 MSTORE POP PUSH1 0x0 DUP3 PUSH1 0x40 MLOAD PUSH2 0x2D33 SWAP2 SWAP1 PUSH2 0x57E3 JUMP JUMPDEST SWAP1 DUP2 MSTORE PUSH1 0x20 ADD PUSH1 0x40 MLOAD DUP1 SWAP2 SUB SWAP1 KECCAK256 PUSH1 0x0 DUP3 ADD MLOAD DUP2 PUSH1 0x0 ADD SWAP1 DUP1 MLOAD SWAP1 PUSH1 0x20 ADD SWAP1 PUSH2 0x2D5D SWAP3 SWAP2 SWAP1 PUSH2 0x3D14 JUMP JUMPDEST POP PUSH1 0x20 DUP3 ADD MLOAD DUP2 PUSH1 0x1 ADD SWAP1 DUP1 MLOAD SWAP1 PUSH1 0x20 ADD SWAP1 PUSH2 0x2D7A SWAP3 SWAP2 SWAP1 PUSH2 0x3D14 JUMP JUMPDEST POP PUSH1 0x40 DUP3 ADD MLOAD DUP2 PUSH1 0x2 ADD SWAP1 DUP1 MLOAD SWAP1 PUSH1 0x20 ADD SWAP1 PUSH2 0x2D97 SWAP3 SWAP2 SWAP1 PUSH2 0x3D14 JUMP JUMPDEST POP PUSH1 0x60 DUP3 ADD MLOAD DUP2 PUSH1 0x3 ADD SWAP1 DUP1 MLOAD SWAP1 PUSH1 0x20 ADD SWAP1 PUSH2 0x2DB4 SWAP3 SWAP2 SWAP1 PUSH2 0x3D14 JUMP JUMPDEST POP PUSH1 0x80 DUP3 ADD MLOAD DUP2 PUSH1 0x4 ADD PUSH1 0x0 PUSH2 0x100 EXP DUP2 SLOAD DUP2 PUSH20 0xFFFFFFFFFFFFFFFFFFFFFFFFFFFFFFFFFFFFFFFF MUL NOT AND SWAP1 DUP4 PUSH20 0xFFFFFFFFFFFFFFFFFFFFFFFFFFFFFFFFFFFFFFFF AND MUL OR SWAP1 SSTORE POP PUSH1 0xA0 DUP3 ADD MLOAD DUP2 PUSH1 0x5 ADD SSTORE PUSH1 0xC0 DUP3 ADD MLOAD DUP2 PUSH1 0x6 ADD PUSH1 0x0 PUSH2 0x100 EXP DUP2 SLOAD DUP2 PUSH1 0xFF MUL NOT AND SWAP1 DUP4 ISZERO ISZERO MUL OR SWAP1 SSTORE POP SWAP1 POP POP PUSH32 0x4478FDB5CCA1A28D79052038C209DB14519451AF9C6BC6E753A2614E5EA43F1A DUP2 DUP5 CALLER PUSH1 0x40 MLOAD PUSH2 0x2E5C SWAP4 SWAP3 SWAP2 SWAP1 PUSH2 0x5D8E JUMP JUMPDEST PUSH1 0x40 MLOAD DUP1 SWAP2 SUB SWAP1 LOG1 DUP1 SWAP2 POP POP SWAP4 SWAP3 POP POP POP JUMP JUMPDEST PUSH1 0x6 DUP3 DUP1 MLOAD PUSH1 0x20 DUP2 ADD DUP3 ADD DUP1 MLOAD DUP5 DUP3 MSTORE PUSH1 0x20 DUP4 ADD PUSH1 0x20 DUP6 ADD KECCAK256 DUP2 DUP4 MSTORE DUP1 SWAP6 POP POP POP POP POP POP DUP2 DUP2 SLOAD DUP2 LT PUSH2 0x2EA1 JUMPI PUSH1 0x0 DUP1 REVERT JUMPDEST SWAP1 PUSH1 0x0 MSTORE PUSH1 0x20 PUSH1 0x0 KECCAK256 SWAP1 PUSH1 0x8 MUL ADD PUSH1 0x0 SWAP2 POP SWAP2 POP POP DUP1 PUSH1 0x0 ADD DUP1 SLOAD PUSH2 0x2EC5 SWAP1 PUSH2 0x5775 JUMP JUMPDEST DUP1 PUSH1 0x1F ADD PUSH1 0x20 DUP1 SWAP2 DIV MUL PUSH1 0x20 ADD PUSH1 0x40 MLOAD SWAP1 DUP2 ADD PUSH1 0x40 MSTORE DUP1 SWAP3 SWAP2 SWAP1 DUP2 DUP2 MSTORE PUSH1 0x20 ADD DUP3 DUP1 SLOAD PUSH2 0x2EF1 SWAP1 PUSH2 0x5775 JUMP JUMPDEST DUP1 ISZERO PUSH2 0x2F3E JUMPI DUP1 PUSH1 0x1F LT PUSH2 0x2F13 JUMPI PUSH2 0x100 DUP1 DUP4 SLOAD DIV MUL DUP4 MSTORE SWAP2 PUSH1 0x20 ADD SWAP2 PUSH2 0x2F3E JUMP JUMPDEST DUP3 ADD SWAP2 SWAP1 PUSH1 0x0 MSTORE PUSH1 0x20 PUSH1 0x0 KECCAK256 SWAP1 JUMPDEST DUP2 SLOAD DUP2 MSTORE SWAP1 PUSH1 0x1 ADD SWAP1 PUSH1 0x20 ADD DUP1 DUP4 GT PUSH2 0x2F21 JUMPI DUP3 SWAP1 SUB PUSH1 0x1F AND DUP3 ADD SWAP2 JUMPDEST POP POP POP POP POP SWAP1 DUP1 PUSH1 0x1 ADD DUP1 SLOAD PUSH2 0x2F53 SWAP1 PUSH2 0x5775 JUMP JUMPDEST DUP1 PUSH1 0x1F ADD PUSH1 0x20 DUP1 SWAP2 DIV MUL PUSH1 0x20 ADD PUSH1 0x40 MLOAD SWAP1 DUP2 ADD PUSH1 0x40 MSTORE DUP1 SWAP3 SWAP2 SWAP1 DUP2 DUP2 MSTORE PUSH1 0x20 ADD DUP3 DUP1 SLOAD PUSH2 0x2F7F SWAP1 PUSH2 0x5775 JUMP JUMPDEST DUP1 ISZERO PUSH2 0x2FCC JUMPI DUP1 PUSH1 0x1F LT PUSH2 0x2FA1 JUMPI PUSH2 0x100 DUP1 DUP4 SLOAD DIV MUL DUP4 MSTORE SWAP2 PUSH1 0x20 ADD SWAP2 PUSH2 0x2FCC JUMP JUMPDEST DUP3 ADD SWAP2 SWAP1 PUSH1 0x0 MSTORE PUSH1 0x20 PUSH1 0x0 KECCAK256 SWAP1 JUMPDEST DUP2 SLOAD DUP2 MSTORE SWAP1 PUSH1 0x1 ADD SWAP1 PUSH1 0x20 ADD DUP1 DUP4 GT PUSH2 0x2FAF JUMPI DUP3 SWAP1 SUB PUSH1 0x1F AND DUP3 ADD SWAP2 JUMPDEST POP POP POP POP POP SWAP1 DUP1 PUSH1 0x2 ADD DUP1 SLOAD PUSH2 0x2FE1 SWAP1 PUSH2 0x5775 JUMP JUMPDEST DUP1 PUSH1 0x1F ADD PUSH1 0x20 DUP1 SWAP2 DIV MUL PUSH1 0x20 ADD PUSH1 0x40 MLOAD SWAP1 DUP2 ADD PUSH1 0x40 MSTORE DUP1 SWAP3 SWAP2 SWAP1 DUP2 DUP2 MSTORE PUSH1 0x20 ADD DUP3 DUP1 SLOAD PUSH2 0x300D SWAP1 PUSH2 0x5775 JUMP JUMPDEST DUP1 ISZERO PUSH2 0x305A JUMPI DUP1 PUSH1 0x1F LT PUSH2 0x302F JUMPI PUSH2 0x100 DUP1 DUP4 SLOAD DIV MUL DUP4 MSTORE SWAP2 PUSH1 0x20 ADD SWAP2 PUSH2 0x305A JUMP JUMPDEST DUP3 ADD SWAP2 SWAP1 PUSH1 0x0 MSTORE PUSH1 0x20 PUSH1 0x0 KECCAK256 SWAP1 JUMPDEST DUP2 SLOAD DUP2 MSTORE SWAP1 PUSH1 0x1 ADD SWAP1 PUSH1 0x20 ADD DUP1 DUP4 GT PUSH2 0x303D JUMPI DUP3 SWAP1 SUB PUSH1 0x1F AND DUP3 ADD SWAP2 JUMPDEST POP POP POP POP POP SWAP1 DUP1 PUSH1 0x3 ADD SLOAD SWAP1 DUP1 PUSH1 0x4 ADD PUSH1 0x40 MLOAD DUP1 PUSH1 0x40 ADD PUSH1 0x40 MSTORE SWAP1 DUP2 PUSH1 0x0 DUP3 ADD SLOAD DUP2 MSTORE PUSH1 0x20 ADD PUSH1 0x1 DUP3 ADD SLOAD DUP2 MSTORE POP POP SWAP1 DUP1 PUSH1 0x6 ADD SLOAD SWAP1 DUP1 PUSH1 0x7 ADD PUSH1 0x0 SWAP1 SLOAD SWAP1 PUSH2 0x100 EXP SWAP1 DIV PUSH20 0xFFFFFFFFFFFFFFFFFFFFFFFFFFFFFFFFFFFFFFFF AND SWAP1 POP DUP8 JUMP JUMPDEST PUSH1 0x8 DUP4 DUP1 MLOAD PUSH1 0x20 DUP2 ADD DUP3 ADD DUP1 MLOAD DUP5 DUP3 MSTORE PUSH1 0x20 DUP4 ADD PUSH1 0x20 DUP6 ADD KECCAK256 DUP2 DUP4 MSTORE DUP1 SWAP6 POP POP POP POP POP POP DUP3 DUP1 MLOAD PUSH1 0x20 DUP2 ADD DUP3 ADD DUP1 MLOAD DUP5 DUP3 MSTORE PUSH1 0x20 DUP4 ADD PUSH1 0x20 DUP6 ADD KECCAK256 DUP2 DUP4 MSTORE DUP1 SWAP6 POP POP POP POP POP POP DUP2 DUP2 SLOAD DUP2 LT PUSH2 0x310E JUMPI PUSH1 0x0 DUP1 REVERT JUMPDEST SWAP1 PUSH1 0x0 MSTORE PUSH1 0x20 PUSH1 0x0 KECCAK256 SWAP1 PUSH1 0x3 MUL ADD PUSH1 0x0 SWAP3 POP SWAP3 POP POP POP DUP1 PUSH1 0x0 ADD SLOAD SWAP1 DUP1 PUSH1 0x1 ADD SLOAD SWAP1 DUP1 PUSH1 0x2 ADD SLOAD SWAP1 POP DUP4 JUMP JUMPDEST PUSH1 0x0 DUP6 PUSH1 0x40 MLOAD PUSH2 0x314A SWAP2 SWAP1 PUSH2 0x57E3 JUMP JUMPDEST SWAP1 DUP2 MSTORE PUSH1 0x20 ADD PUSH1 0x40 MLOAD DUP1 SWAP2 SUB SWAP1 KECCAK256 PUSH1 0x6 ADD PUSH1 0x0 SWAP1 SLOAD SWAP1 PUSH2 0x100 EXP SWAP1 DIV PUSH1 0xFF AND PUSH2 0x31A8 JUMPI PUSH1 0x40 MLOAD PUSH32 0x8C379A000000000000000000000000000000000000000000000000000000000 DUP2 MSTORE PUSH1 0x4 ADD PUSH2 0x319F SWAP1 PUSH2 0x5846 JUMP JUMPDEST PUSH1 0x40 MLOAD DUP1 SWAP2 SUB SWAP1 REVERT JUMPDEST PUSH1 0x0 PUSH1 0x6 DUP7 PUSH1 0x40 MLOAD PUSH2 0x31BA SWAP2 SWAP1 PUSH2 0x57E3 JUMP JUMPDEST SWAP1 DUP2 MSTORE PUSH1 0x20 ADD PUSH1 0x40 MLOAD DUP1 SWAP2 SUB SWAP1 KECCAK256 SWAP1 POP PUSH1 0x0 DUP1 JUMPDEST DUP3 DUP1 SLOAD SWAP1 POP DUP2 LT ISZERO PUSH2 0x339C JUMPI PUSH2 0x3290 DUP4 DUP3 DUP2 SLOAD DUP2 LT PUSH2 0x31F0 JUMPI PUSH2 0x31EF PUSH2 0x59A0 JUMP JUMPDEST JUMPDEST SWAP1 PUSH1 0x0 MSTORE PUSH1 0x20 PUSH1 0x0 KECCAK256 SWAP1 PUSH1 0x8 MUL ADD PUSH1 0x0 ADD DUP1 SLOAD PUSH2 0x320C SWAP1 PUSH2 0x5775 JUMP JUMPDEST DUP1 PUSH1 0x1F ADD PUSH1 0x20 DUP1 SWAP2 DIV MUL PUSH1 0x20 ADD PUSH1 0x40 MLOAD SWAP1 DUP2 ADD PUSH1 0x40 MSTORE DUP1 SWAP3 SWAP2 SWAP1 DUP2 DUP2 MSTORE PUSH1 0x20 ADD DUP3 DUP1 SLOAD PUSH2 0x3238 SWAP1 PUSH2 0x5775 JUMP JUMPDEST DUP1 ISZERO PUSH2 0x3285 JUMPI DUP1 PUSH1 0x1F LT PUSH2 0x325A JUMPI PUSH2 0x100 DUP1 DUP4 SLOAD DIV MUL DUP4 MSTORE SWAP2 PUSH1 0x20 ADD SWAP2 PUSH2 0x3285 JUMP JUMPDEST DUP3 ADD SWAP2 SWAP1 PUSH1 0x0 MSTORE PUSH1 0x20 PUSH1 0x0 KECCAK256 SWAP1 JUMPDEST DUP2 SLOAD DUP2 MSTORE SWAP1 PUSH1 0x1 ADD SWAP1 PUSH1 0x20 ADD DUP1 DUP4 GT PUSH2 0x3268 JUMPI DUP3 SWAP1 SUB PUSH1 0x1F AND DUP3 ADD SWAP2 JUMPDEST POP POP POP POP POP DUP9 PUSH2 0x3CF9 JUMP JUMPDEST ISZERO PUSH2 0x3389 JUMPI CALLER PUSH20 0xFFFFFFFFFFFFFFFFFFFFFFFFFFFFFFFFFFFFFFFF AND DUP4 DUP3 DUP2 SLOAD DUP2 LT PUSH2 0x32BF JUMPI PUSH2 0x32BE PUSH2 0x59A0 JUMP JUMPDEST JUMPDEST SWAP1 PUSH1 0x0 MSTORE PUSH1 0x20 PUSH1 0x0 KECCAK256 SWAP1 PUSH1 0x8 MUL ADD PUSH1 0x7 ADD PUSH1 0x0 SWAP1 SLOAD SWAP1 PUSH2 0x100 EXP SWAP1 DIV PUSH20 0xFFFFFFFFFFFFFFFFFFFFFFFFFFFFFFFFFFFFFFFF AND PUSH20 0xFFFFFFFFFFFFFFFFFFFFFFFFFFFFFFFFFFFFFFFF AND EQ PUSH2 0x3347 JUMPI PUSH1 0x40 MLOAD PUSH32 0x8C379A000000000000000000000000000000000000000000000000000000000 DUP2 MSTORE PUSH1 0x4 ADD PUSH2 0x333E SWAP1 PUSH2 0x5E45 JUMP JUMPDEST PUSH1 0x40 MLOAD DUP1 SWAP2 SUB SWAP1 REVERT JUMPDEST DUP6 DUP4 DUP3 DUP2 SLOAD DUP2 LT PUSH2 0x335B JUMPI PUSH2 0x335A PUSH2 0x59A0 JUMP JUMPDEST JUMPDEST SWAP1 PUSH1 0x0 MSTORE PUSH1 0x20 PUSH1 0x0 KECCAK256 SWAP1 PUSH1 0x8 MUL ADD PUSH1 0x2 ADD SWAP1 DUP1 MLOAD SWAP1 PUSH1 0x20 ADD SWAP1 PUSH2 0x337F SWAP3 SWAP2 SWAP1 PUSH2 0x3D14 JUMP JUMPDEST POP PUSH1 0x1 SWAP2 POP PUSH2 0x339C JUMP JUMPDEST DUP1 DUP1 PUSH2 0x3394 SWAP1 PUSH2 0x5895 JUMP JUMPDEST SWAP2 POP POP PUSH2 0x31CE JUMP JUMPDEST POP DUP1 PUSH2 0x33DD JUMPI PUSH1 0x40 MLOAD PUSH32 0x8C379A000000000000000000000000000000000000000000000000000000000 DUP2 MSTORE PUSH1 0x4 ADD PUSH2 0x33D4 SWAP1 PUSH2 0x5AAD JUMP JUMPDEST PUSH1 0x40 MLOAD DUP1 SWAP2 SUB SWAP1 REVERT JUMPDEST PUSH1 0x0 PUSH1 0x40 MLOAD DUP1 PUSH1 0x60 ADD PUSH1 0x40 MSTORE DUP1 TIMESTAMP DUP2 MSTORE PUSH1 0x20 ADD DUP7 DUP2 MSTORE PUSH1 0x20 ADD DUP6 DUP2 MSTORE POP SWAP1 POP PUSH1 0x8 DUP9 PUSH1 0x40 MLOAD PUSH2 0x340C SWAP2 SWAP1 PUSH2 0x57E3 JUMP JUMPDEST SWAP1 DUP2 MSTORE PUSH1 0x20 ADD PUSH1 0x40 MLOAD DUP1 SWAP2 SUB SWAP1 KECCAK256 DUP8 PUSH1 0x40 MLOAD PUSH2 0x3428 SWAP2 SWAP1 PUSH2 0x57E3 JUMP JUMPDEST SWAP1 DUP2 MSTORE PUSH1 0x20 ADD PUSH1 0x40 MLOAD DUP1 SWAP2 SUB SWAP1 KECCAK256 DUP2 SWAP1 DUP1 PUSH1 0x1 DUP2 SLOAD ADD DUP1 DUP3 SSTORE DUP1 SWAP2 POP POP PUSH1 0x1 SWAP1 SUB SWAP1 PUSH1 0x0 MSTORE PUSH1 0x20 PUSH1 0x0 KECCAK256 SWAP1 PUSH1 0x3 MUL ADD PUSH1 0x0 SWAP1 SWAP2 SWAP1 SWAP2 SWAP1 SWAP2 POP PUSH1 0x0 DUP3 ADD MLOAD DUP2 PUSH1 0x0 ADD SSTORE PUSH1 0x20 DUP3 ADD MLOAD DUP2 PUSH1 0x1 ADD SSTORE PUSH1 0x40 DUP3 ADD MLOAD DUP2 PUSH1 0x2 ADD SSTORE POP POP PUSH32 0x8D37DDEED0EB7BA08E329CBED9CB8B7B53A955F7F85B58D10DEFD20D248CD49E DUP8 DUP7 DUP7 PUSH1 0x40 MLOAD PUSH2 0x34B3 SWAP4 SWAP3 SWAP2 SWAP1 PUSH2 0x5E65 JUMP JUMPDEST PUSH1 0x40 MLOAD DUP1 SWAP2 SUB SWAP1 LOG1 POP POP POP POP POP POP POP POP JUMP JUMPDEST PUSH2 0x34CD PUSH2 0x3EDB JUMP JUMPDEST PUSH1 0x60 DUP1 PUSH1 0x0 PUSH1 0x6 DUP7 PUSH1 0x40 MLOAD PUSH2 0x34E2 SWAP2 SWAP1 PUSH2 0x57E3 JUMP JUMPDEST SWAP1 DUP2 MSTORE PUSH1 0x20 ADD PUSH1 0x40 MLOAD DUP1 SWAP2 SUB SWAP1 KECCAK256 SWAP1 POP PUSH1 0x0 DUP1 JUMPDEST DUP3 DUP1 SLOAD SWAP1 POP DUP2 LT ISZERO PUSH2 0x384F JUMPI PUSH2 0x35B8 DUP4 DUP3 DUP2 SLOAD DUP2 LT PUSH2 0x3518 JUMPI PUSH2 0x3517 PUSH2 0x59A0 JUMP JUMPDEST JUMPDEST SWAP1 PUSH1 0x0 MSTORE PUSH1 0x20 PUSH1 0x0 KECCAK256 SWAP1 PUSH1 0x8 MUL ADD PUSH1 0x0 ADD DUP1 SLOAD PUSH2 0x3534 SWAP1 PUSH2 0x5775 JUMP JUMPDEST DUP1 PUSH1 0x1F ADD PUSH1 0x20 DUP1 SWAP2 DIV MUL PUSH1 0x20 ADD PUSH1 0x40 MLOAD SWAP1 DUP2 ADD PUSH1 0x40 MSTORE DUP1 SWAP3 SWAP2 SWAP1 DUP2 DUP2 MSTORE PUSH1 0x20 ADD DUP3 DUP1 SLOAD PUSH2 0x3560 SWAP1 PUSH2 0x5775 JUMP JUMPDEST DUP1 ISZERO PUSH2 0x35AD JUMPI DUP1 PUSH1 0x1F LT PUSH2 0x3582 JUMPI PUSH2 0x100 DUP1 DUP4 SLOAD DIV MUL DUP4 MSTORE SWAP2 PUSH1 0x20 ADD SWAP2 PUSH2 0x35AD JUMP JUMPDEST DUP3 ADD SWAP2 SWAP1 PUSH1 0x0 MSTORE PUSH1 0x20 PUSH1 0x0 KECCAK256 SWAP1 JUMPDEST DUP2 SLOAD DUP2 MSTORE SWAP1 PUSH1 0x1 ADD SWAP1 PUSH1 0x20 ADD DUP1 DUP4 GT PUSH2 0x3590 JUMPI DUP3 SWAP1 SUB PUSH1 0x1F AND DUP3 ADD SWAP2 JUMPDEST POP POP POP POP POP DUP9 PUSH2 0x3CF9 JUMP JUMPDEST ISZERO PUSH2 0x383C JUMPI DUP3 DUP2 DUP2 SLOAD DUP2 LT PUSH2 0x35D0 JUMPI PUSH2 0x35CF PUSH2 0x59A0 JUMP JUMPDEST JUMPDEST SWAP1 PUSH1 0x0 MSTORE PUSH1 0x20 PUSH1 0x0 KECCAK256 SWAP1 PUSH1 0x8 MUL ADD PUSH1 0x40 MLOAD DUP1 PUSH1 0xE0 ADD PUSH1 0x40 MSTORE SWAP1 DUP2 PUSH1 0x0 DUP3 ADD DUP1 SLOAD PUSH2 0x35F9 SWAP1 PUSH2 0x5775 JUMP JUMPDEST DUP1 PUSH1 0x1F ADD PUSH1 0x20 DUP1 SWAP2 DIV MUL PUSH1 0x20 ADD PUSH1 0x40 MLOAD SWAP1 DUP2 ADD PUSH1 0x40 MSTORE DUP1 SWAP3 SWAP2 SWAP1 DUP2 DUP2 MSTORE PUSH1 0x20 ADD DUP3 DUP1 SLOAD PUSH2 0x3625 SWAP1 PUSH2 0x5775 JUMP JUMPDEST DUP1 ISZERO PUSH2 0x3672 JUMPI DUP1 PUSH1 0x1F LT PUSH2 0x3647 JUMPI PUSH2 0x100 DUP1 DUP4 SLOAD DIV MUL DUP4 MSTORE SWAP2 PUSH1 0x20 ADD SWAP2 PUSH2 0x3672 JUMP JUMPDEST DUP3 ADD SWAP2 SWAP1 PUSH1 0x0 MSTORE PUSH1 0x20 PUSH1 0x0 KECCAK256 SWAP1 JUMPDEST DUP2 SLOAD DUP2 MSTORE SWAP1 PUSH1 0x1 ADD SWAP1 PUSH1 0x20 ADD DUP1 DUP4 GT PUSH2 0x3655 JUMPI DUP3 SWAP1 SUB PUSH1 0x1F AND DUP3 ADD SWAP2 JUMPDEST POP POP POP POP POP DUP2 MSTORE PUSH1 0x20 ADD PUSH1 0x1 DUP3 ADD DUP1 SLOAD PUSH2 0x368B SWAP1 PUSH2 0x5775 JUMP JUMPDEST DUP1 PUSH1 0x1F ADD PUSH1 0x20 DUP1 SWAP2 DIV MUL PUSH1 0x20 ADD PUSH1 0x40 MLOAD SWAP1 DUP2 ADD PUSH1 0x40 MSTORE DUP1 SWAP3 SWAP2 SWAP1 DUP2 DUP2 MSTORE PUSH1 0x20 ADD DUP3 DUP1 SLOAD PUSH2 0x36B7 SWAP1 PUSH2 0x5775 JUMP JUMPDEST DUP1 ISZERO PUSH2 0x3704 JUMPI DUP1 PUSH1 0x1F LT PUSH2 0x36D9 JUMPI PUSH2 0x100 DUP1 DUP4 SLOAD DIV MUL DUP4 MSTORE SWAP2 PUSH1 0x20 ADD SWAP2 PUSH2 0x3704 JUMP JUMPDEST DUP3 ADD SWAP2 SWAP1 PUSH1 0x0 MSTORE PUSH1 0x20 PUSH1 0x0 KECCAK256 SWAP1 JUMPDEST DUP2 SLOAD DUP2 MSTORE SWAP1 PUSH1 0x1 ADD SWAP1 PUSH1 0x20 ADD DUP1 DUP4 GT PUSH2 0x36E7 JUMPI DUP3 SWAP1 SUB PUSH1 0x1F AND DUP3 ADD SWAP2 JUMPDEST POP POP POP POP POP DUP2 MSTORE PUSH1 0x20 ADD PUSH1 0x2 DUP3 ADD DUP1 SLOAD PUSH2 0x371D SWAP1 PUSH2 0x5775 JUMP JUMPDEST DUP1 PUSH1 0x1F ADD PUSH1 0x20 DUP1 SWAP2 DIV MUL PUSH1 0x20 ADD PUSH1 0x40 MLOAD SWAP1 DUP2 ADD PUSH1 0x40 MSTORE DUP1 SWAP3 SWAP2 SWAP1 DUP2 DUP2 MSTORE PUSH1 0x20 ADD DUP3 DUP1 SLOAD PUSH2 0x3749 SWAP1 PUSH2 0x5775 JUMP JUMPDEST DUP1 ISZERO PUSH2 0x3796 JUMPI DUP1 PUSH1 0x1F LT PUSH2 0x376B JUMPI PUSH2 0x100 DUP1 DUP4 SLOAD DIV MUL DUP4 MSTORE SWAP2 PUSH1 0x20 ADD SWAP2 PUSH2 0x3796 JUMP JUMPDEST DUP3 ADD SWAP2 SWAP1 PUSH1 0x0 MSTORE PUSH1 0x20 PUSH1 0x0 KECCAK256 SWAP1 JUMPDEST DUP2 SLOAD DUP2 MSTORE SWAP1 PUSH1 0x1 ADD SWAP1 PUSH1 0x20 ADD DUP1 DUP4 GT PUSH2 0x3779 JUMPI DUP3 SWAP1 SUB PUSH1 0x1F AND DUP3 ADD SWAP2 JUMPDEST POP POP POP POP POP DUP2 MSTORE PUSH1 0x20 ADD PUSH1 0x3 DUP3 ADD SLOAD DUP2 MSTORE PUSH1 0x20 ADD PUSH1 0x4 DUP3 ADD PUSH1 0x40 MLOAD DUP1 PUSH1 0x40 ADD PUSH1 0x40 MSTORE SWAP1 DUP2 PUSH1 0x0 DUP3 ADD SLOAD DUP2 MSTORE PUSH1 0x20 ADD PUSH1 0x1 DUP3 ADD SLOAD DUP2 MSTORE POP POP DUP2 MSTORE PUSH1 0x20 ADD PUSH1 0x6 DUP3 ADD SLOAD DUP2 MSTORE PUSH1 0x20 ADD PUSH1 0x7 DUP3 ADD PUSH1 0x0 SWAP1 SLOAD SWAP1 PUSH2 0x100 EXP SWAP1 DIV PUSH20 0xFFFFFFFFFFFFFFFFFFFFFFFFFFFFFFFFFFFFFFFF AND PUSH20 0xFFFFFFFFFFFFFFFFFFFFFFFFFFFFFFFFFFFFFFFF AND PUSH20 0xFFFFFFFFFFFFFFFFFFFFFFFFFFFFFFFFFFFFFFFF AND DUP2 MSTORE POP POP SWAP6 POP PUSH1 0x1 SWAP2 POP PUSH2 0x384F JUMP JUMPDEST DUP1 DUP1 PUSH2 0x3847 SWAP1 PUSH2 0x5895 JUMP JUMPDEST SWAP2 POP POP PUSH2 0x34F6 JUMP JUMPDEST POP DUP1 PUSH2 0x3890 JUMPI PUSH1 0x40 MLOAD PUSH32 0x8C379A000000000000000000000000000000000000000000000000000000000 DUP2 MSTORE PUSH1 0x4 ADD PUSH2 0x3887 SWAP1 PUSH2 0x5AAD JUMP JUMPDEST PUSH1 0x40 MLOAD DUP1 SWAP2 SUB SWAP1 REVERT JUMPDEST DUP5 PUSH1 0x60 ADD MLOAD PUSH8 0xFFFFFFFFFFFFFFFF DUP2 GT ISZERO PUSH2 0x38AE JUMPI PUSH2 0x38AD PUSH2 0x4039 JUMP JUMPDEST JUMPDEST PUSH1 0x40 MLOAD SWAP1 DUP1 DUP3 MSTORE DUP1 PUSH1 0x20 MUL PUSH1 0x20 ADD DUP3 ADD PUSH1 0x40 MSTORE DUP1 ISZERO PUSH2 0x38E7 JUMPI DUP2 PUSH1 0x20 ADD JUMPDEST PUSH2 0x38D4 PUSH2 0x3F34 JUMP JUMPDEST DUP2 MSTORE PUSH1 0x20 ADD SWAP1 PUSH1 0x1 SWAP1 SUB SWAP1 DUP2 PUSH2 0x38CC JUMPI SWAP1 POP JUMPDEST POP SWAP4 POP PUSH1 0x0 PUSH1 0x1 SWAP1 POP JUMPDEST DUP6 PUSH1 0x60 ADD MLOAD DUP2 GT PUSH2 0x3AB3 JUMPI PUSH1 0x7 DUP9 PUSH1 0x40 MLOAD PUSH2 0x390C SWAP2 SWAP1 PUSH2 0x57E3 JUMP JUMPDEST SWAP1 DUP2 MSTORE PUSH1 0x20 ADD PUSH1 0x40 MLOAD DUP1 SWAP2 SUB SWAP1 KECCAK256 DUP8 PUSH1 0x40 MLOAD PUSH2 0x3928 SWAP2 SWAP1 PUSH2 0x57E3 JUMP JUMPDEST SWAP1 DUP2 MSTORE PUSH1 0x20 ADD PUSH1 0x40 MLOAD DUP1 SWAP2 SUB SWAP1 KECCAK256 PUSH1 0x0 DUP3 DUP2 MSTORE PUSH1 0x20 ADD SWAP1 DUP2 MSTORE PUSH1 0x20 ADD PUSH1 0x0 KECCAK256 PUSH1 0x40 MLOAD DUP1 PUSH1 0x40 ADD PUSH1 0x40 MSTORE SWAP1 DUP2 PUSH1 0x0 DUP3 ADD DUP1 SLOAD PUSH2 0x3962 SWAP1 PUSH2 0x5775 JUMP JUMPDEST DUP1 PUSH1 0x1F ADD PUSH1 0x20 DUP1 SWAP2 DIV MUL PUSH1 0x20 ADD PUSH1 0x40 MLOAD SWAP1 DUP2 ADD PUSH1 0x40 MSTORE DUP1 SWAP3 SWAP2 SWAP1 DUP2 DUP2 MSTORE PUSH1 0x20 ADD DUP3 DUP1 SLOAD PUSH2 0x398E SWAP1 PUSH2 0x5775 JUMP JUMPDEST DUP1 ISZERO PUSH2 0x39DB JUMPI DUP1 PUSH1 0x1F LT PUSH2 0x39B0 JUMPI PUSH2 0x100 DUP1 DUP4 SLOAD DIV MUL DUP4 MSTORE SWAP2 PUSH1 0x20 ADD SWAP2 PUSH2 0x39DB JUMP JUMPDEST DUP3 ADD SWAP2 SWAP1 PUSH1 0x0 MSTORE PUSH1 0x20 PUSH1 0x0 KECCAK256 SWAP1 JUMPDEST DUP2 SLOAD DUP2 MSTORE SWAP1 PUSH1 0x1 ADD SWAP1 PUSH1 0x20 ADD DUP1 DUP4 GT PUSH2 0x39BE JUMPI DUP3 SWAP1 SUB PUSH1 0x1F AND DUP3 ADD SWAP2 JUMPDEST POP POP POP POP POP DUP2 MSTORE PUSH1 0x20 ADD PUSH1 0x1 DUP3 ADD DUP1 SLOAD PUSH2 0x39F4 SWAP1 PUSH2 0x5775 JUMP JUMPDEST DUP1 PUSH1 0x1F ADD PUSH1 0x20 DUP1 SWAP2 DIV MUL PUSH1 0x20 ADD PUSH1 0x40 MLOAD SWAP1 DUP2 ADD PUSH1 0x40 MSTORE DUP1 SWAP3 SWAP2 SWAP1 DUP2 DUP2 MSTORE PUSH1 0x20 ADD DUP3 DUP1 SLOAD PUSH2 0x3A20 SWAP1 PUSH2 0x5775 JUMP JUMPDEST DUP1 ISZERO PUSH2 0x3A6D JUMPI DUP1 PUSH1 0x1F LT PUSH2 0x3A42 JUMPI PUSH2 0x100 DUP1 DUP4 SLOAD DIV MUL DUP4 MSTORE SWAP2 PUSH1 0x20 ADD SWAP2 PUSH2 0x3A6D JUMP JUMPDEST DUP3 ADD SWAP2 SWAP1 PUSH1 0x0 MSTORE PUSH1 0x20 PUSH1 0x0 KECCAK256 SWAP1 JUMPDEST DUP2 SLOAD DUP2 MSTORE SWAP1 PUSH1 0x1 ADD SWAP1 PUSH1 0x20 ADD DUP1 DUP4 GT PUSH2 0x3A50 JUMPI DUP3 SWAP1 SUB PUSH1 0x1F AND DUP3 ADD SWAP2 JUMPDEST POP POP POP POP POP DUP2 MSTORE POP POP DUP6 PUSH1 0x1 DUP4 PUSH2 0x3A84 SWAP2 SWAP1 PUSH2 0x5BAB JUMP JUMPDEST DUP2 MLOAD DUP2 LT PUSH2 0x3A95 JUMPI PUSH2 0x3A94 PUSH2 0x59A0 JUMP JUMPDEST JUMPDEST PUSH1 0x20 MUL PUSH1 0x20 ADD ADD DUP2 SWAP1 MSTORE POP DUP1 DUP1 PUSH2 0x3AAB SWAP1 PUSH2 0x5895 JUMP JUMPDEST SWAP2 POP POP PUSH2 0x38F1 JUMP JUMPDEST POP PUSH1 0x8 DUP8 PUSH1 0x40 MLOAD PUSH2 0x3AC4 SWAP2 SWAP1 PUSH2 0x57E3 JUMP JUMPDEST SWAP1 DUP2 MSTORE PUSH1 0x20 ADD PUSH1 0x40 MLOAD DUP1 SWAP2 SUB SWAP1 KECCAK256 DUP7 PUSH1 0x40 MLOAD PUSH2 0x3AE0 SWAP2 SWAP1 PUSH2 0x57E3 JUMP JUMPDEST SWAP1 DUP2 MSTORE PUSH1 0x20 ADD PUSH1 0x40 MLOAD DUP1 SWAP2 SUB SWAP1 KECCAK256 DUP1 SLOAD DUP1 PUSH1 0x20 MUL PUSH1 0x20 ADD PUSH1 0x40 MLOAD SWAP1 DUP2 ADD PUSH1 0x40 MSTORE DUP1 SWAP3 SWAP2 SWAP1 DUP2 DUP2 MSTORE PUSH1 0x20 ADD PUSH1 0x0 SWAP1 JUMPDEST DUP3 DUP3 LT ISZERO PUSH2 0x3B5E JUMPI DUP4 DUP3 SWAP1 PUSH1 0x0 MSTORE PUSH1 0x20 PUSH1 0x0 KECCAK256 SWAP1 PUSH1 0x3 MUL ADD PUSH1 0x40 MLOAD DUP1 PUSH1 0x60 ADD PUSH1 0x40 MSTORE SWAP1 DUP2 PUSH1 0x0 DUP3 ADD SLOAD DUP2 MSTORE PUSH1 0x20 ADD PUSH1 0x1 DUP3 ADD SLOAD DUP2 MSTORE PUSH1 0x20 ADD PUSH1 0x2 DUP3 ADD SLOAD DUP2 MSTORE POP POP DUP2 MSTORE PUSH1 0x20 ADD SWAP1 PUSH1 0x1 ADD SWAP1 PUSH2 0x3B0E JUMP JUMPDEST POP POP POP POP SWAP3 POP POP POP SWAP3 POP SWAP3 POP SWAP3 JUMP JUMPDEST PUSH1 0x60 PUSH1 0x0 DUP3 EQ ISZERO PUSH2 0x3BB5 JUMPI PUSH1 0x40 MLOAD DUP1 PUSH1 0x40 ADD PUSH1 0x40 MSTORE DUP1 PUSH1 0x1 DUP2 MSTORE PUSH1 0x20 ADD PUSH32 0x3000000000000000000000000000000000000000000000000000000000000000 DUP2 MSTORE POP SWAP1 POP PUSH2 0x3CF4 JUMP JUMPDEST PUSH1 0x0 DUP3 SWAP1 POP PUSH1 0x0 JUMPDEST PUSH1 0x0 DUP3 EQ PUSH2 0x3BE7 JUMPI DUP1 DUP1 PUSH2 0x3BD0 SWAP1 PUSH2 0x5895 JUMP JUMPDEST SWAP2 POP POP PUSH1 0xA DUP3 PUSH2 0x3BE0 SWAP2 SWAP1 PUSH2 0x5ED2 JUMP JUMPDEST SWAP2 POP PUSH2 0x3BBD JUMP JUMPDEST PUSH1 0x0 DUP2 PUSH8 0xFFFFFFFFFFFFFFFF DUP2 GT ISZERO PUSH2 0x3C03 JUMPI PUSH2 0x3C02 PUSH2 0x4039 JUMP JUMPDEST JUMPDEST PUSH1 0x40 MLOAD SWAP1 DUP1 DUP3 MSTORE DUP1 PUSH1 0x1F ADD PUSH1 0x1F NOT AND PUSH1 0x20 ADD DUP3 ADD PUSH1 0x40 MSTORE DUP1 ISZERO PUSH2 0x3C35 JUMPI DUP2 PUSH1 0x20 ADD PUSH1 0x1 DUP3 MUL DUP1 CALLDATASIZE DUP4 CALLDATACOPY DUP1 DUP3 ADD SWAP2 POP POP SWAP1 POP JUMPDEST POP SWAP1 POP PUSH1 0x0 DUP3 SWAP1 POP DUP6 SWAP4 POP JUMPDEST PUSH1 0x0 DUP5 EQ PUSH2 0x3CEC JUMPI PUSH1 0x1 DUP2 PUSH2 0x3C56 SWAP2 SWAP1 PUSH2 0x5BAB JUMP JUMPDEST SWAP1 POP PUSH1 0x0 PUSH1 0xA DUP1 DUP7 PUSH2 0x3C68 SWAP2 SWAP1 PUSH2 0x5ED2 JUMP JUMPDEST PUSH2 0x3C72 SWAP2 SWAP1 PUSH2 0x5F03 JUMP JUMPDEST DUP6 PUSH2 0x3C7D SWAP2 SWAP1 PUSH2 0x5BAB JUMP JUMPDEST PUSH1 0x30 PUSH2 0x3C89 SWAP2 SWAP1 PUSH2 0x5F6A JUMP JUMPDEST SWAP1 POP PUSH1 0x0 DUP2 PUSH1 0xF8 SHL SWAP1 POP DUP1 DUP5 DUP5 DUP2 MLOAD DUP2 LT PUSH2 0x3CA7 JUMPI PUSH2 0x3CA6 PUSH2 0x59A0 JUMP JUMPDEST JUMPDEST PUSH1 0x20 ADD ADD SWAP1 PUSH31 0xFFFFFFFFFFFFFFFFFFFFFFFFFFFFFFFFFFFFFFFFFFFFFFFFFFFFFFFFFFFFFF NOT AND SWAP1 DUP2 PUSH1 0x0 BYTE SWAP1 MSTORE8 POP PUSH1 0xA DUP7 PUSH2 0x3CE3 SWAP2 SWAP1 PUSH2 0x5ED2 JUMP JUMPDEST SWAP6 POP POP POP PUSH2 0x3C41 JUMP JUMPDEST DUP2 SWAP5 POP POP POP POP POP JUMPDEST SWAP2 SWAP1 POP JUMP JUMPDEST PUSH1 0x0 DUP2 DUP1 MLOAD SWAP1 PUSH1 0x20 ADD KECCAK256 DUP4 DUP1 MLOAD SWAP1 PUSH1 0x20 ADD KECCAK256 EQ SWAP1 POP SWAP3 SWAP2 POP POP JUMP JUMPDEST DUP3 DUP1 SLOAD PUSH2 0x3D20 SWAP1 PUSH2 0x5775 JUMP JUMPDEST SWAP1 PUSH1 0x0 MSTORE PUSH1 0x20 PUSH1 0x0 KECCAK256 SWAP1 PUSH1 0x1F ADD PUSH1 0x20 SWAP1 DIV DUP2 ADD SWAP3 DUP3 PUSH2 0x3D42 JUMPI PUSH1 0x0 DUP6 SSTORE PUSH2 0x3D89 JUMP JUMPDEST DUP3 PUSH1 0x1F LT PUSH2 0x3D5B JUMPI DUP1 MLOAD PUSH1 0xFF NOT AND DUP4 DUP1 ADD OR DUP6 SSTORE PUSH2 0x3D89 JUMP JUMPDEST DUP3 DUP1 ADD PUSH1 0x1 ADD DUP6 SSTORE DUP3 ISZERO PUSH2 0x3D89 JUMPI SWAP2 DUP3 ADD JUMPDEST DUP3 DUP2 GT ISZERO PUSH2 0x3D88 JUMPI DUP3 MLOAD DUP3 SSTORE SWAP2 PUSH1 0x20 ADD SWAP2 SWAP1 PUSH1 0x1 ADD SWAP1 PUSH2 0x3D6D JUMP JUMPDEST JUMPDEST POP SWAP1 POP PUSH2 0x3D96 SWAP2 SWAP1 PUSH2 0x3F4E JUMP JUMPDEST POP SWAP1 JUMP JUMPDEST PUSH1 0x40 MLOAD DUP1 PUSH1 0xE0 ADD PUSH1 0x40 MSTORE DUP1 PUSH1 0x60 DUP2 MSTORE PUSH1 0x20 ADD PUSH1 0x60 DUP2 MSTORE PUSH1 0x20 ADD PUSH1 0x60 DUP2 MSTORE PUSH1 0x20 ADD PUSH1 0x60 DUP2 MSTORE PUSH1 0x20 ADD PUSH1 0x0 PUSH20 0xFFFFFFFFFFFFFFFFFFFFFFFFFFFFFFFFFFFFFFFF AND DUP2 MSTORE PUSH1 0x20 ADD PUSH1 0x0 DUP2 MSTORE PUSH1 0x20 ADD PUSH1 0x0 ISZERO ISZERO DUP2 MSTORE POP SWAP1 JUMP JUMPDEST PUSH1 0x40 MLOAD DUP1 PUSH1 0xA0 ADD PUSH1 0x40 MSTORE DUP1 PUSH1 0x60 DUP2 MSTORE PUSH1 0x20 ADD PUSH1 0x60 DUP2 MSTORE PUSH1 0x20 ADD PUSH1 0x0 DUP2 MSTORE PUSH1 0x20 ADD PUSH1 0x0 DUP2 MSTORE PUSH1 0x20 ADD PUSH1 0x60 DUP2 MSTORE POP SWAP1 JUMP JUMPDEST PUSH1 0x40 MLOAD DUP1 PUSH1 0xC0 ADD PUSH1 0x40 MSTORE DUP1 PUSH1 0x60 DUP2 MSTORE PUSH1 0x20 ADD PUSH1 0x0 DUP2 MSTORE PUSH1 0x20 ADD PUSH1 0x60 DUP2 MSTORE PUSH1 0x20 ADD PUSH1 0x0 DUP2 MSTORE PUSH1 0x20 ADD PUSH2 0x3E4D PUSH2 0x3F6B JUMP JUMPDEST DUP2 MSTORE PUSH1 0x20 ADD PUSH1 0x0 DUP2 MSTORE POP SWAP1 JUMP JUMPDEST PUSH1 0x40 MLOAD DUP1 PUSH1 0x60 ADD PUSH1 0x40 MSTORE DUP1 PUSH1 0x0 DUP2 MSTORE PUSH1 0x20 ADD PUSH1 0x60 DUP2 MSTORE PUSH1 0x20 ADD PUSH1 0x60 DUP2 MSTORE POP SWAP1 JUMP JUMPDEST DUP3 DUP1 SLOAD DUP3 DUP3 SSTORE SWAP1 PUSH1 0x0 MSTORE PUSH1 0x20 PUSH1 0x0 KECCAK256 SWAP1 DUP2 ADD SWAP3 DUP3 ISZERO PUSH2 0x3ECA JUMPI SWAP2 PUSH1 0x20 MUL DUP3 ADD JUMPDEST DUP3 DUP2 GT ISZERO PUSH2 0x3EC9 JUMPI DUP3 MLOAD DUP3 SWAP1 DUP1 MLOAD SWAP1 PUSH1 0x20 ADD SWAP1 PUSH2 0x3EB9 SWAP3 SWAP2 SWAP1 PUSH2 0x3D14 JUMP JUMPDEST POP SWAP2 PUSH1 0x20 ADD SWAP2 SWAP1 PUSH1 0x1 ADD SWAP1 PUSH2 0x3E9B JUMP JUMPDEST JUMPDEST POP SWAP1 POP PUSH2 0x3ED7 SWAP2 SWAP1 PUSH2 0x3F8C JUMP JUMPDEST POP SWAP1 JUMP JUMPDEST PUSH1 0x40 MLOAD DUP1 PUSH1 0xE0 ADD PUSH1 0x40 MSTORE DUP1 PUSH1 0x60 DUP2 MSTORE PUSH1 0x20 ADD PUSH1 0x60 DUP2 MSTORE PUSH1 0x20 ADD PUSH1 0x60 DUP2 MSTORE PUSH1 0x20 ADD PUSH1 0x0 DUP2 MSTORE PUSH1 0x20 ADD PUSH2 0x3F0A PUSH2 0x3FB0 JUMP JUMPDEST DUP2 MSTORE PUSH1 0x20 ADD PUSH1 0x0 DUP2 MSTORE PUSH1 0x20 ADD PUSH1 0x0 PUSH20 0xFFFFFFFFFFFFFFFFFFFFFFFFFFFFFFFFFFFFFFFF AND DUP2 MSTORE POP SWAP1 JUMP JUMPDEST PUSH1 0x40 MLOAD DUP1 PUSH1 0x40 ADD PUSH1 0x40 MSTORE DUP1 PUSH1 0x60 DUP2 MSTORE PUSH1 0x20 ADD PUSH1 0x60 DUP2 MSTORE POP SWAP1 JUMP JUMPDEST JUMPDEST DUP1 DUP3 GT ISZERO PUSH2 0x3F67 JUMPI PUSH1 0x0 DUP2 PUSH1 0x0 SWAP1 SSTORE POP PUSH1 0x1 ADD PUSH2 0x3F4F JUMP JUMPDEST POP SWAP1 JUMP JUMPDEST PUSH1 0x40 MLOAD DUP1 PUSH1 0x60 ADD PUSH1 0x40 MSTORE DUP1 PUSH1 0x60 DUP2 MSTORE PUSH1 0x20 ADD PUSH1 0x60 DUP2 MSTORE PUSH1 0x20 ADD PUSH1 0x60 DUP2 MSTORE POP SWAP1 JUMP JUMPDEST JUMPDEST DUP1 DUP3 GT ISZERO PUSH2 0x3FAC JUMPI PUSH1 0x0 DUP2 DUP2 PUSH2 0x3FA3 SWAP2 SWAP1 PUSH2 0x3FCA JUMP JUMPDEST POP PUSH1 0x1 ADD PUSH2 0x3F8D JUMP JUMPDEST POP SWAP1 JUMP JUMPDEST PUSH1 0x40 MLOAD DUP1 PUSH1 0x40 ADD PUSH1 0x40 MSTORE DUP1 PUSH1 0x0 DUP2 MSTORE PUSH1 0x20 ADD PUSH1 0x0 DUP2 MSTORE POP SWAP1 JUMP JUMPDEST POP DUP1 SLOAD PUSH2 0x3FD6 SWAP1 PUSH2 0x5775 JUMP JUMPDEST PUSH1 0x0 DUP3 SSTORE DUP1 PUSH1 0x1F LT PUSH2 0x3FE8 JUMPI POP PUSH2 0x4007 JUMP JUMPDEST PUSH1 0x1F ADD PUSH1 0x20 SWAP1 DIV SWAP1 PUSH1 0x0 MSTORE PUSH1 0x20 PUSH1 0x0 KECCAK256 SWAP1 DUP2 ADD SWAP1 PUSH2 0x4006 SWAP2 SWAP1 PUSH2 0x3F4E JUMP JUMPDEST JUMPDEST POP JUMP JUMPDEST PUSH1 0x0 PUSH1 0x40 MLOAD SWAP1 POP SWAP1 JUMP JUMPDEST PUSH1 0x0 DUP1 REVERT JUMPDEST PUSH1 0x0 DUP1 REVERT JUMPDEST PUSH1 0x0 DUP1 REVERT JUMPDEST PUSH1 0x0 DUP1 REVERT JUMPDEST PUSH1 0x0 PUSH1 0x1F NOT PUSH1 0x1F DUP4 ADD AND SWAP1 POP SWAP2 SWAP1 POP JUMP JUMPDEST PUSH32 0x4E487B7100000000000000000000000000000000000000000000000000000000 PUSH1 0x0 MSTORE PUSH1 0x41 PUSH1 0x4 MSTORE PUSH1 0x24 PUSH1 0x0 REVERT JUMPDEST PUSH2 0x4071 DUP3 PUSH2 0x4028 JUMP JUMPDEST DUP2 ADD DUP2 DUP2 LT PUSH8 0xFFFFFFFFFFFFFFFF DUP3 GT OR ISZERO PUSH2 0x4090 JUMPI PUSH2 0x408F PUSH2 0x4039 JUMP JUMPDEST JUMPDEST DUP1 PUSH1 0x40 MSTORE POP POP POP JUMP JUMPDEST PUSH1 0x0 PUSH2 0x40A3 PUSH2 0x400A JUMP JUMPDEST SWAP1 POP PUSH2 0x40AF DUP3 DUP3 PUSH2 0x4068 JUMP JUMPDEST SWAP2 SWAP1 POP JUMP JUMPDEST PUSH1 0x0 PUSH8 0xFFFFFFFFFFFFFFFF DUP3 GT ISZERO PUSH2 0x40CF JUMPI PUSH2 0x40CE PUSH2 0x4039 JUMP JUMPDEST JUMPDEST PUSH2 0x40D8 DUP3 PUSH2 0x4028 JUMP JUMPDEST SWAP1 POP PUSH1 0x20 DUP2 ADD SWAP1 POP SWAP2 SWAP1 POP JUMP JUMPDEST DUP3 DUP2 DUP4 CALLDATACOPY PUSH1 0x0 DUP4 DUP4 ADD MSTORE POP POP POP JUMP JUMPDEST PUSH1 0x0 PUSH2 0x4107 PUSH2 0x4102 DUP5 PUSH2 0x40B4 JUMP JUMPDEST PUSH2 0x4099 JUMP JUMPDEST SWAP1 POP DUP3 DUP2 MSTORE PUSH1 0x20 DUP2 ADD DUP5 DUP5 DUP5 ADD GT ISZERO PUSH2 0x4123 JUMPI PUSH2 0x4122 PUSH2 0x4023 JUMP JUMPDEST JUMPDEST PUSH2 0x412E DUP5 DUP3 DUP6 PUSH2 0x40E5 JUMP JUMPDEST POP SWAP4 SWAP3 POP POP POP JUMP JUMPDEST PUSH1 0x0 DUP3 PUSH1 0x1F DUP4 ADD SLT PUSH2 0x414B JUMPI PUSH2 0x414A PUSH2 0x401E JUMP JUMPDEST JUMPDEST DUP2 CALLDATALOAD PUSH2 0x415B DUP5 DUP3 PUSH1 0x20 DUP7 ADD PUSH2 0x40F4 JUMP JUMPDEST SWAP2 POP POP SWAP3 SWAP2 POP POP JUMP JUMPDEST PUSH1 0x0 PUSH1 0x20 DUP3 DUP5 SUB SLT ISZERO PUSH2 0x417A JUMPI PUSH2 0x4179 PUSH2 0x4014 JUMP JUMPDEST JUMPDEST PUSH1 0x0 DUP3 ADD CALLDATALOAD PUSH8 0xFFFFFFFFFFFFFFFF DUP2 GT ISZERO PUSH2 0x4198 JUMPI PUSH2 0x4197 PUSH2 0x4019 JUMP JUMPDEST JUMPDEST PUSH2 0x41A4 DUP5 DUP3 DUP6 ADD PUSH2 0x4136 JUMP JUMPDEST SWAP2 POP POP SWAP3 SWAP2 POP POP JUMP JUMPDEST PUSH1 0x0 DUP2 MLOAD SWAP1 POP SWAP2 SWAP1 POP JUMP JUMPDEST PUSH1 0x0 DUP3 DUP3 MSTORE PUSH1 0x20 DUP3 ADD SWAP1 POP SWAP3 SWAP2 POP POP JUMP JUMPDEST PUSH1 0x0 JUMPDEST DUP4 DUP2 LT ISZERO PUSH2 0x41E7 JUMPI DUP1 DUP3 ADD MLOAD DUP2 DUP5 ADD MSTORE PUSH1 0x20 DUP2 ADD SWAP1 POP PUSH2 0x41CC JUMP JUMPDEST DUP4 DUP2 GT ISZERO PUSH2 0x41F6 JUMPI PUSH1 0x0 DUP5 DUP5 ADD MSTORE JUMPDEST POP POP POP POP JUMP JUMPDEST PUSH1 0x0 PUSH2 0x4207 DUP3 PUSH2 0x41AD JUMP JUMPDEST PUSH2 0x4211 DUP2 DUP6 PUSH2 0x41B8 JUMP JUMPDEST SWAP4 POP PUSH2 0x4221 DUP2 DUP6 PUSH1 0x20 DUP7 ADD PUSH2 0x41C9 JUMP JUMPDEST PUSH2 0x422A DUP2 PUSH2 0x4028 JUMP JUMPDEST DUP5 ADD SWAP2 POP POP SWAP3 SWAP2 POP POP JUMP JUMPDEST PUSH1 0x0 PUSH20 0xFFFFFFFFFFFFFFFFFFFFFFFFFFFFFFFFFFFFFFFF DUP3 AND SWAP1 POP SWAP2 SWAP1 POP JUMP JUMPDEST PUSH1 0x0 PUSH2 0x4260 DUP3 PUSH2 0x4235 JUMP JUMPDEST SWAP1 POP SWAP2 SWAP1 POP JUMP JUMPDEST PUSH2 0x4270 DUP2 PUSH2 0x4255 JUMP JUMPDEST DUP3 MSTORE POP POP JUMP JUMPDEST PUSH1 0x0 DUP2 SWAP1 POP SWAP2 SWAP1 POP JUMP JUMPDEST PUSH2 0x4289 DUP2 PUSH2 0x4276 JUMP JUMPDEST DUP3 MSTORE POP POP JUMP JUMPDEST PUSH1 0x0 DUP2 ISZERO ISZERO SWAP1 POP SWAP2 SWAP1 POP JUMP JUMPDEST PUSH2 0x42A4 DUP2 PUSH2 0x428F JUMP JUMPDEST DUP3 MSTORE POP POP JUMP JUMPDEST PUSH1 0x0 PUSH1 0xE0 DUP3 ADD SWAP1 POP DUP2 DUP2 SUB PUSH1 0x0 DUP4 ADD MSTORE PUSH2 0x42C4 DUP2 DUP11 PUSH2 0x41FC JUMP JUMPDEST SWAP1 POP DUP2 DUP2 SUB PUSH1 0x20 DUP4 ADD MSTORE PUSH2 0x42D8 DUP2 DUP10 PUSH2 0x41FC JUMP JUMPDEST SWAP1 POP DUP2 DUP2 SUB PUSH1 0x40 DUP4 ADD MSTORE PUSH2 0x42EC DUP2 DUP9 PUSH2 0x41FC JUMP JUMPDEST SWAP1 POP DUP2 DUP2 SUB PUSH1 0x60 DUP4 ADD MSTORE PUSH2 0x4300 DUP2 DUP8 PUSH2 0x41FC JUMP JUMPDEST SWAP1 POP PUSH2 0x430F PUSH1 0x80 DUP4 ADD DUP7 PUSH2 0x4267 JUMP JUMPDEST PUSH2 0x431C PUSH1 0xA0 DUP4 ADD DUP6 PUSH2 0x4280 JUMP JUMPDEST PUSH2 0x4329 PUSH1 0xC0 DUP4 ADD DUP5 PUSH2 0x429B JUMP JUMPDEST SWAP9 SWAP8 POP POP POP POP POP POP POP POP JUMP JUMPDEST PUSH1 0x0 DUP2 SWAP1 POP SWAP2 SWAP1 POP JUMP JUMPDEST PUSH2 0x4348 DUP2 PUSH2 0x4335 JUMP JUMPDEST DUP3 MSTORE POP POP JUMP JUMPDEST PUSH1 0x0 PUSH1 0xA0 DUP3 ADD SWAP1 POP DUP2 DUP2 SUB PUSH1 0x0 DUP4 ADD MSTORE PUSH2 0x4368 DUP2 DUP9 PUSH2 0x41FC JUMP JUMPDEST SWAP1 POP DUP2 DUP2 SUB PUSH1 0x20 DUP4 ADD MSTORE PUSH2 0x437C DUP2 DUP8 PUSH2 0x41FC JUMP JUMPDEST SWAP1 POP PUSH2 0x438B PUSH1 0x40 DUP4 ADD DUP7 PUSH2 0x433F JUMP JUMPDEST PUSH2 0x4398 PUSH1 0x60 DUP4 ADD DUP6 PUSH2 0x433F JUMP JUMPDEST DUP2 DUP2 SUB PUSH1 0x80 DUP4 ADD MSTORE PUSH2 0x43AA DUP2 DUP5 PUSH2 0x41FC JUMP JUMPDEST SWAP1 POP SWAP7 SWAP6 POP POP POP POP POP POP JUMP JUMPDEST PUSH2 0x43BF DUP2 PUSH2 0x4276 JUMP JUMPDEST DUP2 EQ PUSH2 0x43CA JUMPI PUSH1 0x0 DUP1 REVERT JUMPDEST POP JUMP JUMPDEST PUSH1 0x0 DUP2 CALLDATALOAD SWAP1 POP PUSH2 0x43DC DUP2 PUSH2 0x43B6 JUMP JUMPDEST SWAP3 SWAP2 POP POP JUMP JUMPDEST PUSH1 0x0 DUP1 PUSH1 0x0 PUSH1 0x60 DUP5 DUP7 SUB SLT ISZERO PUSH2 0x43FB JUMPI PUSH2 0x43FA PUSH2 0x4014 JUMP JUMPDEST JUMPDEST PUSH1 0x0 DUP5 ADD CALLDATALOAD PUSH8 0xFFFFFFFFFFFFFFFF DUP2 GT ISZERO PUSH2 0x4419 JUMPI PUSH2 0x4418 PUSH2 0x4019 JUMP JUMPDEST JUMPDEST PUSH2 0x4425 DUP7 DUP3 DUP8 ADD PUSH2 0x4136 JUMP JUMPDEST SWAP4 POP POP PUSH1 0x20 PUSH2 0x4436 DUP7 DUP3 DUP8 ADD PUSH2 0x43CD JUMP JUMPDEST SWAP3 POP POP PUSH1 0x40 PUSH2 0x4447 DUP7 DUP3 DUP8 ADD PUSH2 0x43CD JUMP JUMPDEST SWAP2 POP POP SWAP3 POP SWAP3 POP SWAP3 JUMP JUMPDEST PUSH1 0x0 PUSH1 0x20 DUP3 ADD SWAP1 POP DUP2 DUP2 SUB PUSH1 0x0 DUP4 ADD MSTORE PUSH2 0x446B DUP2 DUP5 PUSH2 0x41FC JUMP JUMPDEST SWAP1 POP SWAP3 SWAP2 POP POP JUMP JUMPDEST PUSH1 0x0 DUP1 PUSH1 0x40 DUP4 DUP6 SUB SLT ISZERO PUSH2 0x448A JUMPI PUSH2 0x4489 PUSH2 0x4014 JUMP JUMPDEST JUMPDEST PUSH1 0x0 DUP4 ADD CALLDATALOAD PUSH8 0xFFFFFFFFFFFFFFFF DUP2 GT ISZERO PUSH2 0x44A8 JUMPI PUSH2 0x44A7 PUSH2 0x4019 JUMP JUMPDEST JUMPDEST PUSH2 0x44B4 DUP6 DUP3 DUP7 ADD PUSH2 0x4136 JUMP JUMPDEST SWAP3 POP POP PUSH1 0x20 PUSH2 0x44C5 DUP6 DUP3 DUP7 ADD PUSH2 0x43CD JUMP JUMPDEST SWAP2 POP POP SWAP3 POP SWAP3 SWAP1 POP JUMP JUMPDEST PUSH1 0x0 PUSH1 0x60 DUP3 ADD SWAP1 POP PUSH2 0x44E4 PUSH1 0x0 DUP4 ADD DUP7 PUSH2 0x4280 JUMP JUMPDEST DUP2 DUP2 SUB PUSH1 0x20 DUP4 ADD MSTORE PUSH2 0x44F6 DUP2 DUP6 PUSH2 0x41FC JUMP JUMPDEST SWAP1 POP DUP2 DUP2 SUB PUSH1 0x40 DUP4 ADD MSTORE PUSH2 0x450A DUP2 DUP5 PUSH2 0x41FC JUMP JUMPDEST SWAP1 POP SWAP5 SWAP4 POP POP POP POP JUMP JUMPDEST PUSH1 0x0 DUP3 DUP3 MSTORE PUSH1 0x20 DUP3 ADD SWAP1 POP SWAP3 SWAP2 POP POP JUMP JUMPDEST PUSH1 0x0 PUSH2 0x4530 DUP3 PUSH2 0x41AD JUMP JUMPDEST PUSH2 0x453A DUP2 DUP6 PUSH2 0x4514 JUMP JUMPDEST SWAP4 POP PUSH2 0x454A DUP2 DUP6 PUSH1 0x20 DUP7 ADD PUSH2 0x41C9 JUMP JUMPDEST PUSH2 0x4553 DUP2 PUSH2 0x4028 JUMP JUMPDEST DUP5 ADD SWAP2 POP POP SWAP3 SWAP2 POP POP JUMP JUMPDEST PUSH2 0x4567 DUP2 PUSH2 0x4255 JUMP JUMPDEST DUP3 MSTORE POP POP JUMP JUMPDEST PUSH2 0x4576 DUP2 PUSH2 0x4276 JUMP JUMPDEST DUP3 MSTORE POP POP JUMP JUMPDEST PUSH2 0x4585 DUP2 PUSH2 0x428F JUMP JUMPDEST DUP3 MSTORE POP POP JUMP JUMPDEST PUSH1 0x0 PUSH1 0xE0 DUP4 ADD PUSH1 0x0 DUP4 ADD MLOAD DUP5 DUP3 SUB PUSH1 0x0 DUP7 ADD MSTORE PUSH2 0x45A8 DUP3 DUP3 PUSH2 0x4525 JUMP JUMPDEST SWAP2 POP POP PUSH1 0x20 DUP4 ADD MLOAD DUP5 DUP3 SUB PUSH1 0x20 DUP7 ADD MSTORE PUSH2 0x45C2 DUP3 DUP3 PUSH2 0x4525 JUMP JUMPDEST SWAP2 POP POP PUSH1 0x40 DUP4 ADD MLOAD DUP5 DUP3 SUB PUSH1 0x40 DUP7 ADD MSTORE PUSH2 0x45DC DUP3 DUP3 PUSH2 0x4525 JUMP JUMPDEST SWAP2 POP POP PUSH1 0x60 DUP4 ADD MLOAD DUP5 DUP3 SUB PUSH1 0x60 DUP7 ADD MSTORE PUSH2 0x45F6 DUP3 DUP3 PUSH2 0x4525 JUMP JUMPDEST SWAP2 POP POP PUSH1 0x80 DUP4 ADD MLOAD PUSH2 0x460B PUSH1 0x80 DUP7 ADD DUP3 PUSH2 0x455E JUMP JUMPDEST POP PUSH1 0xA0 DUP4 ADD MLOAD PUSH2 0x461E PUSH1 0xA0 DUP7 ADD DUP3 PUSH2 0x456D JUMP JUMPDEST POP PUSH1 0xC0 DUP4 ADD MLOAD PUSH2 0x4631 PUSH1 0xC0 DUP7 ADD DUP3 PUSH2 0x457C JUMP JUMPDEST POP DUP1 SWAP2 POP POP SWAP3 SWAP2 POP POP JUMP JUMPDEST PUSH2 0x4645 DUP2 PUSH2 0x4335 JUMP JUMPDEST DUP3 MSTORE POP POP JUMP JUMPDEST PUSH1 0x0 PUSH1 0xA0 DUP4 ADD PUSH1 0x0 DUP4 ADD MLOAD DUP5 DUP3 SUB PUSH1 0x0 DUP7 ADD MSTORE PUSH2 0x4668 DUP3 DUP3 PUSH2 0x4525 JUMP JUMPDEST SWAP2 POP POP PUSH1 0x20 DUP4 ADD MLOAD DUP5 DUP3 SUB PUSH1 0x20 DUP7 ADD MSTORE PUSH2 0x4682 DUP3 DUP3 PUSH2 0x4525 JUMP JUMPDEST SWAP2 POP POP PUSH1 0x40 DUP4 ADD MLOAD PUSH2 0x4697 PUSH1 0x40 DUP7 ADD DUP3 PUSH2 0x463C JUMP JUMPDEST POP PUSH1 0x60 DUP4 ADD MLOAD PUSH2 0x46AA PUSH1 0x60 DUP7 ADD DUP3 PUSH2 0x463C JUMP JUMPDEST POP PUSH1 0x80 DUP4 ADD MLOAD DUP5 DUP3 SUB PUSH1 0x80 DUP7 ADD MSTORE PUSH2 0x46C2 DUP3 DUP3 PUSH2 0x4525 JUMP JUMPDEST SWAP2 POP POP DUP1 SWAP2 POP POP SWAP3 SWAP2 POP POP JUMP JUMPDEST PUSH1 0x0 PUSH1 0x60 DUP4 ADD PUSH1 0x0 DUP4 ADD MLOAD DUP5 DUP3 SUB PUSH1 0x0 DUP7 ADD MSTORE PUSH2 0x46EC DUP3 DUP3 PUSH2 0x4525 JUMP JUMPDEST SWAP2 POP POP PUSH1 0x20 DUP4 ADD MLOAD DUP5 DUP3 SUB PUSH1 0x20 DUP7 ADD MSTORE PUSH2 0x4706 DUP3 DUP3 PUSH2 0x4525 JUMP JUMPDEST SWAP2 POP POP PUSH1 0x40 DUP4 ADD MLOAD DUP5 DUP3 SUB PUSH1 0x40 DUP7 ADD MSTORE PUSH2 0x4720 DUP3 DUP3 PUSH2 0x4525 JUMP JUMPDEST SWAP2 POP POP DUP1 SWAP2 POP POP SWAP3 SWAP2 POP POP JUMP JUMPDEST PUSH1 0x0 PUSH1 0xC0 DUP4 ADD PUSH1 0x0 DUP4 ADD MLOAD DUP5 DUP3 SUB PUSH1 0x0 DUP7 ADD MSTORE PUSH2 0x474A DUP3 DUP3 PUSH2 0x4525 JUMP JUMPDEST SWAP2 POP POP PUSH1 0x20 DUP4 ADD MLOAD PUSH2 0x475F PUSH1 0x20 DUP7 ADD DUP3 PUSH2 0x456D JUMP JUMPDEST POP PUSH1 0x40 DUP4 ADD MLOAD DUP5 DUP3 SUB PUSH1 0x40 DUP7 ADD MSTORE PUSH2 0x4777 DUP3 DUP3 PUSH2 0x4525 JUMP JUMPDEST SWAP2 POP POP PUSH1 0x60 DUP4 ADD MLOAD PUSH2 0x478C PUSH1 0x60 DUP7 ADD DUP3 PUSH2 0x456D JUMP JUMPDEST POP PUSH1 0x80 DUP4 ADD MLOAD DUP5 DUP3 SUB PUSH1 0x80 DUP7 ADD MSTORE PUSH2 0x47A4 DUP3 DUP3 PUSH2 0x46CF JUMP JUMPDEST SWAP2 POP POP PUSH1 0xA0 DUP4 ADD MLOAD PUSH2 0x47B9 PUSH1 0xA0 DUP7 ADD DUP3 PUSH2 0x456D JUMP JUMPDEST POP DUP1 SWAP2 POP POP SWAP3 SWAP2 POP POP JUMP JUMPDEST PUSH1 0x0 PUSH1 0x60 DUP3 ADD SWAP1 POP DUP2 DUP2 SUB PUSH1 0x0 DUP4 ADD MSTORE PUSH2 0x47DE DUP2 DUP7 PUSH2 0x458B JUMP JUMPDEST SWAP1 POP DUP2 DUP2 SUB PUSH1 0x20 DUP4 ADD MSTORE PUSH2 0x47F2 DUP2 DUP6 PUSH2 0x464B JUMP JUMPDEST SWAP1 POP DUP2 DUP2 SUB PUSH1 0x40 DUP4 ADD MSTORE PUSH2 0x4806 DUP2 DUP5 PUSH2 0x472D JUMP JUMPDEST SWAP1 POP SWAP5 SWAP4 POP POP POP POP JUMP JUMPDEST PUSH1 0x0 PUSH1 0x60 DUP4 ADD PUSH1 0x0 DUP4 ADD MLOAD DUP5 DUP3 SUB PUSH1 0x0 DUP7 ADD MSTORE PUSH2 0x482D DUP3 DUP3 PUSH2 0x4525 JUMP JUMPDEST SWAP2 POP POP PUSH1 0x20 DUP4 ADD MLOAD DUP5 DUP3 SUB PUSH1 0x20 DUP7 ADD MSTORE PUSH2 0x4847 DUP3 DUP3 PUSH2 0x4525 JUMP JUMPDEST SWAP2 POP POP PUSH1 0x40 DUP4 ADD MLOAD DUP5 DUP3 SUB PUSH1 0x40 DUP7 ADD MSTORE PUSH2 0x4861 DUP3 DUP3 PUSH2 0x4525 JUMP JUMPDEST SWAP2 POP POP DUP1 SWAP2 POP POP SWAP3 SWAP2 POP POP JUMP JUMPDEST PUSH1 0x0 PUSH1 0xC0 DUP3 ADD SWAP1 POP DUP2 DUP2 SUB PUSH1 0x0 DUP4 ADD MSTORE PUSH2 0x4888 DUP2 DUP10 PUSH2 0x41FC JUMP JUMPDEST SWAP1 POP PUSH2 0x4897 PUSH1 0x20 DUP4 ADD DUP9 PUSH2 0x4280 JUMP JUMPDEST DUP2 DUP2 SUB PUSH1 0x40 DUP4 ADD MSTORE PUSH2 0x48A9 DUP2 DUP8 PUSH2 0x41FC JUMP JUMPDEST SWAP1 POP PUSH2 0x48B8 PUSH1 0x60 DUP4 ADD DUP7 PUSH2 0x4280 JUMP JUMPDEST DUP2 DUP2 SUB PUSH1 0x80 DUP4 ADD MSTORE PUSH2 0x48CA DUP2 DUP6 PUSH2 0x4810 JUMP JUMPDEST SWAP1 POP PUSH2 0x48D9 PUSH1 0xA0 DUP4 ADD DUP5 PUSH2 0x4280 JUMP JUMPDEST SWAP8 SWAP7 POP POP POP POP POP POP POP JUMP JUMPDEST PUSH1 0x0 DUP1 PUSH1 0x0 PUSH1 0x60 DUP5 DUP7 SUB SLT ISZERO PUSH2 0x48FD JUMPI PUSH2 0x48FC PUSH2 0x4014 JUMP JUMPDEST JUMPDEST PUSH1 0x0 DUP5 ADD CALLDATALOAD PUSH8 0xFFFFFFFFFFFFFFFF DUP2 GT ISZERO PUSH2 0x491B JUMPI PUSH2 0x491A PUSH2 0x4019 JUMP JUMPDEST JUMPDEST PUSH2 0x4927 DUP7 DUP3 DUP8 ADD PUSH2 0x4136 JUMP JUMPDEST SWAP4 POP POP PUSH1 0x20 DUP5 ADD CALLDATALOAD PUSH8 0xFFFFFFFFFFFFFFFF DUP2 GT ISZERO PUSH2 0x4948 JUMPI PUSH2 0x4947 PUSH2 0x4019 JUMP JUMPDEST JUMPDEST PUSH2 0x4954 DUP7 DUP3 DUP8 ADD PUSH2 0x4136 JUMP JUMPDEST SWAP3 POP POP PUSH1 0x40 PUSH2 0x4965 DUP7 DUP3 DUP8 ADD PUSH2 0x43CD JUMP JUMPDEST SWAP2 POP POP SWAP3 POP SWAP3 POP SWAP3 JUMP JUMPDEST PUSH1 0x0 PUSH1 0x40 DUP3 ADD SWAP1 POP DUP2 DUP2 SUB PUSH1 0x0 DUP4 ADD MSTORE PUSH2 0x4989 DUP2 DUP6 PUSH2 0x41FC JUMP JUMPDEST SWAP1 POP DUP2 DUP2 SUB PUSH1 0x20 DUP4 ADD MSTORE PUSH2 0x499D DUP2 DUP5 PUSH2 0x41FC JUMP JUMPDEST SWAP1 POP SWAP4 SWAP3 POP POP POP JUMP JUMPDEST PUSH1 0x0 DUP1 PUSH1 0x0 DUP1 PUSH1 0x0 DUP1 PUSH1 0xC0 DUP8 DUP10 SUB SLT ISZERO PUSH2 0x49C3 JUMPI PUSH2 0x49C2 PUSH2 0x4014 JUMP JUMPDEST JUMPDEST PUSH1 0x0 DUP8 ADD CALLDATALOAD PUSH8 0xFFFFFFFFFFFFFFFF DUP2 GT ISZERO PUSH2 0x49E1 JUMPI PUSH2 0x49E0 PUSH2 0x4019 JUMP JUMPDEST JUMPDEST PUSH2 0x49ED DUP10 DUP3 DUP11 ADD PUSH2 0x4136 JUMP JUMPDEST SWAP7 POP POP PUSH1 0x20 PUSH2 0x49FE DUP10 DUP3 DUP11 ADD PUSH2 0x43CD JUMP JUMPDEST SWAP6 POP POP PUSH1 0x40 DUP8 ADD CALLDATALOAD PUSH8 0xFFFFFFFFFFFFFFFF DUP2 GT ISZERO PUSH2 0x4A1F JUMPI PUSH2 0x4A1E PUSH2 0x4019 JUMP JUMPDEST JUMPDEST PUSH2 0x4A2B DUP10 DUP3 DUP11 ADD PUSH2 0x4136 JUMP JUMPDEST SWAP5 POP POP PUSH1 0x60 DUP8 ADD CALLDATALOAD PUSH8 0xFFFFFFFFFFFFFFFF DUP2 GT ISZERO PUSH2 0x4A4C JUMPI PUSH2 0x4A4B PUSH2 0x4019 JUMP JUMPDEST JUMPDEST PUSH2 0x4A58 DUP10 DUP3 DUP11 ADD PUSH2 0x4136 JUMP JUMPDEST SWAP4 POP POP PUSH1 0x80 DUP8 ADD CALLDATALOAD PUSH8 0xFFFFFFFFFFFFFFFF DUP2 GT ISZERO PUSH2 0x4A79 JUMPI PUSH2 0x4A78 PUSH2 0x4019 JUMP JUMPDEST JUMPDEST PUSH2 0x4A85 DUP10 DUP3 DUP11 ADD PUSH2 0x4136 JUMP JUMPDEST SWAP3 POP POP PUSH1 0xA0 DUP8 ADD CALLDATALOAD PUSH8 0xFFFFFFFFFFFFFFFF DUP2 GT ISZERO PUSH2 0x4AA6 JUMPI PUSH2 0x4AA5 PUSH2 0x4019 JUMP JUMPDEST JUMPDEST PUSH2 0x4AB2 DUP10 DUP3 DUP11 ADD PUSH2 0x4136 JUMP JUMPDEST SWAP2 POP POP SWAP3 SWAP6 POP SWAP3 SWAP6 POP SWAP3 SWAP6 JUMP JUMPDEST PUSH1 0x0 DUP1 PUSH1 0x0 DUP1 PUSH1 0x80 DUP6 DUP8 SUB SLT ISZERO PUSH2 0x4AD9 JUMPI PUSH2 0x4AD8 PUSH2 0x4014 JUMP JUMPDEST JUMPDEST PUSH1 0x0 DUP6 ADD CALLDATALOAD PUSH8 0xFFFFFFFFFFFFFFFF DUP2 GT ISZERO PUSH2 0x4AF7 JUMPI PUSH2 0x4AF6 PUSH2 0x4019 JUMP JUMPDEST JUMPDEST PUSH2 0x4B03 DUP8 DUP3 DUP9 ADD PUSH2 0x4136 JUMP JUMPDEST SWAP5 POP POP PUSH1 0x20 DUP6 ADD CALLDATALOAD PUSH8 0xFFFFFFFFFFFFFFFF DUP2 GT ISZERO PUSH2 0x4B24 JUMPI PUSH2 0x4B23 PUSH2 0x4019 JUMP JUMPDEST JUMPDEST PUSH2 0x4B30 DUP8 DUP3 DUP9 ADD PUSH2 0x4136 JUMP JUMPDEST SWAP4 POP POP PUSH1 0x40 DUP6 ADD CALLDATALOAD PUSH8 0xFFFFFFFFFFFFFFFF DUP2 GT ISZERO PUSH2 0x4B51 JUMPI PUSH2 0x4B50 PUSH2 0x4019 JUMP JUMPDEST JUMPDEST PUSH2 0x4B5D DUP8 DUP3 DUP9 ADD PUSH2 0x4136 JUMP JUMPDEST SWAP3 POP POP PUSH1 0x60 DUP6 ADD CALLDATALOAD PUSH8 0xFFFFFFFFFFFFFFFF DUP2 GT ISZERO PUSH2 0x4B7E JUMPI PUSH2 0x4B7D PUSH2 0x4019 JUMP JUMPDEST JUMPDEST PUSH2 0x4B8A DUP8 DUP3 DUP9 ADD PUSH2 0x4136 JUMP JUMPDEST SWAP2 POP POP SWAP3 SWAP6 SWAP2 SWAP5 POP SWAP3 POP JUMP JUMPDEST PUSH1 0x0 DUP1 PUSH1 0x40 DUP4 DUP6 SUB SLT ISZERO PUSH2 0x4BAD JUMPI PUSH2 0x4BAC PUSH2 0x4014 JUMP JUMPDEST JUMPDEST PUSH1 0x0 DUP4 ADD CALLDATALOAD PUSH8 0xFFFFFFFFFFFFFFFF DUP2 GT ISZERO PUSH2 0x4BCB JUMPI PUSH2 0x4BCA PUSH2 0x4019 JUMP JUMPDEST JUMPDEST PUSH2 0x4BD7 DUP6 DUP3 DUP7 ADD PUSH2 0x4136 JUMP JUMPDEST SWAP3 POP POP PUSH1 0x20 DUP4 ADD CALLDATALOAD PUSH8 0xFFFFFFFFFFFFFFFF DUP2 GT ISZERO PUSH2 0x4BF8 JUMPI PUSH2 0x4BF7 PUSH2 0x4019 JUMP JUMPDEST JUMPDEST PUSH2 0x4C04 DUP6 DUP3 DUP7 ADD PUSH2 0x4136 JUMP JUMPDEST SWAP2 POP POP SWAP3 POP SWAP3 SWAP1 POP JUMP JUMPDEST PUSH1 0x0 DUP2 MLOAD SWAP1 POP SWAP2 SWAP1 POP JUMP JUMPDEST PUSH1 0x0 DUP3 DUP3 MSTORE PUSH1 0x20 DUP3 ADD SWAP1 POP SWAP3 SWAP2 POP POP JUMP JUMPDEST PUSH1 0x0 DUP2 SWAP1 POP PUSH1 0x20 DUP3 ADD SWAP1 POP SWAP2 SWAP1 POP JUMP JUMPDEST PUSH1 0x0 PUSH1 0x60 DUP4 ADD PUSH1 0x0 DUP4 ADD MLOAD PUSH2 0x4C52 PUSH1 0x0 DUP7 ADD DUP3 PUSH2 0x456D JUMP JUMPDEST POP PUSH1 0x20 DUP4 ADD MLOAD DUP5 DUP3 SUB PUSH1 0x20 DUP7 ADD MSTORE PUSH2 0x4C6A DUP3 DUP3 PUSH2 0x4525 JUMP JUMPDEST SWAP2 POP POP PUSH1 0x40 DUP4 ADD MLOAD DUP5 DUP3 SUB PUSH1 0x40 DUP7 ADD MSTORE PUSH2 0x4C84 DUP3 DUP3 PUSH2 0x4525 JUMP JUMPDEST SWAP2 POP POP DUP1 SWAP2 POP POP SWAP3 SWAP2 POP POP JUMP JUMPDEST PUSH1 0x0 PUSH2 0x4C9D DUP4 DUP4 PUSH2 0x4C3A JUMP JUMPDEST SWAP1 POP SWAP3 SWAP2 POP POP JUMP JUMPDEST PUSH1 0x0 PUSH1 0x20 DUP3 ADD SWAP1 POP SWAP2 SWAP1 POP JUMP JUMPDEST PUSH1 0x0 PUSH2 0x4CBD DUP3 PUSH2 0x4C0E JUMP JUMPDEST PUSH2 0x4CC7 DUP2 DUP6 PUSH2 0x4C19 JUMP JUMPDEST SWAP4 POP DUP4 PUSH1 0x20 DUP3 MUL DUP6 ADD PUSH2 0x4CD9 DUP6 PUSH2 0x4C2A JUMP JUMPDEST DUP1 PUSH1 0x0 JUMPDEST DUP6 DUP2 LT ISZERO PUSH2 0x4D15 JUMPI DUP5 DUP5 SUB DUP10 MSTORE DUP2 MLOAD PUSH2 0x4CF6 DUP6 DUP3 PUSH2 0x4C91 JUMP JUMPDEST SWAP5 POP PUSH2 0x4D01 DUP4 PUSH2 0x4CA5 JUMP JUMPDEST SWAP3 POP PUSH1 0x20 DUP11 ADD SWAP10 POP POP PUSH1 0x1 DUP2 ADD SWAP1 POP PUSH2 0x4CDD JUMP JUMPDEST POP DUP3 SWAP8 POP DUP8 SWAP6 POP POP POP POP POP POP SWAP3 SWAP2 POP POP JUMP JUMPDEST PUSH1 0x0 DUP2 MLOAD SWAP1 POP SWAP2 SWAP1 POP JUMP JUMPDEST PUSH1 0x0 DUP3 DUP3 MSTORE PUSH1 0x20 DUP3 ADD SWAP1 POP SWAP3 SWAP2 POP POP JUMP JUMPDEST PUSH1 0x0 DUP2 SWAP1 POP PUSH1 0x20 DUP3 ADD SWAP1 POP SWAP2 SWAP1 POP JUMP JUMPDEST PUSH1 0x0 DUP2 MLOAD SWAP1 POP SWAP2 SWAP1 POP JUMP JUMPDEST PUSH1 0x0 DUP3 DUP3 MSTORE PUSH1 0x20 DUP3 ADD SWAP1 POP SWAP3 SWAP2 POP POP JUMP JUMPDEST PUSH1 0x0 DUP2 SWAP1 POP PUSH1 0x20 DUP3 ADD SWAP1 POP SWAP2 SWAP1 POP JUMP JUMPDEST PUSH1 0x0 PUSH2 0x4D8B DUP4 DUP4 PUSH2 0x4525 JUMP JUMPDEST SWAP1 POP SWAP3 SWAP2 POP POP JUMP JUMPDEST PUSH1 0x0 PUSH1 0x20 DUP3 ADD SWAP1 POP SWAP2 SWAP1 POP JUMP JUMPDEST PUSH1 0x0 PUSH2 0x4DAB DUP3 PUSH2 0x4D53 JUMP JUMPDEST PUSH2 0x4DB5 DUP2 DUP6 PUSH2 0x4D5E JUMP JUMPDEST SWAP4 POP DUP4 PUSH1 0x20 DUP3 MUL DUP6 ADD PUSH2 0x4DC7 DUP6 PUSH2 0x4D6F JUMP JUMPDEST DUP1 PUSH1 0x0 JUMPDEST DUP6 DUP2 LT ISZERO PUSH2 0x4E03 JUMPI DUP5 DUP5 SUB DUP10 MSTORE DUP2 MLOAD PUSH2 0x4DE4 DUP6 DUP3 PUSH2 0x4D7F JUMP JUMPDEST SWAP5 POP PUSH2 0x4DEF DUP4 PUSH2 0x4D93 JUMP JUMPDEST SWAP3 POP PUSH1 0x20 DUP11 ADD SWAP10 POP POP PUSH1 0x1 DUP2 ADD SWAP1 POP PUSH2 0x4DCB JUMP JUMPDEST POP DUP3 SWAP8 POP DUP8 SWAP6 POP POP POP POP POP POP SWAP3 SWAP2 POP POP JUMP JUMPDEST PUSH1 0x0 PUSH2 0x4E21 DUP4 DUP4 PUSH2 0x4DA0 JUMP JUMPDEST SWAP1 POP SWAP3 SWAP2 POP POP JUMP JUMPDEST PUSH1 0x0 PUSH1 0x20 DUP3 ADD SWAP1 POP SWAP2 SWAP1 POP JUMP JUMPDEST PUSH1 0x0 PUSH2 0x4E41 DUP3 PUSH2 0x4D27 JUMP JUMPDEST PUSH2 0x4E4B DUP2 DUP6 PUSH2 0x4D32 JUMP JUMPDEST SWAP4 POP DUP4 PUSH1 0x20 DUP3 MUL DUP6 ADD PUSH2 0x4E5D DUP6 PUSH2 0x4D43 JUMP JUMPDEST DUP1 PUSH1 0x0 JUMPDEST DUP6 DUP2 LT ISZERO PUSH2 0x4E99 JUMPI DUP5 DUP5 SUB DUP10 MSTORE DUP2 MLOAD PUSH2 0x4E7A DUP6 DUP3 PUSH2 0x4E15 JUMP JUMPDEST SWAP5 POP PUSH2 0x4E85 DUP4 PUSH2 0x4E29 JUMP JUMPDEST SWAP3 POP PUSH1 0x20 DUP11 ADD SWAP10 POP POP PUSH1 0x1 DUP2 ADD SWAP1 POP PUSH2 0x4E61 JUMP JUMPDEST POP DUP3 SWAP8 POP DUP8 SWAP6 POP POP POP POP POP POP SWAP3 SWAP2 POP POP JUMP JUMPDEST PUSH1 0x0 PUSH1 0x40 DUP3 ADD SWAP1 POP DUP2 DUP2 SUB PUSH1 0x0 DUP4 ADD MSTORE PUSH2 0x4EC5 DUP2 DUP6 PUSH2 0x4CB2 JUMP JUMPDEST SWAP1 POP DUP2 DUP2 SUB PUSH1 0x20 DUP4 ADD MSTORE PUSH2 0x4ED9 DUP2 DUP5 PUSH2 0x4E36 JUMP JUMPDEST SWAP1 POP SWAP4 SWAP3 POP POP POP JUMP JUMPDEST PUSH1 0x0 PUSH8 0xFFFFFFFFFFFFFFFF DUP3 GT ISZERO PUSH2 0x4EFD JUMPI PUSH2 0x4EFC PUSH2 0x4039 JUMP JUMPDEST JUMPDEST PUSH1 0x20 DUP3 MUL SWAP1 POP PUSH1 0x20 DUP2 ADD SWAP1 POP SWAP2 SWAP1 POP JUMP JUMPDEST PUSH1 0x0 DUP1 REVERT JUMPDEST PUSH1 0x0 PUSH2 0x4F26 PUSH2 0x4F21 DUP5 PUSH2 0x4EE2 JUMP JUMPDEST PUSH2 0x4099 JUMP JUMPDEST SWAP1 POP DUP1 DUP4 DUP3 MSTORE PUSH1 0x20 DUP3 ADD SWAP1 POP PUSH1 0x20 DUP5 MUL DUP4 ADD DUP6 DUP2 GT ISZERO PUSH2 0x4F49 JUMPI PUSH2 0x4F48 PUSH2 0x4F0E JUMP JUMPDEST JUMPDEST DUP4 JUMPDEST DUP2 DUP2 LT ISZERO PUSH2 0x4F90 JUMPI DUP1 CALLDATALOAD PUSH8 0xFFFFFFFFFFFFFFFF DUP2 GT ISZERO PUSH2 0x4F6E JUMPI PUSH2 0x4F6D PUSH2 0x401E JUMP JUMPDEST JUMPDEST DUP1 DUP7 ADD PUSH2 0x4F7B DUP10 DUP3 PUSH2 0x4136 JUMP JUMPDEST DUP6 MSTORE PUSH1 0x20 DUP6 ADD SWAP5 POP POP POP PUSH1 0x20 DUP2 ADD SWAP1 POP PUSH2 0x4F4B JUMP JUMPDEST POP POP POP SWAP4 SWAP3 POP POP POP JUMP JUMPDEST PUSH1 0x0 DUP3 PUSH1 0x1F DUP4 ADD SLT PUSH2 0x4FAF JUMPI PUSH2 0x4FAE PUSH2 0x401E JUMP JUMPDEST JUMPDEST DUP2 CALLDATALOAD PUSH2 0x4FBF DUP5 DUP3 PUSH1 0x20 DUP7 ADD PUSH2 0x4F13 JUMP JUMPDEST SWAP2 POP POP SWAP3 SWAP2 POP POP JUMP JUMPDEST PUSH1 0x0 DUP1 PUSH1 0x0 DUP1 PUSH1 0x80 DUP6 DUP8 SUB SLT ISZERO PUSH2 0x4FE2 JUMPI PUSH2 0x4FE1 PUSH2 0x4014 JUMP JUMPDEST JUMPDEST PUSH1 0x0 DUP6 ADD CALLDATALOAD PUSH8 0xFFFFFFFFFFFFFFFF DUP2 GT ISZERO PUSH2 0x5000 JUMPI PUSH2 0x4FFF PUSH2 0x4019 JUMP JUMPDEST JUMPDEST PUSH2 0x500C DUP8 DUP3 DUP9 ADD PUSH2 0x4136 JUMP JUMPDEST SWAP5 POP POP PUSH1 0x20 DUP6 ADD CALLDATALOAD PUSH8 0xFFFFFFFFFFFFFFFF DUP2 GT ISZERO PUSH2 0x502D JUMPI PUSH2 0x502C PUSH2 0x4019 JUMP JUMPDEST JUMPDEST PUSH2 0x5039 DUP8 DUP3 DUP9 ADD PUSH2 0x4136 JUMP JUMPDEST SWAP4 POP POP PUSH1 0x40 DUP6 ADD CALLDATALOAD PUSH8 0xFFFFFFFFFFFFFFFF DUP2 GT ISZERO PUSH2 0x505A JUMPI PUSH2 0x5059 PUSH2 0x4019 JUMP JUMPDEST JUMPDEST PUSH2 0x5066 DUP8 DUP3 DUP9 ADD PUSH2 0x4136 JUMP JUMPDEST SWAP3 POP POP PUSH1 0x60 DUP6 ADD CALLDATALOAD PUSH8 0xFFFFFFFFFFFFFFFF DUP2 GT ISZERO PUSH2 0x5087 JUMPI PUSH2 0x5086 PUSH2 0x4019 JUMP JUMPDEST JUMPDEST PUSH2 0x5093 DUP8 DUP3 DUP9 ADD PUSH2 0x4F9A JUMP JUMPDEST SWAP2 POP POP SWAP3 SWAP6 SWAP2 SWAP5 POP SWAP3 POP JUMP JUMPDEST PUSH2 0x50A8 DUP2 PUSH2 0x4335 JUMP JUMPDEST DUP2 EQ PUSH2 0x50B3 JUMPI PUSH1 0x0 DUP1 REVERT JUMPDEST POP JUMP JUMPDEST PUSH1 0x0 DUP2 CALLDATALOAD SWAP1 POP PUSH2 0x50C5 DUP2 PUSH2 0x509F JUMP JUMPDEST SWAP3 SWAP2 POP POP JUMP JUMPDEST PUSH1 0x0 DUP1 PUSH1 0x0 DUP1 PUSH1 0x0 DUP1 PUSH1 0xC0 DUP8 DUP10 SUB SLT ISZERO PUSH2 0x50E8 JUMPI PUSH2 0x50E7 PUSH2 0x4014 JUMP JUMPDEST JUMPDEST PUSH1 0x0 DUP8 ADD CALLDATALOAD PUSH8 0xFFFFFFFFFFFFFFFF DUP2 GT ISZERO PUSH2 0x5106 JUMPI PUSH2 0x5105 PUSH2 0x4019 JUMP JUMPDEST JUMPDEST PUSH2 0x5112 DUP10 DUP3 DUP11 ADD PUSH2 0x4136 JUMP JUMPDEST SWAP7 POP POP PUSH1 0x20 DUP8 ADD CALLDATALOAD PUSH8 0xFFFFFFFFFFFFFFFF DUP2 GT ISZERO PUSH2 0x5133 JUMPI PUSH2 0x5132 PUSH2 0x4019 JUMP JUMPDEST JUMPDEST PUSH2 0x513F DUP10 DUP3 DUP11 ADD PUSH2 0x4136 JUMP JUMPDEST SWAP6 POP POP PUSH1 0x40 DUP8 ADD CALLDATALOAD PUSH8 0xFFFFFFFFFFFFFFFF DUP2 GT ISZERO PUSH2 0x5160 JUMPI PUSH2 0x515F PUSH2 0x4019 JUMP JUMPDEST JUMPDEST PUSH2 0x516C DUP10 DUP3 DUP11 ADD PUSH2 0x4136 JUMP JUMPDEST SWAP5 POP POP PUSH1 0x60 PUSH2 0x517D DUP10 DUP3 DUP11 ADD PUSH2 0x50B6 JUMP JUMPDEST SWAP4 POP POP PUSH1 0x80 PUSH2 0x518E DUP10 DUP3 DUP11 ADD PUSH2 0x50B6 JUMP JUMPDEST SWAP3 POP POP PUSH1 0xA0 DUP8 ADD CALLDATALOAD PUSH8 0xFFFFFFFFFFFFFFFF DUP2 GT ISZERO PUSH2 0x51AF JUMPI PUSH2 0x51AE PUSH2 0x4019 JUMP JUMPDEST JUMPDEST PUSH2 0x51BB DUP10 DUP3 DUP11 ADD PUSH2 0x4136 JUMP JUMPDEST SWAP2 POP POP SWAP3 SWAP6 POP SWAP3 SWAP6 POP SWAP3 SWAP6 JUMP JUMPDEST PUSH1 0x0 DUP1 PUSH1 0x0 PUSH1 0x60 DUP5 DUP7 SUB SLT ISZERO PUSH2 0x51E1 JUMPI PUSH2 0x51E0 PUSH2 0x4014 JUMP JUMPDEST JUMPDEST PUSH1 0x0 DUP5 ADD CALLDATALOAD PUSH8 0xFFFFFFFFFFFFFFFF DUP2 GT ISZERO PUSH2 0x51FF JUMPI PUSH2 0x51FE PUSH2 0x4019 JUMP JUMPDEST JUMPDEST PUSH2 0x520B DUP7 DUP3 DUP8 ADD PUSH2 0x4136 JUMP JUMPDEST SWAP4 POP POP PUSH1 0x20 DUP5 ADD CALLDATALOAD PUSH8 0xFFFFFFFFFFFFFFFF DUP2 GT ISZERO PUSH2 0x522C JUMPI PUSH2 0x522B PUSH2 0x4019 JUMP JUMPDEST JUMPDEST PUSH2 0x5238 DUP7 DUP3 DUP8 ADD PUSH2 0x4136 JUMP JUMPDEST SWAP3 POP POP PUSH1 0x40 DUP5 ADD CALLDATALOAD PUSH8 0xFFFFFFFFFFFFFFFF DUP2 GT ISZERO PUSH2 0x5259 JUMPI PUSH2 0x5258 PUSH2 0x4019 JUMP JUMPDEST JUMPDEST PUSH2 0x5265 DUP7 DUP3 DUP8 ADD PUSH2 0x4136 JUMP JUMPDEST SWAP2 POP POP SWAP3 POP SWAP3 POP SWAP3 JUMP JUMPDEST PUSH1 0x40 DUP3 ADD PUSH1 0x0 DUP3 ADD MLOAD PUSH2 0x5285 PUSH1 0x0 DUP6 ADD DUP3 PUSH2 0x456D JUMP JUMPDEST POP PUSH1 0x20 DUP3 ADD MLOAD PUSH2 0x5298 PUSH1 0x20 DUP6 ADD DUP3 PUSH2 0x456D JUMP JUMPDEST POP POP POP POP JUMP JUMPDEST PUSH1 0x0 PUSH2 0x100 DUP3 ADD SWAP1 POP DUP2 DUP2 SUB PUSH1 0x0 DUP4 ADD MSTORE PUSH2 0x52B9 DUP2 DUP11 PUSH2 0x41FC JUMP JUMPDEST SWAP1 POP DUP2 DUP2 SUB PUSH1 0x20 DUP4 ADD MSTORE PUSH2 0x52CD DUP2 DUP10 PUSH2 0x41FC JUMP JUMPDEST SWAP1 POP DUP2 DUP2 SUB PUSH1 0x40 DUP4 ADD MSTORE PUSH2 0x52E1 DUP2 DUP9 PUSH2 0x41FC JUMP JUMPDEST SWAP1 POP PUSH2 0x52F0 PUSH1 0x60 DUP4 ADD DUP8 PUSH2 0x4280 JUMP JUMPDEST PUSH2 0x52FD PUSH1 0x80 DUP4 ADD DUP7 PUSH2 0x526F JUMP JUMPDEST PUSH2 0x530A PUSH1 0xC0 DUP4 ADD DUP6 PUSH2 0x4280 JUMP JUMPDEST PUSH2 0x5317 PUSH1 0xE0 DUP4 ADD DUP5 PUSH2 0x4267 JUMP JUMPDEST SWAP9 SWAP8 POP POP POP POP POP POP POP POP JUMP JUMPDEST PUSH1 0x0 PUSH1 0x60 DUP3 ADD SWAP1 POP PUSH2 0x5338 PUSH1 0x0 DUP4 ADD DUP7 PUSH2 0x4280 JUMP JUMPDEST PUSH2 0x5345 PUSH1 0x20 DUP4 ADD DUP6 PUSH2 0x433F JUMP JUMPDEST PUSH2 0x5352 PUSH1 0x40 DUP4 ADD DUP5 PUSH2 0x433F JUMP JUMPDEST SWAP5 SWAP4 POP POP POP POP JUMP JUMPDEST PUSH1 0x0 DUP1 PUSH1 0x0 DUP1 PUSH1 0x0 PUSH1 0xA0 DUP7 DUP9 SUB SLT ISZERO PUSH2 0x5376 JUMPI PUSH2 0x5375 PUSH2 0x4014 JUMP JUMPDEST JUMPDEST PUSH1 0x0 DUP7 ADD CALLDATALOAD PUSH8 0xFFFFFFFFFFFFFFFF DUP2 GT ISZERO PUSH2 0x5394 JUMPI PUSH2 0x5393 PUSH2 0x4019 JUMP JUMPDEST JUMPDEST PUSH2 0x53A0 DUP9 DUP3 DUP10 ADD PUSH2 0x4136 JUMP JUMPDEST SWAP6 POP POP PUSH1 0x20 DUP7 ADD CALLDATALOAD PUSH8 0xFFFFFFFFFFFFFFFF DUP2 GT ISZERO PUSH2 0x53C1 JUMPI PUSH2 0x53C0 PUSH2 0x4019 JUMP JUMPDEST JUMPDEST PUSH2 0x53CD DUP9 DUP3 DUP10 ADD PUSH2 0x4136 JUMP JUMPDEST SWAP5 POP POP PUSH1 0x40 DUP7 ADD CALLDATALOAD PUSH8 0xFFFFFFFFFFFFFFFF DUP2 GT ISZERO PUSH2 0x53EE JUMPI PUSH2 0x53ED PUSH2 0x4019 JUMP JUMPDEST JUMPDEST PUSH2 0x53FA DUP9 DUP3 DUP10 ADD PUSH2 0x4136 JUMP JUMPDEST SWAP4 POP POP PUSH1 0x60 PUSH2 0x540B DUP9 DUP3 DUP10 ADD PUSH2 0x50B6 JUMP JUMPDEST SWAP3 POP POP PUSH1 0x80 PUSH2 0x541C DUP9 DUP3 DUP10 ADD PUSH2 0x50B6 JUMP JUMPDEST SWAP2 POP POP SWAP3 SWAP6 POP SWAP3 SWAP6 SWAP1 SWAP4 POP JUMP JUMPDEST PUSH1 0x40 DUP3 ADD PUSH1 0x0 DUP3 ADD MLOAD PUSH2 0x543F PUSH1 0x0 DUP6 ADD DUP3 PUSH2 0x456D JUMP JUMPDEST POP PUSH1 0x20 DUP3 ADD MLOAD PUSH2 0x5452 PUSH1 0x20 DUP6 ADD DUP3 PUSH2 0x456D JUMP JUMPDEST POP POP POP POP JUMP JUMPDEST PUSH1 0x0 PUSH2 0x100 DUP4 ADD PUSH1 0x0 DUP4 ADD MLOAD DUP5 DUP3 SUB PUSH1 0x0 DUP7 ADD MSTORE PUSH2 0x5476 DUP3 DUP3 PUSH2 0x4525 JUMP JUMPDEST SWAP2 POP POP PUSH1 0x20 DUP4 ADD MLOAD DUP5 DUP3 SUB PUSH1 0x20 DUP7 ADD MSTORE PUSH2 0x5490 DUP3 DUP3 PUSH2 0x4525 JUMP JUMPDEST SWAP2 POP POP PUSH1 0x40 DUP4 ADD MLOAD DUP5 DUP3 SUB PUSH1 0x40 DUP7 ADD MSTORE PUSH2 0x54AA DUP3 DUP3 PUSH2 0x4525 JUMP JUMPDEST SWAP2 POP POP PUSH1 0x60 DUP4 ADD MLOAD PUSH2 0x54BF PUSH1 0x60 DUP7 ADD DUP3 PUSH2 0x456D JUMP JUMPDEST POP PUSH1 0x80 DUP4 ADD MLOAD PUSH2 0x54D2 PUSH1 0x80 DUP7 ADD DUP3 PUSH2 0x5429 JUMP JUMPDEST POP PUSH1 0xA0 DUP4 ADD MLOAD PUSH2 0x54E5 PUSH1 0xC0 DUP7 ADD DUP3 PUSH2 0x456D JUMP JUMPDEST POP PUSH1 0xC0 DUP4 ADD MLOAD PUSH2 0x54F8 PUSH1 0xE0 DUP7 ADD DUP3 PUSH2 0x455E JUMP JUMPDEST POP DUP1 SWAP2 POP POP SWAP3 SWAP2 POP POP JUMP JUMPDEST PUSH1 0x0 DUP2 MLOAD SWAP1 POP SWAP2 SWAP1 POP JUMP JUMPDEST PUSH1 0x0 DUP3 DUP3 MSTORE PUSH1 0x20 DUP3 ADD SWAP1 POP SWAP3 SWAP2 POP POP JUMP JUMPDEST PUSH1 0x0 DUP2 SWAP1 POP PUSH1 0x20 DUP3 ADD SWAP1 POP SWAP2 SWAP1 POP JUMP JUMPDEST PUSH1 0x0 PUSH1 0x40 DUP4 ADD PUSH1 0x0 DUP4 ADD MLOAD DUP5 DUP3 SUB PUSH1 0x0 DUP7 ADD MSTORE PUSH2 0x554C DUP3 DUP3 PUSH2 0x4525 JUMP JUMPDEST SWAP2 POP POP PUSH1 0x20 DUP4 ADD MLOAD DUP5 DUP3 SUB PUSH1 0x20 DUP7 ADD MSTORE PUSH2 0x5566 DUP3 DUP3 PUSH2 0x4525 JUMP JUMPDEST SWAP2 POP POP DUP1 SWAP2 POP POP SWAP3 SWAP2 POP POP JUMP JUMPDEST PUSH1 0x0 PUSH2 0x557F DUP4 DUP4 PUSH2 0x552F JUMP JUMPDEST SWAP1 POP SWAP3 SWAP2 POP POP JUMP JUMPDEST PUSH1 0x0 PUSH1 0x20 DUP3 ADD SWAP1 POP SWAP2 SWAP1 POP JUMP JUMPDEST PUSH1 0x0 PUSH2 0x559F DUP3 PUSH2 0x5503 JUMP JUMPDEST PUSH2 0x55A9 DUP2 DUP6 PUSH2 0x550E JUMP JUMPDEST SWAP4 POP DUP4 PUSH1 0x20 DUP3 MUL DUP6 ADD PUSH2 0x55BB DUP6 PUSH2 0x551F JUMP JUMPDEST DUP1 PUSH1 0x0 JUMPDEST DUP6 DUP2 LT ISZERO PUSH2 0x55F7 JUMPI DUP5 DUP5 SUB DUP10 MSTORE DUP2 MLOAD PUSH2 0x55D8 DUP6 DUP3 PUSH2 0x5573 JUMP JUMPDEST SWAP5 POP PUSH2 0x55E3 DUP4 PUSH2 0x5587 JUMP JUMPDEST SWAP3 POP PUSH1 0x20 DUP11 ADD SWAP10 POP POP PUSH1 0x1 DUP2 ADD SWAP1 POP PUSH2 0x55BF JUMP JUMPDEST POP DUP3 SWAP8 POP DUP8 SWAP6 POP POP POP POP POP POP SWAP3 SWAP2 POP POP JUMP JUMPDEST PUSH1 0x0 DUP2 MLOAD SWAP1 POP SWAP2 SWAP1 POP JUMP JUMPDEST PUSH1 0x0 DUP3 DUP3 MSTORE PUSH1 0x20 DUP3 ADD SWAP1 POP SWAP3 SWAP2 POP POP JUMP JUMPDEST PUSH1 0x0 DUP2 SWAP1 POP PUSH1 0x20 DUP3 ADD SWAP1 POP SWAP2 SWAP1 POP JUMP JUMPDEST PUSH1 0x60 DUP3 ADD PUSH1 0x0 DUP3 ADD MLOAD PUSH2 0x564B PUSH1 0x0 DUP6 ADD DUP3 PUSH2 0x456D JUMP JUMPDEST POP PUSH1 0x20 DUP3 ADD MLOAD PUSH2 0x565E PUSH1 0x20 DUP6 ADD DUP3 PUSH2 0x463C JUMP JUMPDEST POP PUSH1 0x40 DUP3 ADD MLOAD PUSH2 0x5671 PUSH1 0x40 DUP6 ADD DUP3 PUSH2 0x463C JUMP JUMPDEST POP POP POP POP JUMP JUMPDEST PUSH1 0x0 PUSH2 0x5683 DUP4 DUP4 PUSH2 0x5635 JUMP JUMPDEST PUSH1 0x60 DUP4 ADD SWAP1 POP SWAP3 SWAP2 POP POP JUMP JUMPDEST PUSH1 0x0 PUSH1 0x20 DUP3 ADD SWAP1 POP SWAP2 SWAP1 POP JUMP JUMPDEST PUSH1 0x0 PUSH2 0x56A7 DUP3 PUSH2 0x5609 JUMP JUMPDEST PUSH2 0x56B1 DUP2 DUP6 PUSH2 0x5614 JUMP JUMPDEST SWAP4 POP PUSH2 0x56BC DUP4 PUSH2 0x5625 JUMP JUMPDEST DUP1 PUSH1 0x0 JUMPDEST DUP4 DUP2 LT ISZERO PUSH2 0x56ED JUMPI DUP2 MLOAD PUSH2 0x56D4 DUP9 DUP3 PUSH2 0x5677 JUMP JUMPDEST SWAP8 POP PUSH2 0x56DF DUP4 PUSH2 0x568F JUMP JUMPDEST SWAP3 POP POP PUSH1 0x1 DUP2 ADD SWAP1 POP PUSH2 0x56C0 JUMP JUMPDEST POP DUP6 SWAP4 POP POP POP POP SWAP3 SWAP2 POP POP JUMP JUMPDEST PUSH1 0x0 PUSH1 0x60 DUP3 ADD SWAP1 POP DUP2 DUP2 SUB PUSH1 0x0 DUP4 ADD MSTORE PUSH2 0x5714 DUP2 DUP7 PUSH2 0x5458 JUMP JUMPDEST SWAP1 POP DUP2 DUP2 SUB PUSH1 0x20 DUP4 ADD MSTORE PUSH2 0x5728 DUP2 DUP6 PUSH2 0x5594 JUMP JUMPDEST SWAP1 POP DUP2 DUP2 SUB PUSH1 0x40 DUP4 ADD MSTORE PUSH2 0x573C DUP2 DUP5 PUSH2 0x569C JUMP JUMPDEST SWAP1 POP SWAP5 SWAP4 POP POP POP POP JUMP JUMPDEST PUSH32 0x4E487B7100000000000000000000000000000000000000000000000000000000 PUSH1 0x0 MSTORE PUSH1 0x22 PUSH1 0x4 MSTORE PUSH1 0x24 PUSH1 0x0 REVERT JUMPDEST PUSH1 0x0 PUSH1 0x2 DUP3 DIV SWAP1 POP PUSH1 0x1 DUP3 AND DUP1 PUSH2 0x578D JUMPI PUSH1 0x7F DUP3 AND SWAP2 POP JUMPDEST PUSH1 0x20 DUP3 LT DUP2 EQ ISZERO PUSH2 0x57A1 JUMPI PUSH2 0x57A0 PUSH2 0x5746 JUMP JUMPDEST JUMPDEST POP SWAP2 SWAP1 POP JUMP JUMPDEST PUSH1 0x0 DUP2 SWAP1 POP SWAP3 SWAP2 POP POP JUMP JUMPDEST PUSH1 0x0 PUSH2 0x57BD DUP3 PUSH2 0x41AD JUMP JUMPDEST PUSH2 0x57C7 DUP2 DUP6 PUSH2 0x57A7 JUMP JUMPDEST SWAP4 POP PUSH2 0x57D7 DUP2 DUP6 PUSH1 0x20 DUP7 ADD PUSH2 0x41C9 JUMP JUMPDEST DUP1 DUP5 ADD SWAP2 POP POP SWAP3 SWAP2 POP POP JUMP JUMPDEST PUSH1 0x0 PUSH2 0x57EF DUP3 DUP5 PUSH2 0x57B2 JUMP JUMPDEST SWAP2 POP DUP2 SWAP1 POP SWAP3 SWAP2 POP POP JUMP JUMPDEST PUSH32 0x50726F6475637420646F6573206E6F7420657869737400000000000000000000 PUSH1 0x0 DUP3 ADD MSTORE POP JUMP JUMPDEST PUSH1 0x0 PUSH2 0x5830 PUSH1 0x16 DUP4 PUSH2 0x41B8 JUMP JUMPDEST SWAP2 POP PUSH2 0x583B DUP3 PUSH2 0x57FA JUMP JUMPDEST PUSH1 0x20 DUP3 ADD SWAP1 POP SWAP2 SWAP1 POP JUMP JUMPDEST PUSH1 0x0 PUSH1 0x20 DUP3 ADD SWAP1 POP DUP2 DUP2 SUB PUSH1 0x0 DUP4 ADD MSTORE PUSH2 0x585F DUP2 PUSH2 0x5823 JUMP JUMPDEST SWAP1 POP SWAP2 SWAP1 POP JUMP JUMPDEST PUSH32 0x4E487B7100000000000000000000000000000000000000000000000000000000 PUSH1 0x0 MSTORE PUSH1 0x11 PUSH1 0x4 MSTORE PUSH1 0x24 PUSH1 0x0 REVERT JUMPDEST PUSH1 0x0 PUSH2 0x58A0 DUP3 PUSH2 0x4276 JUMP JUMPDEST SWAP2 POP PUSH32 0xFFFFFFFFFFFFFFFFFFFFFFFFFFFFFFFFFFFFFFFFFFFFFFFFFFFFFFFFFFFFFFFF DUP3 EQ ISZERO PUSH2 0x58D3 JUMPI PUSH2 0x58D2 PUSH2 0x5866 JUMP JUMPDEST JUMPDEST PUSH1 0x1 DUP3 ADD SWAP1 POP SWAP2 SWAP1 POP JUMP JUMPDEST PUSH32 0x4F6E6C79206D616E7566616374757265722063616E2063726561746520726563 PUSH1 0x0 DUP3 ADD MSTORE PUSH32 0x6F72640000000000000000000000000000000000000000000000000000000000 PUSH1 0x20 DUP3 ADD MSTORE POP JUMP JUMPDEST PUSH1 0x0 PUSH2 0x593A PUSH1 0x23 DUP4 PUSH2 0x41B8 JUMP JUMPDEST SWAP2 POP PUSH2 0x5945 DUP3 PUSH2 0x58DE JUMP JUMPDEST PUSH1 0x40 DUP3 ADD SWAP1 POP SWAP2 SWAP1 POP JUMP JUMPDEST PUSH1 0x0 PUSH1 0x20 DUP3 ADD SWAP1 POP DUP2 DUP2 SUB PUSH1 0x0 DUP4 ADD MSTORE PUSH2 0x5969 DUP2 PUSH2 0x592D JUMP JUMPDEST SWAP1 POP SWAP2 SWAP1 POP JUMP JUMPDEST PUSH1 0x0 PUSH1 0x40 DUP3 ADD SWAP1 POP DUP2 DUP2 SUB PUSH1 0x0 DUP4 ADD MSTORE PUSH2 0x598A DUP2 DUP6 PUSH2 0x41FC JUMP JUMPDEST SWAP1 POP PUSH2 0x5999 PUSH1 0x20 DUP4 ADD DUP5 PUSH2 0x4280 JUMP JUMPDEST SWAP4 SWAP3 POP POP POP JUMP JUMPDEST PUSH32 0x4E487B7100000000000000000000000000000000000000000000000000000000 PUSH1 0x0 MSTORE PUSH1 0x32 PUSH1 0x4 MSTORE PUSH1 0x24 PUSH1 0x0 REVERT JUMPDEST PUSH32 0x4F6E6C792061737369676E656420636172726965722063616E2061646420726F PUSH1 0x0 DUP3 ADD MSTORE PUSH32 0x75746520706F696E747300000000000000000000000000000000000000000000 PUSH1 0x20 DUP3 ADD MSTORE POP JUMP JUMPDEST PUSH1 0x0 PUSH2 0x5A2B PUSH1 0x2A DUP4 PUSH2 0x41B8 JUMP JUMPDEST SWAP2 POP PUSH2 0x5A36 DUP3 PUSH2 0x59CF JUMP JUMPDEST PUSH1 0x40 DUP3 ADD SWAP1 POP SWAP2 SWAP1 POP JUMP JUMPDEST PUSH1 0x0 PUSH1 0x20 DUP3 ADD SWAP1 POP DUP2 DUP2 SUB PUSH1 0x0 DUP4 ADD MSTORE PUSH2 0x5A5A DUP2 PUSH2 0x5A1E JUMP JUMPDEST SWAP1 POP SWAP2 SWAP1 POP JUMP JUMPDEST PUSH32 0x536869706D656E74206E6F7420666F756E640000000000000000000000000000 PUSH1 0x0 DUP3 ADD MSTORE POP JUMP JUMPDEST PUSH1 0x0 PUSH2 0x5A97 PUSH1 0x12 DUP4 PUSH2 0x41B8 JUMP JUMPDEST SWAP2 POP PUSH2 0x5AA2 DUP3 PUSH2 0x5A61 JUMP JUMPDEST PUSH1 0x20 DUP3 ADD SWAP1 POP SWAP2 SWAP1 POP JUMP JUMPDEST PUSH1 0x0 PUSH1 0x20 DUP3 ADD SWAP1 POP DUP2 DUP2 SUB PUSH1 0x0 DUP4 ADD MSTORE PUSH2 0x5AC6 DUP2 PUSH2 0x5A8A JUMP JUMPDEST SWAP1 POP SWAP2 SWAP1 POP JUMP JUMPDEST PUSH1 0x0 PUSH1 0x60 DUP3 ADD SWAP1 POP DUP2 DUP2 SUB PUSH1 0x0 DUP4 ADD MSTORE PUSH2 0x5AE7 DUP2 DUP7 PUSH2 0x41FC JUMP JUMPDEST SWAP1 POP DUP2 DUP2 SUB PUSH1 0x20 DUP4 ADD MSTORE PUSH2 0x5AFB DUP2 DUP6 PUSH2 0x41FC JUMP JUMPDEST SWAP1 POP DUP2 DUP2 SUB PUSH1 0x40 DUP4 ADD MSTORE PUSH2 0x5B0F DUP2 DUP5 PUSH2 0x41FC JUMP JUMPDEST SWAP1 POP SWAP5 SWAP4 POP POP POP POP JUMP JUMPDEST PUSH32 0x4F6E6C79206D616E7566616374757265722063616E20616464207175616C6974 PUSH1 0x0 DUP3 ADD MSTORE PUSH32 0x7920636865636B73000000000000000000000000000000000000000000000000 PUSH1 0x20 DUP3 ADD MSTORE POP JUMP JUMPDEST PUSH1 0x0 PUSH2 0x5B75 PUSH1 0x28 DUP4 PUSH2 0x41B8 JUMP JUMPDEST SWAP2 POP PUSH2 0x5B80 DUP3 PUSH2 0x5B19 JUMP JUMPDEST PUSH1 0x40 DUP3 ADD SWAP1 POP SWAP2 SWAP1 POP JUMP JUMPDEST PUSH1 0x0 PUSH1 0x20 DUP3 ADD SWAP1 POP DUP2 DUP2 SUB PUSH1 0x0 DUP4 ADD MSTORE PUSH2 0x5BA4 DUP2 PUSH2 0x5B68 JUMP JUMPDEST SWAP1 POP SWAP2 SWAP1 POP JUMP JUMPDEST PUSH1 0x0 PUSH2 0x5BB6 DUP3 PUSH2 0x4276 JUMP JUMPDEST SWAP2 POP PUSH2 0x5BC1 DUP4 PUSH2 0x4276 JUMP JUMPDEST SWAP3 POP DUP3 DUP3 LT ISZERO PUSH2 0x5BD4 JUMPI PUSH2 0x5BD3 PUSH2 0x5866 JUMP JUMPDEST JUMPDEST DUP3 DUP3 SUB SWAP1 POP SWAP3 SWAP2 POP POP JUMP JUMPDEST PUSH32 0x4F6E6C79206D616E7566616374757265722063616E2061646420737465707300 PUSH1 0x0 DUP3 ADD MSTORE POP JUMP JUMPDEST PUSH1 0x0 PUSH2 0x5C15 PUSH1 0x1F DUP4 PUSH2 0x41B8 JUMP JUMPDEST SWAP2 POP PUSH2 0x5C20 DUP3 PUSH2 0x5BDF JUMP JUMPDEST PUSH1 0x20 DUP3 ADD SWAP1 POP SWAP2 SWAP1 POP JUMP JUMPDEST PUSH1 0x0 PUSH1 0x20 DUP3 ADD SWAP1 POP DUP2 DUP2 SUB PUSH1 0x0 DUP4 ADD MSTORE PUSH2 0x5C44 DUP2 PUSH2 0x5C08 JUMP JUMPDEST SWAP1 POP SWAP2 SWAP1 POP JUMP JUMPDEST PUSH1 0x0 PUSH1 0x60 DUP3 ADD SWAP1 POP DUP2 DUP2 SUB PUSH1 0x0 DUP4 ADD MSTORE PUSH2 0x5C65 DUP2 DUP7 PUSH2 0x41FC JUMP JUMPDEST SWAP1 POP PUSH2 0x5C74 PUSH1 0x20 DUP4 ADD DUP6 PUSH2 0x4280 JUMP JUMPDEST DUP2 DUP2 SUB PUSH1 0x40 DUP4 ADD MSTORE PUSH2 0x5C86 DUP2 DUP5 PUSH2 0x41FC JUMP JUMPDEST SWAP1 POP SWAP5 SWAP4 POP POP POP POP JUMP JUMPDEST PUSH32 0x4F6E6C79206D616E7566616374757265722063616E2061646420686172766573 PUSH1 0x0 DUP3 ADD MSTORE PUSH32 0x7420646174610000000000000000000000000000000000000000000000000000 PUSH1 0x20 DUP3 ADD MSTORE POP JUMP JUMPDEST PUSH1 0x0 PUSH2 0x5CEC PUSH1 0x26 DUP4 PUSH2 0x41B8 JUMP JUMPDEST SWAP2 POP PUSH2 0x5CF7 DUP3 PUSH2 0x5C90 JUMP JUMPDEST PUSH1 0x40 DUP3 ADD SWAP1 POP SWAP2 SWAP1 POP JUMP JUMPDEST PUSH1 0x0 PUSH1 0x20 DUP3 ADD SWAP1 POP DUP2 DUP2 SUB PUSH1 0x0 DUP4 ADD MSTORE PUSH2 0x5D1B DUP2 PUSH2 0x5CDF JUMP JUMPDEST SWAP1 POP SWAP2 SWAP1 POP JUMP JUMPDEST PUSH32 0x50726F6475637420494420616C72656164792065786973747300000000000000 PUSH1 0x0 DUP3 ADD MSTORE POP JUMP JUMPDEST PUSH1 0x0 PUSH2 0x5D58 PUSH1 0x19 DUP4 PUSH2 0x41B8 JUMP JUMPDEST SWAP2 POP PUSH2 0x5D63 DUP3 PUSH2 0x5D22 JUMP JUMPDEST PUSH1 0x20 DUP3 ADD SWAP1 POP SWAP2 SWAP1 POP JUMP JUMPDEST PUSH1 0x0 PUSH1 0x20 DUP3 ADD SWAP1 POP DUP2 DUP2 SUB PUSH1 0x0 DUP4 ADD MSTORE PUSH2 0x5D87 DUP2 PUSH2 0x5D4B JUMP JUMPDEST SWAP1 POP SWAP2 SWAP1 POP JUMP JUMPDEST PUSH1 0x0 PUSH1 0x60 DUP3 ADD SWAP1 POP DUP2 DUP2 SUB PUSH1 0x0 DUP4 ADD MSTORE PUSH2 0x5DA8 DUP2 DUP7 PUSH2 0x41FC JUMP JUMPDEST SWAP1 POP DUP2 DUP2 SUB PUSH1 0x20 DUP4 ADD MSTORE PUSH2 0x5DBC DUP2 DUP6 PUSH2 0x41FC JUMP JUMPDEST SWAP1 POP PUSH2 0x5DCB PUSH1 0x40 DUP4 ADD DUP5 PUSH2 0x4267 JUMP JUMPDEST SWAP5 SWAP4 POP POP POP POP JUMP JUMPDEST PUSH32 0x4F6E6C792061737369676E656420636172726965722063616E20757064617465 PUSH1 0x0 DUP3 ADD MSTORE PUSH32 0x206C6F636174696F6E0000000000000000000000000000000000000000000000 PUSH1 0x20 DUP3 ADD MSTORE POP JUMP JUMPDEST PUSH1 0x0 PUSH2 0x5E2F PUSH1 0x29 DUP4 PUSH2 0x41B8 JUMP JUMPDEST SWAP2 POP PUSH2 0x5E3A DUP3 PUSH2 0x5DD3 JUMP JUMPDEST PUSH1 0x40 DUP3 ADD SWAP1 POP SWAP2 SWAP1 POP JUMP JUMPDEST PUSH1 0x0 PUSH1 0x20 DUP3 ADD SWAP1 POP DUP2 DUP2 SUB PUSH1 0x0 DUP4 ADD MSTORE PUSH2 0x5E5E DUP2 PUSH2 0x5E22 JUMP JUMPDEST SWAP1 POP SWAP2 SWAP1 POP JUMP JUMPDEST PUSH1 0x0 PUSH1 0x60 DUP3 ADD SWAP1 POP DUP2 DUP2 SUB PUSH1 0x0 DUP4 ADD MSTORE PUSH2 0x5E7F DUP2 DUP7 PUSH2 0x41FC JUMP JUMPDEST SWAP1 POP PUSH2 0x5E8E PUSH1 0x20 DUP4 ADD DUP6 PUSH2 0x433F JUMP JUMPDEST PUSH2 0x5E9B PUSH1 0x40 DUP4 ADD DUP5 PUSH2 0x433F JUMP JUMPDEST SWAP5 SWAP4 POP POP POP POP JUMP JUMPDEST PUSH32 0x4E487B7100000000000000000000000000000000000000000000000000000000 PUSH1 0x0 MSTORE PUSH1 0x12 PUSH1 0x4 MSTORE PUSH1 0x24 PUSH1 0x0 REVERT JUMPDEST PUSH1 0x0 PUSH2 0x5EDD DUP3 PUSH2 0x4276 JUMP JUMPDEST SWAP2 POP PUSH2 0x5EE8 DUP4 PUSH2 0x4276 JUMP JUMPDEST SWAP3 POP DUP3 PUSH2 0x5EF8 JUMPI PUSH2 0x5EF7 PUSH2 0x5EA3 JUMP JUMPDEST JUMPDEST DUP3 DUP3 DIV SWAP1 POP SWAP3 SWAP2 POP POP JUMP JUMPDEST PUSH1 0x0 PUSH2 0x5F0E DUP3 PUSH2 0x4276 JUMP JUMPDEST SWAP2 POP PUSH2 0x5F19 DUP4 PUSH2 0x4276 JUMP JUMPDEST SWAP3 POP DUP2 PUSH32 0xFFFFFFFFFFFFFFFFFFFFFFFFFFFFFFFFFFFFFFFFFFFFFFFFFFFFFFFFFFFFFFFF DIV DUP4 GT DUP3 ISZERO ISZERO AND ISZERO PUSH2 0x5F52 JUMPI PUSH2 0x5F51 PUSH2 0x5866 JUMP JUMPDEST JUMPDEST DUP3 DUP3 MUL SWAP1 POP SWAP3 SWAP2 POP POP JUMP JUMPDEST PUSH1 0x0 PUSH1 0xFF DUP3 AND SWAP1 POP SWAP2 SWAP1 POP JUMP JUMPDEST PUSH1 0x0 PUSH2 0x5F75 DUP3 PUSH2 0x5F5D JUMP JUMPDEST SWAP2 POP PUSH2 0x5F80 DUP4 PUSH2 0x5F5D JUMP JUMPDEST SWAP3 POP DUP3 PUSH1 0xFF SUB DUP3 GT ISZERO PUSH2 0x5F96 JUMPI PUSH2 0x5F95 PUSH2 0x5866 JUMP JUMPDEST JUMPDEST DUP3 DUP3 ADD SWAP1 POP SWAP3 SWAP2 POP POP JUMP INVALID LOG2 PUSH5 0x6970667358 0x22 SLT KECCAK256 0xD2 NOT 0x4C 0xC2 BLOCKHASH CALLCODE 0xF PUSH3 0x259477 SWAP8 SSTORE SHR SSTORE 0xDA DUP11 DELEGATECALL 0xAA DUP15 SHR PUSH5 0xE385B95D7B 0xA9 MSTORE 0xE7 CODESIZE 0x26 PUSH5 0x736F6C6343 STOP ADDMOD MULMOD STOP CALLER "},"methodIdentifiers":{"addHarvestData(string,string,string,int256,int256,string)":"d471b460","addManufacturingStep(string,string,string,string[])":"bc0f4c6e","addQualityCheck(string,string)":"a7a9a865","addRoutePoint(string,string,string,string)":"51a5f4b2","createManufacturingRecord(string,uint256,string,string,string,string)":"38fcf662","createProduct(string,string,string)":"d768468b","createShipment(string,uint256,uint256)":"0652bd26","getManufacturingSteps(string)":"b227c015","getProductDetails(string)":"198c59b0","getShipmentDetails(string,string)":"fd241168","manufacturingRecords(string)":"28216a5f","manufacturingSteps(string,uint256)":"08c69414","manufacturingToolsRequired(string,uint256,uint256)":"b4a78d6d","productHarvestData(string)":"0297ba04","productShipments(string,uint256)":"dac3f98e","products(string)":"0186a423","qualityChecks(string,uint256)":"28a2cf38","shipmentLocationUpdates(string,string,uint256)":"e0502274","shipmentRoutePoints(string,string,uint256)":"28bd5617","updateShipmentLocation(string,string,string,int256,int256)":"f8c04121"}}}}}