{"contracts/Upload.sol":{"ProductTracking":{"abi":[{"anonymous":false,"inputs":[{"indexed":false,"internalType":"uint256","name":"productId","type":"uint256"},{"indexed":false,"internalType":"string","name":"forestId","type":"string"},{"indexed":false,"internalType":"string","name":"woodType","type":"string"}],"name":"HarvestDataAdded","type":"event"},{"anonymous":false,"inputs":[{"indexed":false,"internalType":"uint256","name":"productId","type":"uint256"},{"indexed":false,"internalType":"uint256","name":"plannedStartDate","type":"uint256"}],"name":"ManufacturingRecordCreated","type":"event"},{"anonymous":false,"inputs":[{"indexed":false,"internalType":"uint256","name":"productId","type":"uint256"},{"indexed":false,"internalType":"uint256","name":"stepId","type":"uint256"},{"indexed":false,"internalType":"string","name":"name","type":"string"}],"name":"ManufacturingStepAdded","type":"event"},{"anonymous":false,"inputs":[{"indexed":false,"internalType":"uint256","name":"productId","type":"uint256"},{"indexed":false,"internalType":"string","name":"productType","type":"string"},{"indexed":false,"internalType":"address","name":"manufacturer","type":"address"}],"name":"ProductCreated","type":"event"},{"anonymous":false,"inputs":[{"indexed":false,"internalType":"uint256","name":"productId","type":"uint256"},{"indexed":false,"internalType":"string","name":"check","type":"string"}],"name":"QualityCheckAdded","type":"event"},{"anonymous":false,"inputs":[{"indexed":false,"internalType":"uint256","name":"shipmentId","type":"uint256"},{"indexed":false,"internalType":"string","name":"uniqueShipmentId","type":"string"},{"indexed":false,"internalType":"uint256","name":"productId","type":"uint256"}],"name":"ShipmentCreated","type":"event"},{"anonymous":false,"inputs":[{"indexed":false,"internalType":"uint256","name":"shipmentId","type":"uint256"},{"indexed":false,"internalType":"int256","name":"latitude","type":"int256"},{"indexed":false,"internalType":"int256","name":"longitude","type":"int256"}],"name":"ShipmentLocationUpdated","type":"event"},{"anonymous":false,"inputs":[{"indexed":false,"internalType":"uint256","name":"shipmentId","type":"uint256"},{"indexed":false,"internalType":"string","name":"origin","type":"string"},{"indexed":false,"internalType":"string","name":"destination","type":"string"}],"name":"ShipmentRoutePointAdded","type":"event"},{"inputs":[{"internalType":"uint256","name":"_productId","type":"uint256"},{"internalType":"string","name":"_forestId","type":"string"},{"internalType":"string","name":"_woodType","type":"string"},{"internalType":"int256","name":"_latitude","type":"int256"},{"internalType":"int256","name":"_longitude","type":"int256"},{"internalType":"string","name":"_certificationId","type":"string"}],"name":"addHarvestData","outputs":[],"stateMutability":"nonpayable","type":"function"},{"inputs":[{"internalType":"uint256","name":"_productId","type":"uint256"},{"internalType":"string","name":"_name","type":"string"},{"internalType":"string","name":"_estimatedDuration","type":"string"},{"internalType":"string[]","name":"_toolsRequired","type":"string[]"}],"name":"addManufacturingStep","outputs":[],"stateMutability":"nonpayable","type":"function"},{"inputs":[{"internalType":"uint256","name":"_productId","type":"uint256"},{"internalType":"string","name":"_check","type":"string"}],"name":"addQualityCheck","outputs":[],"stateMutability":"nonpayable","type":"function"},{"inputs":[{"internalType":"uint256","name":"_productId","type":"uint256"},{"internalType":"uint256","name":"_shipmentId","type":"uint256"},{"internalType":"string","name":"_origin","type":"string"},{"internalType":"string","name":"_destination","type":"string"}],"name":"addRoutePoint","outputs":[],"stateMutability":"nonpayable","type":"function"},{"inputs":[{"internalType":"uint256","name":"_productId","type":"uint256"},{"internalType":"uint256","name":"_plannedStartDate","type":"uint256"},{"internalType":"string","name":"_estimatedDuration","type":"string"},{"internalType":"string","name":"_estimatedEnergyUsage","type":"string"},{"internalType":"string","name":"_estimatedWaterUsage","type":"string"},{"internalType":"string","name":"_estimatedWaste","type":"string"}],"name":"createManufacturingRecord","outputs":[],"stateMutability":"nonpayable","type":"function"},{"inputs":[{"internalType":"string","name":"_materialId","type":"string"},{"internalType":"string","name":"_facilityId","type":"string"},{"internalType":"string","name":"_productType","type":"string"}],"name":"createProduct","outputs":[{"internalType":"uint256","name":"","type":"uint256"}],"stateMutability":"nonpayable","type":"function"},{"inputs":[{"internalType":"uint256","name":"_productId","type":"uint256"},{"internalType":"string","name":"_uniqueShipmentId","type":"string"},{"internalType":"uint256","name":"_fuelConsumption","type":"uint256"},{"internalType":"uint256","name":"_distance","type":"uint256"}],"name":"createShipment","outputs":[{"internalType":"uint256","name":"","type":"uint256"}],"stateMutability":"nonpayable","type":"function"},{"inputs":[{"internalType":"uint256","name":"_productId","type":"uint256"}],"name":"getManufacturingSteps","outputs":[{"components":[{"internalType":"uint256","name":"stepId","type":"uint256"},{"internalType":"string","name":"name","type":"string"},{"internalType":"string","name":"estimatedDuration","type":"string"}],"internalType":"struct ProductTracking.ManufacturingStep[]","name":"steps","type":"tuple[]"},{"internalType":"string[][]","name":"tools","type":"string[][]"}],"stateMutability":"view","type":"function"},{"inputs":[{"internalType":"uint256","name":"_productId","type":"uint256"}],"name":"getProductDetails","outputs":[{"components":[{"internalType":"uint256","name":"productId","type":"uint256"},{"internalType":"string","name":"materialId","type":"string"},{"internalType":"string","name":"facilityId","type":"string"},{"internalType":"string","name":"productType","type":"string"},{"internalType":"address","name":"manufacturer","type":"address"},{"internalType":"uint256","name":"manufacturingTimestamp","type":"uint256"},{"internalType":"bool","name":"isActive","type":"bool"}],"internalType":"struct ProductTracking.Product","name":"product","type":"tuple"},{"components":[{"internalType":"string","name":"forestId","type":"string"},{"internalType":"string","name":"woodType","type":"string"},{"internalType":"int256","name":"latitude","type":"int256"},{"internalType":"int256","name":"longitude","type":"int256"},{"internalType":"string","name":"certificationId","type":"string"}],"internalType":"struct ProductTracking.HarvestData","name":"harvestData","type":"tuple"},{"components":[{"internalType":"uint256","name":"productId","type":"uint256"},{"internalType":"uint256","name":"plannedStartDate","type":"uint256"},{"internalType":"string","name":"estimatedDuration","type":"string"},{"internalType":"uint256","name":"stepCount","type":"uint256"},{"components":[{"internalType":"string","name":"estimatedEnergyUsage","type":"string"},{"internalType":"string","name":"estimatedWaterUsage","type":"string"},{"internalType":"string","name":"estimatedWaste","type":"string"}],"internalType":"struct ProductTracking.EnvironmentalMetrics","name":"environmentalMetrics","type":"tuple"},{"internalType":"uint256","name":"timestamp","type":"uint256"}],"internalType":"struct ProductTracking.ManufacturingRecord","name":"manufacturingRecord","type":"tuple"}],"stateMutability":"view","type":"function"},{"inputs":[{"internalType":"uint256","name":"_productId","type":"uint256"},{"internalType":"uint256","name":"_shipmentId","type":"uint256"}],"name":"getShipmentDetails","outputs":[{"components":[{"internalType":"uint256","name":"shipmentId","type":"uint256"},{"internalType":"string","name":"uniqueShipmentId","type":"string"},{"internalType":"uint256","name":"productId","type":"uint256"},{"internalType":"string","name":"status","type":"string"},{"internalType":"uint256","name":"routePointsCount","type":"uint256"},{"components":[{"internalType":"uint256","name":"fuelConsumption","type":"uint256"},{"internalType":"uint256","name":"distance","type":"uint256"}],"internalType":"struct ProductTracking.ShipmentMetrics","name":"metrics","type":"tuple"},{"internalType":"uint256","name":"timestamp","type":"uint256"},{"internalType":"address","name":"carrier","type":"address"}],"internalType":"struct ProductTracking.Shipment","name":"shipment","type":"tuple"},{"components":[{"internalType":"string","name":"origin","type":"string"},{"internalType":"string","name":"destination","type":"string"}],"internalType":"struct ProductTracking.RoutePoint[]","name":"routePoints","type":"tuple[]"},{"components":[{"internalType":"uint256","name":"timestamp","type":"uint256"},{"internalType":"int256","name":"latitude","type":"int256"},{"internalType":"int256","name":"longitude","type":"int256"}],"internalType":"struct ProductTracking.LocationUpdate[]","name":"locationUpdates","type":"tuple[]"}],"stateMutability":"view","type":"function"},{"inputs":[{"internalType":"uint256","name":"","type":"uint256"}],"name":"manufacturingRecords","outputs":[{"internalType":"uint256","name":"productId","type":"uint256"},{"internalType":"uint256","name":"plannedStartDate","type":"uint256"},{"internalType":"string","name":"estimatedDuration","type":"string"},{"internalType":"uint256","name":"stepCount","type":"uint256"},{"components":[{"internalType":"string","name":"estimatedEnergyUsage","type":"string"},{"internalType":"string","name":"estimatedWaterUsage","type":"string"},{"internalType":"string","name":"estimatedWaste","type":"string"}],"internalType":"struct ProductTracking.EnvironmentalMetrics","name":"environmentalMetrics","type":"tuple"},{"internalType":"uint256","name":"timestamp","type":"uint256"}],"stateMutability":"view","type":"function"},{"inputs":[{"internalType":"uint256","name":"","type":"uint256"},{"internalType":"uint256","name":"","type":"uint256"}],"name":"manufacturingSteps","outputs":[{"internalType":"uint256","name":"stepId","type":"uint256"},{"internalType":"string","name":"name","type":"string"},{"internalType":"string","name":"estimatedDuration","type":"string"}],"stateMutability":"view","type":"function"},{"inputs":[{"internalType":"uint256","name":"","type":"uint256"},{"internalType":"uint256","name":"","type":"uint256"},{"internalType":"uint256","name":"","type":"uint256"}],"name":"manufacturingToolsRequired","outputs":[{"internalType":"string","name":"","type":"string"}],"stateMutability":"view","type":"function"},{"inputs":[{"internalType":"uint256","name":"","type":"uint256"}],"name":"productHarvestData","outputs":[{"internalType":"string","name":"forestId","type":"string"},{"internalType":"string","name":"woodType","type":"string"},{"internalType":"int256","name":"latitude","type":"int256"},{"internalType":"int256","name":"longitude","type":"int256"},{"internalType":"string","name":"certificationId","type":"string"}],"stateMutability":"view","type":"function"},{"inputs":[{"internalType":"uint256","name":"","type":"uint256"},{"internalType":"uint256","name":"","type":"uint256"}],"name":"productShipments","outputs":[{"internalType":"uint256","name":"shipmentId","type":"uint256"},{"internalType":"string","name":"uniqueShipmentId","type":"string"},{"internalType":"uint256","name":"productId","type":"uint256"},{"internalType":"string","name":"status","type":"string"},{"internalType":"uint256","name":"routePointsCount","type":"uint256"},{"components":[{"internalType":"uint256","name":"fuelConsumption","type":"uint256"},{"internalType":"uint256","name":"distance","type":"uint256"}],"internalType":"struct ProductTracking.ShipmentMetrics","name":"metrics","type":"tuple"},{"internalType":"uint256","name":"timestamp","type":"uint256"},{"internalType":"address","name":"carrier","type":"address"}],"stateMutability":"view","type":"function"},{"inputs":[{"internalType":"uint256","name":"","type":"uint256"}],"name":"products","outputs":[{"internalType":"uint256","name":"productId","type":"uint256"},{"internalType":"string","name":"materialId","type":"string"},{"internalType":"string","name":"facilityId","type":"string"},{"internalType":"string","name":"productType","type":"string"},{"internalType":"address","name":"manufacturer","type":"address"},{"internalType":"uint256","name":"manufacturingTimestamp","type":"uint256"},{"internalType":"bool","name":"isActive","type":"bool"}],"stateMutability":"view","type":"function"},{"inputs":[{"internalType":"uint256","name":"","type":"uint256"},{"internalType":"uint256","name":"","type":"uint256"}],"name":"qualityChecks","outputs":[{"internalType":"string","name":"","type":"string"}],"stateMutability":"view","type":"function"},{"inputs":[{"internalType":"uint256","name":"","type":"uint256"},{"internalType":"uint256","name":"","type":"uint256"},{"internalType":"uint256","name":"","type":"uint256"}],"name":"shipmentLocationUpdates","outputs":[{"internalType":"uint256","name":"timestamp","type":"uint256"},{"internalType":"int256","name":"latitude","type":"int256"},{"internalType":"int256","name":"longitude","type":"int256"}],"stateMutability":"view","type":"function"},{"inputs":[{"internalType":"uint256","name":"","type":"uint256"},{"internalType":"uint256","name":"","type":"uint256"},{"internalType":"uint256","name":"","type":"uint256"}],"name":"shipmentRoutePoints","outputs":[{"internalType":"string","name":"origin","type":"string"},{"internalType":"string","name":"destination","type":"string"}],"stateMutability":"view","type":"function"},{"inputs":[{"internalType":"uint256","name":"_productId","type":"uint256"},{"internalType":"uint256","name":"_shipmentId","type":"uint256"},{"internalType":"string","name":"_newStatus","type":"string"},{"internalType":"int256","name":"_latitude","type":"int256"},{"internalType":"int256","name":"_longitude","type":"int256"}],"name":"updateShipmentLocation","outputs":[],"stateMutability":"nonpayable","type":"function"}],"evm":{"bytecode":{"linkReferences":{},"object":"608060405260006009556000600a5534801561001a57600080fd5b506153198061002a6000396000f3fe608060405234801561001057600080fd5b506004361061012b5760003560e01c8063675315dd116100ad578063c41d1b7411610071578063c41d1b74146103b9578063d768468b146103eb578063e21c34681461041b578063edcf72641461044b578063f2d78f451461047c5761012b565b8063675315dd146102cf5780636813b53b146103015780636a4c4f89146103335780637acc0b2014610367578063a662e9171461039d5761012b565b80634b21a2e4116100f45780634b21a2e4146102195780634d7912ff146102355780635e1a2238146102515780636106bf041461028357806364e4e072146102b35761012b565b8062025dbd146101305780630311e3291461014c57806310ac32261461017d5780632fe9f958146101ad578063326e0f8d146101e4575b600080fd5b61014a600480360381019061014591906137f2565b610498565b005b610166600480360381019061016191906138ef565b6106e9565b604051610174929190613c50565b60405180910390f35b61019760048036038101906101929190613c87565b610a7a565b6040516101a49190613d24565b60405180910390f35b6101c760048036038101906101c29190613d46565b610b40565b6040516101db989796959493929190613e05565b60405180910390f35b6101fe60048036038101906101f991906138ef565b610cf3565b60405161021096959493929190613ef0565b60405180910390f35b610233600480360381019061022e9190613f5f565b610f77565b005b61024f600480360381019061024a9190613ffe565b611273565b005b61026b60048036038101906102669190613d46565b611402565b60405161027a93929190614360565b60405180910390f35b61029d60048036038101906102989190613d46565b611967565b6040516102aa9190613d24565b60405180910390f35b6102cd60048036038101906102c89190614492565b611a20565b005b6102e960048036038101906102e49190613c87565b611c67565b6040516102f89392919061455c565b60405180910390f35b61031b600480360381019061031691906138ef565b611cbb565b60405161032a939291906147ca565b60405180910390f35b61034d600480360381019061034891906138ef565b61242d565b60405161035e959493929190614816565b60405180910390f35b610381600480360381019061037c91906138ef565b6125fb565b604051610394979695949392919061488d565b60405180910390f35b6103b760048036038101906103b2919061493d565b612802565b005b6103d360048036038101906103ce9190613d46565b6129f2565b6040516103e293929190614a1e565b60405180910390f35b61040560048036038101906104009190614a63565b612b39565b6040516104129190614b0a565b60405180910390f35b61043560048036038101906104309190614b25565b612cd3565b6040516104429190614b0a565b60405180910390f35b61046560048036038101906104609190613c87565b612f47565b604051610473929190614ba8565b60405180910390f35b61049660048036038101906104919190614bdf565b613095565b005b60008087815260200190815260200160002060060160009054906101000a900460ff166104fa576040517f08c379a00000000000000000000000000000000000000000000000000000000081526004016104f190614cc2565b60405180910390fd5b3373ffffffffffffffffffffffffffffffffffffffff1660008088815260200190815260200160002060040160009054906101000a900473ffffffffffffffffffffffffffffffffffffffff1673ffffffffffffffffffffffffffffffffffffffff161461059d576040517f08c379a000000000000000000000000000000000000000000000000000000000815260040161059490614d54565b60405180910390fd5b600060405180606001604052808581526020018481526020018381525090506040518060c001604052808881526020018781526020018681526020016000815260200182815260200142815250600260008981526020019081526020016000206000820151816000015560208201518160010155604082015181600201908051906020019061062d929190613364565b5060608201518160030155608082015181600401600082015181600001908051906020019061065d929190613364565b50602082015181600101908051906020019061067a929190613364565b506040820151816002019080519060200190610697929190613364565b50505060a082015181600701559050507faea725908aa1c00faa2397341181e541769f7590623d8b421c697cd96f4e9ba787876040516106d8929190614d74565b60405180910390a150505050505050565b6060806000600260008581526020019081526020016000206003015490508067ffffffffffffffff811115610721576107206136c7565b5b60405190808252806020026020018201604052801561075a57816020015b6107476133ea565b81526020019060019003908161073f5790505b5092508067ffffffffffffffff811115610777576107766136c7565b5b6040519080825280602002602001820160405280156107aa57816020015b60608152602001906001900390816107955790505b5091506000600190505b818111610a73576003600086815260200190815260200160002060008281526020019081526020016000206040518060600160405290816000820154815260200160018201805461080490614dcc565b80601f016020809104026020016040519081016040528092919081815260200182805461083090614dcc565b801561087d5780601f106108525761010080835404028352916020019161087d565b820191906000526020600020905b81548152906001019060200180831161086057829003601f168201915b5050505050815260200160028201805461089690614dcc565b80601f01602080910402602001604051908101604052809291908181526020018280546108c290614dcc565b801561090f5780601f106108e45761010080835404028352916020019161090f565b820191906000526020600020905b8154815290600101906020018083116108f257829003601f168201915b505050505081525050846001836109269190614e2d565b8151811061093757610936614e61565b5b6020026020010181905250600460008681526020019081526020016000206000828152602001908152602001600020805480602002602001604051908101604052809291908181526020016000905b82821015610a325783829060005260206000200180546109a590614dcc565b80601f01602080910402602001604051908101604052809291908181526020018280546109d190614dcc565b8015610a1e5780601f106109f357610100808354040283529160200191610a1e565b820191906000526020600020905b815481529060010190602001808311610a0157829003601f168201915b505050505081526020019060010190610986565b5050505083600183610a449190614e2d565b81518110610a5557610a54614e61565b5b60200260200101819052508080610a6b90614e90565b9150506107b4565b5050915091565b60046020528260005260406000206020528160005260406000208181548110610aa257600080fd5b9060005260206000200160009250925050508054610abf90614dcc565b80601f0160208091040260200160405190810160405280929190818152602001828054610aeb90614dcc565b8015610b385780601f10610b0d57610100808354040283529160200191610b38565b820191906000526020600020905b815481529060010190602001808311610b1b57829003601f168201915b505050505081565b60066020528160005260406000208181548110610b5c57600080fd5b906000526020600020906009020160009150915050806000015490806001018054610b8690614dcc565b80601f0160208091040260200160405190810160405280929190818152602001828054610bb290614dcc565b8015610bff5780601f10610bd457610100808354040283529160200191610bff565b820191906000526020600020905b815481529060010190602001808311610be257829003601f168201915b505050505090806002015490806003018054610c1a90614dcc565b80601f0160208091040260200160405190810160405280929190818152602001828054610c4690614dcc565b8015610c935780601f10610c6857610100808354040283529160200191610c93565b820191906000526020600020905b815481529060010190602001808311610c7657829003601f168201915b5050505050908060040154908060050160405180604001604052908160008201548152602001600182015481525050908060070154908060080160009054906101000a900473ffffffffffffffffffffffffffffffffffffffff16905088565b6002602052806000526040600020600091509050806000015490806001015490806002018054610d2290614dcc565b80601f0160208091040260200160405190810160405280929190818152602001828054610d4e90614dcc565b8015610d9b5780601f10610d7057610100808354040283529160200191610d9b565b820191906000526020600020905b815481529060010190602001808311610d7e57829003601f168201915b50505050509080600301549080600401604051806060016040529081600082018054610dc690614dcc565b80601f0160208091040260200160405190810160405280929190818152602001828054610df290614dcc565b8015610e3f5780601f10610e1457610100808354040283529160200191610e3f565b820191906000526020600020905b815481529060010190602001808311610e2257829003601f168201915b50505050508152602001600182018054610e5890614dcc565b80601f0160208091040260200160405190810160405280929190818152602001828054610e8490614dcc565b8015610ed15780601f10610ea657610100808354040283529160200191610ed1565b820191906000526020600020905b815481529060010190602001808311610eb457829003601f168201915b50505050508152602001600282018054610eea90614dcc565b80601f0160208091040260200160405190810160405280929190818152602001828054610f1690614dcc565b8015610f635780601f10610f3857610100808354040283529160200191610f63565b820191906000526020600020905b815481529060010190602001808311610f4657829003601f168201915b505050505081525050908060070154905086565b60008085815260200190815260200160002060060160009054906101000a900460ff16610fd9576040517f08c379a0000000000000000000000000000000000000000000000000000000008152600401610fd090614cc2565b60405180910390fd5b60006006600086815260200190815260200160002090506000806000905060005b8380549050811015611103578684828154811061101a57611019614e61565b5b90600052602060002090600902016000015414156110f0573373ffffffffffffffffffffffffffffffffffffffff1684828154811061105c5761105b614e61565b5b906000526020600020906009020160080160009054906101000a900473ffffffffffffffffffffffffffffffffffffffff1673ffffffffffffffffffffffffffffffffffffffff16146110e4576040517f08c379a00000000000000000000000000000000000000000000000000000000081526004016110db90614f4b565b60405180910390fd5b80925060019150611103565b80806110fb90614e90565b915050610ffa565b5080611144576040517f08c379a000000000000000000000000000000000000000000000000000000000815260040161113b90614fb7565b60405180910390fd5b82828154811061115757611156614e61565b5b9060005260206000209060090201600401600081548092919061117990614e90565b9190505550600083838154811061119357611192614e61565b5b9060005260206000209060090201600401549050604051806040016040528087815260200186815250600760008a815260200190815260200160002060008981526020019081526020016000206000838152602001908152602001600020600082015181600001908051906020019061120d929190613364565b50602082015181600101908051906020019061122a929190613364565b509050507f6325b9f3817efc572bf865e075dd01349cd3e9fec525a89f2f2cd8c109b1872d87878760405161126193929190614a1e565b60405180910390a15050505050505050565b60008083815260200190815260200160002060060160009054906101000a900460ff166112d5576040517f08c379a00000000000000000000000000000000000000000000000000000000081526004016112cc90614cc2565b60405180910390fd5b3373ffffffffffffffffffffffffffffffffffffffff1660008084815260200190815260200160002060040160009054906101000a900473ffffffffffffffffffffffffffffffffffffffff1673ffffffffffffffffffffffffffffffffffffffff1614611378576040517f08c379a000000000000000000000000000000000000000000000000000000000815260040161136f90615049565b60405180910390fd5b60056000838152602001908152602001600020819080600181540180825580915050600190039060005260206000200160009091909190915090805190602001906113c4929190613364565b507ff407a830789ce5ac464c500ff475a0d60a0be3827bf42f726416cee8ad05c7f282826040516113f6929190615069565b60405180910390a15050565b61140a61340b565b60608060006006600087815260200190815260200160002090506000805b8280549050811015611675578683828154811061144857611447614e61565b5b90600052602060002090600902016000015414156116625782818154811061147357611472614e61565b5b906000526020600020906009020160405180610100016040529081600082015481526020016001820180546114a790614dcc565b80601f01602080910402602001604051908101604052809291908181526020018280546114d390614dcc565b80156115205780601f106114f557610100808354040283529160200191611520565b820191906000526020600020905b81548152906001019060200180831161150357829003601f168201915b505050505081526020016002820154815260200160038201805461154390614dcc565b80601f016020809104026020016040519081016040528092919081815260200182805461156f90614dcc565b80156115bc5780601f10611591576101008083540402835291602001916115bc565b820191906000526020600020905b81548152906001019060200180831161159f57829003601f168201915b505050505081526020016004820154815260200160058201604051806040016040529081600082015481526020016001820154815250508152602001600782015481526020016008820160009054906101000a900473ffffffffffffffffffffffffffffffffffffffff1673ffffffffffffffffffffffffffffffffffffffff1673ffffffffffffffffffffffffffffffffffffffff1681525050955060019150611675565b808061166d90614e90565b915050611428565b50806116b6576040517f08c379a00000000000000000000000000000000000000000000000000000000081526004016116ad90614fb7565b60405180910390fd5b846080015167ffffffffffffffff8111156116d4576116d36136c7565b5b60405190808252806020026020018201604052801561170d57816020015b6116fa61346c565b8152602001906001900390816116f25790505b5093506000600190505b856080015181116118c357600760008981526020019081526020016000206000888152602001908152602001600020600082815260200190815260200160002060405180604001604052908160008201805461177290614dcc565b80601f016020809104026020016040519081016040528092919081815260200182805461179e90614dcc565b80156117eb5780601f106117c0576101008083540402835291602001916117eb565b820191906000526020600020905b8154815290600101906020018083116117ce57829003601f168201915b5050505050815260200160018201805461180490614dcc565b80601f016020809104026020016040519081016040528092919081815260200182805461183090614dcc565b801561187d5780601f106118525761010080835404028352916020019161187d565b820191906000526020600020905b81548152906001019060200180831161186057829003601f168201915b505050505081525050856001836118949190614e2d565b815181106118a5576118a4614e61565b5b602002602001018190525080806118bb90614e90565b915050611717565b50600860008881526020019081526020016000206000878152602001908152602001600020805480602002602001604051908101604052809291908181526020016000905b828210156119585783829060005260206000209060030201604051806060016040529081600082015481526020016001820154815260200160028201548152505081526020019060010190611908565b50505050925050509250925092565b6005602052816000526040600020818154811061198357600080fd5b9060005260206000200160009150915050805461199f90614dcc565b80601f01602080910402602001604051908101604052809291908181526020018280546119cb90614dcc565b8015611a185780601f106119ed57610100808354040283529160200191611a18565b820191906000526020600020905b8154815290600101906020018083116119fb57829003601f168201915b505050505081565b60008085815260200190815260200160002060060160009054906101000a900460ff16611a82576040517f08c379a0000000000000000000000000000000000000000000000000000000008152600401611a7990614cc2565b60405180910390fd5b3373ffffffffffffffffffffffffffffffffffffffff1660008086815260200190815260200160002060040160009054906101000a900473ffffffffffffffffffffffffffffffffffffffff1673ffffffffffffffffffffffffffffffffffffffff1614611b25576040517f08c379a0000000000000000000000000000000000000000000000000000000008152600401611b1c906150e5565b60405180910390fd5b6000600260008681526020019081526020016000209050806003016000815480929190611b5190614e90565b91905055506040518060600160405280826003015481526020018581526020018481525060036000878152602001908152602001600020600083600301548152602001908152602001600020600082015181600001556020820151816001019080519060200190611bc3929190613364565b506040820151816002019080519060200190611be0929190613364565b5090505081600460008781526020019081526020016000206000836003015481526020019081526020016000209080519060200190611c20929190613486565b507f459f350c54cb41d83d92b4410e5bbd63d189ee4ec34bb57d6449c201998d648185826003015486604051611c5893929190615105565b60405180910390a15050505050565b60086020528260005260406000206020528160005260406000208181548110611c8f57600080fd5b906000526020600020906003020160009250925050508060000154908060010154908060020154905083565b611cc36134e6565b611ccb61353b565b611cd361356a565b60008085815260200190815260200160002060060160009054906101000a900460ff16611d35576040517f08c379a0000000000000000000000000000000000000000000000000000000008152600401611d2c90614cc2565b60405180910390fd5b6000808581526020019081526020016000206001600086815260200190815260200160002060026000878152602001908152602001600020826040518060e001604052908160008201548152602001600182018054611d9390614dcc565b80601f0160208091040260200160405190810160405280929190818152602001828054611dbf90614dcc565b8015611e0c5780601f10611de157610100808354040283529160200191611e0c565b820191906000526020600020905b815481529060010190602001808311611def57829003601f168201915b50505050508152602001600282018054611e2590614dcc565b80601f0160208091040260200160405190810160405280929190818152602001828054611e5190614dcc565b8015611e9e5780601f10611e7357610100808354040283529160200191611e9e565b820191906000526020600020905b815481529060010190602001808311611e8157829003601f168201915b50505050508152602001600382018054611eb790614dcc565b80601f0160208091040260200160405190810160405280929190818152602001828054611ee390614dcc565b8015611f305780601f10611f0557610100808354040283529160200191611f30565b820191906000526020600020905b815481529060010190602001808311611f1357829003601f168201915b505050505081526020016004820160009054906101000a900473ffffffffffffffffffffffffffffffffffffffff1673ffffffffffffffffffffffffffffffffffffffff1673ffffffffffffffffffffffffffffffffffffffff168152602001600582015481526020016006820160009054906101000a900460ff1615151515815250509250816040518060a0016040529081600082018054611fd290614dcc565b80601f0160208091040260200160405190810160405280929190818152602001828054611ffe90614dcc565b801561204b5780601f106120205761010080835404028352916020019161204b565b820191906000526020600020905b81548152906001019060200180831161202e57829003601f168201915b5050505050815260200160018201805461206490614dcc565b80601f016020809104026020016040519081016040528092919081815260200182805461209090614dcc565b80156120dd5780601f106120b2576101008083540402835291602001916120dd565b820191906000526020600020905b8154815290600101906020018083116120c057829003601f168201915b50505050508152602001600282015481526020016003820154815260200160048201805461210a90614dcc565b80601f016020809104026020016040519081016040528092919081815260200182805461213690614dcc565b80156121835780601f1061215857610100808354040283529160200191612183565b820191906000526020600020905b81548152906001019060200180831161216657829003601f168201915b5050505050815250509150806040518060c001604052908160008201548152602001600182015481526020016002820180546121be90614dcc565b80601f01602080910402602001604051908101604052809291908181526020018280546121ea90614dcc565b80156122375780601f1061220c57610100808354040283529160200191612237565b820191906000526020600020905b81548152906001019060200180831161221a57829003601f168201915b50505050508152602001600382015481526020016004820160405180606001604052908160008201805461226a90614dcc565b80601f016020809104026020016040519081016040528092919081815260200182805461229690614dcc565b80156122e35780601f106122b8576101008083540402835291602001916122e3565b820191906000526020600020905b8154815290600101906020018083116122c657829003601f168201915b505050505081526020016001820180546122fc90614dcc565b80601f016020809104026020016040519081016040528092919081815260200182805461232890614dcc565b80156123755780601f1061234a57610100808354040283529160200191612375565b820191906000526020600020905b81548152906001019060200180831161235857829003601f168201915b5050505050815260200160028201805461238e90614dcc565b80601f01602080910402602001604051908101604052809291908181526020018280546123ba90614dcc565b80156124075780601f106123dc57610100808354040283529160200191612407565b820191906000526020600020905b8154815290600101906020018083116123ea57829003601f168201915b505050505081525050815260200160078201548152505090509250925092509193909250565b600160205280600052604060002060009150905080600001805461245090614dcc565b80601f016020809104026020016040519081016040528092919081815260200182805461247c90614dcc565b80156124c95780601f1061249e576101008083540402835291602001916124c9565b820191906000526020600020905b8154815290600101906020018083116124ac57829003601f168201915b5050505050908060010180546124de90614dcc565b80601f016020809104026020016040519081016040528092919081815260200182805461250a90614dcc565b80156125575780601f1061252c57610100808354040283529160200191612557565b820191906000526020600020905b81548152906001019060200180831161253a57829003601f168201915b50505050509080600201549080600301549080600401805461257890614dcc565b80601f01602080910402602001604051908101604052809291908181526020018280546125a490614dcc565b80156125f15780601f106125c6576101008083540402835291602001916125f1565b820191906000526020600020905b8154815290600101906020018083116125d457829003601f168201915b5050505050905085565b600060205280600052604060002060009150905080600001549080600101805461262490614dcc565b80601f016020809104026020016040519081016040528092919081815260200182805461265090614dcc565b801561269d5780601f106126725761010080835404028352916020019161269d565b820191906000526020600020905b81548152906001019060200180831161268057829003601f168201915b5050505050908060020180546126b290614dcc565b80601f01602080910402602001604051908101604052809291908181526020018280546126de90614dcc565b801561272b5780601f106127005761010080835404028352916020019161272b565b820191906000526020600020905b81548152906001019060200180831161270e57829003601f168201915b50505050509080600301805461274090614dcc565b80601f016020809104026020016040519081016040528092919081815260200182805461276c90614dcc565b80156127b95780601f1061278e576101008083540402835291602001916127b9565b820191906000526020600020905b81548152906001019060200180831161279c57829003601f168201915b5050505050908060040160009054906101000a900473ffffffffffffffffffffffffffffffffffffffff16908060050154908060060160009054906101000a900460ff16905087565b60008087815260200190815260200160002060060160009054906101000a900460ff16612864576040517f08c379a000000000000000000000000000000000000000000000000000000000815260040161285b90614cc2565b60405180910390fd5b3373ffffffffffffffffffffffffffffffffffffffff1660008088815260200190815260200160002060040160009054906101000a900473ffffffffffffffffffffffffffffffffffffffff1673ffffffffffffffffffffffffffffffffffffffff1614612907576040517f08c379a00000000000000000000000000000000000000000000000000000000081526004016128fe906151b5565b60405180910390fd5b6040518060a001604052808681526020018581526020018481526020018381526020018281525060016000888152602001908152602001600020600082015181600001908051906020019061295d929190613364565b50602082015181600101908051906020019061297a929190613364565b50604082015181600201556060820151816003015560808201518160040190805190602001906129ab929190613364565b509050507f1e47147019e9283bf81d3d0115270ed8e37817c27eec9f2fda8deae6d81e33e68686866040516129e293929190614a1e565b60405180910390a1505050505050565b600360205281600052604060002060205280600052604060002060009150915050806000015490806001018054612a2890614dcc565b80601f0160208091040260200160405190810160405280929190818152602001828054612a5490614dcc565b8015612aa15780601f10612a7657610100808354040283529160200191612aa1565b820191906000526020600020905b815481529060010190602001808311612a8457829003601f168201915b505050505090806002018054612ab690614dcc565b80601f0160208091040260200160405190810160405280929190818152602001828054612ae290614dcc565b8015612b2f5780601f10612b0457610100808354040283529160200191612b2f565b820191906000526020600020905b815481529060010190602001808311612b1257829003601f168201915b5050505050905083565b600060096000815480929190612b4e90614e90565b91905055506040518060e0016040528060095481526020018581526020018481526020018381526020013373ffffffffffffffffffffffffffffffffffffffff168152602001428152602001600115158152506000806009548152602001908152602001600020600082015181600001556020820151816001019080519060200190612bdb929190613364565b506040820151816002019080519060200190612bf8929190613364565b506060820151816003019080519060200190612c15929190613364565b5060808201518160040160006101000a81548173ffffffffffffffffffffffffffffffffffffffff021916908373ffffffffffffffffffffffffffffffffffffffff16021790555060a0820151816005015560c08201518160060160006101000a81548160ff0219169083151502179055509050507faf6ffb6277511513e7d579327cc1fc57f0266df2fb11a60b13487b8c9cd2c3886009548333604051612cbf939291906151d5565b60405180910390a160095490509392505050565b600080600086815260200190815260200160002060060160009054906101000a900460ff16612d37576040517f08c379a0000000000000000000000000000000000000000000000000000000008152600401612d2e90614cc2565b60405180910390fd5b600a6000815480929190612d4a90614e90565b9190505550600060405180604001604052808581526020018481525090506000604051806101000160405280600a5481526020018781526020018881526020016040518060400160405280600981526020017f494e4954494154454400000000000000000000000000000000000000000000008152508152602001600081526020018381526020014281526020013373ffffffffffffffffffffffffffffffffffffffff16815250905060066000888152602001908152602001600020819080600181540180825580915050600190039060005260206000209060090201600090919091909150600082015181600001556020820151816001019080519060200190612e57929190613364565b50604082015181600201556060820151816003019080519060200190612e7e929190613364565b506080820151816004015560a0820151816005016000820151816000015560208201518160010155505060c0820151816007015560e08201518160080160006101000a81548173ffffffffffffffffffffffffffffffffffffffff021916908373ffffffffffffffffffffffffffffffffffffffff16021790555050507f8813a2e229342a3a6ad1b67a7b01fc3aa2acc3bf313c66ef24ac5b10b6a18117600a548789604051612f3093929190615213565b60405180910390a1600a5492505050949350505050565b60076020528260005260406000206020528160005260406000206020528060005260406000206000925092505050806000018054612f8490614dcc565b80601f0160208091040260200160405190810160405280929190818152602001828054612fb090614dcc565b8015612ffd5780601f10612fd257610100808354040283529160200191612ffd565b820191906000526020600020905b815481529060010190602001808311612fe057829003601f168201915b50505050509080600101805461301290614dcc565b80601f016020809104026020016040519081016040528092919081815260200182805461303e90614dcc565b801561308b5780601f106130605761010080835404028352916020019161308b565b820191906000526020600020905b81548152906001019060200180831161306e57829003601f168201915b5050505050905082565b60008086815260200190815260200160002060060160009054906101000a900460ff166130f7576040517f08c379a00000000000000000000000000000000000000000000000000000000081526004016130ee90614cc2565b60405180910390fd5b60006006600087815260200190815260200160002090506000805b8280549050811015613251578683828154811061313257613131614e61565b5b906000526020600020906009020160000154141561323e573373ffffffffffffffffffffffffffffffffffffffff1683828154811061317457613173614e61565b5b906000526020600020906009020160080160009054906101000a900473ffffffffffffffffffffffffffffffffffffffff1673ffffffffffffffffffffffffffffffffffffffff16146131fc576040517f08c379a00000000000000000000000000000000000000000000000000000000081526004016131f3906152c3565b60405180910390fd5b858382815481106132105761320f614e61565b5b90600052602060002090600902016003019080519060200190613234929190613364565b5060019150613251565b808061324990614e90565b915050613112565b5080613292576040517f08c379a000000000000000000000000000000000000000000000000000000000815260040161328990614fb7565b60405180910390fd5b6000604051806060016040528042815260200186815260200185815250905060086000898152602001908152602001600020600088815260200190815260200160002081908060018154018082558091505060019003906000526020600020906003020160009091909190915060008201518160000155602082015181600101556040820151816002015550507f9a3ac4055977313f7aeffb317b75eff6617935baa51bceda77c4652b1cd96aca8786866040516133529392919061455c565b60405180910390a15050505050505050565b82805461337090614dcc565b90600052602060002090601f01602090048101928261339257600085556133d9565b82601f106133ab57805160ff19168380011785556133d9565b828001600101855582156133d9579182015b828111156133d85782518255916020019190600101906133bd565b5b5090506133e691906135a6565b5090565b60405180606001604052806000815260200160608152602001606081525090565b60405180610100016040528060008152602001606081526020016000815260200160608152602001600081526020016134426135c3565b815260200160008152602001600073ffffffffffffffffffffffffffffffffffffffff1681525090565b604051806040016040528060608152602001606081525090565b8280548282559060005260206000209081019282156134d5579160200282015b828111156134d45782518290805190602001906134c4929190613364565b50916020019190600101906134a6565b5b5090506134e291906135dd565b5090565b6040518060e0016040528060008152602001606081526020016060815260200160608152602001600073ffffffffffffffffffffffffffffffffffffffff168152602001600081526020016000151581525090565b6040518060a0016040528060608152602001606081526020016000815260200160008152602001606081525090565b6040518060c0016040528060008152602001600081526020016060815260200160008152602001613599613601565b8152602001600081525090565b5b808211156135bf5760008160009055506001016135a7565b5090565b604051806040016040528060008152602001600081525090565b5b808211156135fd57600081816135f49190613622565b506001016135de565b5090565b60405180606001604052806060815260200160608152602001606081525090565b50805461362e90614dcc565b6000825580601f10613640575061365f565b601f01602090049060005260206000209081019061365e91906135a6565b5b50565b6000604051905090565b600080fd5b600080fd5b6000819050919050565b61368981613676565b811461369457600080fd5b50565b6000813590506136a681613680565b92915050565b600080fd5b600080fd5b6000601f19601f8301169050919050565b7f4e487b7100000000000000000000000000000000000000000000000000000000600052604160045260246000fd5b6136ff826136b6565b810181811067ffffffffffffffff8211171561371e5761371d6136c7565b5b80604052505050565b6000613731613662565b905061373d82826136f6565b919050565b600067ffffffffffffffff82111561375d5761375c6136c7565b5b613766826136b6565b9050602081019050919050565b82818337600083830152505050565b600061379561379084613742565b613727565b9050828152602081018484840111156137b1576137b06136b1565b5b6137bc848285613773565b509392505050565b600082601f8301126137d9576137d86136ac565b5b81356137e9848260208601613782565b91505092915050565b60008060008060008060c0878903121561380f5761380e61366c565b5b600061381d89828a01613697565b965050602061382e89828a01613697565b955050604087013567ffffffffffffffff81111561384f5761384e613671565b5b61385b89828a016137c4565b945050606087013567ffffffffffffffff81111561387c5761387b613671565b5b61388889828a016137c4565b935050608087013567ffffffffffffffff8111156138a9576138a8613671565b5b6138b589828a016137c4565b92505060a087013567ffffffffffffffff8111156138d6576138d5613671565b5b6138e289828a016137c4565b9150509295509295509295565b6000602082840312156139055761390461366c565b5b600061391384828501613697565b91505092915050565b600081519050919050565b600082825260208201905092915050565b6000819050602082019050919050565b61395181613676565b82525050565b600081519050919050565b600082825260208201905092915050565b60005b83811015613991578082015181840152602081019050613976565b838111156139a0576000848401525b50505050565b60006139b182613957565b6139bb8185613962565b93506139cb818560208601613973565b6139d4816136b6565b840191505092915050565b60006060830160008301516139f76000860182613948565b5060208301518482036020860152613a0f82826139a6565b91505060408301518482036040860152613a2982826139a6565b9150508091505092915050565b6000613a4283836139df565b905092915050565b6000602082019050919050565b6000613a628261391c565b613a6c8185613927565b935083602082028501613a7e85613938565b8060005b85811015613aba5784840389528151613a9b8582613a36565b9450613aa683613a4a565b925060208a01995050600181019050613a82565b50829750879550505050505092915050565b600081519050919050565b600082825260208201905092915050565b6000819050602082019050919050565b600081519050919050565b600082825260208201905092915050565b6000819050602082019050919050565b6000613b3083836139a6565b905092915050565b6000602082019050919050565b6000613b5082613af8565b613b5a8185613b03565b935083602082028501613b6c85613b14565b8060005b85811015613ba85784840389528151613b898582613b24565b9450613b9483613b38565b925060208a01995050600181019050613b70565b50829750879550505050505092915050565b6000613bc68383613b45565b905092915050565b6000602082019050919050565b6000613be682613acc565b613bf08185613ad7565b935083602082028501613c0285613ae8565b8060005b85811015613c3e5784840389528151613c1f8582613bba565b9450613c2a83613bce565b925060208a01995050600181019050613c06565b50829750879550505050505092915050565b60006040820190508181036000830152613c6a8185613a57565b90508181036020830152613c7e8184613bdb565b90509392505050565b600080600060608486031215613ca057613c9f61366c565b5b6000613cae86828701613697565b9350506020613cbf86828701613697565b9250506040613cd086828701613697565b9150509250925092565b600082825260208201905092915050565b6000613cf682613957565b613d008185613cda565b9350613d10818560208601613973565b613d19816136b6565b840191505092915050565b60006020820190508181036000830152613d3e8184613ceb565b905092915050565b60008060408385031215613d5d57613d5c61366c565b5b6000613d6b85828601613697565b9250506020613d7c85828601613697565b9150509250929050565b613d8f81613676565b82525050565b604082016000820151613dab6000850182613948565b506020820151613dbe6020850182613948565b50505050565b600073ffffffffffffffffffffffffffffffffffffffff82169050919050565b6000613def82613dc4565b9050919050565b613dff81613de4565b82525050565b600061012082019050613e1b600083018b613d86565b8181036020830152613e2d818a613ceb565b9050613e3c6040830189613d86565b8181036060830152613e4e8188613ceb565b9050613e5d6080830187613d86565b613e6a60a0830186613d95565b613e7760e0830185613d86565b613e85610100830184613df6565b9998505050505050505050565b60006060830160008301518482036000860152613eaf82826139a6565b91505060208301518482036020860152613ec982826139a6565b91505060408301518482036040860152613ee382826139a6565b9150508091505092915050565b600060c082019050613f056000830189613d86565b613f126020830188613d86565b8181036040830152613f248187613ceb565b9050613f336060830186613d86565b8181036080830152613f458185613e92565b9050613f5460a0830184613d86565b979650505050505050565b60008060008060808587031215613f7957613f7861366c565b5b6000613f8787828801613697565b9450506020613f9887828801613697565b935050604085013567ffffffffffffffff811115613fb957613fb8613671565b5b613fc5878288016137c4565b925050606085013567ffffffffffffffff811115613fe657613fe5613671565b5b613ff2878288016137c4565b91505092959194509250565b600080604083850312156140155761401461366c565b5b600061402385828601613697565b925050602083013567ffffffffffffffff81111561404457614043613671565b5b614050858286016137c4565b9150509250929050565b6040820160008201516140706000850182613948565b5060208201516140836020850182613948565b50505050565b61409281613de4565b82525050565b6000610120830160008301516140b16000860182613948565b50602083015184820360208601526140c982826139a6565b91505060408301516140de6040860182613948565b50606083015184820360608601526140f682826139a6565b915050608083015161410b6080860182613948565b5060a083015161411e60a086018261405a565b5060c083015161413160e0860182613948565b5060e0830151614145610100860182614089565b508091505092915050565b600081519050919050565b600082825260208201905092915050565b6000819050602082019050919050565b6000604083016000830151848203600086015261419982826139a6565b915050602083015184820360208601526141b382826139a6565b9150508091505092915050565b60006141cc838361417c565b905092915050565b6000602082019050919050565b60006141ec82614150565b6141f6818561415b565b9350836020820285016142088561416c565b8060005b85811015614244578484038952815161422585826141c0565b9450614230836141d4565b925060208a0199505060018101905061420c565b50829750879550505050505092915050565b600081519050919050565b600082825260208201905092915050565b6000819050602082019050919050565b6000819050919050565b61429581614282565b82525050565b6060820160008201516142b16000850182613948565b5060208201516142c4602085018261428c565b5060408201516142d7604085018261428c565b50505050565b60006142e9838361429b565b60608301905092915050565b6000602082019050919050565b600061430d82614256565b6143178185614261565b935061432283614272565b8060005b8381101561435357815161433a88826142dd565b9750614345836142f5565b925050600181019050614326565b5085935050505092915050565b6000606082019050818103600083015261437a8186614098565b9050818103602083015261438e81856141e1565b905081810360408301526143a28184614302565b9050949350505050565b600067ffffffffffffffff8211156143c7576143c66136c7565b5b602082029050602081019050919050565b600080fd5b60006143f06143eb846143ac565b613727565b90508083825260208201905060208402830185811115614413576144126143d8565b5b835b8181101561445a57803567ffffffffffffffff811115614438576144376136ac565b5b80860161444589826137c4565b85526020850194505050602081019050614415565b5050509392505050565b600082601f830112614479576144786136ac565b5b81356144898482602086016143dd565b91505092915050565b600080600080608085870312156144ac576144ab61366c565b5b60006144ba87828801613697565b945050602085013567ffffffffffffffff8111156144db576144da613671565b5b6144e7878288016137c4565b935050604085013567ffffffffffffffff81111561450857614507613671565b5b614514878288016137c4565b925050606085013567ffffffffffffffff81111561453557614534613671565b5b61454187828801614464565b91505092959194509250565b61455681614282565b82525050565b60006060820190506145716000830186613d86565b61457e602083018561454d565b61458b604083018461454d565b949350505050565b60008115159050919050565b6145a881614593565b82525050565b600060e0830160008301516145c66000860182613948565b50602083015184820360208601526145de82826139a6565b915050604083015184820360408601526145f882826139a6565b9150506060830151848203606086015261461282826139a6565b91505060808301516146276080860182614089565b5060a083015161463a60a0860182613948565b5060c083015161464d60c086018261459f565b508091505092915050565b600060a083016000830151848203600086015261467582826139a6565b9150506020830151848203602086015261468f82826139a6565b91505060408301516146a4604086018261428c565b5060608301516146b7606086018261428c565b50608083015184820360808601526146cf82826139a6565b9150508091505092915050565b600060608301600083015184820360008601526146f982826139a6565b9150506020830151848203602086015261471382826139a6565b9150506040830151848203604086015261472d82826139a6565b9150508091505092915050565b600060c0830160008301516147526000860182613948565b5060208301516147656020860182613948565b506040830151848203604086015261477d82826139a6565b91505060608301516147926060860182613948565b50608083015184820360808601526147aa82826146dc565b91505060a08301516147bf60a0860182613948565b508091505092915050565b600060608201905081810360008301526147e481866145ae565b905081810360208301526147f88185614658565b9050818103604083015261480c818461473a565b9050949350505050565b600060a08201905081810360008301526148308188613ceb565b905081810360208301526148448187613ceb565b9050614853604083018661454d565b614860606083018561454d565b81810360808301526148728184613ceb565b90509695505050505050565b61488781614593565b82525050565b600060e0820190506148a2600083018a613d86565b81810360208301526148b48189613ceb565b905081810360408301526148c88188613ceb565b905081810360608301526148dc8187613ceb565b90506148eb6080830186613df6565b6148f860a0830185613d86565b61490560c083018461487e565b98975050505050505050565b61491a81614282565b811461492557600080fd5b50565b60008135905061493781614911565b92915050565b60008060008060008060c0878903121561495a5761495961366c565b5b600061496889828a01613697565b965050602087013567ffffffffffffffff81111561498957614988613671565b5b61499589828a016137c4565b955050604087013567ffffffffffffffff8111156149b6576149b5613671565b5b6149c289828a016137c4565b94505060606149d389828a01614928565b93505060806149e489828a01614928565b92505060a087013567ffffffffffffffff811115614a0557614a04613671565b5b614a1189828a016137c4565b9150509295509295509295565b6000606082019050614a336000830186613d86565b8181036020830152614a458185613ceb565b90508181036040830152614a598184613ceb565b9050949350505050565b600080600060608486031215614a7c57614a7b61366c565b5b600084013567ffffffffffffffff811115614a9a57614a99613671565b5b614aa6868287016137c4565b935050602084013567ffffffffffffffff811115614ac757614ac6613671565b5b614ad3868287016137c4565b925050604084013567ffffffffffffffff811115614af457614af3613671565b5b614b00868287016137c4565b9150509250925092565b6000602082019050614b1f6000830184613d86565b92915050565b60008060008060808587031215614b3f57614b3e61366c565b5b6000614b4d87828801613697565b945050602085013567ffffffffffffffff811115614b6e57614b6d613671565b5b614b7a878288016137c4565b9350506040614b8b87828801613697565b9250506060614b9c87828801613697565b91505092959194509250565b60006040820190508181036000830152614bc28185613ceb565b90508181036020830152614bd68184613ceb565b90509392505050565b600080600080600060a08688031215614bfb57614bfa61366c565b5b6000614c0988828901613697565b9550506020614c1a88828901613697565b945050604086013567ffffffffffffffff811115614c3b57614c3a613671565b5b614c47888289016137c4565b9350506060614c5888828901614928565b9250506080614c6988828901614928565b9150509295509295909350565b7f50726f6475637420646f6573206e6f7420657869737400000000000000000000600082015250565b6000614cac601683613cda565b9150614cb782614c76565b602082019050919050565b60006020820190508181036000830152614cdb81614c9f565b9050919050565b7f4f6e6c79206d616e7566616374757265722063616e206372656174652072656360008201527f6f72640000000000000000000000000000000000000000000000000000000000602082015250565b6000614d3e602383613cda565b9150614d4982614ce2565b604082019050919050565b60006020820190508181036000830152614d6d81614d31565b9050919050565b6000604082019050614d896000830185613d86565b614d966020830184613d86565b9392505050565b7f4e487b7100000000000000000000000000000000000000000000000000000000600052602260045260246000fd5b60006002820490506001821680614de457607f821691505b60208210811415614df857614df7614d9d565b5b50919050565b7f4e487b7100000000000000000000000000000000000000000000000000000000600052601160045260246000fd5b6000614e3882613676565b9150614e4383613676565b925082821015614e5657614e55614dfe565b5b828203905092915050565b7f4e487b7100000000000000000000000000000000000000000000000000000000600052603260045260246000fd5b6000614e9b82613676565b91507fffffffffffffffffffffffffffffffffffffffffffffffffffffffffffffffff821415614ece57614ecd614dfe565b5b600182019050919050565b7f4f6e6c792061737369676e656420636172726965722063616e2061646420726f60008201527f75746520706f696e747300000000000000000000000000000000000000000000602082015250565b6000614f35602a83613cda565b9150614f4082614ed9565b604082019050919050565b60006020820190508181036000830152614f6481614f28565b9050919050565b7f536869706d656e74206e6f7420666f756e640000000000000000000000000000600082015250565b6000614fa1601283613cda565b9150614fac82614f6b565b602082019050919050565b60006020820190508181036000830152614fd081614f94565b9050919050565b7f4f6e6c79206d616e7566616374757265722063616e20616464207175616c697460008201527f7920636865636b73000000000000000000000000000000000000000000000000602082015250565b6000615033602883613cda565b915061503e82614fd7565b604082019050919050565b6000602082019050818103600083015261506281615026565b9050919050565b600060408201905061507e6000830185613d86565b81810360208301526150908184613ceb565b90509392505050565b7f4f6e6c79206d616e7566616374757265722063616e2061646420737465707300600082015250565b60006150cf601f83613cda565b91506150da82615099565b602082019050919050565b600060208201905081810360008301526150fe816150c2565b9050919050565b600060608201905061511a6000830186613d86565b6151276020830185613d86565b81810360408301526151398184613ceb565b9050949350505050565b7f4f6e6c79206d616e7566616374757265722063616e206164642068617276657360008201527f7420646174610000000000000000000000000000000000000000000000000000602082015250565b600061519f602683613cda565b91506151aa82615143565b604082019050919050565b600060208201905081810360008301526151ce81615192565b9050919050565b60006060820190506151ea6000830186613d86565b81810360208301526151fc8185613ceb565b905061520b6040830184613df6565b949350505050565b60006060820190506152286000830186613d86565b818103602083015261523a8185613ceb565b90506152496040830184613d86565b949350505050565b7f4f6e6c792061737369676e656420636172726965722063616e2075706461746560008201527f206c6f636174696f6e0000000000000000000000000000000000000000000000602082015250565b60006152ad602983613cda565b91506152b882615251565b604082019050919050565b600060208201905081810360008301526152dc816152a0565b905091905056fea2646970667358221220f3dd72c95d2d57b15ae02c99b68af56870022ed51c5c38491f061b9003eea90264736f6c63430008090033","opcodes":"PUSH1 0x80 PUSH1 0x40 MSTORE PUSH1 0x0 PUSH1 0x9 SSTORE PUSH1 0x0 PUSH1 0xA SSTORE CALLVALUE DUP1 ISZERO PUSH2 0x1A JUMPI PUSH1 0x0 DUP1 REVERT JUMPDEST POP PUSH2 0x5319 DUP1 PUSH2 0x2A PUSH1 0x0 CODECOPY PUSH1 0x0 RETURN INVALID PUSH1 0x80 PUSH1 0x40 MSTORE CALLVALUE DUP1 ISZERO PUSH2 0x10 JUMPI PUSH1 0x0 DUP1 REVERT JUMPDEST POP PUSH1 0x4 CALLDATASIZE LT PUSH2 0x12B JUMPI PUSH1 0x0 CALLDATALOAD PUSH1 0xE0 SHR DUP1 PUSH4 0x675315DD GT PUSH2 0xAD JUMPI DUP1 PUSH4 0xC41D1B74 GT PUSH2 0x71 JUMPI DUP1 PUSH4 0xC41D1B74 EQ PUSH2 0x3B9 JUMPI DUP1 PUSH4 0xD768468B EQ PUSH2 0x3EB JUMPI DUP1 PUSH4 0xE21C3468 EQ PUSH2 0x41B JUMPI DUP1 PUSH4 0xEDCF7264 EQ PUSH2 0x44B JUMPI DUP1 PUSH4 0xF2D78F45 EQ PUSH2 0x47C JUMPI PUSH2 0x12B JUMP JUMPDEST DUP1 PUSH4 0x675315DD EQ PUSH2 0x2CF JUMPI DUP1 PUSH4 0x6813B53B EQ PUSH2 0x301 JUMPI DUP1 PUSH4 0x6A4C4F89 EQ PUSH2 0x333 JUMPI DUP1 PUSH4 0x7ACC0B20 EQ PUSH2 0x367 JUMPI DUP1 PUSH4 0xA662E917 EQ PUSH2 0x39D JUMPI PUSH2 0x12B JUMP JUMPDEST DUP1 PUSH4 0x4B21A2E4 GT PUSH2 0xF4 JUMPI DUP1 PUSH4 0x4B21A2E4 EQ PUSH2 0x219 JUMPI DUP1 PUSH4 0x4D7912FF EQ PUSH2 0x235 JUMPI DUP1 PUSH4 0x5E1A2238 EQ PUSH2 0x251 JUMPI DUP1 PUSH4 0x6106BF04 EQ PUSH2 0x283 JUMPI DUP1 PUSH4 0x64E4E072 EQ PUSH2 0x2B3 JUMPI PUSH2 0x12B JUMP JUMPDEST DUP1 PUSH3 0x25DBD EQ PUSH2 0x130 JUMPI DUP1 PUSH4 0x311E329 EQ PUSH2 0x14C JUMPI DUP1 PUSH4 0x10AC3226 EQ PUSH2 0x17D JUMPI DUP1 PUSH4 0x2FE9F958 EQ PUSH2 0x1AD JUMPI DUP1 PUSH4 0x326E0F8D EQ PUSH2 0x1E4 JUMPI JUMPDEST PUSH1 0x0 DUP1 REVERT JUMPDEST PUSH2 0x14A PUSH1 0x4 DUP1 CALLDATASIZE SUB DUP2 ADD SWAP1 PUSH2 0x145 SWAP2 SWAP1 PUSH2 0x37F2 JUMP JUMPDEST PUSH2 0x498 JUMP JUMPDEST STOP JUMPDEST PUSH2 0x166 PUSH1 0x4 DUP1 CALLDATASIZE SUB DUP2 ADD SWAP1 PUSH2 0x161 SWAP2 SWAP1 PUSH2 0x38EF JUMP JUMPDEST PUSH2 0x6E9 JUMP JUMPDEST PUSH1 0x40 MLOAD PUSH2 0x174 SWAP3 SWAP2 SWAP1 PUSH2 0x3C50 JUMP JUMPDEST PUSH1 0x40 MLOAD DUP1 SWAP2 SUB SWAP1 RETURN JUMPDEST PUSH2 0x197 PUSH1 0x4 DUP1 CALLDATASIZE SUB DUP2 ADD SWAP1 PUSH2 0x192 SWAP2 SWAP1 PUSH2 0x3C87 JUMP JUMPDEST PUSH2 0xA7A JUMP JUMPDEST PUSH1 0x40 MLOAD PUSH2 0x1A4 SWAP2 SWAP1 PUSH2 0x3D24 JUMP JUMPDEST PUSH1 0x40 MLOAD DUP1 SWAP2 SUB SWAP1 RETURN JUMPDEST PUSH2 0x1C7 PUSH1 0x4 DUP1 CALLDATASIZE SUB DUP2 ADD SWAP1 PUSH2 0x1C2 SWAP2 SWAP1 PUSH2 0x3D46 JUMP JUMPDEST PUSH2 0xB40 JUMP JUMPDEST PUSH1 0x40 MLOAD PUSH2 0x1DB SWAP9 SWAP8 SWAP7 SWAP6 SWAP5 SWAP4 SWAP3 SWAP2 SWAP1 PUSH2 0x3E05 JUMP JUMPDEST PUSH1 0x40 MLOAD DUP1 SWAP2 SUB SWAP1 RETURN JUMPDEST PUSH2 0x1FE PUSH1 0x4 DUP1 CALLDATASIZE SUB DUP2 ADD SWAP1 PUSH2 0x1F9 SWAP2 SWAP1 PUSH2 0x38EF JUMP JUMPDEST PUSH2 0xCF3 JUMP JUMPDEST PUSH1 0x40 MLOAD PUSH2 0x210 SWAP7 SWAP6 SWAP5 SWAP4 SWAP3 SWAP2 SWAP1 PUSH2 0x3EF0 JUMP JUMPDEST PUSH1 0x40 MLOAD DUP1 SWAP2 SUB SWAP1 RETURN JUMPDEST PUSH2 0x233 PUSH1 0x4 DUP1 CALLDATASIZE SUB DUP2 ADD SWAP1 PUSH2 0x22E SWAP2 SWAP1 PUSH2 0x3F5F JUMP JUMPDEST PUSH2 0xF77 JUMP JUMPDEST STOP JUMPDEST PUSH2 0x24F PUSH1 0x4 DUP1 CALLDATASIZE SUB DUP2 ADD SWAP1 PUSH2 0x24A SWAP2 SWAP1 PUSH2 0x3FFE JUMP JUMPDEST PUSH2 0x1273 JUMP JUMPDEST STOP JUMPDEST PUSH2 0x26B PUSH1 0x4 DUP1 CALLDATASIZE SUB DUP2 ADD SWAP1 PUSH2 0x266 SWAP2 SWAP1 PUSH2 0x3D46 JUMP JUMPDEST PUSH2 0x1402 JUMP JUMPDEST PUSH1 0x40 MLOAD PUSH2 0x27A SWAP4 SWAP3 SWAP2 SWAP1 PUSH2 0x4360 JUMP JUMPDEST PUSH1 0x40 MLOAD DUP1 SWAP2 SUB SWAP1 RETURN JUMPDEST PUSH2 0x29D PUSH1 0x4 DUP1 CALLDATASIZE SUB DUP2 ADD SWAP1 PUSH2 0x298 SWAP2 SWAP1 PUSH2 0x3D46 JUMP JUMPDEST PUSH2 0x1967 JUMP JUMPDEST PUSH1 0x40 MLOAD PUSH2 0x2AA SWAP2 SWAP1 PUSH2 0x3D24 JUMP JUMPDEST PUSH1 0x40 MLOAD DUP1 SWAP2 SUB SWAP1 RETURN JUMPDEST PUSH2 0x2CD PUSH1 0x4 DUP1 CALLDATASIZE SUB DUP2 ADD SWAP1 PUSH2 0x2C8 SWAP2 SWAP1 PUSH2 0x4492 JUMP JUMPDEST PUSH2 0x1A20 JUMP JUMPDEST STOP JUMPDEST PUSH2 0x2E9 PUSH1 0x4 DUP1 CALLDATASIZE SUB DUP2 ADD SWAP1 PUSH2 0x2E4 SWAP2 SWAP1 PUSH2 0x3C87 JUMP JUMPDEST PUSH2 0x1C67 JUMP JUMPDEST PUSH1 0x40 MLOAD PUSH2 0x2F8 SWAP4 SWAP3 SWAP2 SWAP1 PUSH2 0x455C JUMP JUMPDEST PUSH1 0x40 MLOAD DUP1 SWAP2 SUB SWAP1 RETURN JUMPDEST PUSH2 0x31B PUSH1 0x4 DUP1 CALLDATASIZE SUB DUP2 ADD SWAP1 PUSH2 0x316 SWAP2 SWAP1 PUSH2 0x38EF JUMP JUMPDEST PUSH2 0x1CBB JUMP JUMPDEST PUSH1 0x40 MLOAD PUSH2 0x32A SWAP4 SWAP3 SWAP2 SWAP1 PUSH2 0x47CA JUMP JUMPDEST PUSH1 0x40 MLOAD DUP1 SWAP2 SUB SWAP1 RETURN JUMPDEST PUSH2 0x34D PUSH1 0x4 DUP1 CALLDATASIZE SUB DUP2 ADD SWAP1 PUSH2 0x348 SWAP2 SWAP1 PUSH2 0x38EF JUMP JUMPDEST PUSH2 0x242D JUMP JUMPDEST PUSH1 0x40 MLOAD PUSH2 0x35E SWAP6 SWAP5 SWAP4 SWAP3 SWAP2 SWAP1 PUSH2 0x4816 JUMP JUMPDEST PUSH1 0x40 MLOAD DUP1 SWAP2 SUB SWAP1 RETURN JUMPDEST PUSH2 0x381 PUSH1 0x4 DUP1 CALLDATASIZE SUB DUP2 ADD SWAP1 PUSH2 0x37C SWAP2 SWAP1 PUSH2 0x38EF JUMP JUMPDEST PUSH2 0x25FB JUMP JUMPDEST PUSH1 0x40 MLOAD PUSH2 0x394 SWAP8 SWAP7 SWAP6 SWAP5 SWAP4 SWAP3 SWAP2 SWAP1 PUSH2 0x488D JUMP JUMPDEST PUSH1 0x40 MLOAD DUP1 SWAP2 SUB SWAP1 RETURN JUMPDEST PUSH2 0x3B7 PUSH1 0x4 DUP1 CALLDATASIZE SUB DUP2 ADD SWAP1 PUSH2 0x3B2 SWAP2 SWAP1 PUSH2 0x493D JUMP JUMPDEST PUSH2 0x2802 JUMP JUMPDEST STOP JUMPDEST PUSH2 0x3D3 PUSH1 0x4 DUP1 CALLDATASIZE SUB DUP2 ADD SWAP1 PUSH2 0x3CE SWAP2 SWAP1 PUSH2 0x3D46 JUMP JUMPDEST PUSH2 0x29F2 JUMP JUMPDEST PUSH1 0x40 MLOAD PUSH2 0x3E2 SWAP4 SWAP3 SWAP2 SWAP1 PUSH2 0x4A1E JUMP JUMPDEST PUSH1 0x40 MLOAD DUP1 SWAP2 SUB SWAP1 RETURN JUMPDEST PUSH2 0x405 PUSH1 0x4 DUP1 CALLDATASIZE SUB DUP2 ADD SWAP1 PUSH2 0x400 SWAP2 SWAP1 PUSH2 0x4A63 JUMP JUMPDEST PUSH2 0x2B39 JUMP JUMPDEST PUSH1 0x40 MLOAD PUSH2 0x412 SWAP2 SWAP1 PUSH2 0x4B0A JUMP JUMPDEST PUSH1 0x40 MLOAD DUP1 SWAP2 SUB SWAP1 RETURN JUMPDEST PUSH2 0x435 PUSH1 0x4 DUP1 CALLDATASIZE SUB DUP2 ADD SWAP1 PUSH2 0x430 SWAP2 SWAP1 PUSH2 0x4B25 JUMP JUMPDEST PUSH2 0x2CD3 JUMP JUMPDEST PUSH1 0x40 MLOAD PUSH2 0x442 SWAP2 SWAP1 PUSH2 0x4B0A JUMP JUMPDEST PUSH1 0x40 MLOAD DUP1 SWAP2 SUB SWAP1 RETURN JUMPDEST PUSH2 0x465 PUSH1 0x4 DUP1 CALLDATASIZE SUB DUP2 ADD SWAP1 PUSH2 0x460 SWAP2 SWAP1 PUSH2 0x3C87 JUMP JUMPDEST PUSH2 0x2F47 JUMP JUMPDEST PUSH1 0x40 MLOAD PUSH2 0x473 SWAP3 SWAP2 SWAP1 PUSH2 0x4BA8 JUMP JUMPDEST PUSH1 0x40 MLOAD DUP1 SWAP2 SUB SWAP1 RETURN JUMPDEST PUSH2 0x496 PUSH1 0x4 DUP1 CALLDATASIZE SUB DUP2 ADD SWAP1 PUSH2 0x491 SWAP2 SWAP1 PUSH2 0x4BDF JUMP JUMPDEST PUSH2 0x3095 JUMP JUMPDEST STOP JUMPDEST PUSH1 0x0 DUP1 DUP8 DUP2 MSTORE PUSH1 0x20 ADD SWAP1 DUP2 MSTORE PUSH1 0x20 ADD PUSH1 0x0 KECCAK256 PUSH1 0x6 ADD PUSH1 0x0 SWAP1 SLOAD SWAP1 PUSH2 0x100 EXP SWAP1 DIV PUSH1 0xFF AND PUSH2 0x4FA JUMPI PUSH1 0x40 MLOAD PUSH32 0x8C379A000000000000000000000000000000000000000000000000000000000 DUP2 MSTORE PUSH1 0x4 ADD PUSH2 0x4F1 SWAP1 PUSH2 0x4CC2 JUMP JUMPDEST PUSH1 0x40 MLOAD DUP1 SWAP2 SUB SWAP1 REVERT JUMPDEST CALLER PUSH20 0xFFFFFFFFFFFFFFFFFFFFFFFFFFFFFFFFFFFFFFFF AND PUSH1 0x0 DUP1 DUP9 DUP2 MSTORE PUSH1 0x20 ADD SWAP1 DUP2 MSTORE PUSH1 0x20 ADD PUSH1 0x0 KECCAK256 PUSH1 0x4 ADD PUSH1 0x0 SWAP1 SLOAD SWAP1 PUSH2 0x100 EXP SWAP1 DIV PUSH20 0xFFFFFFFFFFFFFFFFFFFFFFFFFFFFFFFFFFFFFFFF AND PUSH20 0xFFFFFFFFFFFFFFFFFFFFFFFFFFFFFFFFFFFFFFFF AND EQ PUSH2 0x59D JUMPI PUSH1 0x40 MLOAD PUSH32 0x8C379A000000000000000000000000000000000000000000000000000000000 DUP2 MSTORE PUSH1 0x4 ADD PUSH2 0x594 SWAP1 PUSH2 0x4D54 JUMP JUMPDEST PUSH1 0x40 MLOAD DUP1 SWAP2 SUB SWAP1 REVERT JUMPDEST PUSH1 0x0 PUSH1 0x40 MLOAD DUP1 PUSH1 0x60 ADD PUSH1 0x40 MSTORE DUP1 DUP6 DUP2 MSTORE PUSH1 0x20 ADD DUP5 DUP2 MSTORE PUSH1 0x20 ADD DUP4 DUP2 MSTORE POP SWAP1 POP PUSH1 0x40 MLOAD DUP1 PUSH1 0xC0 ADD PUSH1 0x40 MSTORE DUP1 DUP9 DUP2 MSTORE PUSH1 0x20 ADD DUP8 DUP2 MSTORE PUSH1 0x20 ADD DUP7 DUP2 MSTORE PUSH1 0x20 ADD PUSH1 0x0 DUP2 MSTORE PUSH1 0x20 ADD DUP3 DUP2 MSTORE PUSH1 0x20 ADD TIMESTAMP DUP2 MSTORE POP PUSH1 0x2 PUSH1 0x0 DUP10 DUP2 MSTORE PUSH1 0x20 ADD SWAP1 DUP2 MSTORE PUSH1 0x20 ADD PUSH1 0x0 KECCAK256 PUSH1 0x0 DUP3 ADD MLOAD DUP2 PUSH1 0x0 ADD SSTORE PUSH1 0x20 DUP3 ADD MLOAD DUP2 PUSH1 0x1 ADD SSTORE PUSH1 0x40 DUP3 ADD MLOAD DUP2 PUSH1 0x2 ADD SWAP1 DUP1 MLOAD SWAP1 PUSH1 0x20 ADD SWAP1 PUSH2 0x62D SWAP3 SWAP2 SWAP1 PUSH2 0x3364 JUMP JUMPDEST POP PUSH1 0x60 DUP3 ADD MLOAD DUP2 PUSH1 0x3 ADD SSTORE PUSH1 0x80 DUP3 ADD MLOAD DUP2 PUSH1 0x4 ADD PUSH1 0x0 DUP3 ADD MLOAD DUP2 PUSH1 0x0 ADD SWAP1 DUP1 MLOAD SWAP1 PUSH1 0x20 ADD SWAP1 PUSH2 0x65D SWAP3 SWAP2 SWAP1 PUSH2 0x3364 JUMP JUMPDEST POP PUSH1 0x20 DUP3 ADD MLOAD DUP2 PUSH1 0x1 ADD SWAP1 DUP1 MLOAD SWAP1 PUSH1 0x20 ADD SWAP1 PUSH2 0x67A SWAP3 SWAP2 SWAP1 PUSH2 0x3364 JUMP JUMPDEST POP PUSH1 0x40 DUP3 ADD MLOAD DUP2 PUSH1 0x2 ADD SWAP1 DUP1 MLOAD SWAP1 PUSH1 0x20 ADD SWAP1 PUSH2 0x697 SWAP3 SWAP2 SWAP1 PUSH2 0x3364 JUMP JUMPDEST POP POP POP PUSH1 0xA0 DUP3 ADD MLOAD DUP2 PUSH1 0x7 ADD SSTORE SWAP1 POP POP PUSH32 0xAEA725908AA1C00FAA2397341181E541769F7590623D8B421C697CD96F4E9BA7 DUP8 DUP8 PUSH1 0x40 MLOAD PUSH2 0x6D8 SWAP3 SWAP2 SWAP1 PUSH2 0x4D74 JUMP JUMPDEST PUSH1 0x40 MLOAD DUP1 SWAP2 SUB SWAP1 LOG1 POP POP POP POP POP POP POP JUMP JUMPDEST PUSH1 0x60 DUP1 PUSH1 0x0 PUSH1 0x2 PUSH1 0x0 DUP6 DUP2 MSTORE PUSH1 0x20 ADD SWAP1 DUP2 MSTORE PUSH1 0x20 ADD PUSH1 0x0 KECCAK256 PUSH1 0x3 ADD SLOAD SWAP1 POP DUP1 PUSH8 0xFFFFFFFFFFFFFFFF DUP2 GT ISZERO PUSH2 0x721 JUMPI PUSH2 0x720 PUSH2 0x36C7 JUMP JUMPDEST JUMPDEST PUSH1 0x40 MLOAD SWAP1 DUP1 DUP3 MSTORE DUP1 PUSH1 0x20 MUL PUSH1 0x20 ADD DUP3 ADD PUSH1 0x40 MSTORE DUP1 ISZERO PUSH2 0x75A JUMPI DUP2 PUSH1 0x20 ADD JUMPDEST PUSH2 0x747 PUSH2 0x33EA JUMP JUMPDEST DUP2 MSTORE PUSH1 0x20 ADD SWAP1 PUSH1 0x1 SWAP1 SUB SWAP1 DUP2 PUSH2 0x73F JUMPI SWAP1 POP JUMPDEST POP SWAP3 POP DUP1 PUSH8 0xFFFFFFFFFFFFFFFF DUP2 GT ISZERO PUSH2 0x777 JUMPI PUSH2 0x776 PUSH2 0x36C7 JUMP JUMPDEST JUMPDEST PUSH1 0x40 MLOAD SWAP1 DUP1 DUP3 MSTORE DUP1 PUSH1 0x20 MUL PUSH1 0x20 ADD DUP3 ADD PUSH1 0x40 MSTORE DUP1 ISZERO PUSH2 0x7AA JUMPI DUP2 PUSH1 0x20 ADD JUMPDEST PUSH1 0x60 DUP2 MSTORE PUSH1 0x20 ADD SWAP1 PUSH1 0x1 SWAP1 SUB SWAP1 DUP2 PUSH2 0x795 JUMPI SWAP1 POP JUMPDEST POP SWAP2 POP PUSH1 0x0 PUSH1 0x1 SWAP1 POP JUMPDEST DUP2 DUP2 GT PUSH2 0xA73 JUMPI PUSH1 0x3 PUSH1 0x0 DUP7 DUP2 MSTORE PUSH1 0x20 ADD SWAP1 DUP2 MSTORE PUSH1 0x20 ADD PUSH1 0x0 KECCAK256 PUSH1 0x0 DUP3 DUP2 MSTORE PUSH1 0x20 ADD SWAP1 DUP2 MSTORE PUSH1 0x20 ADD PUSH1 0x0 KECCAK256 PUSH1 0x40 MLOAD DUP1 PUSH1 0x60 ADD PUSH1 0x40 MSTORE SWAP1 DUP2 PUSH1 0x0 DUP3 ADD SLOAD DUP2 MSTORE PUSH1 0x20 ADD PUSH1 0x1 DUP3 ADD DUP1 SLOAD PUSH2 0x804 SWAP1 PUSH2 0x4DCC JUMP JUMPDEST DUP1 PUSH1 0x1F ADD PUSH1 0x20 DUP1 SWAP2 DIV MUL PUSH1 0x20 ADD PUSH1 0x40 MLOAD SWAP1 DUP2 ADD PUSH1 0x40 MSTORE DUP1 SWAP3 SWAP2 SWAP1 DUP2 DUP2 MSTORE PUSH1 0x20 ADD DUP3 DUP1 SLOAD PUSH2 0x830 SWAP1 PUSH2 0x4DCC JUMP JUMPDEST DUP1 ISZERO PUSH2 0x87D JUMPI DUP1 PUSH1 0x1F LT PUSH2 0x852 JUMPI PUSH2 0x100 DUP1 DUP4 SLOAD DIV MUL DUP4 MSTORE SWAP2 PUSH1 0x20 ADD SWAP2 PUSH2 0x87D JUMP JUMPDEST DUP3 ADD SWAP2 SWAP1 PUSH1 0x0 MSTORE PUSH1 0x20 PUSH1 0x0 KECCAK256 SWAP1 JUMPDEST DUP2 SLOAD DUP2 MSTORE SWAP1 PUSH1 0x1 ADD SWAP1 PUSH1 0x20 ADD DUP1 DUP4 GT PUSH2 0x860 JUMPI DUP3 SWAP1 SUB PUSH1 0x1F AND DUP3 ADD SWAP2 JUMPDEST POP POP POP POP POP DUP2 MSTORE PUSH1 0x20 ADD PUSH1 0x2 DUP3 ADD DUP1 SLOAD PUSH2 0x896 SWAP1 PUSH2 0x4DCC JUMP JUMPDEST DUP1 PUSH1 0x1F ADD PUSH1 0x20 DUP1 SWAP2 DIV MUL PUSH1 0x20 ADD PUSH1 0x40 MLOAD SWAP1 DUP2 ADD PUSH1 0x40 MSTORE DUP1 SWAP3 SWAP2 SWAP1 DUP2 DUP2 MSTORE PUSH1 0x20 ADD DUP3 DUP1 SLOAD PUSH2 0x8C2 SWAP1 PUSH2 0x4DCC JUMP JUMPDEST DUP1 ISZERO PUSH2 0x90F JUMPI DUP1 PUSH1 0x1F LT PUSH2 0x8E4 JUMPI PUSH2 0x100 DUP1 DUP4 SLOAD DIV MUL DUP4 MSTORE SWAP2 PUSH1 0x20 ADD SWAP2 PUSH2 0x90F JUMP JUMPDEST DUP3 ADD SWAP2 SWAP1 PUSH1 0x0 MSTORE PUSH1 0x20 PUSH1 0x0 KECCAK256 SWAP1 JUMPDEST DUP2 SLOAD DUP2 MSTORE SWAP1 PUSH1 0x1 ADD SWAP1 PUSH1 0x20 ADD DUP1 DUP4 GT PUSH2 0x8F2 JUMPI DUP3 SWAP1 SUB PUSH1 0x1F AND DUP3 ADD SWAP2 JUMPDEST POP POP POP POP POP DUP2 MSTORE POP POP DUP5 PUSH1 0x1 DUP4 PUSH2 0x926 SWAP2 SWAP1 PUSH2 0x4E2D JUMP JUMPDEST DUP2 MLOAD DUP2 LT PUSH2 0x937 JUMPI PUSH2 0x936 PUSH2 0x4E61 JUMP JUMPDEST JUMPDEST PUSH1 0x20 MUL PUSH1 0x20 ADD ADD DUP2 SWAP1 MSTORE POP PUSH1 0x4 PUSH1 0x0 DUP7 DUP2 MSTORE PUSH1 0x20 ADD SWAP1 DUP2 MSTORE PUSH1 0x20 ADD PUSH1 0x0 KECCAK256 PUSH1 0x0 DUP3 DUP2 MSTORE PUSH1 0x20 ADD SWAP1 DUP2 MSTORE PUSH1 0x20 ADD PUSH1 0x0 KECCAK256 DUP1 SLOAD DUP1 PUSH1 0x20 MUL PUSH1 0x20 ADD PUSH1 0x40 MLOAD SWAP1 DUP2 ADD PUSH1 0x40 MSTORE DUP1 SWAP3 SWAP2 SWAP1 DUP2 DUP2 MSTORE PUSH1 0x20 ADD PUSH1 0x0 SWAP1 JUMPDEST DUP3 DUP3 LT ISZERO PUSH2 0xA32 JUMPI DUP4 DUP3 SWAP1 PUSH1 0x0 MSTORE PUSH1 0x20 PUSH1 0x0 KECCAK256 ADD DUP1 SLOAD PUSH2 0x9A5 SWAP1 PUSH2 0x4DCC JUMP JUMPDEST DUP1 PUSH1 0x1F ADD PUSH1 0x20 DUP1 SWAP2 DIV MUL PUSH1 0x20 ADD PUSH1 0x40 MLOAD SWAP1 DUP2 ADD PUSH1 0x40 MSTORE DUP1 SWAP3 SWAP2 SWAP1 DUP2 DUP2 MSTORE PUSH1 0x20 ADD DUP3 DUP1 SLOAD PUSH2 0x9D1 SWAP1 PUSH2 0x4DCC JUMP JUMPDEST DUP1 ISZERO PUSH2 0xA1E JUMPI DUP1 PUSH1 0x1F LT PUSH2 0x9F3 JUMPI PUSH2 0x100 DUP1 DUP4 SLOAD DIV MUL DUP4 MSTORE SWAP2 PUSH1 0x20 ADD SWAP2 PUSH2 0xA1E JUMP JUMPDEST DUP3 ADD SWAP2 SWAP1 PUSH1 0x0 MSTORE PUSH1 0x20 PUSH1 0x0 KECCAK256 SWAP1 JUMPDEST DUP2 SLOAD DUP2 MSTORE SWAP1 PUSH1 0x1 ADD SWAP1 PUSH1 0x20 ADD DUP1 DUP4 GT PUSH2 0xA01 JUMPI DUP3 SWAP1 SUB PUSH1 0x1F AND DUP3 ADD SWAP2 JUMPDEST POP POP POP POP POP DUP2 MSTORE PUSH1 0x20 ADD SWAP1 PUSH1 0x1 ADD SWAP1 PUSH2 0x986 JUMP JUMPDEST POP POP POP POP DUP4 PUSH1 0x1 DUP4 PUSH2 0xA44 SWAP2 SWAP1 PUSH2 0x4E2D JUMP JUMPDEST DUP2 MLOAD DUP2 LT PUSH2 0xA55 JUMPI PUSH2 0xA54 PUSH2 0x4E61 JUMP JUMPDEST JUMPDEST PUSH1 0x20 MUL PUSH1 0x20 ADD ADD DUP2 SWAP1 MSTORE POP DUP1 DUP1 PUSH2 0xA6B SWAP1 PUSH2 0x4E90 JUMP JUMPDEST SWAP2 POP POP PUSH2 0x7B4 JUMP JUMPDEST POP POP SWAP2 POP SWAP2 JUMP JUMPDEST PUSH1 0x4 PUSH1 0x20 MSTORE DUP3 PUSH1 0x0 MSTORE PUSH1 0x40 PUSH1 0x0 KECCAK256 PUSH1 0x20 MSTORE DUP2 PUSH1 0x0 MSTORE PUSH1 0x40 PUSH1 0x0 KECCAK256 DUP2 DUP2 SLOAD DUP2 LT PUSH2 0xAA2 JUMPI PUSH1 0x0 DUP1 REVERT JUMPDEST SWAP1 PUSH1 0x0 MSTORE PUSH1 0x20 PUSH1 0x0 KECCAK256 ADD PUSH1 0x0 SWAP3 POP SWAP3 POP POP POP DUP1 SLOAD PUSH2 0xABF SWAP1 PUSH2 0x4DCC JUMP JUMPDEST DUP1 PUSH1 0x1F ADD PUSH1 0x20 DUP1 SWAP2 DIV MUL PUSH1 0x20 ADD PUSH1 0x40 MLOAD SWAP1 DUP2 ADD PUSH1 0x40 MSTORE DUP1 SWAP3 SWAP2 SWAP1 DUP2 DUP2 MSTORE PUSH1 0x20 ADD DUP3 DUP1 SLOAD PUSH2 0xAEB SWAP1 PUSH2 0x4DCC JUMP JUMPDEST DUP1 ISZERO PUSH2 0xB38 JUMPI DUP1 PUSH1 0x1F LT PUSH2 0xB0D JUMPI PUSH2 0x100 DUP1 DUP4 SLOAD DIV MUL DUP4 MSTORE SWAP2 PUSH1 0x20 ADD SWAP2 PUSH2 0xB38 JUMP JUMPDEST DUP3 ADD SWAP2 SWAP1 PUSH1 0x0 MSTORE PUSH1 0x20 PUSH1 0x0 KECCAK256 SWAP1 JUMPDEST DUP2 SLOAD DUP2 MSTORE SWAP1 PUSH1 0x1 ADD SWAP1 PUSH1 0x20 ADD DUP1 DUP4 GT PUSH2 0xB1B JUMPI DUP3 SWAP1 SUB PUSH1 0x1F AND DUP3 ADD SWAP2 JUMPDEST POP POP POP POP POP DUP2 JUMP JUMPDEST PUSH1 0x6 PUSH1 0x20 MSTORE DUP2 PUSH1 0x0 MSTORE PUSH1 0x40 PUSH1 0x0 KECCAK256 DUP2 DUP2 SLOAD DUP2 LT PUSH2 0xB5C JUMPI PUSH1 0x0 DUP1 REVERT JUMPDEST SWAP1 PUSH1 0x0 MSTORE PUSH1 0x20 PUSH1 0x0 KECCAK256 SWAP1 PUSH1 0x9 MUL ADD PUSH1 0x0 SWAP2 POP SWAP2 POP POP DUP1 PUSH1 0x0 ADD SLOAD SWAP1 DUP1 PUSH1 0x1 ADD DUP1 SLOAD PUSH2 0xB86 SWAP1 PUSH2 0x4DCC JUMP JUMPDEST DUP1 PUSH1 0x1F ADD PUSH1 0x20 DUP1 SWAP2 DIV MUL PUSH1 0x20 ADD PUSH1 0x40 MLOAD SWAP1 DUP2 ADD PUSH1 0x40 MSTORE DUP1 SWAP3 SWAP2 SWAP1 DUP2 DUP2 MSTORE PUSH1 0x20 ADD DUP3 DUP1 SLOAD PUSH2 0xBB2 SWAP1 PUSH2 0x4DCC JUMP JUMPDEST DUP1 ISZERO PUSH2 0xBFF JUMPI DUP1 PUSH1 0x1F LT PUSH2 0xBD4 JUMPI PUSH2 0x100 DUP1 DUP4 SLOAD DIV MUL DUP4 MSTORE SWAP2 PUSH1 0x20 ADD SWAP2 PUSH2 0xBFF JUMP JUMPDEST DUP3 ADD SWAP2 SWAP1 PUSH1 0x0 MSTORE PUSH1 0x20 PUSH1 0x0 KECCAK256 SWAP1 JUMPDEST DUP2 SLOAD DUP2 MSTORE SWAP1 PUSH1 0x1 ADD SWAP1 PUSH1 0x20 ADD DUP1 DUP4 GT PUSH2 0xBE2 JUMPI DUP3 SWAP1 SUB PUSH1 0x1F AND DUP3 ADD SWAP2 JUMPDEST POP POP POP POP POP SWAP1 DUP1 PUSH1 0x2 ADD SLOAD SWAP1 DUP1 PUSH1 0x3 ADD DUP1 SLOAD PUSH2 0xC1A SWAP1 PUSH2 0x4DCC JUMP JUMPDEST DUP1 PUSH1 0x1F ADD PUSH1 0x20 DUP1 SWAP2 DIV MUL PUSH1 0x20 ADD PUSH1 0x40 MLOAD SWAP1 DUP2 ADD PUSH1 0x40 MSTORE DUP1 SWAP3 SWAP2 SWAP1 DUP2 DUP2 MSTORE PUSH1 0x20 ADD DUP3 DUP1 SLOAD PUSH2 0xC46 SWAP1 PUSH2 0x4DCC JUMP JUMPDEST DUP1 ISZERO PUSH2 0xC93 JUMPI DUP1 PUSH1 0x1F LT PUSH2 0xC68 JUMPI PUSH2 0x100 DUP1 DUP4 SLOAD DIV MUL DUP4 MSTORE SWAP2 PUSH1 0x20 ADD SWAP2 PUSH2 0xC93 JUMP JUMPDEST DUP3 ADD SWAP2 SWAP1 PUSH1 0x0 MSTORE PUSH1 0x20 PUSH1 0x0 KECCAK256 SWAP1 JUMPDEST DUP2 SLOAD DUP2 MSTORE SWAP1 PUSH1 0x1 ADD SWAP1 PUSH1 0x20 ADD DUP1 DUP4 GT PUSH2 0xC76 JUMPI DUP3 SWAP1 SUB PUSH1 0x1F AND DUP3 ADD SWAP2 JUMPDEST POP POP POP POP POP SWAP1 DUP1 PUSH1 0x4 ADD SLOAD SWAP1 DUP1 PUSH1 0x5 ADD PUSH1 0x40 MLOAD DUP1 PUSH1 0x40 ADD PUSH1 0x40 MSTORE SWAP1 DUP2 PUSH1 0x0 DUP3 ADD SLOAD DUP2 MSTORE PUSH1 0x20 ADD PUSH1 0x1 DUP3 ADD SLOAD DUP2 MSTORE POP POP SWAP1 DUP1 PUSH1 0x7 ADD SLOAD SWAP1 DUP1 PUSH1 0x8 ADD PUSH1 0x0 SWAP1 SLOAD SWAP1 PUSH2 0x100 EXP SWAP1 DIV PUSH20 0xFFFFFFFFFFFFFFFFFFFFFFFFFFFFFFFFFFFFFFFF AND SWAP1 POP DUP9 JUMP JUMPDEST PUSH1 0x2 PUSH1 0x20 MSTORE DUP1 PUSH1 0x0 MSTORE PUSH1 0x40 PUSH1 0x0 KECCAK256 PUSH1 0x0 SWAP2 POP SWAP1 POP DUP1 PUSH1 0x0 ADD SLOAD SWAP1 DUP1 PUSH1 0x1 ADD SLOAD SWAP1 DUP1 PUSH1 0x2 ADD DUP1 SLOAD PUSH2 0xD22 SWAP1 PUSH2 0x4DCC JUMP JUMPDEST DUP1 PUSH1 0x1F ADD PUSH1 0x20 DUP1 SWAP2 DIV MUL PUSH1 0x20 ADD PUSH1 0x40 MLOAD SWAP1 DUP2 ADD PUSH1 0x40 MSTORE DUP1 SWAP3 SWAP2 SWAP1 DUP2 DUP2 MSTORE PUSH1 0x20 ADD DUP3 DUP1 SLOAD PUSH2 0xD4E SWAP1 PUSH2 0x4DCC JUMP JUMPDEST DUP1 ISZERO PUSH2 0xD9B JUMPI DUP1 PUSH1 0x1F LT PUSH2 0xD70 JUMPI PUSH2 0x100 DUP1 DUP4 SLOAD DIV MUL DUP4 MSTORE SWAP2 PUSH1 0x20 ADD SWAP2 PUSH2 0xD9B JUMP JUMPDEST DUP3 ADD SWAP2 SWAP1 PUSH1 0x0 MSTORE PUSH1 0x20 PUSH1 0x0 KECCAK256 SWAP1 JUMPDEST DUP2 SLOAD DUP2 MSTORE SWAP1 PUSH1 0x1 ADD SWAP1 PUSH1 0x20 ADD DUP1 DUP4 GT PUSH2 0xD7E JUMPI DUP3 SWAP1 SUB PUSH1 0x1F AND DUP3 ADD SWAP2 JUMPDEST POP POP POP POP POP SWAP1 DUP1 PUSH1 0x3 ADD SLOAD SWAP1 DUP1 PUSH1 0x4 ADD PUSH1 0x40 MLOAD DUP1 PUSH1 0x60 ADD PUSH1 0x40 MSTORE SWAP1 DUP2 PUSH1 0x0 DUP3 ADD DUP1 SLOAD PUSH2 0xDC6 SWAP1 PUSH2 0x4DCC JUMP JUMPDEST DUP1 PUSH1 0x1F ADD PUSH1 0x20 DUP1 SWAP2 DIV MUL PUSH1 0x20 ADD PUSH1 0x40 MLOAD SWAP1 DUP2 ADD PUSH1 0x40 MSTORE DUP1 SWAP3 SWAP2 SWAP1 DUP2 DUP2 MSTORE PUSH1 0x20 ADD DUP3 DUP1 SLOAD PUSH2 0xDF2 SWAP1 PUSH2 0x4DCC JUMP JUMPDEST DUP1 ISZERO PUSH2 0xE3F JUMPI DUP1 PUSH1 0x1F LT PUSH2 0xE14 JUMPI PUSH2 0x100 DUP1 DUP4 SLOAD DIV MUL DUP4 MSTORE SWAP2 PUSH1 0x20 ADD SWAP2 PUSH2 0xE3F JUMP JUMPDEST DUP3 ADD SWAP2 SWAP1 PUSH1 0x0 MSTORE PUSH1 0x20 PUSH1 0x0 KECCAK256 SWAP1 JUMPDEST DUP2 SLOAD DUP2 MSTORE SWAP1 PUSH1 0x1 ADD SWAP1 PUSH1 0x20 ADD DUP1 DUP4 GT PUSH2 0xE22 JUMPI DUP3 SWAP1 SUB PUSH1 0x1F AND DUP3 ADD SWAP2 JUMPDEST POP POP POP POP POP DUP2 MSTORE PUSH1 0x20 ADD PUSH1 0x1 DUP3 ADD DUP1 SLOAD PUSH2 0xE58 SWAP1 PUSH2 0x4DCC JUMP JUMPDEST DUP1 PUSH1 0x1F ADD PUSH1 0x20 DUP1 SWAP2 DIV MUL PUSH1 0x20 ADD PUSH1 0x40 MLOAD SWAP1 DUP2 ADD PUSH1 0x40 MSTORE DUP1 SWAP3 SWAP2 SWAP1 DUP2 DUP2 MSTORE PUSH1 0x20 ADD DUP3 DUP1 SLOAD PUSH2 0xE84 SWAP1 PUSH2 0x4DCC JUMP JUMPDEST DUP1 ISZERO PUSH2 0xED1 JUMPI DUP1 PUSH1 0x1F LT PUSH2 0xEA6 JUMPI PUSH2 0x100 DUP1 DUP4 SLOAD DIV MUL DUP4 MSTORE SWAP2 PUSH1 0x20 ADD SWAP2 PUSH2 0xED1 JUMP JUMPDEST DUP3 ADD SWAP2 SWAP1 PUSH1 0x0 MSTORE PUSH1 0x20 PUSH1 0x0 KECCAK256 SWAP1 JUMPDEST DUP2 SLOAD DUP2 MSTORE SWAP1 PUSH1 0x1 ADD SWAP1 PUSH1 0x20 ADD DUP1 DUP4 GT PUSH2 0xEB4 JUMPI DUP3 SWAP1 SUB PUSH1 0x1F AND DUP3 ADD SWAP2 JUMPDEST POP POP POP POP POP DUP2 MSTORE PUSH1 0x20 ADD PUSH1 0x2 DUP3 ADD DUP1 SLOAD PUSH2 0xEEA SWAP1 PUSH2 0x4DCC JUMP JUMPDEST DUP1 PUSH1 0x1F ADD PUSH1 0x20 DUP1 SWAP2 DIV MUL PUSH1 0x20 ADD PUSH1 0x40 MLOAD SWAP1 DUP2 ADD PUSH1 0x40 MSTORE DUP1 SWAP3 SWAP2 SWAP1 DUP2 DUP2 MSTORE PUSH1 0x20 ADD DUP3 DUP1 SLOAD PUSH2 0xF16 SWAP1 PUSH2 0x4DCC JUMP JUMPDEST DUP1 ISZERO PUSH2 0xF63 JUMPI DUP1 PUSH1 0x1F LT PUSH2 0xF38 JUMPI PUSH2 0x100 DUP1 DUP4 SLOAD DIV MUL DUP4 MSTORE SWAP2 PUSH1 0x20 ADD SWAP2 PUSH2 0xF63 JUMP JUMPDEST DUP3 ADD SWAP2 SWAP1 PUSH1 0x0 MSTORE PUSH1 0x20 PUSH1 0x0 KECCAK256 SWAP1 JUMPDEST DUP2 SLOAD DUP2 MSTORE SWAP1 PUSH1 0x1 ADD SWAP1 PUSH1 0x20 ADD DUP1 DUP4 GT PUSH2 0xF46 JUMPI DUP3 SWAP1 SUB PUSH1 0x1F AND DUP3 ADD SWAP2 JUMPDEST POP POP POP POP POP DUP2 MSTORE POP POP SWAP1 DUP1 PUSH1 0x7 ADD SLOAD SWAP1 POP DUP7 JUMP JUMPDEST PUSH1 0x0 DUP1 DUP6 DUP2 MSTORE PUSH1 0x20 ADD SWAP1 DUP2 MSTORE PUSH1 0x20 ADD PUSH1 0x0 KECCAK256 PUSH1 0x6 ADD PUSH1 0x0 SWAP1 SLOAD SWAP1 PUSH2 0x100 EXP SWAP1 DIV PUSH1 0xFF AND PUSH2 0xFD9 JUMPI PUSH1 0x40 MLOAD PUSH32 0x8C379A000000000000000000000000000000000000000000000000000000000 DUP2 MSTORE PUSH1 0x4 ADD PUSH2 0xFD0 SWAP1 PUSH2 0x4CC2 JUMP JUMPDEST PUSH1 0x40 MLOAD DUP1 SWAP2 SUB SWAP1 REVERT JUMPDEST PUSH1 0x0 PUSH1 0x6 PUSH1 0x0 DUP7 DUP2 MSTORE PUSH1 0x20 ADD SWAP1 DUP2 MSTORE PUSH1 0x20 ADD PUSH1 0x0 KECCAK256 SWAP1 POP PUSH1 0x0 DUP1 PUSH1 0x0 SWAP1 POP PUSH1 0x0 JUMPDEST DUP4 DUP1 SLOAD SWAP1 POP DUP2 LT ISZERO PUSH2 0x1103 JUMPI DUP7 DUP5 DUP3 DUP2 SLOAD DUP2 LT PUSH2 0x101A JUMPI PUSH2 0x1019 PUSH2 0x4E61 JUMP JUMPDEST JUMPDEST SWAP1 PUSH1 0x0 MSTORE PUSH1 0x20 PUSH1 0x0 KECCAK256 SWAP1 PUSH1 0x9 MUL ADD PUSH1 0x0 ADD SLOAD EQ ISZERO PUSH2 0x10F0 JUMPI CALLER PUSH20 0xFFFFFFFFFFFFFFFFFFFFFFFFFFFFFFFFFFFFFFFF AND DUP5 DUP3 DUP2 SLOAD DUP2 LT PUSH2 0x105C JUMPI PUSH2 0x105B PUSH2 0x4E61 JUMP JUMPDEST JUMPDEST SWAP1 PUSH1 0x0 MSTORE PUSH1 0x20 PUSH1 0x0 KECCAK256 SWAP1 PUSH1 0x9 MUL ADD PUSH1 0x8 ADD PUSH1 0x0 SWAP1 SLOAD SWAP1 PUSH2 0x100 EXP SWAP1 DIV PUSH20 0xFFFFFFFFFFFFFFFFFFFFFFFFFFFFFFFFFFFFFFFF AND PUSH20 0xFFFFFFFFFFFFFFFFFFFFFFFFFFFFFFFFFFFFFFFF AND EQ PUSH2 0x10E4 JUMPI PUSH1 0x40 MLOAD PUSH32 0x8C379A000000000000000000000000000000000000000000000000000000000 DUP2 MSTORE PUSH1 0x4 ADD PUSH2 0x10DB SWAP1 PUSH2 0x4F4B JUMP JUMPDEST PUSH1 0x40 MLOAD DUP1 SWAP2 SUB SWAP1 REVERT JUMPDEST DUP1 SWAP3 POP PUSH1 0x1 SWAP2 POP PUSH2 0x1103 JUMP JUMPDEST DUP1 DUP1 PUSH2 0x10FB SWAP1 PUSH2 0x4E90 JUMP JUMPDEST SWAP2 POP POP PUSH2 0xFFA JUMP JUMPDEST POP DUP1 PUSH2 0x1144 JUMPI PUSH1 0x40 MLOAD PUSH32 0x8C379A000000000000000000000000000000000000000000000000000000000 DUP2 MSTORE PUSH1 0x4 ADD PUSH2 0x113B SWAP1 PUSH2 0x4FB7 JUMP JUMPDEST PUSH1 0x40 MLOAD DUP1 SWAP2 SUB SWAP1 REVERT JUMPDEST DUP3 DUP3 DUP2 SLOAD DUP2 LT PUSH2 0x1157 JUMPI PUSH2 0x1156 PUSH2 0x4E61 JUMP JUMPDEST JUMPDEST SWAP1 PUSH1 0x0 MSTORE PUSH1 0x20 PUSH1 0x0 KECCAK256 SWAP1 PUSH1 0x9 MUL ADD PUSH1 0x4 ADD PUSH1 0x0 DUP2 SLOAD DUP1 SWAP3 SWAP2 SWAP1 PUSH2 0x1179 SWAP1 PUSH2 0x4E90 JUMP JUMPDEST SWAP2 SWAP1 POP SSTORE POP PUSH1 0x0 DUP4 DUP4 DUP2 SLOAD DUP2 LT PUSH2 0x1193 JUMPI PUSH2 0x1192 PUSH2 0x4E61 JUMP JUMPDEST JUMPDEST SWAP1 PUSH1 0x0 MSTORE PUSH1 0x20 PUSH1 0x0 KECCAK256 SWAP1 PUSH1 0x9 MUL ADD PUSH1 0x4 ADD SLOAD SWAP1 POP PUSH1 0x40 MLOAD DUP1 PUSH1 0x40 ADD PUSH1 0x40 MSTORE DUP1 DUP8 DUP2 MSTORE PUSH1 0x20 ADD DUP7 DUP2 MSTORE POP PUSH1 0x7 PUSH1 0x0 DUP11 DUP2 MSTORE PUSH1 0x20 ADD SWAP1 DUP2 MSTORE PUSH1 0x20 ADD PUSH1 0x0 KECCAK256 PUSH1 0x0 DUP10 DUP2 MSTORE PUSH1 0x20 ADD SWAP1 DUP2 MSTORE PUSH1 0x20 ADD PUSH1 0x0 KECCAK256 PUSH1 0x0 DUP4 DUP2 MSTORE PUSH1 0x20 ADD SWAP1 DUP2 MSTORE PUSH1 0x20 ADD PUSH1 0x0 KECCAK256 PUSH1 0x0 DUP3 ADD MLOAD DUP2 PUSH1 0x0 ADD SWAP1 DUP1 MLOAD SWAP1 PUSH1 0x20 ADD SWAP1 PUSH2 0x120D SWAP3 SWAP2 SWAP1 PUSH2 0x3364 JUMP JUMPDEST POP PUSH1 0x20 DUP3 ADD MLOAD DUP2 PUSH1 0x1 ADD SWAP1 DUP1 MLOAD SWAP1 PUSH1 0x20 ADD SWAP1 PUSH2 0x122A SWAP3 SWAP2 SWAP1 PUSH2 0x3364 JUMP JUMPDEST POP SWAP1 POP POP PUSH32 0x6325B9F3817EFC572BF865E075DD01349CD3E9FEC525A89F2F2CD8C109B1872D DUP8 DUP8 DUP8 PUSH1 0x40 MLOAD PUSH2 0x1261 SWAP4 SWAP3 SWAP2 SWAP1 PUSH2 0x4A1E JUMP JUMPDEST PUSH1 0x40 MLOAD DUP1 SWAP2 SUB SWAP1 LOG1 POP POP POP POP POP POP POP POP JUMP JUMPDEST PUSH1 0x0 DUP1 DUP4 DUP2 MSTORE PUSH1 0x20 ADD SWAP1 DUP2 MSTORE PUSH1 0x20 ADD PUSH1 0x0 KECCAK256 PUSH1 0x6 ADD PUSH1 0x0 SWAP1 SLOAD SWAP1 PUSH2 0x100 EXP SWAP1 DIV PUSH1 0xFF AND PUSH2 0x12D5 JUMPI PUSH1 0x40 MLOAD PUSH32 0x8C379A000000000000000000000000000000000000000000000000000000000 DUP2 MSTORE PUSH1 0x4 ADD PUSH2 0x12CC SWAP1 PUSH2 0x4CC2 JUMP JUMPDEST PUSH1 0x40 MLOAD DUP1 SWAP2 SUB SWAP1 REVERT JUMPDEST CALLER PUSH20 0xFFFFFFFFFFFFFFFFFFFFFFFFFFFFFFFFFFFFFFFF AND PUSH1 0x0 DUP1 DUP5 DUP2 MSTORE PUSH1 0x20 ADD SWAP1 DUP2 MSTORE PUSH1 0x20 ADD PUSH1 0x0 KECCAK256 PUSH1 0x4 ADD PUSH1 0x0 SWAP1 SLOAD SWAP1 PUSH2 0x100 EXP SWAP1 DIV PUSH20 0xFFFFFFFFFFFFFFFFFFFFFFFFFFFFFFFFFFFFFFFF AND PUSH20 0xFFFFFFFFFFFFFFFFFFFFFFFFFFFFFFFFFFFFFFFF AND EQ PUSH2 0x1378 JUMPI PUSH1 0x40 MLOAD PUSH32 0x8C379A000000000000000000000000000000000000000000000000000000000 DUP2 MSTORE PUSH1 0x4 ADD PUSH2 0x136F SWAP1 PUSH2 0x5049 JUMP JUMPDEST PUSH1 0x40 MLOAD DUP1 SWAP2 SUB SWAP1 REVERT JUMPDEST PUSH1 0x5 PUSH1 0x0 DUP4 DUP2 MSTORE PUSH1 0x20 ADD SWAP1 DUP2 MSTORE PUSH1 0x20 ADD PUSH1 0x0 KECCAK256 DUP2 SWAP1 DUP1 PUSH1 0x1 DUP2 SLOAD ADD DUP1 DUP3 SSTORE DUP1 SWAP2 POP POP PUSH1 0x1 SWAP1 SUB SWAP1 PUSH1 0x0 MSTORE PUSH1 0x20 PUSH1 0x0 KECCAK256 ADD PUSH1 0x0 SWAP1 SWAP2 SWAP1 SWAP2 SWAP1 SWAP2 POP SWAP1 DUP1 MLOAD SWAP1 PUSH1 0x20 ADD SWAP1 PUSH2 0x13C4 SWAP3 SWAP2 SWAP1 PUSH2 0x3364 JUMP JUMPDEST POP PUSH32 0xF407A830789CE5AC464C500FF475A0D60A0BE3827BF42F726416CEE8AD05C7F2 DUP3 DUP3 PUSH1 0x40 MLOAD PUSH2 0x13F6 SWAP3 SWAP2 SWAP1 PUSH2 0x5069 JUMP JUMPDEST PUSH1 0x40 MLOAD DUP1 SWAP2 SUB SWAP1 LOG1 POP POP JUMP JUMPDEST PUSH2 0x140A PUSH2 0x340B JUMP JUMPDEST PUSH1 0x60 DUP1 PUSH1 0x0 PUSH1 0x6 PUSH1 0x0 DUP8 DUP2 MSTORE PUSH1 0x20 ADD SWAP1 DUP2 MSTORE PUSH1 0x20 ADD PUSH1 0x0 KECCAK256 SWAP1 POP PUSH1 0x0 DUP1 JUMPDEST DUP3 DUP1 SLOAD SWAP1 POP DUP2 LT ISZERO PUSH2 0x1675 JUMPI DUP7 DUP4 DUP3 DUP2 SLOAD DUP2 LT PUSH2 0x1448 JUMPI PUSH2 0x1447 PUSH2 0x4E61 JUMP JUMPDEST JUMPDEST SWAP1 PUSH1 0x0 MSTORE PUSH1 0x20 PUSH1 0x0 KECCAK256 SWAP1 PUSH1 0x9 MUL ADD PUSH1 0x0 ADD SLOAD EQ ISZERO PUSH2 0x1662 JUMPI DUP3 DUP2 DUP2 SLOAD DUP2 LT PUSH2 0x1473 JUMPI PUSH2 0x1472 PUSH2 0x4E61 JUMP JUMPDEST JUMPDEST SWAP1 PUSH1 0x0 MSTORE PUSH1 0x20 PUSH1 0x0 KECCAK256 SWAP1 PUSH1 0x9 MUL ADD PUSH1 0x40 MLOAD DUP1 PUSH2 0x100 ADD PUSH1 0x40 MSTORE SWAP1 DUP2 PUSH1 0x0 DUP3 ADD SLOAD DUP2 MSTORE PUSH1 0x20 ADD PUSH1 0x1 DUP3 ADD DUP1 SLOAD PUSH2 0x14A7 SWAP1 PUSH2 0x4DCC JUMP JUMPDEST DUP1 PUSH1 0x1F ADD PUSH1 0x20 DUP1 SWAP2 DIV MUL PUSH1 0x20 ADD PUSH1 0x40 MLOAD SWAP1 DUP2 ADD PUSH1 0x40 MSTORE DUP1 SWAP3 SWAP2 SWAP1 DUP2 DUP2 MSTORE PUSH1 0x20 ADD DUP3 DUP1 SLOAD PUSH2 0x14D3 SWAP1 PUSH2 0x4DCC JUMP JUMPDEST DUP1 ISZERO PUSH2 0x1520 JUMPI DUP1 PUSH1 0x1F LT PUSH2 0x14F5 JUMPI PUSH2 0x100 DUP1 DUP4 SLOAD DIV MUL DUP4 MSTORE SWAP2 PUSH1 0x20 ADD SWAP2 PUSH2 0x1520 JUMP JUMPDEST DUP3 ADD SWAP2 SWAP1 PUSH1 0x0 MSTORE PUSH1 0x20 PUSH1 0x0 KECCAK256 SWAP1 JUMPDEST DUP2 SLOAD DUP2 MSTORE SWAP1 PUSH1 0x1 ADD SWAP1 PUSH1 0x20 ADD DUP1 DUP4 GT PUSH2 0x1503 JUMPI DUP3 SWAP1 SUB PUSH1 0x1F AND DUP3 ADD SWAP2 JUMPDEST POP POP POP POP POP DUP2 MSTORE PUSH1 0x20 ADD PUSH1 0x2 DUP3 ADD SLOAD DUP2 MSTORE PUSH1 0x20 ADD PUSH1 0x3 DUP3 ADD DUP1 SLOAD PUSH2 0x1543 SWAP1 PUSH2 0x4DCC JUMP JUMPDEST DUP1 PUSH1 0x1F ADD PUSH1 0x20 DUP1 SWAP2 DIV MUL PUSH1 0x20 ADD PUSH1 0x40 MLOAD SWAP1 DUP2 ADD PUSH1 0x40 MSTORE DUP1 SWAP3 SWAP2 SWAP1 DUP2 DUP2 MSTORE PUSH1 0x20 ADD DUP3 DUP1 SLOAD PUSH2 0x156F SWAP1 PUSH2 0x4DCC JUMP JUMPDEST DUP1 ISZERO PUSH2 0x15BC JUMPI DUP1 PUSH1 0x1F LT PUSH2 0x1591 JUMPI PUSH2 0x100 DUP1 DUP4 SLOAD DIV MUL DUP4 MSTORE SWAP2 PUSH1 0x20 ADD SWAP2 PUSH2 0x15BC JUMP JUMPDEST DUP3 ADD SWAP2 SWAP1 PUSH1 0x0 MSTORE PUSH1 0x20 PUSH1 0x0 KECCAK256 SWAP1 JUMPDEST DUP2 SLOAD DUP2 MSTORE SWAP1 PUSH1 0x1 ADD SWAP1 PUSH1 0x20 ADD DUP1 DUP4 GT PUSH2 0x159F JUMPI DUP3 SWAP1 SUB PUSH1 0x1F AND DUP3 ADD SWAP2 JUMPDEST POP POP POP POP POP DUP2 MSTORE PUSH1 0x20 ADD PUSH1 0x4 DUP3 ADD SLOAD DUP2 MSTORE PUSH1 0x20 ADD PUSH1 0x5 DUP3 ADD PUSH1 0x40 MLOAD DUP1 PUSH1 0x40 ADD PUSH1 0x40 MSTORE SWAP1 DUP2 PUSH1 0x0 DUP3 ADD SLOAD DUP2 MSTORE PUSH1 0x20 ADD PUSH1 0x1 DUP3 ADD SLOAD DUP2 MSTORE POP POP DUP2 MSTORE PUSH1 0x20 ADD PUSH1 0x7 DUP3 ADD SLOAD DUP2 MSTORE PUSH1 0x20 ADD PUSH1 0x8 DUP3 ADD PUSH1 0x0 SWAP1 SLOAD SWAP1 PUSH2 0x100 EXP SWAP1 DIV PUSH20 0xFFFFFFFFFFFFFFFFFFFFFFFFFFFFFFFFFFFFFFFF AND PUSH20 0xFFFFFFFFFFFFFFFFFFFFFFFFFFFFFFFFFFFFFFFF AND PUSH20 0xFFFFFFFFFFFFFFFFFFFFFFFFFFFFFFFFFFFFFFFF AND DUP2 MSTORE POP POP SWAP6 POP PUSH1 0x1 SWAP2 POP PUSH2 0x1675 JUMP JUMPDEST DUP1 DUP1 PUSH2 0x166D SWAP1 PUSH2 0x4E90 JUMP JUMPDEST SWAP2 POP POP PUSH2 0x1428 JUMP JUMPDEST POP DUP1 PUSH2 0x16B6 JUMPI PUSH1 0x40 MLOAD PUSH32 0x8C379A000000000000000000000000000000000000000000000000000000000 DUP2 MSTORE PUSH1 0x4 ADD PUSH2 0x16AD SWAP1 PUSH2 0x4FB7 JUMP JUMPDEST PUSH1 0x40 MLOAD DUP1 SWAP2 SUB SWAP1 REVERT JUMPDEST DUP5 PUSH1 0x80 ADD MLOAD PUSH8 0xFFFFFFFFFFFFFFFF DUP2 GT ISZERO PUSH2 0x16D4 JUMPI PUSH2 0x16D3 PUSH2 0x36C7 JUMP JUMPDEST JUMPDEST PUSH1 0x40 MLOAD SWAP1 DUP1 DUP3 MSTORE DUP1 PUSH1 0x20 MUL PUSH1 0x20 ADD DUP3 ADD PUSH1 0x40 MSTORE DUP1 ISZERO PUSH2 0x170D JUMPI DUP2 PUSH1 0x20 ADD JUMPDEST PUSH2 0x16FA PUSH2 0x346C JUMP JUMPDEST DUP2 MSTORE PUSH1 0x20 ADD SWAP1 PUSH1 0x1 SWAP1 SUB SWAP1 DUP2 PUSH2 0x16F2 JUMPI SWAP1 POP JUMPDEST POP SWAP4 POP PUSH1 0x0 PUSH1 0x1 SWAP1 POP JUMPDEST DUP6 PUSH1 0x80 ADD MLOAD DUP2 GT PUSH2 0x18C3 JUMPI PUSH1 0x7 PUSH1 0x0 DUP10 DUP2 MSTORE PUSH1 0x20 ADD SWAP1 DUP2 MSTORE PUSH1 0x20 ADD PUSH1 0x0 KECCAK256 PUSH1 0x0 DUP9 DUP2 MSTORE PUSH1 0x20 ADD SWAP1 DUP2 MSTORE PUSH1 0x20 ADD PUSH1 0x0 KECCAK256 PUSH1 0x0 DUP3 DUP2 MSTORE PUSH1 0x20 ADD SWAP1 DUP2 MSTORE PUSH1 0x20 ADD PUSH1 0x0 KECCAK256 PUSH1 0x40 MLOAD DUP1 PUSH1 0x40 ADD PUSH1 0x40 MSTORE SWAP1 DUP2 PUSH1 0x0 DUP3 ADD DUP1 SLOAD PUSH2 0x1772 SWAP1 PUSH2 0x4DCC JUMP JUMPDEST DUP1 PUSH1 0x1F ADD PUSH1 0x20 DUP1 SWAP2 DIV MUL PUSH1 0x20 ADD PUSH1 0x40 MLOAD SWAP1 DUP2 ADD PUSH1 0x40 MSTORE DUP1 SWAP3 SWAP2 SWAP1 DUP2 DUP2 MSTORE PUSH1 0x20 ADD DUP3 DUP1 SLOAD PUSH2 0x179E SWAP1 PUSH2 0x4DCC JUMP JUMPDEST DUP1 ISZERO PUSH2 0x17EB JUMPI DUP1 PUSH1 0x1F LT PUSH2 0x17C0 JUMPI PUSH2 0x100 DUP1 DUP4 SLOAD DIV MUL DUP4 MSTORE SWAP2 PUSH1 0x20 ADD SWAP2 PUSH2 0x17EB JUMP JUMPDEST DUP3 ADD SWAP2 SWAP1 PUSH1 0x0 MSTORE PUSH1 0x20 PUSH1 0x0 KECCAK256 SWAP1 JUMPDEST DUP2 SLOAD DUP2 MSTORE SWAP1 PUSH1 0x1 ADD SWAP1 PUSH1 0x20 ADD DUP1 DUP4 GT PUSH2 0x17CE JUMPI DUP3 SWAP1 SUB PUSH1 0x1F AND DUP3 ADD SWAP2 JUMPDEST POP POP POP POP POP DUP2 MSTORE PUSH1 0x20 ADD PUSH1 0x1 DUP3 ADD DUP1 SLOAD PUSH2 0x1804 SWAP1 PUSH2 0x4DCC JUMP JUMPDEST DUP1 PUSH1 0x1F ADD PUSH1 0x20 DUP1 SWAP2 DIV MUL PUSH1 0x20 ADD PUSH1 0x40 MLOAD SWAP1 DUP2 ADD PUSH1 0x40 MSTORE DUP1 SWAP3 SWAP2 SWAP1 DUP2 DUP2 MSTORE PUSH1 0x20 ADD DUP3 DUP1 SLOAD PUSH2 0x1830 SWAP1 PUSH2 0x4DCC JUMP JUMPDEST DUP1 ISZERO PUSH2 0x187D JUMPI DUP1 PUSH1 0x1F LT PUSH2 0x1852 JUMPI PUSH2 0x100 DUP1 DUP4 SLOAD DIV MUL DUP4 MSTORE SWAP2 PUSH1 0x20 ADD SWAP2 PUSH2 0x187D JUMP JUMPDEST DUP3 ADD SWAP2 SWAP1 PUSH1 0x0 MSTORE PUSH1 0x20 PUSH1 0x0 KECCAK256 SWAP1 JUMPDEST DUP2 SLOAD DUP2 MSTORE SWAP1 PUSH1 0x1 ADD SWAP1 PUSH1 0x20 ADD DUP1 DUP4 GT PUSH2 0x1860 JUMPI DUP3 SWAP1 SUB PUSH1 0x1F AND DUP3 ADD SWAP2 JUMPDEST POP POP POP POP POP DUP2 MSTORE POP POP DUP6 PUSH1 0x1 DUP4 PUSH2 0x1894 SWAP2 SWAP1 PUSH2 0x4E2D JUMP JUMPDEST DUP2 MLOAD DUP2 LT PUSH2 0x18A5 JUMPI PUSH2 0x18A4 PUSH2 0x4E61 JUMP JUMPDEST JUMPDEST PUSH1 0x20 MUL PUSH1 0x20 ADD ADD DUP2 SWAP1 MSTORE POP DUP1 DUP1 PUSH2 0x18BB SWAP1 PUSH2 0x4E90 JUMP JUMPDEST SWAP2 POP POP PUSH2 0x1717 JUMP JUMPDEST POP PUSH1 0x8 PUSH1 0x0 DUP9 DUP2 MSTORE PUSH1 0x20 ADD SWAP1 DUP2 MSTORE PUSH1 0x20 ADD PUSH1 0x0 KECCAK256 PUSH1 0x0 DUP8 DUP2 MSTORE PUSH1 0x20 ADD SWAP1 DUP2 MSTORE PUSH1 0x20 ADD PUSH1 0x0 KECCAK256 DUP1 SLOAD DUP1 PUSH1 0x20 MUL PUSH1 0x20 ADD PUSH1 0x40 MLOAD SWAP1 DUP2 ADD PUSH1 0x40 MSTORE DUP1 SWAP3 SWAP2 SWAP1 DUP2 DUP2 MSTORE PUSH1 0x20 ADD PUSH1 0x0 SWAP1 JUMPDEST DUP3 DUP3 LT ISZERO PUSH2 0x1958 JUMPI DUP4 DUP3 SWAP1 PUSH1 0x0 MSTORE PUSH1 0x20 PUSH1 0x0 KECCAK256 SWAP1 PUSH1 0x3 MUL ADD PUSH1 0x40 MLOAD DUP1 PUSH1 0x60 ADD PUSH1 0x40 MSTORE SWAP1 DUP2 PUSH1 0x0 DUP3 ADD SLOAD DUP2 MSTORE PUSH1 0x20 ADD PUSH1 0x1 DUP3 ADD SLOAD DUP2 MSTORE PUSH1 0x20 ADD PUSH1 0x2 DUP3 ADD SLOAD DUP2 MSTORE POP POP DUP2 MSTORE PUSH1 0x20 ADD SWAP1 PUSH1 0x1 ADD SWAP1 PUSH2 0x1908 JUMP JUMPDEST POP POP POP POP SWAP3 POP POP POP SWAP3 POP SWAP3 POP SWAP3 JUMP JUMPDEST PUSH1 0x5 PUSH1 0x20 MSTORE DUP2 PUSH1 0x0 MSTORE PUSH1 0x40 PUSH1 0x0 KECCAK256 DUP2 DUP2 SLOAD DUP2 LT PUSH2 0x1983 JUMPI PUSH1 0x0 DUP1 REVERT JUMPDEST SWAP1 PUSH1 0x0 MSTORE PUSH1 0x20 PUSH1 0x0 KECCAK256 ADD PUSH1 0x0 SWAP2 POP SWAP2 POP POP DUP1 SLOAD PUSH2 0x199F SWAP1 PUSH2 0x4DCC JUMP JUMPDEST DUP1 PUSH1 0x1F ADD PUSH1 0x20 DUP1 SWAP2 DIV MUL PUSH1 0x20 ADD PUSH1 0x40 MLOAD SWAP1 DUP2 ADD PUSH1 0x40 MSTORE DUP1 SWAP3 SWAP2 SWAP1 DUP2 DUP2 MSTORE PUSH1 0x20 ADD DUP3 DUP1 SLOAD PUSH2 0x19CB SWAP1 PUSH2 0x4DCC JUMP JUMPDEST DUP1 ISZERO PUSH2 0x1A18 JUMPI DUP1 PUSH1 0x1F LT PUSH2 0x19ED JUMPI PUSH2 0x100 DUP1 DUP4 SLOAD DIV MUL DUP4 MSTORE SWAP2 PUSH1 0x20 ADD SWAP2 PUSH2 0x1A18 JUMP JUMPDEST DUP3 ADD SWAP2 SWAP1 PUSH1 0x0 MSTORE PUSH1 0x20 PUSH1 0x0 KECCAK256 SWAP1 JUMPDEST DUP2 SLOAD DUP2 MSTORE SWAP1 PUSH1 0x1 ADD SWAP1 PUSH1 0x20 ADD DUP1 DUP4 GT PUSH2 0x19FB JUMPI DUP3 SWAP1 SUB PUSH1 0x1F AND DUP3 ADD SWAP2 JUMPDEST POP POP POP POP POP DUP2 JUMP JUMPDEST PUSH1 0x0 DUP1 DUP6 DUP2 MSTORE PUSH1 0x20 ADD SWAP1 DUP2 MSTORE PUSH1 0x20 ADD PUSH1 0x0 KECCAK256 PUSH1 0x6 ADD PUSH1 0x0 SWAP1 SLOAD SWAP1 PUSH2 0x100 EXP SWAP1 DIV PUSH1 0xFF AND PUSH2 0x1A82 JUMPI PUSH1 0x40 MLOAD PUSH32 0x8C379A000000000000000000000000000000000000000000000000000000000 DUP2 MSTORE PUSH1 0x4 ADD PUSH2 0x1A79 SWAP1 PUSH2 0x4CC2 JUMP JUMPDEST PUSH1 0x40 MLOAD DUP1 SWAP2 SUB SWAP1 REVERT JUMPDEST CALLER PUSH20 0xFFFFFFFFFFFFFFFFFFFFFFFFFFFFFFFFFFFFFFFF AND PUSH1 0x0 DUP1 DUP7 DUP2 MSTORE PUSH1 0x20 ADD SWAP1 DUP2 MSTORE PUSH1 0x20 ADD PUSH1 0x0 KECCAK256 PUSH1 0x4 ADD PUSH1 0x0 SWAP1 SLOAD SWAP1 PUSH2 0x100 EXP SWAP1 DIV PUSH20 0xFFFFFFFFFFFFFFFFFFFFFFFFFFFFFFFFFFFFFFFF AND PUSH20 0xFFFFFFFFFFFFFFFFFFFFFFFFFFFFFFFFFFFFFFFF AND EQ PUSH2 0x1B25 JUMPI PUSH1 0x40 MLOAD PUSH32 0x8C379A000000000000000000000000000000000000000000000000000000000 DUP2 MSTORE PUSH1 0x4 ADD PUSH2 0x1B1C SWAP1 PUSH2 0x50E5 JUMP JUMPDEST PUSH1 0x40 MLOAD DUP1 SWAP2 SUB SWAP1 REVERT JUMPDEST PUSH1 0x0 PUSH1 0x2 PUSH1 0x0 DUP7 DUP2 MSTORE PUSH1 0x20 ADD SWAP1 DUP2 MSTORE PUSH1 0x20 ADD PUSH1 0x0 KECCAK256 SWAP1 POP DUP1 PUSH1 0x3 ADD PUSH1 0x0 DUP2 SLOAD DUP1 SWAP3 SWAP2 SWAP1 PUSH2 0x1B51 SWAP1 PUSH2 0x4E90 JUMP JUMPDEST SWAP2 SWAP1 POP SSTORE POP PUSH1 0x40 MLOAD DUP1 PUSH1 0x60 ADD PUSH1 0x40 MSTORE DUP1 DUP3 PUSH1 0x3 ADD SLOAD DUP2 MSTORE PUSH1 0x20 ADD DUP6 DUP2 MSTORE PUSH1 0x20 ADD DUP5 DUP2 MSTORE POP PUSH1 0x3 PUSH1 0x0 DUP8 DUP2 MSTORE PUSH1 0x20 ADD SWAP1 DUP2 MSTORE PUSH1 0x20 ADD PUSH1 0x0 KECCAK256 PUSH1 0x0 DUP4 PUSH1 0x3 ADD SLOAD DUP2 MSTORE PUSH1 0x20 ADD SWAP1 DUP2 MSTORE PUSH1 0x20 ADD PUSH1 0x0 KECCAK256 PUSH1 0x0 DUP3 ADD MLOAD DUP2 PUSH1 0x0 ADD SSTORE PUSH1 0x20 DUP3 ADD MLOAD DUP2 PUSH1 0x1 ADD SWAP1 DUP1 MLOAD SWAP1 PUSH1 0x20 ADD SWAP1 PUSH2 0x1BC3 SWAP3 SWAP2 SWAP1 PUSH2 0x3364 JUMP JUMPDEST POP PUSH1 0x40 DUP3 ADD MLOAD DUP2 PUSH1 0x2 ADD SWAP1 DUP1 MLOAD SWAP1 PUSH1 0x20 ADD SWAP1 PUSH2 0x1BE0 SWAP3 SWAP2 SWAP1 PUSH2 0x3364 JUMP JUMPDEST POP SWAP1 POP POP DUP2 PUSH1 0x4 PUSH1 0x0 DUP8 DUP2 MSTORE PUSH1 0x20 ADD SWAP1 DUP2 MSTORE PUSH1 0x20 ADD PUSH1 0x0 KECCAK256 PUSH1 0x0 DUP4 PUSH1 0x3 ADD SLOAD DUP2 MSTORE PUSH1 0x20 ADD SWAP1 DUP2 MSTORE PUSH1 0x20 ADD PUSH1 0x0 KECCAK256 SWAP1 DUP1 MLOAD SWAP1 PUSH1 0x20 ADD SWAP1 PUSH2 0x1C20 SWAP3 SWAP2 SWAP1 PUSH2 0x3486 JUMP JUMPDEST POP PUSH32 0x459F350C54CB41D83D92B4410E5BBD63D189EE4EC34BB57D6449C201998D6481 DUP6 DUP3 PUSH1 0x3 ADD SLOAD DUP7 PUSH1 0x40 MLOAD PUSH2 0x1C58 SWAP4 SWAP3 SWAP2 SWAP1 PUSH2 0x5105 JUMP JUMPDEST PUSH1 0x40 MLOAD DUP1 SWAP2 SUB SWAP1 LOG1 POP POP POP POP POP JUMP JUMPDEST PUSH1 0x8 PUSH1 0x20 MSTORE DUP3 PUSH1 0x0 MSTORE PUSH1 0x40 PUSH1 0x0 KECCAK256 PUSH1 0x20 MSTORE DUP2 PUSH1 0x0 MSTORE PUSH1 0x40 PUSH1 0x0 KECCAK256 DUP2 DUP2 SLOAD DUP2 LT PUSH2 0x1C8F JUMPI PUSH1 0x0 DUP1 REVERT JUMPDEST SWAP1 PUSH1 0x0 MSTORE PUSH1 0x20 PUSH1 0x0 KECCAK256 SWAP1 PUSH1 0x3 MUL ADD PUSH1 0x0 SWAP3 POP SWAP3 POP POP POP DUP1 PUSH1 0x0 ADD SLOAD SWAP1 DUP1 PUSH1 0x1 ADD SLOAD SWAP1 DUP1 PUSH1 0x2 ADD SLOAD SWAP1 POP DUP4 JUMP JUMPDEST PUSH2 0x1CC3 PUSH2 0x34E6 JUMP JUMPDEST PUSH2 0x1CCB PUSH2 0x353B JUMP JUMPDEST PUSH2 0x1CD3 PUSH2 0x356A JUMP JUMPDEST PUSH1 0x0 DUP1 DUP6 DUP2 MSTORE PUSH1 0x20 ADD SWAP1 DUP2 MSTORE PUSH1 0x20 ADD PUSH1 0x0 KECCAK256 PUSH1 0x6 ADD PUSH1 0x0 SWAP1 SLOAD SWAP1 PUSH2 0x100 EXP SWAP1 DIV PUSH1 0xFF AND PUSH2 0x1D35 JUMPI PUSH1 0x40 MLOAD PUSH32 0x8C379A000000000000000000000000000000000000000000000000000000000 DUP2 MSTORE PUSH1 0x4 ADD PUSH2 0x1D2C SWAP1 PUSH2 0x4CC2 JUMP JUMPDEST PUSH1 0x40 MLOAD DUP1 SWAP2 SUB SWAP1 REVERT JUMPDEST PUSH1 0x0 DUP1 DUP6 DUP2 MSTORE PUSH1 0x20 ADD SWAP1 DUP2 MSTORE PUSH1 0x20 ADD PUSH1 0x0 KECCAK256 PUSH1 0x1 PUSH1 0x0 DUP7 DUP2 MSTORE PUSH1 0x20 ADD SWAP1 DUP2 MSTORE PUSH1 0x20 ADD PUSH1 0x0 KECCAK256 PUSH1 0x2 PUSH1 0x0 DUP8 DUP2 MSTORE PUSH1 0x20 ADD SWAP1 DUP2 MSTORE PUSH1 0x20 ADD PUSH1 0x0 KECCAK256 DUP3 PUSH1 0x40 MLOAD DUP1 PUSH1 0xE0 ADD PUSH1 0x40 MSTORE SWAP1 DUP2 PUSH1 0x0 DUP3 ADD SLOAD DUP2 MSTORE PUSH1 0x20 ADD PUSH1 0x1 DUP3 ADD DUP1 SLOAD PUSH2 0x1D93 SWAP1 PUSH2 0x4DCC JUMP JUMPDEST DUP1 PUSH1 0x1F ADD PUSH1 0x20 DUP1 SWAP2 DIV MUL PUSH1 0x20 ADD PUSH1 0x40 MLOAD SWAP1 DUP2 ADD PUSH1 0x40 MSTORE DUP1 SWAP3 SWAP2 SWAP1 DUP2 DUP2 MSTORE PUSH1 0x20 ADD DUP3 DUP1 SLOAD PUSH2 0x1DBF SWAP1 PUSH2 0x4DCC JUMP JUMPDEST DUP1 ISZERO PUSH2 0x1E0C JUMPI DUP1 PUSH1 0x1F LT PUSH2 0x1DE1 JUMPI PUSH2 0x100 DUP1 DUP4 SLOAD DIV MUL DUP4 MSTORE SWAP2 PUSH1 0x20 ADD SWAP2 PUSH2 0x1E0C JUMP JUMPDEST DUP3 ADD SWAP2 SWAP1 PUSH1 0x0 MSTORE PUSH1 0x20 PUSH1 0x0 KECCAK256 SWAP1 JUMPDEST DUP2 SLOAD DUP2 MSTORE SWAP1 PUSH1 0x1 ADD SWAP1 PUSH1 0x20 ADD DUP1 DUP4 GT PUSH2 0x1DEF JUMPI DUP3 SWAP1 SUB PUSH1 0x1F AND DUP3 ADD SWAP2 JUMPDEST POP POP POP POP POP DUP2 MSTORE PUSH1 0x20 ADD PUSH1 0x2 DUP3 ADD DUP1 SLOAD PUSH2 0x1E25 SWAP1 PUSH2 0x4DCC JUMP JUMPDEST DUP1 PUSH1 0x1F ADD PUSH1 0x20 DUP1 SWAP2 DIV MUL PUSH1 0x20 ADD PUSH1 0x40 MLOAD SWAP1 DUP2 ADD PUSH1 0x40 MSTORE DUP1 SWAP3 SWAP2 SWAP1 DUP2 DUP2 MSTORE PUSH1 0x20 ADD DUP3 DUP1 SLOAD PUSH2 0x1E51 SWAP1 PUSH2 0x4DCC JUMP JUMPDEST DUP1 ISZERO PUSH2 0x1E9E JUMPI DUP1 PUSH1 0x1F LT PUSH2 0x1E73 JUMPI PUSH2 0x100 DUP1 DUP4 SLOAD DIV MUL DUP4 MSTORE SWAP2 PUSH1 0x20 ADD SWAP2 PUSH2 0x1E9E JUMP JUMPDEST DUP3 ADD SWAP2 SWAP1 PUSH1 0x0 MSTORE PUSH1 0x20 PUSH1 0x0 KECCAK256 SWAP1 JUMPDEST DUP2 SLOAD DUP2 MSTORE SWAP1 PUSH1 0x1 ADD SWAP1 PUSH1 0x20 ADD DUP1 DUP4 GT PUSH2 0x1E81 JUMPI DUP3 SWAP1 SUB PUSH1 0x1F AND DUP3 ADD SWAP2 JUMPDEST POP POP POP POP POP DUP2 MSTORE PUSH1 0x20 ADD PUSH1 0x3 DUP3 ADD DUP1 SLOAD PUSH2 0x1EB7 SWAP1 PUSH2 0x4DCC JUMP JUMPDEST DUP1 PUSH1 0x1F ADD PUSH1 0x20 DUP1 SWAP2 DIV MUL PUSH1 0x20 ADD PUSH1 0x40 MLOAD SWAP1 DUP2 ADD PUSH1 0x40 MSTORE DUP1 SWAP3 SWAP2 SWAP1 DUP2 DUP2 MSTORE PUSH1 0x20 ADD DUP3 DUP1 SLOAD PUSH2 0x1EE3 SWAP1 PUSH2 0x4DCC JUMP JUMPDEST DUP1 ISZERO PUSH2 0x1F30 JUMPI DUP1 PUSH1 0x1F LT PUSH2 0x1F05 JUMPI PUSH2 0x100 DUP1 DUP4 SLOAD DIV MUL DUP4 MSTORE SWAP2 PUSH1 0x20 ADD SWAP2 PUSH2 0x1F30 JUMP JUMPDEST DUP3 ADD SWAP2 SWAP1 PUSH1 0x0 MSTORE PUSH1 0x20 PUSH1 0x0 KECCAK256 SWAP1 JUMPDEST DUP2 SLOAD DUP2 MSTORE SWAP1 PUSH1 0x1 ADD SWAP1 PUSH1 0x20 ADD DUP1 DUP4 GT PUSH2 0x1F13 JUMPI DUP3 SWAP1 SUB PUSH1 0x1F AND DUP3 ADD SWAP2 JUMPDEST POP POP POP POP POP DUP2 MSTORE PUSH1 0x20 ADD PUSH1 0x4 DUP3 ADD PUSH1 0x0 SWAP1 SLOAD SWAP1 PUSH2 0x100 EXP SWAP1 DIV PUSH20 0xFFFFFFFFFFFFFFFFFFFFFFFFFFFFFFFFFFFFFFFF AND PUSH20 0xFFFFFFFFFFFFFFFFFFFFFFFFFFFFFFFFFFFFFFFF AND PUSH20 0xFFFFFFFFFFFFFFFFFFFFFFFFFFFFFFFFFFFFFFFF AND DUP2 MSTORE PUSH1 0x20 ADD PUSH1 0x5 DUP3 ADD SLOAD DUP2 MSTORE PUSH1 0x20 ADD PUSH1 0x6 DUP3 ADD PUSH1 0x0 SWAP1 SLOAD SWAP1 PUSH2 0x100 EXP SWAP1 DIV PUSH1 0xFF AND ISZERO ISZERO ISZERO ISZERO DUP2 MSTORE POP POP SWAP3 POP DUP2 PUSH1 0x40 MLOAD DUP1 PUSH1 0xA0 ADD PUSH1 0x40 MSTORE SWAP1 DUP2 PUSH1 0x0 DUP3 ADD DUP1 SLOAD PUSH2 0x1FD2 SWAP1 PUSH2 0x4DCC JUMP JUMPDEST DUP1 PUSH1 0x1F ADD PUSH1 0x20 DUP1 SWAP2 DIV MUL PUSH1 0x20 ADD PUSH1 0x40 MLOAD SWAP1 DUP2 ADD PUSH1 0x40 MSTORE DUP1 SWAP3 SWAP2 SWAP1 DUP2 DUP2 MSTORE PUSH1 0x20 ADD DUP3 DUP1 SLOAD PUSH2 0x1FFE SWAP1 PUSH2 0x4DCC JUMP JUMPDEST DUP1 ISZERO PUSH2 0x204B JUMPI DUP1 PUSH1 0x1F LT PUSH2 0x2020 JUMPI PUSH2 0x100 DUP1 DUP4 SLOAD DIV MUL DUP4 MSTORE SWAP2 PUSH1 0x20 ADD SWAP2 PUSH2 0x204B JUMP JUMPDEST DUP3 ADD SWAP2 SWAP1 PUSH1 0x0 MSTORE PUSH1 0x20 PUSH1 0x0 KECCAK256 SWAP1 JUMPDEST DUP2 SLOAD DUP2 MSTORE SWAP1 PUSH1 0x1 ADD SWAP1 PUSH1 0x20 ADD DUP1 DUP4 GT PUSH2 0x202E JUMPI DUP3 SWAP1 SUB PUSH1 0x1F AND DUP3 ADD SWAP2 JUMPDEST POP POP POP POP POP DUP2 MSTORE PUSH1 0x20 ADD PUSH1 0x1 DUP3 ADD DUP1 SLOAD PUSH2 0x2064 SWAP1 PUSH2 0x4DCC JUMP JUMPDEST DUP1 PUSH1 0x1F ADD PUSH1 0x20 DUP1 SWAP2 DIV MUL PUSH1 0x20 ADD PUSH1 0x40 MLOAD SWAP1 DUP2 ADD PUSH1 0x40 MSTORE DUP1 SWAP3 SWAP2 SWAP1 DUP2 DUP2 MSTORE PUSH1 0x20 ADD DUP3 DUP1 SLOAD PUSH2 0x2090 SWAP1 PUSH2 0x4DCC JUMP JUMPDEST DUP1 ISZERO PUSH2 0x20DD JUMPI DUP1 PUSH1 0x1F LT PUSH2 0x20B2 JUMPI PUSH2 0x100 DUP1 DUP4 SLOAD DIV MUL DUP4 MSTORE SWAP2 PUSH1 0x20 ADD SWAP2 PUSH2 0x20DD JUMP JUMPDEST DUP3 ADD SWAP2 SWAP1 PUSH1 0x0 MSTORE PUSH1 0x20 PUSH1 0x0 KECCAK256 SWAP1 JUMPDEST DUP2 SLOAD DUP2 MSTORE SWAP1 PUSH1 0x1 ADD SWAP1 PUSH1 0x20 ADD DUP1 DUP4 GT PUSH2 0x20C0 JUMPI DUP3 SWAP1 SUB PUSH1 0x1F AND DUP3 ADD SWAP2 JUMPDEST POP POP POP POP POP DUP2 MSTORE PUSH1 0x20 ADD PUSH1 0x2 DUP3 ADD SLOAD DUP2 MSTORE PUSH1 0x20 ADD PUSH1 0x3 DUP3 ADD SLOAD DUP2 MSTORE PUSH1 0x20 ADD PUSH1 0x4 DUP3 ADD DUP1 SLOAD PUSH2 0x210A SWAP1 PUSH2 0x4DCC JUMP JUMPDEST DUP1 PUSH1 0x1F ADD PUSH1 0x20 DUP1 SWAP2 DIV MUL PUSH1 0x20 ADD PUSH1 0x40 MLOAD SWAP1 DUP2 ADD PUSH1 0x40 MSTORE DUP1 SWAP3 SWAP2 SWAP1 DUP2 DUP2 MSTORE PUSH1 0x20 ADD DUP3 DUP1 SLOAD PUSH2 0x2136 SWAP1 PUSH2 0x4DCC JUMP JUMPDEST DUP1 ISZERO PUSH2 0x2183 JUMPI DUP1 PUSH1 0x1F LT PUSH2 0x2158 JUMPI PUSH2 0x100 DUP1 DUP4 SLOAD DIV MUL DUP4 MSTORE SWAP2 PUSH1 0x20 ADD SWAP2 PUSH2 0x2183 JUMP JUMPDEST DUP3 ADD SWAP2 SWAP1 PUSH1 0x0 MSTORE PUSH1 0x20 PUSH1 0x0 KECCAK256 SWAP1 JUMPDEST DUP2 SLOAD DUP2 MSTORE SWAP1 PUSH1 0x1 ADD SWAP1 PUSH1 0x20 ADD DUP1 DUP4 GT PUSH2 0x2166 JUMPI DUP3 SWAP1 SUB PUSH1 0x1F AND DUP3 ADD SWAP2 JUMPDEST POP POP POP POP POP DUP2 MSTORE POP POP SWAP2 POP DUP1 PUSH1 0x40 MLOAD DUP1 PUSH1 0xC0 ADD PUSH1 0x40 MSTORE SWAP1 DUP2 PUSH1 0x0 DUP3 ADD SLOAD DUP2 MSTORE PUSH1 0x20 ADD PUSH1 0x1 DUP3 ADD SLOAD DUP2 MSTORE PUSH1 0x20 ADD PUSH1 0x2 DUP3 ADD DUP1 SLOAD PUSH2 0x21BE SWAP1 PUSH2 0x4DCC JUMP JUMPDEST DUP1 PUSH1 0x1F ADD PUSH1 0x20 DUP1 SWAP2 DIV MUL PUSH1 0x20 ADD PUSH1 0x40 MLOAD SWAP1 DUP2 ADD PUSH1 0x40 MSTORE DUP1 SWAP3 SWAP2 SWAP1 DUP2 DUP2 MSTORE PUSH1 0x20 ADD DUP3 DUP1 SLOAD PUSH2 0x21EA SWAP1 PUSH2 0x4DCC JUMP JUMPDEST DUP1 ISZERO PUSH2 0x2237 JUMPI DUP1 PUSH1 0x1F LT PUSH2 0x220C JUMPI PUSH2 0x100 DUP1 DUP4 SLOAD DIV MUL DUP4 MSTORE SWAP2 PUSH1 0x20 ADD SWAP2 PUSH2 0x2237 JUMP JUMPDEST DUP3 ADD SWAP2 SWAP1 PUSH1 0x0 MSTORE PUSH1 0x20 PUSH1 0x0 KECCAK256 SWAP1 JUMPDEST DUP2 SLOAD DUP2 MSTORE SWAP1 PUSH1 0x1 ADD SWAP1 PUSH1 0x20 ADD DUP1 DUP4 GT PUSH2 0x221A JUMPI DUP3 SWAP1 SUB PUSH1 0x1F AND DUP3 ADD SWAP2 JUMPDEST POP POP POP POP POP DUP2 MSTORE PUSH1 0x20 ADD PUSH1 0x3 DUP3 ADD SLOAD DUP2 MSTORE PUSH1 0x20 ADD PUSH1 0x4 DUP3 ADD PUSH1 0x40 MLOAD DUP1 PUSH1 0x60 ADD PUSH1 0x40 MSTORE SWAP1 DUP2 PUSH1 0x0 DUP3 ADD DUP1 SLOAD PUSH2 0x226A SWAP1 PUSH2 0x4DCC JUMP JUMPDEST DUP1 PUSH1 0x1F ADD PUSH1 0x20 DUP1 SWAP2 DIV MUL PUSH1 0x20 ADD PUSH1 0x40 MLOAD SWAP1 DUP2 ADD PUSH1 0x40 MSTORE DUP1 SWAP3 SWAP2 SWAP1 DUP2 DUP2 MSTORE PUSH1 0x20 ADD DUP3 DUP1 SLOAD PUSH2 0x2296 SWAP1 PUSH2 0x4DCC JUMP JUMPDEST DUP1 ISZERO PUSH2 0x22E3 JUMPI DUP1 PUSH1 0x1F LT PUSH2 0x22B8 JUMPI PUSH2 0x100 DUP1 DUP4 SLOAD DIV MUL DUP4 MSTORE SWAP2 PUSH1 0x20 ADD SWAP2 PUSH2 0x22E3 JUMP JUMPDEST DUP3 ADD SWAP2 SWAP1 PUSH1 0x0 MSTORE PUSH1 0x20 PUSH1 0x0 KECCAK256 SWAP1 JUMPDEST DUP2 SLOAD DUP2 MSTORE SWAP1 PUSH1 0x1 ADD SWAP1 PUSH1 0x20 ADD DUP1 DUP4 GT PUSH2 0x22C6 JUMPI DUP3 SWAP1 SUB PUSH1 0x1F AND DUP3 ADD SWAP2 JUMPDEST POP POP POP POP POP DUP2 MSTORE PUSH1 0x20 ADD PUSH1 0x1 DUP3 ADD DUP1 SLOAD PUSH2 0x22FC SWAP1 PUSH2 0x4DCC JUMP JUMPDEST DUP1 PUSH1 0x1F ADD PUSH1 0x20 DUP1 SWAP2 DIV MUL PUSH1 0x20 ADD PUSH1 0x40 MLOAD SWAP1 DUP2 ADD PUSH1 0x40 MSTORE DUP1 SWAP3 SWAP2 SWAP1 DUP2 DUP2 MSTORE PUSH1 0x20 ADD DUP3 DUP1 SLOAD PUSH2 0x2328 SWAP1 PUSH2 0x4DCC JUMP JUMPDEST DUP1 ISZERO PUSH2 0x2375 JUMPI DUP1 PUSH1 0x1F LT PUSH2 0x234A JUMPI PUSH2 0x100 DUP1 DUP4 SLOAD DIV MUL DUP4 MSTORE SWAP2 PUSH1 0x20 ADD SWAP2 PUSH2 0x2375 JUMP JUMPDEST DUP3 ADD SWAP2 SWAP1 PUSH1 0x0 MSTORE PUSH1 0x20 PUSH1 0x0 KECCAK256 SWAP1 JUMPDEST DUP2 SLOAD DUP2 MSTORE SWAP1 PUSH1 0x1 ADD SWAP1 PUSH1 0x20 ADD DUP1 DUP4 GT PUSH2 0x2358 JUMPI DUP3 SWAP1 SUB PUSH1 0x1F AND DUP3 ADD SWAP2 JUMPDEST POP POP POP POP POP DUP2 MSTORE PUSH1 0x20 ADD PUSH1 0x2 DUP3 ADD DUP1 SLOAD PUSH2 0x238E SWAP1 PUSH2 0x4DCC JUMP JUMPDEST DUP1 PUSH1 0x1F ADD PUSH1 0x20 DUP1 SWAP2 DIV MUL PUSH1 0x20 ADD PUSH1 0x40 MLOAD SWAP1 DUP2 ADD PUSH1 0x40 MSTORE DUP1 SWAP3 SWAP2 SWAP1 DUP2 DUP2 MSTORE PUSH1 0x20 ADD DUP3 DUP1 SLOAD PUSH2 0x23BA SWAP1 PUSH2 0x4DCC JUMP JUMPDEST DUP1 ISZERO PUSH2 0x2407 JUMPI DUP1 PUSH1 0x1F LT PUSH2 0x23DC JUMPI PUSH2 0x100 DUP1 DUP4 SLOAD DIV MUL DUP4 MSTORE SWAP2 PUSH1 0x20 ADD SWAP2 PUSH2 0x2407 JUMP JUMPDEST DUP3 ADD SWAP2 SWAP1 PUSH1 0x0 MSTORE PUSH1 0x20 PUSH1 0x0 KECCAK256 SWAP1 JUMPDEST DUP2 SLOAD DUP2 MSTORE SWAP1 PUSH1 0x1 ADD SWAP1 PUSH1 0x20 ADD DUP1 DUP4 GT PUSH2 0x23EA JUMPI DUP3 SWAP1 SUB PUSH1 0x1F AND DUP3 ADD SWAP2 JUMPDEST POP POP POP POP POP DUP2 MSTORE POP POP DUP2 MSTORE PUSH1 0x20 ADD PUSH1 0x7 DUP3 ADD SLOAD DUP2 MSTORE POP POP SWAP1 POP SWAP3 POP SWAP3 POP SWAP3 POP SWAP2 SWAP4 SWAP1 SWAP3 POP JUMP JUMPDEST PUSH1 0x1 PUSH1 0x20 MSTORE DUP1 PUSH1 0x0 MSTORE PUSH1 0x40 PUSH1 0x0 KECCAK256 PUSH1 0x0 SWAP2 POP SWAP1 POP DUP1 PUSH1 0x0 ADD DUP1 SLOAD PUSH2 0x2450 SWAP1 PUSH2 0x4DCC JUMP JUMPDEST DUP1 PUSH1 0x1F ADD PUSH1 0x20 DUP1 SWAP2 DIV MUL PUSH1 0x20 ADD PUSH1 0x40 MLOAD SWAP1 DUP2 ADD PUSH1 0x40 MSTORE DUP1 SWAP3 SWAP2 SWAP1 DUP2 DUP2 MSTORE PUSH1 0x20 ADD DUP3 DUP1 SLOAD PUSH2 0x247C SWAP1 PUSH2 0x4DCC JUMP JUMPDEST DUP1 ISZERO PUSH2 0x24C9 JUMPI DUP1 PUSH1 0x1F LT PUSH2 0x249E JUMPI PUSH2 0x100 DUP1 DUP4 SLOAD DIV MUL DUP4 MSTORE SWAP2 PUSH1 0x20 ADD SWAP2 PUSH2 0x24C9 JUMP JUMPDEST DUP3 ADD SWAP2 SWAP1 PUSH1 0x0 MSTORE PUSH1 0x20 PUSH1 0x0 KECCAK256 SWAP1 JUMPDEST DUP2 SLOAD DUP2 MSTORE SWAP1 PUSH1 0x1 ADD SWAP1 PUSH1 0x20 ADD DUP1 DUP4 GT PUSH2 0x24AC JUMPI DUP3 SWAP1 SUB PUSH1 0x1F AND DUP3 ADD SWAP2 JUMPDEST POP POP POP POP POP SWAP1 DUP1 PUSH1 0x1 ADD DUP1 SLOAD PUSH2 0x24DE SWAP1 PUSH2 0x4DCC JUMP JUMPDEST DUP1 PUSH1 0x1F ADD PUSH1 0x20 DUP1 SWAP2 DIV MUL PUSH1 0x20 ADD PUSH1 0x40 MLOAD SWAP1 DUP2 ADD PUSH1 0x40 MSTORE DUP1 SWAP3 SWAP2 SWAP1 DUP2 DUP2 MSTORE PUSH1 0x20 ADD DUP3 DUP1 SLOAD PUSH2 0x250A SWAP1 PUSH2 0x4DCC JUMP JUMPDEST DUP1 ISZERO PUSH2 0x2557 JUMPI DUP1 PUSH1 0x1F LT PUSH2 0x252C JUMPI PUSH2 0x100 DUP1 DUP4 SLOAD DIV MUL DUP4 MSTORE SWAP2 PUSH1 0x20 ADD SWAP2 PUSH2 0x2557 JUMP JUMPDEST DUP3 ADD SWAP2 SWAP1 PUSH1 0x0 MSTORE PUSH1 0x20 PUSH1 0x0 KECCAK256 SWAP1 JUMPDEST DUP2 SLOAD DUP2 MSTORE SWAP1 PUSH1 0x1 ADD SWAP1 PUSH1 0x20 ADD DUP1 DUP4 GT PUSH2 0x253A JUMPI DUP3 SWAP1 SUB PUSH1 0x1F AND DUP3 ADD SWAP2 JUMPDEST POP POP POP POP POP SWAP1 DUP1 PUSH1 0x2 ADD SLOAD SWAP1 DUP1 PUSH1 0x3 ADD SLOAD SWAP1 DUP1 PUSH1 0x4 ADD DUP1 SLOAD PUSH2 0x2578 SWAP1 PUSH2 0x4DCC JUMP JUMPDEST DUP1 PUSH1 0x1F ADD PUSH1 0x20 DUP1 SWAP2 DIV MUL PUSH1 0x20 ADD PUSH1 0x40 MLOAD SWAP1 DUP2 ADD PUSH1 0x40 MSTORE DUP1 SWAP3 SWAP2 SWAP1 DUP2 DUP2 MSTORE PUSH1 0x20 ADD DUP3 DUP1 SLOAD PUSH2 0x25A4 SWAP1 PUSH2 0x4DCC JUMP JUMPDEST DUP1 ISZERO PUSH2 0x25F1 JUMPI DUP1 PUSH1 0x1F LT PUSH2 0x25C6 JUMPI PUSH2 0x100 DUP1 DUP4 SLOAD DIV MUL DUP4 MSTORE SWAP2 PUSH1 0x20 ADD SWAP2 PUSH2 0x25F1 JUMP JUMPDEST DUP3 ADD SWAP2 SWAP1 PUSH1 0x0 MSTORE PUSH1 0x20 PUSH1 0x0 KECCAK256 SWAP1 JUMPDEST DUP2 SLOAD DUP2 MSTORE SWAP1 PUSH1 0x1 ADD SWAP1 PUSH1 0x20 ADD DUP1 DUP4 GT PUSH2 0x25D4 JUMPI DUP3 SWAP1 SUB PUSH1 0x1F AND DUP3 ADD SWAP2 JUMPDEST POP POP POP POP POP SWAP1 POP DUP6 JUMP JUMPDEST PUSH1 0x0 PUSH1 0x20 MSTORE DUP1 PUSH1 0x0 MSTORE PUSH1 0x40 PUSH1 0x0 KECCAK256 PUSH1 0x0 SWAP2 POP SWAP1 POP DUP1 PUSH1 0x0 ADD SLOAD SWAP1 DUP1 PUSH1 0x1 ADD DUP1 SLOAD PUSH2 0x2624 SWAP1 PUSH2 0x4DCC JUMP JUMPDEST DUP1 PUSH1 0x1F ADD PUSH1 0x20 DUP1 SWAP2 DIV MUL PUSH1 0x20 ADD PUSH1 0x40 MLOAD SWAP1 DUP2 ADD PUSH1 0x40 MSTORE DUP1 SWAP3 SWAP2 SWAP1 DUP2 DUP2 MSTORE PUSH1 0x20 ADD DUP3 DUP1 SLOAD PUSH2 0x2650 SWAP1 PUSH2 0x4DCC JUMP JUMPDEST DUP1 ISZERO PUSH2 0x269D JUMPI DUP1 PUSH1 0x1F LT PUSH2 0x2672 JUMPI PUSH2 0x100 DUP1 DUP4 SLOAD DIV MUL DUP4 MSTORE SWAP2 PUSH1 0x20 ADD SWAP2 PUSH2 0x269D JUMP JUMPDEST DUP3 ADD SWAP2 SWAP1 PUSH1 0x0 MSTORE PUSH1 0x20 PUSH1 0x0 KECCAK256 SWAP1 JUMPDEST DUP2 SLOAD DUP2 MSTORE SWAP1 PUSH1 0x1 ADD SWAP1 PUSH1 0x20 ADD DUP1 DUP4 GT PUSH2 0x2680 JUMPI DUP3 SWAP1 SUB PUSH1 0x1F AND DUP3 ADD SWAP2 JUMPDEST POP POP POP POP POP SWAP1 DUP1 PUSH1 0x2 ADD DUP1 SLOAD PUSH2 0x26B2 SWAP1 PUSH2 0x4DCC JUMP JUMPDEST DUP1 PUSH1 0x1F ADD PUSH1 0x20 DUP1 SWAP2 DIV MUL PUSH1 0x20 ADD PUSH1 0x40 MLOAD SWAP1 DUP2 ADD PUSH1 0x40 MSTORE DUP1 SWAP3 SWAP2 SWAP1 DUP2 DUP2 MSTORE PUSH1 0x20 ADD DUP3 DUP1 SLOAD PUSH2 0x26DE SWAP1 PUSH2 0x4DCC JUMP JUMPDEST DUP1 ISZERO PUSH2 0x272B JUMPI DUP1 PUSH1 0x1F LT PUSH2 0x2700 JUMPI PUSH2 0x100 DUP1 DUP4 SLOAD DIV MUL DUP4 MSTORE SWAP2 PUSH1 0x20 ADD SWAP2 PUSH2 0x272B JUMP JUMPDEST DUP3 ADD SWAP2 SWAP1 PUSH1 0x0 MSTORE PUSH1 0x20 PUSH1 0x0 KECCAK256 SWAP1 JUMPDEST DUP2 SLOAD DUP2 MSTORE SWAP1 PUSH1 0x1 ADD SWAP1 PUSH1 0x20 ADD DUP1 DUP4 GT PUSH2 0x270E JUMPI DUP3 SWAP1 SUB PUSH1 0x1F AND DUP3 ADD SWAP2 JUMPDEST POP POP POP POP POP SWAP1 DUP1 PUSH1 0x3 ADD DUP1 SLOAD PUSH2 0x2740 SWAP1 PUSH2 0x4DCC JUMP JUMPDEST DUP1 PUSH1 0x1F ADD PUSH1 0x20 DUP1 SWAP2 DIV MUL PUSH1 0x20 ADD PUSH1 0x40 MLOAD SWAP1 DUP2 ADD PUSH1 0x40 MSTORE DUP1 SWAP3 SWAP2 SWAP1 DUP2 DUP2 MSTORE PUSH1 0x20 ADD DUP3 DUP1 SLOAD PUSH2 0x276C SWAP1 PUSH2 0x4DCC JUMP JUMPDEST DUP1 ISZERO PUSH2 0x27B9 JUMPI DUP1 PUSH1 0x1F LT PUSH2 0x278E JUMPI PUSH2 0x100 DUP1 DUP4 SLOAD DIV MUL DUP4 MSTORE SWAP2 PUSH1 0x20 ADD SWAP2 PUSH2 0x27B9 JUMP JUMPDEST DUP3 ADD SWAP2 SWAP1 PUSH1 0x0 MSTORE PUSH1 0x20 PUSH1 0x0 KECCAK256 SWAP1 JUMPDEST DUP2 SLOAD DUP2 MSTORE SWAP1 PUSH1 0x1 ADD SWAP1 PUSH1 0x20 ADD DUP1 DUP4 GT PUSH2 0x279C JUMPI DUP3 SWAP1 SUB PUSH1 0x1F AND DUP3 ADD SWAP2 JUMPDEST POP POP POP POP POP SWAP1 DUP1 PUSH1 0x4 ADD PUSH1 0x0 SWAP1 SLOAD SWAP1 PUSH2 0x100 EXP SWAP1 DIV PUSH20 0xFFFFFFFFFFFFFFFFFFFFFFFFFFFFFFFFFFFFFFFF AND SWAP1 DUP1 PUSH1 0x5 ADD SLOAD SWAP1 DUP1 PUSH1 0x6 ADD PUSH1 0x0 SWAP1 SLOAD SWAP1 PUSH2 0x100 EXP SWAP1 DIV PUSH1 0xFF AND SWAP1 POP DUP8 JUMP JUMPDEST PUSH1 0x0 DUP1 DUP8 DUP2 MSTORE PUSH1 0x20 ADD SWAP1 DUP2 MSTORE PUSH1 0x20 ADD PUSH1 0x0 KECCAK256 PUSH1 0x6 ADD PUSH1 0x0 SWAP1 SLOAD SWAP1 PUSH2 0x100 EXP SWAP1 DIV PUSH1 0xFF AND PUSH2 0x2864 JUMPI PUSH1 0x40 MLOAD PUSH32 0x8C379A000000000000000000000000000000000000000000000000000000000 DUP2 MSTORE PUSH1 0x4 ADD PUSH2 0x285B SWAP1 PUSH2 0x4CC2 JUMP JUMPDEST PUSH1 0x40 MLOAD DUP1 SWAP2 SUB SWAP1 REVERT JUMPDEST CALLER PUSH20 0xFFFFFFFFFFFFFFFFFFFFFFFFFFFFFFFFFFFFFFFF AND PUSH1 0x0 DUP1 DUP9 DUP2 MSTORE PUSH1 0x20 ADD SWAP1 DUP2 MSTORE PUSH1 0x20 ADD PUSH1 0x0 KECCAK256 PUSH1 0x4 ADD PUSH1 0x0 SWAP1 SLOAD SWAP1 PUSH2 0x100 EXP SWAP1 DIV PUSH20 0xFFFFFFFFFFFFFFFFFFFFFFFFFFFFFFFFFFFFFFFF AND PUSH20 0xFFFFFFFFFFFFFFFFFFFFFFFFFFFFFFFFFFFFFFFF AND EQ PUSH2 0x2907 JUMPI PUSH1 0x40 MLOAD PUSH32 0x8C379A000000000000000000000000000000000000000000000000000000000 DUP2 MSTORE PUSH1 0x4 ADD PUSH2 0x28FE SWAP1 PUSH2 0x51B5 JUMP JUMPDEST PUSH1 0x40 MLOAD DUP1 SWAP2 SUB SWAP1 REVERT JUMPDEST PUSH1 0x40 MLOAD DUP1 PUSH1 0xA0 ADD PUSH1 0x40 MSTORE DUP1 DUP7 DUP2 MSTORE PUSH1 0x20 ADD DUP6 DUP2 MSTORE PUSH1 0x20 ADD DUP5 DUP2 MSTORE PUSH1 0x20 ADD DUP4 DUP2 MSTORE PUSH1 0x20 ADD DUP3 DUP2 MSTORE POP PUSH1 0x1 PUSH1 0x0 DUP9 DUP2 MSTORE PUSH1 0x20 ADD SWAP1 DUP2 MSTORE PUSH1 0x20 ADD PUSH1 0x0 KECCAK256 PUSH1 0x0 DUP3 ADD MLOAD DUP2 PUSH1 0x0 ADD SWAP1 DUP1 MLOAD SWAP1 PUSH1 0x20 ADD SWAP1 PUSH2 0x295D SWAP3 SWAP2 SWAP1 PUSH2 0x3364 JUMP JUMPDEST POP PUSH1 0x20 DUP3 ADD MLOAD DUP2 PUSH1 0x1 ADD SWAP1 DUP1 MLOAD SWAP1 PUSH1 0x20 ADD SWAP1 PUSH2 0x297A SWAP3 SWAP2 SWAP1 PUSH2 0x3364 JUMP JUMPDEST POP PUSH1 0x40 DUP3 ADD MLOAD DUP2 PUSH1 0x2 ADD SSTORE PUSH1 0x60 DUP3 ADD MLOAD DUP2 PUSH1 0x3 ADD SSTORE PUSH1 0x80 DUP3 ADD MLOAD DUP2 PUSH1 0x4 ADD SWAP1 DUP1 MLOAD SWAP1 PUSH1 0x20 ADD SWAP1 PUSH2 0x29AB SWAP3 SWAP2 SWAP1 PUSH2 0x3364 JUMP JUMPDEST POP SWAP1 POP POP PUSH32 0x1E47147019E9283BF81D3D0115270ED8E37817C27EEC9F2FDA8DEAE6D81E33E6 DUP7 DUP7 DUP7 PUSH1 0x40 MLOAD PUSH2 0x29E2 SWAP4 SWAP3 SWAP2 SWAP1 PUSH2 0x4A1E JUMP JUMPDEST PUSH1 0x40 MLOAD DUP1 SWAP2 SUB SWAP1 LOG1 POP POP POP POP POP POP JUMP JUMPDEST PUSH1 0x3 PUSH1 0x20 MSTORE DUP2 PUSH1 0x0 MSTORE PUSH1 0x40 PUSH1 0x0 KECCAK256 PUSH1 0x20 MSTORE DUP1 PUSH1 0x0 MSTORE PUSH1 0x40 PUSH1 0x0 KECCAK256 PUSH1 0x0 SWAP2 POP SWAP2 POP POP DUP1 PUSH1 0x0 ADD SLOAD SWAP1 DUP1 PUSH1 0x1 ADD DUP1 SLOAD PUSH2 0x2A28 SWAP1 PUSH2 0x4DCC JUMP JUMPDEST DUP1 PUSH1 0x1F ADD PUSH1 0x20 DUP1 SWAP2 DIV MUL PUSH1 0x20 ADD PUSH1 0x40 MLOAD SWAP1 DUP2 ADD PUSH1 0x40 MSTORE DUP1 SWAP3 SWAP2 SWAP1 DUP2 DUP2 MSTORE PUSH1 0x20 ADD DUP3 DUP1 SLOAD PUSH2 0x2A54 SWAP1 PUSH2 0x4DCC JUMP JUMPDEST DUP1 ISZERO PUSH2 0x2AA1 JUMPI DUP1 PUSH1 0x1F LT PUSH2 0x2A76 JUMPI PUSH2 0x100 DUP1 DUP4 SLOAD DIV MUL DUP4 MSTORE SWAP2 PUSH1 0x20 ADD SWAP2 PUSH2 0x2AA1 JUMP JUMPDEST DUP3 ADD SWAP2 SWAP1 PUSH1 0x0 MSTORE PUSH1 0x20 PUSH1 0x0 KECCAK256 SWAP1 JUMPDEST DUP2 SLOAD DUP2 MSTORE SWAP1 PUSH1 0x1 ADD SWAP1 PUSH1 0x20 ADD DUP1 DUP4 GT PUSH2 0x2A84 JUMPI DUP3 SWAP1 SUB PUSH1 0x1F AND DUP3 ADD SWAP2 JUMPDEST POP POP POP POP POP SWAP1 DUP1 PUSH1 0x2 ADD DUP1 SLOAD PUSH2 0x2AB6 SWAP1 PUSH2 0x4DCC JUMP JUMPDEST DUP1 PUSH1 0x1F ADD PUSH1 0x20 DUP1 SWAP2 DIV MUL PUSH1 0x20 ADD PUSH1 0x40 MLOAD SWAP1 DUP2 ADD PUSH1 0x40 MSTORE DUP1 SWAP3 SWAP2 SWAP1 DUP2 DUP2 MSTORE PUSH1 0x20 ADD DUP3 DUP1 SLOAD PUSH2 0x2AE2 SWAP1 PUSH2 0x4DCC JUMP JUMPDEST DUP1 ISZERO PUSH2 0x2B2F JUMPI DUP1 PUSH1 0x1F LT PUSH2 0x2B04 JUMPI PUSH2 0x100 DUP1 DUP4 SLOAD DIV MUL DUP4 MSTORE SWAP2 PUSH1 0x20 ADD SWAP2 PUSH2 0x2B2F JUMP JUMPDEST DUP3 ADD SWAP2 SWAP1 PUSH1 0x0 MSTORE PUSH1 0x20 PUSH1 0x0 KECCAK256 SWAP1 JUMPDEST DUP2 SLOAD DUP2 MSTORE SWAP1 PUSH1 0x1 ADD SWAP1 PUSH1 0x20 ADD DUP1 DUP4 GT PUSH2 0x2B12 JUMPI DUP3 SWAP1 SUB PUSH1 0x1F AND DUP3 ADD SWAP2 JUMPDEST POP POP POP POP POP SWAP1 POP DUP4 JUMP JUMPDEST PUSH1 0x0 PUSH1 0x9 PUSH1 0x0 DUP2 SLOAD DUP1 SWAP3 SWAP2 SWAP1 PUSH2 0x2B4E SWAP1 PUSH2 0x4E90 JUMP JUMPDEST SWAP2 SWAP1 POP SSTORE POP PUSH1 0x40 MLOAD DUP1 PUSH1 0xE0 ADD PUSH1 0x40 MSTORE DUP1 PUSH1 0x9 SLOAD DUP2 MSTORE PUSH1 0x20 ADD DUP6 DUP2 MSTORE PUSH1 0x20 ADD DUP5 DUP2 MSTORE PUSH1 0x20 ADD DUP4 DUP2 MSTORE PUSH1 0x20 ADD CALLER PUSH20 0xFFFFFFFFFFFFFFFFFFFFFFFFFFFFFFFFFFFFFFFF AND DUP2 MSTORE PUSH1 0x20 ADD TIMESTAMP DUP2 MSTORE PUSH1 0x20 ADD PUSH1 0x1 ISZERO ISZERO DUP2 MSTORE POP PUSH1 0x0 DUP1 PUSH1 0x9 SLOAD DUP2 MSTORE PUSH1 0x20 ADD SWAP1 DUP2 MSTORE PUSH1 0x20 ADD PUSH1 0x0 KECCAK256 PUSH1 0x0 DUP3 ADD MLOAD DUP2 PUSH1 0x0 ADD SSTORE PUSH1 0x20 DUP3 ADD MLOAD DUP2 PUSH1 0x1 ADD SWAP1 DUP1 MLOAD SWAP1 PUSH1 0x20 ADD SWAP1 PUSH2 0x2BDB SWAP3 SWAP2 SWAP1 PUSH2 0x3364 JUMP JUMPDEST POP PUSH1 0x40 DUP3 ADD MLOAD DUP2 PUSH1 0x2 ADD SWAP1 DUP1 MLOAD SWAP1 PUSH1 0x20 ADD SWAP1 PUSH2 0x2BF8 SWAP3 SWAP2 SWAP1 PUSH2 0x3364 JUMP JUMPDEST POP PUSH1 0x60 DUP3 ADD MLOAD DUP2 PUSH1 0x3 ADD SWAP1 DUP1 MLOAD SWAP1 PUSH1 0x20 ADD SWAP1 PUSH2 0x2C15 SWAP3 SWAP2 SWAP1 PUSH2 0x3364 JUMP JUMPDEST POP PUSH1 0x80 DUP3 ADD MLOAD DUP2 PUSH1 0x4 ADD PUSH1 0x0 PUSH2 0x100 EXP DUP2 SLOAD DUP2 PUSH20 0xFFFFFFFFFFFFFFFFFFFFFFFFFFFFFFFFFFFFFFFF MUL NOT AND SWAP1 DUP4 PUSH20 0xFFFFFFFFFFFFFFFFFFFFFFFFFFFFFFFFFFFFFFFF AND MUL OR SWAP1 SSTORE POP PUSH1 0xA0 DUP3 ADD MLOAD DUP2 PUSH1 0x5 ADD SSTORE PUSH1 0xC0 DUP3 ADD MLOAD DUP2 PUSH1 0x6 ADD PUSH1 0x0 PUSH2 0x100 EXP DUP2 SLOAD DUP2 PUSH1 0xFF MUL NOT AND SWAP1 DUP4 ISZERO ISZERO MUL OR SWAP1 SSTORE POP SWAP1 POP POP PUSH32 0xAF6FFB6277511513E7D579327CC1FC57F0266DF2FB11A60B13487B8C9CD2C388 PUSH1 0x9 SLOAD DUP4 CALLER PUSH1 0x40 MLOAD PUSH2 0x2CBF SWAP4 SWAP3 SWAP2 SWAP1 PUSH2 0x51D5 JUMP JUMPDEST PUSH1 0x40 MLOAD DUP1 SWAP2 SUB SWAP1 LOG1 PUSH1 0x9 SLOAD SWAP1 POP SWAP4 SWAP3 POP POP POP JUMP JUMPDEST PUSH1 0x0 DUP1 PUSH1 0x0 DUP7 DUP2 MSTORE PUSH1 0x20 ADD SWAP1 DUP2 MSTORE PUSH1 0x20 ADD PUSH1 0x0 KECCAK256 PUSH1 0x6 ADD PUSH1 0x0 SWAP1 SLOAD SWAP1 PUSH2 0x100 EXP SWAP1 DIV PUSH1 0xFF AND PUSH2 0x2D37 JUMPI PUSH1 0x40 MLOAD PUSH32 0x8C379A000000000000000000000000000000000000000000000000000000000 DUP2 MSTORE PUSH1 0x4 ADD PUSH2 0x2D2E SWAP1 PUSH2 0x4CC2 JUMP JUMPDEST PUSH1 0x40 MLOAD DUP1 SWAP2 SUB SWAP1 REVERT JUMPDEST PUSH1 0xA PUSH1 0x0 DUP2 SLOAD DUP1 SWAP3 SWAP2 SWAP1 PUSH2 0x2D4A SWAP1 PUSH2 0x4E90 JUMP JUMPDEST SWAP2 SWAP1 POP SSTORE POP PUSH1 0x0 PUSH1 0x40 MLOAD DUP1 PUSH1 0x40 ADD PUSH1 0x40 MSTORE DUP1 DUP6 DUP2 MSTORE PUSH1 0x20 ADD DUP5 DUP2 MSTORE POP SWAP1 POP PUSH1 0x0 PUSH1 0x40 MLOAD DUP1 PUSH2 0x100 ADD PUSH1 0x40 MSTORE DUP1 PUSH1 0xA SLOAD DUP2 MSTORE PUSH1 0x20 ADD DUP8 DUP2 MSTORE PUSH1 0x20 ADD DUP9 DUP2 MSTORE PUSH1 0x20 ADD PUSH1 0x40 MLOAD DUP1 PUSH1 0x40 ADD PUSH1 0x40 MSTORE DUP1 PUSH1 0x9 DUP2 MSTORE PUSH1 0x20 ADD PUSH32 0x494E495449415445440000000000000000000000000000000000000000000000 DUP2 MSTORE POP DUP2 MSTORE PUSH1 0x20 ADD PUSH1 0x0 DUP2 MSTORE PUSH1 0x20 ADD DUP4 DUP2 MSTORE PUSH1 0x20 ADD TIMESTAMP DUP2 MSTORE PUSH1 0x20 ADD CALLER PUSH20 0xFFFFFFFFFFFFFFFFFFFFFFFFFFFFFFFFFFFFFFFF AND DUP2 MSTORE POP SWAP1 POP PUSH1 0x6 PUSH1 0x0 DUP9 DUP2 MSTORE PUSH1 0x20 ADD SWAP1 DUP2 MSTORE PUSH1 0x20 ADD PUSH1 0x0 KECCAK256 DUP2 SWAP1 DUP1 PUSH1 0x1 DUP2 SLOAD ADD DUP1 DUP3 SSTORE DUP1 SWAP2 POP POP PUSH1 0x1 SWAP1 SUB SWAP1 PUSH1 0x0 MSTORE PUSH1 0x20 PUSH1 0x0 KECCAK256 SWAP1 PUSH1 0x9 MUL ADD PUSH1 0x0 SWAP1 SWAP2 SWAP1 SWAP2 SWAP1 SWAP2 POP PUSH1 0x0 DUP3 ADD MLOAD DUP2 PUSH1 0x0 ADD SSTORE PUSH1 0x20 DUP3 ADD MLOAD DUP2 PUSH1 0x1 ADD SWAP1 DUP1 MLOAD SWAP1 PUSH1 0x20 ADD SWAP1 PUSH2 0x2E57 SWAP3 SWAP2 SWAP1 PUSH2 0x3364 JUMP JUMPDEST POP PUSH1 0x40 DUP3 ADD MLOAD DUP2 PUSH1 0x2 ADD SSTORE PUSH1 0x60 DUP3 ADD MLOAD DUP2 PUSH1 0x3 ADD SWAP1 DUP1 MLOAD SWAP1 PUSH1 0x20 ADD SWAP1 PUSH2 0x2E7E SWAP3 SWAP2 SWAP1 PUSH2 0x3364 JUMP JUMPDEST POP PUSH1 0x80 DUP3 ADD MLOAD DUP2 PUSH1 0x4 ADD SSTORE PUSH1 0xA0 DUP3 ADD MLOAD DUP2 PUSH1 0x5 ADD PUSH1 0x0 DUP3 ADD MLOAD DUP2 PUSH1 0x0 ADD SSTORE PUSH1 0x20 DUP3 ADD MLOAD DUP2 PUSH1 0x1 ADD SSTORE POP POP PUSH1 0xC0 DUP3 ADD MLOAD DUP2 PUSH1 0x7 ADD SSTORE PUSH1 0xE0 DUP3 ADD MLOAD DUP2 PUSH1 0x8 ADD PUSH1 0x0 PUSH2 0x100 EXP DUP2 SLOAD DUP2 PUSH20 0xFFFFFFFFFFFFFFFFFFFFFFFFFFFFFFFFFFFFFFFF MUL NOT AND SWAP1 DUP4 PUSH20 0xFFFFFFFFFFFFFFFFFFFFFFFFFFFFFFFFFFFFFFFF AND MUL OR SWAP1 SSTORE POP POP POP PUSH32 0x8813A2E229342A3A6AD1B67A7B01FC3AA2ACC3BF313C66EF24AC5B10B6A18117 PUSH1 0xA SLOAD DUP8 DUP10 PUSH1 0x40 MLOAD PUSH2 0x2F30 SWAP4 SWAP3 SWAP2 SWAP1 PUSH2 0x5213 JUMP JUMPDEST PUSH1 0x40 MLOAD DUP1 SWAP2 SUB SWAP1 LOG1 PUSH1 0xA SLOAD SWAP3 POP POP POP SWAP5 SWAP4 POP POP POP POP JUMP JUMPDEST PUSH1 0x7 PUSH1 0x20 MSTORE DUP3 PUSH1 0x0 MSTORE PUSH1 0x40 PUSH1 0x0 KECCAK256 PUSH1 0x20 MSTORE DUP2 PUSH1 0x0 MSTORE PUSH1 0x40 PUSH1 0x0 KECCAK256 PUSH1 0x20 MSTORE DUP1 PUSH1 0x0 MSTORE PUSH1 0x40 PUSH1 0x0 KECCAK256 PUSH1 0x0 SWAP3 POP SWAP3 POP POP POP DUP1 PUSH1 0x0 ADD DUP1 SLOAD PUSH2 0x2F84 SWAP1 PUSH2 0x4DCC JUMP JUMPDEST DUP1 PUSH1 0x1F ADD PUSH1 0x20 DUP1 SWAP2 DIV MUL PUSH1 0x20 ADD PUSH1 0x40 MLOAD SWAP1 DUP2 ADD PUSH1 0x40 MSTORE DUP1 SWAP3 SWAP2 SWAP1 DUP2 DUP2 MSTORE PUSH1 0x20 ADD DUP3 DUP1 SLOAD PUSH2 0x2FB0 SWAP1 PUSH2 0x4DCC JUMP JUMPDEST DUP1 ISZERO PUSH2 0x2FFD JUMPI DUP1 PUSH1 0x1F LT PUSH2 0x2FD2 JUMPI PUSH2 0x100 DUP1 DUP4 SLOAD DIV MUL DUP4 MSTORE SWAP2 PUSH1 0x20 ADD SWAP2 PUSH2 0x2FFD JUMP JUMPDEST DUP3 ADD SWAP2 SWAP1 PUSH1 0x0 MSTORE PUSH1 0x20 PUSH1 0x0 KECCAK256 SWAP1 JUMPDEST DUP2 SLOAD DUP2 MSTORE SWAP1 PUSH1 0x1 ADD SWAP1 PUSH1 0x20 ADD DUP1 DUP4 GT PUSH2 0x2FE0 JUMPI DUP3 SWAP1 SUB PUSH1 0x1F AND DUP3 ADD SWAP2 JUMPDEST POP POP POP POP POP SWAP1 DUP1 PUSH1 0x1 ADD DUP1 SLOAD PUSH2 0x3012 SWAP1 PUSH2 0x4DCC JUMP JUMPDEST DUP1 PUSH1 0x1F ADD PUSH1 0x20 DUP1 SWAP2 DIV MUL PUSH1 0x20 ADD PUSH1 0x40 MLOAD SWAP1 DUP2 ADD PUSH1 0x40 MSTORE DUP1 SWAP3 SWAP2 SWAP1 DUP2 DUP2 MSTORE PUSH1 0x20 ADD DUP3 DUP1 SLOAD PUSH2 0x303E SWAP1 PUSH2 0x4DCC JUMP JUMPDEST DUP1 ISZERO PUSH2 0x308B JUMPI DUP1 PUSH1 0x1F LT PUSH2 0x3060 JUMPI PUSH2 0x100 DUP1 DUP4 SLOAD DIV MUL DUP4 MSTORE SWAP2 PUSH1 0x20 ADD SWAP2 PUSH2 0x308B JUMP JUMPDEST DUP3 ADD SWAP2 SWAP1 PUSH1 0x0 MSTORE PUSH1 0x20 PUSH1 0x0 KECCAK256 SWAP1 JUMPDEST DUP2 SLOAD DUP2 MSTORE SWAP1 PUSH1 0x1 ADD SWAP1 PUSH1 0x20 ADD DUP1 DUP4 GT PUSH2 0x306E JUMPI DUP3 SWAP1 SUB PUSH1 0x1F AND DUP3 ADD SWAP2 JUMPDEST POP POP POP POP POP SWAP1 POP DUP3 JUMP JUMPDEST PUSH1 0x0 DUP1 DUP7 DUP2 MSTORE PUSH1 0x20 ADD SWAP1 DUP2 MSTORE PUSH1 0x20 ADD PUSH1 0x0 KECCAK256 PUSH1 0x6 ADD PUSH1 0x0 SWAP1 SLOAD SWAP1 PUSH2 0x100 EXP SWAP1 DIV PUSH1 0xFF AND PUSH2 0x30F7 JUMPI PUSH1 0x40 MLOAD PUSH32 0x8C379A000000000000000000000000000000000000000000000000000000000 DUP2 MSTORE PUSH1 0x4 ADD PUSH2 0x30EE SWAP1 PUSH2 0x4CC2 JUMP JUMPDEST PUSH1 0x40 MLOAD DUP1 SWAP2 SUB SWAP1 REVERT JUMPDEST PUSH1 0x0 PUSH1 0x6 PUSH1 0x0 DUP8 DUP2 MSTORE PUSH1 0x20 ADD SWAP1 DUP2 MSTORE PUSH1 0x20 ADD PUSH1 0x0 KECCAK256 SWAP1 POP PUSH1 0x0 DUP1 JUMPDEST DUP3 DUP1 SLOAD SWAP1 POP DUP2 LT ISZERO PUSH2 0x3251 JUMPI DUP7 DUP4 DUP3 DUP2 SLOAD DUP2 LT PUSH2 0x3132 JUMPI PUSH2 0x3131 PUSH2 0x4E61 JUMP JUMPDEST JUMPDEST SWAP1 PUSH1 0x0 MSTORE PUSH1 0x20 PUSH1 0x0 KECCAK256 SWAP1 PUSH1 0x9 MUL ADD PUSH1 0x0 ADD SLOAD EQ ISZERO PUSH2 0x323E JUMPI CALLER PUSH20 0xFFFFFFFFFFFFFFFFFFFFFFFFFFFFFFFFFFFFFFFF AND DUP4 DUP3 DUP2 SLOAD DUP2 LT PUSH2 0x3174 JUMPI PUSH2 0x3173 PUSH2 0x4E61 JUMP JUMPDEST JUMPDEST SWAP1 PUSH1 0x0 MSTORE PUSH1 0x20 PUSH1 0x0 KECCAK256 SWAP1 PUSH1 0x9 MUL ADD PUSH1 0x8 ADD PUSH1 0x0 SWAP1 SLOAD SWAP1 PUSH2 0x100 EXP SWAP1 DIV PUSH20 0xFFFFFFFFFFFFFFFFFFFFFFFFFFFFFFFFFFFFFFFF AND PUSH20 0xFFFFFFFFFFFFFFFFFFFFFFFFFFFFFFFFFFFFFFFF AND EQ PUSH2 0x31FC JUMPI PUSH1 0x40 MLOAD PUSH32 0x8C379A000000000000000000000000000000000000000000000000000000000 DUP2 MSTORE PUSH1 0x4 ADD PUSH2 0x31F3 SWAP1 PUSH2 0x52C3 JUMP JUMPDEST PUSH1 0x40 MLOAD DUP1 SWAP2 SUB SWAP1 REVERT JUMPDEST DUP6 DUP4 DUP3 DUP2 SLOAD DUP2 LT PUSH2 0x3210 JUMPI PUSH2 0x320F PUSH2 0x4E61 JUMP JUMPDEST JUMPDEST SWAP1 PUSH1 0x0 MSTORE PUSH1 0x20 PUSH1 0x0 KECCAK256 SWAP1 PUSH1 0x9 MUL ADD PUSH1 0x3 ADD SWAP1 DUP1 MLOAD SWAP1 PUSH1 0x20 ADD SWAP1 PUSH2 0x3234 SWAP3 SWAP2 SWAP1 PUSH2 0x3364 JUMP JUMPDEST POP PUSH1 0x1 SWAP2 POP PUSH2 0x3251 JUMP JUMPDEST DUP1 DUP1 PUSH2 0x3249 SWAP1 PUSH2 0x4E90 JUMP JUMPDEST SWAP2 POP POP PUSH2 0x3112 JUMP JUMPDEST POP DUP1 PUSH2 0x3292 JUMPI PUSH1 0x40 MLOAD PUSH32 0x8C379A000000000000000000000000000000000000000000000000000000000 DUP2 MSTORE PUSH1 0x4 ADD PUSH2 0x3289 SWAP1 PUSH2 0x4FB7 JUMP JUMPDEST PUSH1 0x40 MLOAD DUP1 SWAP2 SUB SWAP1 REVERT JUMPDEST PUSH1 0x0 PUSH1 0x40 MLOAD DUP1 PUSH1 0x60 ADD PUSH1 0x40 MSTORE DUP1 TIMESTAMP DUP2 MSTORE PUSH1 0x20 ADD DUP7 DUP2 MSTORE PUSH1 0x20 ADD DUP6 DUP2 MSTORE POP SWAP1 POP PUSH1 0x8 PUSH1 0x0 DUP10 DUP2 MSTORE PUSH1 0x20 ADD SWAP1 DUP2 MSTORE PUSH1 0x20 ADD PUSH1 0x0 KECCAK256 PUSH1 0x0 DUP9 DUP2 MSTORE PUSH1 0x20 ADD SWAP1 DUP2 MSTORE PUSH1 0x20 ADD PUSH1 0x0 KECCAK256 DUP2 SWAP1 DUP1 PUSH1 0x1 DUP2 SLOAD ADD DUP1 DUP3 SSTORE DUP1 SWAP2 POP POP PUSH1 0x1 SWAP1 SUB SWAP1 PUSH1 0x0 MSTORE PUSH1 0x20 PUSH1 0x0 KECCAK256 SWAP1 PUSH1 0x3 MUL ADD PUSH1 0x0 SWAP1 SWAP2 SWAP1 SWAP2 SWAP1 SWAP2 POP PUSH1 0x0 DUP3 ADD MLOAD DUP2 PUSH1 0x0 ADD SSTORE PUSH1 0x20 DUP3 ADD MLOAD DUP2 PUSH1 0x1 ADD SSTORE PUSH1 0x40 DUP3 ADD MLOAD DUP2 PUSH1 0x2 ADD SSTORE POP POP PUSH32 0x9A3AC4055977313F7AEFFB317B75EFF6617935BAA51BCEDA77C4652B1CD96ACA DUP8 DUP7 DUP7 PUSH1 0x40 MLOAD PUSH2 0x3352 SWAP4 SWAP3 SWAP2 SWAP1 PUSH2 0x455C JUMP JUMPDEST PUSH1 0x40 MLOAD DUP1 SWAP2 SUB SWAP1 LOG1 POP POP POP POP POP POP POP POP JUMP JUMPDEST DUP3 DUP1 SLOAD PUSH2 0x3370 SWAP1 PUSH2 0x4DCC JUMP JUMPDEST SWAP1 PUSH1 0x0 MSTORE PUSH1 0x20 PUSH1 0x0 KECCAK256 SWAP1 PUSH1 0x1F ADD PUSH1 0x20 SWAP1 DIV DUP2 ADD SWAP3 DUP3 PUSH2 0x3392 JUMPI PUSH1 0x0 DUP6 SSTORE PUSH2 0x33D9 JUMP JUMPDEST DUP3 PUSH1 0x1F LT PUSH2 0x33AB JUMPI DUP1 MLOAD PUSH1 0xFF NOT AND DUP4 DUP1 ADD OR DUP6 SSTORE PUSH2 0x33D9 JUMP JUMPDEST DUP3 DUP1 ADD PUSH1 0x1 ADD DUP6 SSTORE DUP3 ISZERO PUSH2 0x33D9 JUMPI SWAP2 DUP3 ADD JUMPDEST DUP3 DUP2 GT ISZERO PUSH2 0x33D8 JUMPI DUP3 MLOAD DUP3 SSTORE SWAP2 PUSH1 0x20 ADD SWAP2 SWAP1 PUSH1 0x1 ADD SWAP1 PUSH2 0x33BD JUMP JUMPDEST JUMPDEST POP SWAP1 POP PUSH2 0x33E6 SWAP2 SWAP1 PUSH2 0x35A6 JUMP JUMPDEST POP SWAP1 JUMP JUMPDEST PUSH1 0x40 MLOAD DUP1 PUSH1 0x60 ADD PUSH1 0x40 MSTORE DUP1 PUSH1 0x0 DUP2 MSTORE PUSH1 0x20 ADD PUSH1 0x60 DUP2 MSTORE PUSH1 0x20 ADD PUSH1 0x60 DUP2 MSTORE POP SWAP1 JUMP JUMPDEST PUSH1 0x40 MLOAD DUP1 PUSH2 0x100 ADD PUSH1 0x40 MSTORE DUP1 PUSH1 0x0 DUP2 MSTORE PUSH1 0x20 ADD PUSH1 0x60 DUP2 MSTORE PUSH1 0x20 ADD PUSH1 0x0 DUP2 MSTORE PUSH1 0x20 ADD PUSH1 0x60 DUP2 MSTORE PUSH1 0x20 ADD PUSH1 0x0 DUP2 MSTORE PUSH1 0x20 ADD PUSH2 0x3442 PUSH2 0x35C3 JUMP JUMPDEST DUP2 MSTORE PUSH1 0x20 ADD PUSH1 0x0 DUP2 MSTORE PUSH1 0x20 ADD PUSH1 0x0 PUSH20 0xFFFFFFFFFFFFFFFFFFFFFFFFFFFFFFFFFFFFFFFF AND DUP2 MSTORE POP SWAP1 JUMP JUMPDEST PUSH1 0x40 MLOAD DUP1 PUSH1 0x40 ADD PUSH1 0x40 MSTORE DUP1 PUSH1 0x60 DUP2 MSTORE PUSH1 0x20 ADD PUSH1 0x60 DUP2 MSTORE POP SWAP1 JUMP JUMPDEST DUP3 DUP1 SLOAD DUP3 DUP3 SSTORE SWAP1 PUSH1 0x0 MSTORE PUSH1 0x20 PUSH1 0x0 KECCAK256 SWAP1 DUP2 ADD SWAP3 DUP3 ISZERO PUSH2 0x34D5 JUMPI SWAP2 PUSH1 0x20 MUL DUP3 ADD JUMPDEST DUP3 DUP2 GT ISZERO PUSH2 0x34D4 JUMPI DUP3 MLOAD DUP3 SWAP1 DUP1 MLOAD SWAP1 PUSH1 0x20 ADD SWAP1 PUSH2 0x34C4 SWAP3 SWAP2 SWAP1 PUSH2 0x3364 JUMP JUMPDEST POP SWAP2 PUSH1 0x20 ADD SWAP2 SWAP1 PUSH1 0x1 ADD SWAP1 PUSH2 0x34A6 JUMP JUMPDEST JUMPDEST POP SWAP1 POP PUSH2 0x34E2 SWAP2 SWAP1 PUSH2 0x35DD JUMP JUMPDEST POP SWAP1 JUMP JUMPDEST PUSH1 0x40 MLOAD DUP1 PUSH1 0xE0 ADD PUSH1 0x40 MSTORE DUP1 PUSH1 0x0 DUP2 MSTORE PUSH1 0x20 ADD PUSH1 0x60 DUP2 MSTORE PUSH1 0x20 ADD PUSH1 0x60 DUP2 MSTORE PUSH1 0x20 ADD PUSH1 0x60 DUP2 MSTORE PUSH1 0x20 ADD PUSH1 0x0 PUSH20 0xFFFFFFFFFFFFFFFFFFFFFFFFFFFFFFFFFFFFFFFF AND DUP2 MSTORE PUSH1 0x20 ADD PUSH1 0x0 DUP2 MSTORE PUSH1 0x20 ADD PUSH1 0x0 ISZERO ISZERO DUP2 MSTORE POP SWAP1 JUMP JUMPDEST PUSH1 0x40 MLOAD DUP1 PUSH1 0xA0 ADD PUSH1 0x40 MSTORE DUP1 PUSH1 0x60 DUP2 MSTORE PUSH1 0x20 ADD PUSH1 0x60 DUP2 MSTORE PUSH1 0x20 ADD PUSH1 0x0 DUP2 MSTORE PUSH1 0x20 ADD PUSH1 0x0 DUP2 MSTORE PUSH1 0x20 ADD PUSH1 0x60 DUP2 MSTORE POP SWAP1 JUMP JUMPDEST PUSH1 0x40 MLOAD DUP1 PUSH1 0xC0 ADD PUSH1 0x40 MSTORE DUP1 PUSH1 0x0 DUP2 MSTORE PUSH1 0x20 ADD PUSH1 0x0 DUP2 MSTORE PUSH1 0x20 ADD PUSH1 0x60 DUP2 MSTORE PUSH1 0x20 ADD PUSH1 0x0 DUP2 MSTORE PUSH1 0x20 ADD PUSH2 0x3599 PUSH2 0x3601 JUMP JUMPDEST DUP2 MSTORE PUSH1 0x20 ADD PUSH1 0x0 DUP2 MSTORE POP SWAP1 JUMP JUMPDEST JUMPDEST DUP1 DUP3 GT ISZERO PUSH2 0x35BF JUMPI PUSH1 0x0 DUP2 PUSH1 0x0 SWAP1 SSTORE POP PUSH1 0x1 ADD PUSH2 0x35A7 JUMP JUMPDEST POP SWAP1 JUMP JUMPDEST PUSH1 0x40 MLOAD DUP1 PUSH1 0x40 ADD PUSH1 0x40 MSTORE DUP1 PUSH1 0x0 DUP2 MSTORE PUSH1 0x20 ADD PUSH1 0x0 DUP2 MSTORE POP SWAP1 JUMP JUMPDEST JUMPDEST DUP1 DUP3 GT ISZERO PUSH2 0x35FD JUMPI PUSH1 0x0 DUP2 DUP2 PUSH2 0x35F4 SWAP2 SWAP1 PUSH2 0x3622 JUMP JUMPDEST POP PUSH1 0x1 ADD PUSH2 0x35DE JUMP JUMPDEST POP SWAP1 JUMP JUMPDEST PUSH1 0x40 MLOAD DUP1 PUSH1 0x60 ADD PUSH1 0x40 MSTORE DUP1 PUSH1 0x60 DUP2 MSTORE PUSH1 0x20 ADD PUSH1 0x60 DUP2 MSTORE PUSH1 0x20 ADD PUSH1 0x60 DUP2 MSTORE POP SWAP1 JUMP JUMPDEST POP DUP1 SLOAD PUSH2 0x362E SWAP1 PUSH2 0x4DCC JUMP JUMPDEST PUSH1 0x0 DUP3 SSTORE DUP1 PUSH1 0x1F LT PUSH2 0x3640 JUMPI POP PUSH2 0x365F JUMP JUMPDEST PUSH1 0x1F ADD PUSH1 0x20 SWAP1 DIV SWAP1 PUSH1 0x0 MSTORE PUSH1 0x20 PUSH1 0x0 KECCAK256 SWAP1 DUP2 ADD SWAP1 PUSH2 0x365E SWAP2 SWAP1 PUSH2 0x35A6 JUMP JUMPDEST JUMPDEST POP JUMP JUMPDEST PUSH1 0x0 PUSH1 0x40 MLOAD SWAP1 POP SWAP1 JUMP JUMPDEST PUSH1 0x0 DUP1 REVERT JUMPDEST PUSH1 0x0 DUP1 REVERT JUMPDEST PUSH1 0x0 DUP2 SWAP1 POP SWAP2 SWAP1 POP JUMP JUMPDEST PUSH2 0x3689 DUP2 PUSH2 0x3676 JUMP JUMPDEST DUP2 EQ PUSH2 0x3694 JUMPI PUSH1 0x0 DUP1 REVERT JUMPDEST POP JUMP JUMPDEST PUSH1 0x0 DUP2 CALLDATALOAD SWAP1 POP PUSH2 0x36A6 DUP2 PUSH2 0x3680 JUMP JUMPDEST SWAP3 SWAP2 POP POP JUMP JUMPDEST PUSH1 0x0 DUP1 REVERT JUMPDEST PUSH1 0x0 DUP1 REVERT JUMPDEST PUSH1 0x0 PUSH1 0x1F NOT PUSH1 0x1F DUP4 ADD AND SWAP1 POP SWAP2 SWAP1 POP JUMP JUMPDEST PUSH32 0x4E487B7100000000000000000000000000000000000000000000000000000000 PUSH1 0x0 MSTORE PUSH1 0x41 PUSH1 0x4 MSTORE PUSH1 0x24 PUSH1 0x0 REVERT JUMPDEST PUSH2 0x36FF DUP3 PUSH2 0x36B6 JUMP JUMPDEST DUP2 ADD DUP2 DUP2 LT PUSH8 0xFFFFFFFFFFFFFFFF DUP3 GT OR ISZERO PUSH2 0x371E JUMPI PUSH2 0x371D PUSH2 0x36C7 JUMP JUMPDEST JUMPDEST DUP1 PUSH1 0x40 MSTORE POP POP POP JUMP JUMPDEST PUSH1 0x0 PUSH2 0x3731 PUSH2 0x3662 JUMP JUMPDEST SWAP1 POP PUSH2 0x373D DUP3 DUP3 PUSH2 0x36F6 JUMP JUMPDEST SWAP2 SWAP1 POP JUMP JUMPDEST PUSH1 0x0 PUSH8 0xFFFFFFFFFFFFFFFF DUP3 GT ISZERO PUSH2 0x375D JUMPI PUSH2 0x375C PUSH2 0x36C7 JUMP JUMPDEST JUMPDEST PUSH2 0x3766 DUP3 PUSH2 0x36B6 JUMP JUMPDEST SWAP1 POP PUSH1 0x20 DUP2 ADD SWAP1 POP SWAP2 SWAP1 POP JUMP JUMPDEST DUP3 DUP2 DUP4 CALLDATACOPY PUSH1 0x0 DUP4 DUP4 ADD MSTORE POP POP POP JUMP JUMPDEST PUSH1 0x0 PUSH2 0x3795 PUSH2 0x3790 DUP5 PUSH2 0x3742 JUMP JUMPDEST PUSH2 0x3727 JUMP JUMPDEST SWAP1 POP DUP3 DUP2 MSTORE PUSH1 0x20 DUP2 ADD DUP5 DUP5 DUP5 ADD GT ISZERO PUSH2 0x37B1 JUMPI PUSH2 0x37B0 PUSH2 0x36B1 JUMP JUMPDEST JUMPDEST PUSH2 0x37BC DUP5 DUP3 DUP6 PUSH2 0x3773 JUMP JUMPDEST POP SWAP4 SWAP3 POP POP POP JUMP JUMPDEST PUSH1 0x0 DUP3 PUSH1 0x1F DUP4 ADD SLT PUSH2 0x37D9 JUMPI PUSH2 0x37D8 PUSH2 0x36AC JUMP JUMPDEST JUMPDEST DUP2 CALLDATALOAD PUSH2 0x37E9 DUP5 DUP3 PUSH1 0x20 DUP7 ADD PUSH2 0x3782 JUMP JUMPDEST SWAP2 POP POP SWAP3 SWAP2 POP POP JUMP JUMPDEST PUSH1 0x0 DUP1 PUSH1 0x0 DUP1 PUSH1 0x0 DUP1 PUSH1 0xC0 DUP8 DUP10 SUB SLT ISZERO PUSH2 0x380F JUMPI PUSH2 0x380E PUSH2 0x366C JUMP JUMPDEST JUMPDEST PUSH1 0x0 PUSH2 0x381D DUP10 DUP3 DUP11 ADD PUSH2 0x3697 JUMP JUMPDEST SWAP7 POP POP PUSH1 0x20 PUSH2 0x382E DUP10 DUP3 DUP11 ADD PUSH2 0x3697 JUMP JUMPDEST SWAP6 POP POP PUSH1 0x40 DUP8 ADD CALLDATALOAD PUSH8 0xFFFFFFFFFFFFFFFF DUP2 GT ISZERO PUSH2 0x384F JUMPI PUSH2 0x384E PUSH2 0x3671 JUMP JUMPDEST JUMPDEST PUSH2 0x385B DUP10 DUP3 DUP11 ADD PUSH2 0x37C4 JUMP JUMPDEST SWAP5 POP POP PUSH1 0x60 DUP8 ADD CALLDATALOAD PUSH8 0xFFFFFFFFFFFFFFFF DUP2 GT ISZERO PUSH2 0x387C JUMPI PUSH2 0x387B PUSH2 0x3671 JUMP JUMPDEST JUMPDEST PUSH2 0x3888 DUP10 DUP3 DUP11 ADD PUSH2 0x37C4 JUMP JUMPDEST SWAP4 POP POP PUSH1 0x80 DUP8 ADD CALLDATALOAD PUSH8 0xFFFFFFFFFFFFFFFF DUP2 GT ISZERO PUSH2 0x38A9 JUMPI PUSH2 0x38A8 PUSH2 0x3671 JUMP JUMPDEST JUMPDEST PUSH2 0x38B5 DUP10 DUP3 DUP11 ADD PUSH2 0x37C4 JUMP JUMPDEST SWAP3 POP POP PUSH1 0xA0 DUP8 ADD CALLDATALOAD PUSH8 0xFFFFFFFFFFFFFFFF DUP2 GT ISZERO PUSH2 0x38D6 JUMPI PUSH2 0x38D5 PUSH2 0x3671 JUMP JUMPDEST JUMPDEST PUSH2 0x38E2 DUP10 DUP3 DUP11 ADD PUSH2 0x37C4 JUMP JUMPDEST SWAP2 POP POP SWAP3 SWAP6 POP SWAP3 SWAP6 POP SWAP3 SWAP6 JUMP JUMPDEST PUSH1 0x0 PUSH1 0x20 DUP3 DUP5 SUB SLT ISZERO PUSH2 0x3905 JUMPI PUSH2 0x3904 PUSH2 0x366C JUMP JUMPDEST JUMPDEST PUSH1 0x0 PUSH2 0x3913 DUP5 DUP3 DUP6 ADD PUSH2 0x3697 JUMP JUMPDEST SWAP2 POP POP SWAP3 SWAP2 POP POP JUMP JUMPDEST PUSH1 0x0 DUP2 MLOAD SWAP1 POP SWAP2 SWAP1 POP JUMP JUMPDEST PUSH1 0x0 DUP3 DUP3 MSTORE PUSH1 0x20 DUP3 ADD SWAP1 POP SWAP3 SWAP2 POP POP JUMP JUMPDEST PUSH1 0x0 DUP2 SWAP1 POP PUSH1 0x20 DUP3 ADD SWAP1 POP SWAP2 SWAP1 POP JUMP JUMPDEST PUSH2 0x3951 DUP2 PUSH2 0x3676 JUMP JUMPDEST DUP3 MSTORE POP POP JUMP JUMPDEST PUSH1 0x0 DUP2 MLOAD SWAP1 POP SWAP2 SWAP1 POP JUMP JUMPDEST PUSH1 0x0 DUP3 DUP3 MSTORE PUSH1 0x20 DUP3 ADD SWAP1 POP SWAP3 SWAP2 POP POP JUMP JUMPDEST PUSH1 0x0 JUMPDEST DUP4 DUP2 LT ISZERO PUSH2 0x3991 JUMPI DUP1 DUP3 ADD MLOAD DUP2 DUP5 ADD MSTORE PUSH1 0x20 DUP2 ADD SWAP1 POP PUSH2 0x3976 JUMP JUMPDEST DUP4 DUP2 GT ISZERO PUSH2 0x39A0 JUMPI PUSH1 0x0 DUP5 DUP5 ADD MSTORE JUMPDEST POP POP POP POP JUMP JUMPDEST PUSH1 0x0 PUSH2 0x39B1 DUP3 PUSH2 0x3957 JUMP JUMPDEST PUSH2 0x39BB DUP2 DUP6 PUSH2 0x3962 JUMP JUMPDEST SWAP4 POP PUSH2 0x39CB DUP2 DUP6 PUSH1 0x20 DUP7 ADD PUSH2 0x3973 JUMP JUMPDEST PUSH2 0x39D4 DUP2 PUSH2 0x36B6 JUMP JUMPDEST DUP5 ADD SWAP2 POP POP SWAP3 SWAP2 POP POP JUMP JUMPDEST PUSH1 0x0 PUSH1 0x60 DUP4 ADD PUSH1 0x0 DUP4 ADD MLOAD PUSH2 0x39F7 PUSH1 0x0 DUP7 ADD DUP3 PUSH2 0x3948 JUMP JUMPDEST POP PUSH1 0x20 DUP4 ADD MLOAD DUP5 DUP3 SUB PUSH1 0x20 DUP7 ADD MSTORE PUSH2 0x3A0F DUP3 DUP3 PUSH2 0x39A6 JUMP JUMPDEST SWAP2 POP POP PUSH1 0x40 DUP4 ADD MLOAD DUP5 DUP3 SUB PUSH1 0x40 DUP7 ADD MSTORE PUSH2 0x3A29 DUP3 DUP3 PUSH2 0x39A6 JUMP JUMPDEST SWAP2 POP POP DUP1 SWAP2 POP POP SWAP3 SWAP2 POP POP JUMP JUMPDEST PUSH1 0x0 PUSH2 0x3A42 DUP4 DUP4 PUSH2 0x39DF JUMP JUMPDEST SWAP1 POP SWAP3 SWAP2 POP POP JUMP JUMPDEST PUSH1 0x0 PUSH1 0x20 DUP3 ADD SWAP1 POP SWAP2 SWAP1 POP JUMP JUMPDEST PUSH1 0x0 PUSH2 0x3A62 DUP3 PUSH2 0x391C JUMP JUMPDEST PUSH2 0x3A6C DUP2 DUP6 PUSH2 0x3927 JUMP JUMPDEST SWAP4 POP DUP4 PUSH1 0x20 DUP3 MUL DUP6 ADD PUSH2 0x3A7E DUP6 PUSH2 0x3938 JUMP JUMPDEST DUP1 PUSH1 0x0 JUMPDEST DUP6 DUP2 LT ISZERO PUSH2 0x3ABA JUMPI DUP5 DUP5 SUB DUP10 MSTORE DUP2 MLOAD PUSH2 0x3A9B DUP6 DUP3 PUSH2 0x3A36 JUMP JUMPDEST SWAP5 POP PUSH2 0x3AA6 DUP4 PUSH2 0x3A4A JUMP JUMPDEST SWAP3 POP PUSH1 0x20 DUP11 ADD SWAP10 POP POP PUSH1 0x1 DUP2 ADD SWAP1 POP PUSH2 0x3A82 JUMP JUMPDEST POP DUP3 SWAP8 POP DUP8 SWAP6 POP POP POP POP POP POP SWAP3 SWAP2 POP POP JUMP JUMPDEST PUSH1 0x0 DUP2 MLOAD SWAP1 POP SWAP2 SWAP1 POP JUMP JUMPDEST PUSH1 0x0 DUP3 DUP3 MSTORE PUSH1 0x20 DUP3 ADD SWAP1 POP SWAP3 SWAP2 POP POP JUMP JUMPDEST PUSH1 0x0 DUP2 SWAP1 POP PUSH1 0x20 DUP3 ADD SWAP1 POP SWAP2 SWAP1 POP JUMP JUMPDEST PUSH1 0x0 DUP2 MLOAD SWAP1 POP SWAP2 SWAP1 POP JUMP JUMPDEST PUSH1 0x0 DUP3 DUP3 MSTORE PUSH1 0x20 DUP3 ADD SWAP1 POP SWAP3 SWAP2 POP POP JUMP JUMPDEST PUSH1 0x0 DUP2 SWAP1 POP PUSH1 0x20 DUP3 ADD SWAP1 POP SWAP2 SWAP1 POP JUMP JUMPDEST PUSH1 0x0 PUSH2 0x3B30 DUP4 DUP4 PUSH2 0x39A6 JUMP JUMPDEST SWAP1 POP SWAP3 SWAP2 POP POP JUMP JUMPDEST PUSH1 0x0 PUSH1 0x20 DUP3 ADD SWAP1 POP SWAP2 SWAP1 POP JUMP JUMPDEST PUSH1 0x0 PUSH2 0x3B50 DUP3 PUSH2 0x3AF8 JUMP JUMPDEST PUSH2 0x3B5A DUP2 DUP6 PUSH2 0x3B03 JUMP JUMPDEST SWAP4 POP DUP4 PUSH1 0x20 DUP3 MUL DUP6 ADD PUSH2 0x3B6C DUP6 PUSH2 0x3B14 JUMP JUMPDEST DUP1 PUSH1 0x0 JUMPDEST DUP6 DUP2 LT ISZERO PUSH2 0x3BA8 JUMPI DUP5 DUP5 SUB DUP10 MSTORE DUP2 MLOAD PUSH2 0x3B89 DUP6 DUP3 PUSH2 0x3B24 JUMP JUMPDEST SWAP5 POP PUSH2 0x3B94 DUP4 PUSH2 0x3B38 JUMP JUMPDEST SWAP3 POP PUSH1 0x20 DUP11 ADD SWAP10 POP POP PUSH1 0x1 DUP2 ADD SWAP1 POP PUSH2 0x3B70 JUMP JUMPDEST POP DUP3 SWAP8 POP DUP8 SWAP6 POP POP POP POP POP POP SWAP3 SWAP2 POP POP JUMP JUMPDEST PUSH1 0x0 PUSH2 0x3BC6 DUP4 DUP4 PUSH2 0x3B45 JUMP JUMPDEST SWAP1 POP SWAP3 SWAP2 POP POP JUMP JUMPDEST PUSH1 0x0 PUSH1 0x20 DUP3 ADD SWAP1 POP SWAP2 SWAP1 POP JUMP JUMPDEST PUSH1 0x0 PUSH2 0x3BE6 DUP3 PUSH2 0x3ACC JUMP JUMPDEST PUSH2 0x3BF0 DUP2 DUP6 PUSH2 0x3AD7 JUMP JUMPDEST SWAP4 POP DUP4 PUSH1 0x20 DUP3 MUL DUP6 ADD PUSH2 0x3C02 DUP6 PUSH2 0x3AE8 JUMP JUMPDEST DUP1 PUSH1 0x0 JUMPDEST DUP6 DUP2 LT ISZERO PUSH2 0x3C3E JUMPI DUP5 DUP5 SUB DUP10 MSTORE DUP2 MLOAD PUSH2 0x3C1F DUP6 DUP3 PUSH2 0x3BBA JUMP JUMPDEST SWAP5 POP PUSH2 0x3C2A DUP4 PUSH2 0x3BCE JUMP JUMPDEST SWAP3 POP PUSH1 0x20 DUP11 ADD SWAP10 POP POP PUSH1 0x1 DUP2 ADD SWAP1 POP PUSH2 0x3C06 JUMP JUMPDEST POP DUP3 SWAP8 POP DUP8 SWAP6 POP POP POP POP POP POP SWAP3 SWAP2 POP POP JUMP JUMPDEST PUSH1 0x0 PUSH1 0x40 DUP3 ADD SWAP1 POP DUP2 DUP2 SUB PUSH1 0x0 DUP4 ADD MSTORE PUSH2 0x3C6A DUP2 DUP6 PUSH2 0x3A57 JUMP JUMPDEST SWAP1 POP DUP2 DUP2 SUB PUSH1 0x20 DUP4 ADD MSTORE PUSH2 0x3C7E DUP2 DUP5 PUSH2 0x3BDB JUMP JUMPDEST SWAP1 POP SWAP4 SWAP3 POP POP POP JUMP JUMPDEST PUSH1 0x0 DUP1 PUSH1 0x0 PUSH1 0x60 DUP5 DUP7 SUB SLT ISZERO PUSH2 0x3CA0 JUMPI PUSH2 0x3C9F PUSH2 0x366C JUMP JUMPDEST JUMPDEST PUSH1 0x0 PUSH2 0x3CAE DUP7 DUP3 DUP8 ADD PUSH2 0x3697 JUMP JUMPDEST SWAP4 POP POP PUSH1 0x20 PUSH2 0x3CBF DUP7 DUP3 DUP8 ADD PUSH2 0x3697 JUMP JUMPDEST SWAP3 POP POP PUSH1 0x40 PUSH2 0x3CD0 DUP7 DUP3 DUP8 ADD PUSH2 0x3697 JUMP JUMPDEST SWAP2 POP POP SWAP3 POP SWAP3 POP SWAP3 JUMP JUMPDEST PUSH1 0x0 DUP3 DUP3 MSTORE PUSH1 0x20 DUP3 ADD SWAP1 POP SWAP3 SWAP2 POP POP JUMP JUMPDEST PUSH1 0x0 PUSH2 0x3CF6 DUP3 PUSH2 0x3957 JUMP JUMPDEST PUSH2 0x3D00 DUP2 DUP6 PUSH2 0x3CDA JUMP JUMPDEST SWAP4 POP PUSH2 0x3D10 DUP2 DUP6 PUSH1 0x20 DUP7 ADD PUSH2 0x3973 JUMP JUMPDEST PUSH2 0x3D19 DUP2 PUSH2 0x36B6 JUMP JUMPDEST DUP5 ADD SWAP2 POP POP SWAP3 SWAP2 POP POP JUMP JUMPDEST PUSH1 0x0 PUSH1 0x20 DUP3 ADD SWAP1 POP DUP2 DUP2 SUB PUSH1 0x0 DUP4 ADD MSTORE PUSH2 0x3D3E DUP2 DUP5 PUSH2 0x3CEB JUMP JUMPDEST SWAP1 POP SWAP3 SWAP2 POP POP JUMP JUMPDEST PUSH1 0x0 DUP1 PUSH1 0x40 DUP4 DUP6 SUB SLT ISZERO PUSH2 0x3D5D JUMPI PUSH2 0x3D5C PUSH2 0x366C JUMP JUMPDEST JUMPDEST PUSH1 0x0 PUSH2 0x3D6B DUP6 DUP3 DUP7 ADD PUSH2 0x3697 JUMP JUMPDEST SWAP3 POP POP PUSH1 0x20 PUSH2 0x3D7C DUP6 DUP3 DUP7 ADD PUSH2 0x3697 JUMP JUMPDEST SWAP2 POP POP SWAP3 POP SWAP3 SWAP1 POP JUMP JUMPDEST PUSH2 0x3D8F DUP2 PUSH2 0x3676 JUMP JUMPDEST DUP3 MSTORE POP POP JUMP JUMPDEST PUSH1 0x40 DUP3 ADD PUSH1 0x0 DUP3 ADD MLOAD PUSH2 0x3DAB PUSH1 0x0 DUP6 ADD DUP3 PUSH2 0x3948 JUMP JUMPDEST POP PUSH1 0x20 DUP3 ADD MLOAD PUSH2 0x3DBE PUSH1 0x20 DUP6 ADD DUP3 PUSH2 0x3948 JUMP JUMPDEST POP POP POP POP JUMP JUMPDEST PUSH1 0x0 PUSH20 0xFFFFFFFFFFFFFFFFFFFFFFFFFFFFFFFFFFFFFFFF DUP3 AND SWAP1 POP SWAP2 SWAP1 POP JUMP JUMPDEST PUSH1 0x0 PUSH2 0x3DEF DUP3 PUSH2 0x3DC4 JUMP JUMPDEST SWAP1 POP SWAP2 SWAP1 POP JUMP JUMPDEST PUSH2 0x3DFF DUP2 PUSH2 0x3DE4 JUMP JUMPDEST DUP3 MSTORE POP POP JUMP JUMPDEST PUSH1 0x0 PUSH2 0x120 DUP3 ADD SWAP1 POP PUSH2 0x3E1B PUSH1 0x0 DUP4 ADD DUP12 PUSH2 0x3D86 JUMP JUMPDEST DUP2 DUP2 SUB PUSH1 0x20 DUP4 ADD MSTORE PUSH2 0x3E2D DUP2 DUP11 PUSH2 0x3CEB JUMP JUMPDEST SWAP1 POP PUSH2 0x3E3C PUSH1 0x40 DUP4 ADD DUP10 PUSH2 0x3D86 JUMP JUMPDEST DUP2 DUP2 SUB PUSH1 0x60 DUP4 ADD MSTORE PUSH2 0x3E4E DUP2 DUP9 PUSH2 0x3CEB JUMP JUMPDEST SWAP1 POP PUSH2 0x3E5D PUSH1 0x80 DUP4 ADD DUP8 PUSH2 0x3D86 JUMP JUMPDEST PUSH2 0x3E6A PUSH1 0xA0 DUP4 ADD DUP7 PUSH2 0x3D95 JUMP JUMPDEST PUSH2 0x3E77 PUSH1 0xE0 DUP4 ADD DUP6 PUSH2 0x3D86 JUMP JUMPDEST PUSH2 0x3E85 PUSH2 0x100 DUP4 ADD DUP5 PUSH2 0x3DF6 JUMP JUMPDEST SWAP10 SWAP9 POP POP POP POP POP POP POP POP POP JUMP JUMPDEST PUSH1 0x0 PUSH1 0x60 DUP4 ADD PUSH1 0x0 DUP4 ADD MLOAD DUP5 DUP3 SUB PUSH1 0x0 DUP7 ADD MSTORE PUSH2 0x3EAF DUP3 DUP3 PUSH2 0x39A6 JUMP JUMPDEST SWAP2 POP POP PUSH1 0x20 DUP4 ADD MLOAD DUP5 DUP3 SUB PUSH1 0x20 DUP7 ADD MSTORE PUSH2 0x3EC9 DUP3 DUP3 PUSH2 0x39A6 JUMP JUMPDEST SWAP2 POP POP PUSH1 0x40 DUP4 ADD MLOAD DUP5 DUP3 SUB PUSH1 0x40 DUP7 ADD MSTORE PUSH2 0x3EE3 DUP3 DUP3 PUSH2 0x39A6 JUMP JUMPDEST SWAP2 POP POP DUP1 SWAP2 POP POP SWAP3 SWAP2 POP POP JUMP JUMPDEST PUSH1 0x0 PUSH1 0xC0 DUP3 ADD SWAP1 POP PUSH2 0x3F05 PUSH1 0x0 DUP4 ADD DUP10 PUSH2 0x3D86 JUMP JUMPDEST PUSH2 0x3F12 PUSH1 0x20 DUP4 ADD DUP9 PUSH2 0x3D86 JUMP JUMPDEST DUP2 DUP2 SUB PUSH1 0x40 DUP4 ADD MSTORE PUSH2 0x3F24 DUP2 DUP8 PUSH2 0x3CEB JUMP JUMPDEST SWAP1 POP PUSH2 0x3F33 PUSH1 0x60 DUP4 ADD DUP7 PUSH2 0x3D86 JUMP JUMPDEST DUP2 DUP2 SUB PUSH1 0x80 DUP4 ADD MSTORE PUSH2 0x3F45 DUP2 DUP6 PUSH2 0x3E92 JUMP JUMPDEST SWAP1 POP PUSH2 0x3F54 PUSH1 0xA0 DUP4 ADD DUP5 PUSH2 0x3D86 JUMP JUMPDEST SWAP8 SWAP7 POP POP POP POP POP POP POP JUMP JUMPDEST PUSH1 0x0 DUP1 PUSH1 0x0 DUP1 PUSH1 0x80 DUP6 DUP8 SUB SLT ISZERO PUSH2 0x3F79 JUMPI PUSH2 0x3F78 PUSH2 0x366C JUMP JUMPDEST JUMPDEST PUSH1 0x0 PUSH2 0x3F87 DUP8 DUP3 DUP9 ADD PUSH2 0x3697 JUMP JUMPDEST SWAP5 POP POP PUSH1 0x20 PUSH2 0x3F98 DUP8 DUP3 DUP9 ADD PUSH2 0x3697 JUMP JUMPDEST SWAP4 POP POP PUSH1 0x40 DUP6 ADD CALLDATALOAD PUSH8 0xFFFFFFFFFFFFFFFF DUP2 GT ISZERO PUSH2 0x3FB9 JUMPI PUSH2 0x3FB8 PUSH2 0x3671 JUMP JUMPDEST JUMPDEST PUSH2 0x3FC5 DUP8 DUP3 DUP9 ADD PUSH2 0x37C4 JUMP JUMPDEST SWAP3 POP POP PUSH1 0x60 DUP6 ADD CALLDATALOAD PUSH8 0xFFFFFFFFFFFFFFFF DUP2 GT ISZERO PUSH2 0x3FE6 JUMPI PUSH2 0x3FE5 PUSH2 0x3671 JUMP JUMPDEST JUMPDEST PUSH2 0x3FF2 DUP8 DUP3 DUP9 ADD PUSH2 0x37C4 JUMP JUMPDEST SWAP2 POP POP SWAP3 SWAP6 SWAP2 SWAP5 POP SWAP3 POP JUMP JUMPDEST PUSH1 0x0 DUP1 PUSH1 0x40 DUP4 DUP6 SUB SLT ISZERO PUSH2 0x4015 JUMPI PUSH2 0x4014 PUSH2 0x366C JUMP JUMPDEST JUMPDEST PUSH1 0x0 PUSH2 0x4023 DUP6 DUP3 DUP7 ADD PUSH2 0x3697 JUMP JUMPDEST SWAP3 POP POP PUSH1 0x20 DUP4 ADD CALLDATALOAD PUSH8 0xFFFFFFFFFFFFFFFF DUP2 GT ISZERO PUSH2 0x4044 JUMPI PUSH2 0x4043 PUSH2 0x3671 JUMP JUMPDEST JUMPDEST PUSH2 0x4050 DUP6 DUP3 DUP7 ADD PUSH2 0x37C4 JUMP JUMPDEST SWAP2 POP POP SWAP3 POP SWAP3 SWAP1 POP JUMP JUMPDEST PUSH1 0x40 DUP3 ADD PUSH1 0x0 DUP3 ADD MLOAD PUSH2 0x4070 PUSH1 0x0 DUP6 ADD DUP3 PUSH2 0x3948 JUMP JUMPDEST POP PUSH1 0x20 DUP3 ADD MLOAD PUSH2 0x4083 PUSH1 0x20 DUP6 ADD DUP3 PUSH2 0x3948 JUMP JUMPDEST POP POP POP POP JUMP JUMPDEST PUSH2 0x4092 DUP2 PUSH2 0x3DE4 JUMP JUMPDEST DUP3 MSTORE POP POP JUMP JUMPDEST PUSH1 0x0 PUSH2 0x120 DUP4 ADD PUSH1 0x0 DUP4 ADD MLOAD PUSH2 0x40B1 PUSH1 0x0 DUP7 ADD DUP3 PUSH2 0x3948 JUMP JUMPDEST POP PUSH1 0x20 DUP4 ADD MLOAD DUP5 DUP3 SUB PUSH1 0x20 DUP7 ADD MSTORE PUSH2 0x40C9 DUP3 DUP3 PUSH2 0x39A6 JUMP JUMPDEST SWAP2 POP POP PUSH1 0x40 DUP4 ADD MLOAD PUSH2 0x40DE PUSH1 0x40 DUP7 ADD DUP3 PUSH2 0x3948 JUMP JUMPDEST POP PUSH1 0x60 DUP4 ADD MLOAD DUP5 DUP3 SUB PUSH1 0x60 DUP7 ADD MSTORE PUSH2 0x40F6 DUP3 DUP3 PUSH2 0x39A6 JUMP JUMPDEST SWAP2 POP POP PUSH1 0x80 DUP4 ADD MLOAD PUSH2 0x410B PUSH1 0x80 DUP7 ADD DUP3 PUSH2 0x3948 JUMP JUMPDEST POP PUSH1 0xA0 DUP4 ADD MLOAD PUSH2 0x411E PUSH1 0xA0 DUP7 ADD DUP3 PUSH2 0x405A JUMP JUMPDEST POP PUSH1 0xC0 DUP4 ADD MLOAD PUSH2 0x4131 PUSH1 0xE0 DUP7 ADD DUP3 PUSH2 0x3948 JUMP JUMPDEST POP PUSH1 0xE0 DUP4 ADD MLOAD PUSH2 0x4145 PUSH2 0x100 DUP7 ADD DUP3 PUSH2 0x4089 JUMP JUMPDEST POP DUP1 SWAP2 POP POP SWAP3 SWAP2 POP POP JUMP JUMPDEST PUSH1 0x0 DUP2 MLOAD SWAP1 POP SWAP2 SWAP1 POP JUMP JUMPDEST PUSH1 0x0 DUP3 DUP3 MSTORE PUSH1 0x20 DUP3 ADD SWAP1 POP SWAP3 SWAP2 POP POP JUMP JUMPDEST PUSH1 0x0 DUP2 SWAP1 POP PUSH1 0x20 DUP3 ADD SWAP1 POP SWAP2 SWAP1 POP JUMP JUMPDEST PUSH1 0x0 PUSH1 0x40 DUP4 ADD PUSH1 0x0 DUP4 ADD MLOAD DUP5 DUP3 SUB PUSH1 0x0 DUP7 ADD MSTORE PUSH2 0x4199 DUP3 DUP3 PUSH2 0x39A6 JUMP JUMPDEST SWAP2 POP POP PUSH1 0x20 DUP4 ADD MLOAD DUP5 DUP3 SUB PUSH1 0x20 DUP7 ADD MSTORE PUSH2 0x41B3 DUP3 DUP3 PUSH2 0x39A6 JUMP JUMPDEST SWAP2 POP POP DUP1 SWAP2 POP POP SWAP3 SWAP2 POP POP JUMP JUMPDEST PUSH1 0x0 PUSH2 0x41CC DUP4 DUP4 PUSH2 0x417C JUMP JUMPDEST SWAP1 POP SWAP3 SWAP2 POP POP JUMP JUMPDEST PUSH1 0x0 PUSH1 0x20 DUP3 ADD SWAP1 POP SWAP2 SWAP1 POP JUMP JUMPDEST PUSH1 0x0 PUSH2 0x41EC DUP3 PUSH2 0x4150 JUMP JUMPDEST PUSH2 0x41F6 DUP2 DUP6 PUSH2 0x415B JUMP JUMPDEST SWAP4 POP DUP4 PUSH1 0x20 DUP3 MUL DUP6 ADD PUSH2 0x4208 DUP6 PUSH2 0x416C JUMP JUMPDEST DUP1 PUSH1 0x0 JUMPDEST DUP6 DUP2 LT ISZERO PUSH2 0x4244 JUMPI DUP5 DUP5 SUB DUP10 MSTORE DUP2 MLOAD PUSH2 0x4225 DUP6 DUP3 PUSH2 0x41C0 JUMP JUMPDEST SWAP5 POP PUSH2 0x4230 DUP4 PUSH2 0x41D4 JUMP JUMPDEST SWAP3 POP PUSH1 0x20 DUP11 ADD SWAP10 POP POP PUSH1 0x1 DUP2 ADD SWAP1 POP PUSH2 0x420C JUMP JUMPDEST POP DUP3 SWAP8 POP DUP8 SWAP6 POP POP POP POP POP POP SWAP3 SWAP2 POP POP JUMP JUMPDEST PUSH1 0x0 DUP2 MLOAD SWAP1 POP SWAP2 SWAP1 POP JUMP JUMPDEST PUSH1 0x0 DUP3 DUP3 MSTORE PUSH1 0x20 DUP3 ADD SWAP1 POP SWAP3 SWAP2 POP POP JUMP JUMPDEST PUSH1 0x0 DUP2 SWAP1 POP PUSH1 0x20 DUP3 ADD SWAP1 POP SWAP2 SWAP1 POP JUMP JUMPDEST PUSH1 0x0 DUP2 SWAP1 POP SWAP2 SWAP1 POP JUMP JUMPDEST PUSH2 0x4295 DUP2 PUSH2 0x4282 JUMP JUMPDEST DUP3 MSTORE POP POP JUMP JUMPDEST PUSH1 0x60 DUP3 ADD PUSH1 0x0 DUP3 ADD MLOAD PUSH2 0x42B1 PUSH1 0x0 DUP6 ADD DUP3 PUSH2 0x3948 JUMP JUMPDEST POP PUSH1 0x20 DUP3 ADD MLOAD PUSH2 0x42C4 PUSH1 0x20 DUP6 ADD DUP3 PUSH2 0x428C JUMP JUMPDEST POP PUSH1 0x40 DUP3 ADD MLOAD PUSH2 0x42D7 PUSH1 0x40 DUP6 ADD DUP3 PUSH2 0x428C JUMP JUMPDEST POP POP POP POP JUMP JUMPDEST PUSH1 0x0 PUSH2 0x42E9 DUP4 DUP4 PUSH2 0x429B JUMP JUMPDEST PUSH1 0x60 DUP4 ADD SWAP1 POP SWAP3 SWAP2 POP POP JUMP JUMPDEST PUSH1 0x0 PUSH1 0x20 DUP3 ADD SWAP1 POP SWAP2 SWAP1 POP JUMP JUMPDEST PUSH1 0x0 PUSH2 0x430D DUP3 PUSH2 0x4256 JUMP JUMPDEST PUSH2 0x4317 DUP2 DUP6 PUSH2 0x4261 JUMP JUMPDEST SWAP4 POP PUSH2 0x4322 DUP4 PUSH2 0x4272 JUMP JUMPDEST DUP1 PUSH1 0x0 JUMPDEST DUP4 DUP2 LT ISZERO PUSH2 0x4353 JUMPI DUP2 MLOAD PUSH2 0x433A DUP9 DUP3 PUSH2 0x42DD JUMP JUMPDEST SWAP8 POP PUSH2 0x4345 DUP4 PUSH2 0x42F5 JUMP JUMPDEST SWAP3 POP POP PUSH1 0x1 DUP2 ADD SWAP1 POP PUSH2 0x4326 JUMP JUMPDEST POP DUP6 SWAP4 POP POP POP POP SWAP3 SWAP2 POP POP JUMP JUMPDEST PUSH1 0x0 PUSH1 0x60 DUP3 ADD SWAP1 POP DUP2 DUP2 SUB PUSH1 0x0 DUP4 ADD MSTORE PUSH2 0x437A DUP2 DUP7 PUSH2 0x4098 JUMP JUMPDEST SWAP1 POP DUP2 DUP2 SUB PUSH1 0x20 DUP4 ADD MSTORE PUSH2 0x438E DUP2 DUP6 PUSH2 0x41E1 JUMP JUMPDEST SWAP1 POP DUP2 DUP2 SUB PUSH1 0x40 DUP4 ADD MSTORE PUSH2 0x43A2 DUP2 DUP5 PUSH2 0x4302 JUMP JUMPDEST SWAP1 POP SWAP5 SWAP4 POP POP POP POP JUMP JUMPDEST PUSH1 0x0 PUSH8 0xFFFFFFFFFFFFFFFF DUP3 GT ISZERO PUSH2 0x43C7 JUMPI PUSH2 0x43C6 PUSH2 0x36C7 JUMP JUMPDEST JUMPDEST PUSH1 0x20 DUP3 MUL SWAP1 POP PUSH1 0x20 DUP2 ADD SWAP1 POP SWAP2 SWAP1 POP JUMP JUMPDEST PUSH1 0x0 DUP1 REVERT JUMPDEST PUSH1 0x0 PUSH2 0x43F0 PUSH2 0x43EB DUP5 PUSH2 0x43AC JUMP JUMPDEST PUSH2 0x3727 JUMP JUMPDEST SWAP1 POP DUP1 DUP4 DUP3 MSTORE PUSH1 0x20 DUP3 ADD SWAP1 POP PUSH1 0x20 DUP5 MUL DUP4 ADD DUP6 DUP2 GT ISZERO PUSH2 0x4413 JUMPI PUSH2 0x4412 PUSH2 0x43D8 JUMP JUMPDEST JUMPDEST DUP4 JUMPDEST DUP2 DUP2 LT ISZERO PUSH2 0x445A JUMPI DUP1 CALLDATALOAD PUSH8 0xFFFFFFFFFFFFFFFF DUP2 GT ISZERO PUSH2 0x4438 JUMPI PUSH2 0x4437 PUSH2 0x36AC JUMP JUMPDEST JUMPDEST DUP1 DUP7 ADD PUSH2 0x4445 DUP10 DUP3 PUSH2 0x37C4 JUMP JUMPDEST DUP6 MSTORE PUSH1 0x20 DUP6 ADD SWAP5 POP POP POP PUSH1 0x20 DUP2 ADD SWAP1 POP PUSH2 0x4415 JUMP JUMPDEST POP POP POP SWAP4 SWAP3 POP POP POP JUMP JUMPDEST PUSH1 0x0 DUP3 PUSH1 0x1F DUP4 ADD SLT PUSH2 0x4479 JUMPI PUSH2 0x4478 PUSH2 0x36AC JUMP JUMPDEST JUMPDEST DUP2 CALLDATALOAD PUSH2 0x4489 DUP5 DUP3 PUSH1 0x20 DUP7 ADD PUSH2 0x43DD JUMP JUMPDEST SWAP2 POP POP SWAP3 SWAP2 POP POP JUMP JUMPDEST PUSH1 0x0 DUP1 PUSH1 0x0 DUP1 PUSH1 0x80 DUP6 DUP8 SUB SLT ISZERO PUSH2 0x44AC JUMPI PUSH2 0x44AB PUSH2 0x366C JUMP JUMPDEST JUMPDEST PUSH1 0x0 PUSH2 0x44BA DUP8 DUP3 DUP9 ADD PUSH2 0x3697 JUMP JUMPDEST SWAP5 POP POP PUSH1 0x20 DUP6 ADD CALLDATALOAD PUSH8 0xFFFFFFFFFFFFFFFF DUP2 GT ISZERO PUSH2 0x44DB JUMPI PUSH2 0x44DA PUSH2 0x3671 JUMP JUMPDEST JUMPDEST PUSH2 0x44E7 DUP8 DUP3 DUP9 ADD PUSH2 0x37C4 JUMP JUMPDEST SWAP4 POP POP PUSH1 0x40 DUP6 ADD CALLDATALOAD PUSH8 0xFFFFFFFFFFFFFFFF DUP2 GT ISZERO PUSH2 0x4508 JUMPI PUSH2 0x4507 PUSH2 0x3671 JUMP JUMPDEST JUMPDEST PUSH2 0x4514 DUP8 DUP3 DUP9 ADD PUSH2 0x37C4 JUMP JUMPDEST SWAP3 POP POP PUSH1 0x60 DUP6 ADD CALLDATALOAD PUSH8 0xFFFFFFFFFFFFFFFF DUP2 GT ISZERO PUSH2 0x4535 JUMPI PUSH2 0x4534 PUSH2 0x3671 JUMP JUMPDEST JUMPDEST PUSH2 0x4541 DUP8 DUP3 DUP9 ADD PUSH2 0x4464 JUMP JUMPDEST SWAP2 POP POP SWAP3 SWAP6 SWAP2 SWAP5 POP SWAP3 POP JUMP JUMPDEST PUSH2 0x4556 DUP2 PUSH2 0x4282 JUMP JUMPDEST DUP3 MSTORE POP POP JUMP JUMPDEST PUSH1 0x0 PUSH1 0x60 DUP3 ADD SWAP1 POP PUSH2 0x4571 PUSH1 0x0 DUP4 ADD DUP7 PUSH2 0x3D86 JUMP JUMPDEST PUSH2 0x457E PUSH1 0x20 DUP4 ADD DUP6 PUSH2 0x454D JUMP JUMPDEST PUSH2 0x458B PUSH1 0x40 DUP4 ADD DUP5 PUSH2 0x454D JUMP JUMPDEST SWAP5 SWAP4 POP POP POP POP JUMP JUMPDEST PUSH1 0x0 DUP2 ISZERO ISZERO SWAP1 POP SWAP2 SWAP1 POP JUMP JUMPDEST PUSH2 0x45A8 DUP2 PUSH2 0x4593 JUMP JUMPDEST DUP3 MSTORE POP POP JUMP JUMPDEST PUSH1 0x0 PUSH1 0xE0 DUP4 ADD PUSH1 0x0 DUP4 ADD MLOAD PUSH2 0x45C6 PUSH1 0x0 DUP7 ADD DUP3 PUSH2 0x3948 JUMP JUMPDEST POP PUSH1 0x20 DUP4 ADD MLOAD DUP5 DUP3 SUB PUSH1 0x20 DUP7 ADD MSTORE PUSH2 0x45DE DUP3 DUP3 PUSH2 0x39A6 JUMP JUMPDEST SWAP2 POP POP PUSH1 0x40 DUP4 ADD MLOAD DUP5 DUP3 SUB PUSH1 0x40 DUP7 ADD MSTORE PUSH2 0x45F8 DUP3 DUP3 PUSH2 0x39A6 JUMP JUMPDEST SWAP2 POP POP PUSH1 0x60 DUP4 ADD MLOAD DUP5 DUP3 SUB PUSH1 0x60 DUP7 ADD MSTORE PUSH2 0x4612 DUP3 DUP3 PUSH2 0x39A6 JUMP JUMPDEST SWAP2 POP POP PUSH1 0x80 DUP4 ADD MLOAD PUSH2 0x4627 PUSH1 0x80 DUP7 ADD DUP3 PUSH2 0x4089 JUMP JUMPDEST POP PUSH1 0xA0 DUP4 ADD MLOAD PUSH2 0x463A PUSH1 0xA0 DUP7 ADD DUP3 PUSH2 0x3948 JUMP JUMPDEST POP PUSH1 0xC0 DUP4 ADD MLOAD PUSH2 0x464D PUSH1 0xC0 DUP7 ADD DUP3 PUSH2 0x459F JUMP JUMPDEST POP DUP1 SWAP2 POP POP SWAP3 SWAP2 POP POP JUMP JUMPDEST PUSH1 0x0 PUSH1 0xA0 DUP4 ADD PUSH1 0x0 DUP4 ADD MLOAD DUP5 DUP3 SUB PUSH1 0x0 DUP7 ADD MSTORE PUSH2 0x4675 DUP3 DUP3 PUSH2 0x39A6 JUMP JUMPDEST SWAP2 POP POP PUSH1 0x20 DUP4 ADD MLOAD DUP5 DUP3 SUB PUSH1 0x20 DUP7 ADD MSTORE PUSH2 0x468F DUP3 DUP3 PUSH2 0x39A6 JUMP JUMPDEST SWAP2 POP POP PUSH1 0x40 DUP4 ADD MLOAD PUSH2 0x46A4 PUSH1 0x40 DUP7 ADD DUP3 PUSH2 0x428C JUMP JUMPDEST POP PUSH1 0x60 DUP4 ADD MLOAD PUSH2 0x46B7 PUSH1 0x60 DUP7 ADD DUP3 PUSH2 0x428C JUMP JUMPDEST POP PUSH1 0x80 DUP4 ADD MLOAD DUP5 DUP3 SUB PUSH1 0x80 DUP7 ADD MSTORE PUSH2 0x46CF DUP3 DUP3 PUSH2 0x39A6 JUMP JUMPDEST SWAP2 POP POP DUP1 SWAP2 POP POP SWAP3 SWAP2 POP POP JUMP JUMPDEST PUSH1 0x0 PUSH1 0x60 DUP4 ADD PUSH1 0x0 DUP4 ADD MLOAD DUP5 DUP3 SUB PUSH1 0x0 DUP7 ADD MSTORE PUSH2 0x46F9 DUP3 DUP3 PUSH2 0x39A6 JUMP JUMPDEST SWAP2 POP POP PUSH1 0x20 DUP4 ADD MLOAD DUP5 DUP3 SUB PUSH1 0x20 DUP7 ADD MSTORE PUSH2 0x4713 DUP3 DUP3 PUSH2 0x39A6 JUMP JUMPDEST SWAP2 POP POP PUSH1 0x40 DUP4 ADD MLOAD DUP5 DUP3 SUB PUSH1 0x40 DUP7 ADD MSTORE PUSH2 0x472D DUP3 DUP3 PUSH2 0x39A6 JUMP JUMPDEST SWAP2 POP POP DUP1 SWAP2 POP POP SWAP3 SWAP2 POP POP JUMP JUMPDEST PUSH1 0x0 PUSH1 0xC0 DUP4 ADD PUSH1 0x0 DUP4 ADD MLOAD PUSH2 0x4752 PUSH1 0x0 DUP7 ADD DUP3 PUSH2 0x3948 JUMP JUMPDEST POP PUSH1 0x20 DUP4 ADD MLOAD PUSH2 0x4765 PUSH1 0x20 DUP7 ADD DUP3 PUSH2 0x3948 JUMP JUMPDEST POP PUSH1 0x40 DUP4 ADD MLOAD DUP5 DUP3 SUB PUSH1 0x40 DUP7 ADD MSTORE PUSH2 0x477D DUP3 DUP3 PUSH2 0x39A6 JUMP JUMPDEST SWAP2 POP POP PUSH1 0x60 DUP4 ADD MLOAD PUSH2 0x4792 PUSH1 0x60 DUP7 ADD DUP3 PUSH2 0x3948 JUMP JUMPDEST POP PUSH1 0x80 DUP4 ADD MLOAD DUP5 DUP3 SUB PUSH1 0x80 DUP7 ADD MSTORE PUSH2 0x47AA DUP3 DUP3 PUSH2 0x46DC JUMP JUMPDEST SWAP2 POP POP PUSH1 0xA0 DUP4 ADD MLOAD PUSH2 0x47BF PUSH1 0xA0 DUP7 ADD DUP3 PUSH2 0x3948 JUMP JUMPDEST POP DUP1 SWAP2 POP POP SWAP3 SWAP2 POP POP JUMP JUMPDEST PUSH1 0x0 PUSH1 0x60 DUP3 ADD SWAP1 POP DUP2 DUP2 SUB PUSH1 0x0 DUP4 ADD MSTORE PUSH2 0x47E4 DUP2 DUP7 PUSH2 0x45AE JUMP JUMPDEST SWAP1 POP DUP2 DUP2 SUB PUSH1 0x20 DUP4 ADD MSTORE PUSH2 0x47F8 DUP2 DUP6 PUSH2 0x4658 JUMP JUMPDEST SWAP1 POP DUP2 DUP2 SUB PUSH1 0x40 DUP4 ADD MSTORE PUSH2 0x480C DUP2 DUP5 PUSH2 0x473A JUMP JUMPDEST SWAP1 POP SWAP5 SWAP4 POP POP POP POP JUMP JUMPDEST PUSH1 0x0 PUSH1 0xA0 DUP3 ADD SWAP1 POP DUP2 DUP2 SUB PUSH1 0x0 DUP4 ADD MSTORE PUSH2 0x4830 DUP2 DUP9 PUSH2 0x3CEB JUMP JUMPDEST SWAP1 POP DUP2 DUP2 SUB PUSH1 0x20 DUP4 ADD MSTORE PUSH2 0x4844 DUP2 DUP8 PUSH2 0x3CEB JUMP JUMPDEST SWAP1 POP PUSH2 0x4853 PUSH1 0x40 DUP4 ADD DUP7 PUSH2 0x454D JUMP JUMPDEST PUSH2 0x4860 PUSH1 0x60 DUP4 ADD DUP6 PUSH2 0x454D JUMP JUMPDEST DUP2 DUP2 SUB PUSH1 0x80 DUP4 ADD MSTORE PUSH2 0x4872 DUP2 DUP5 PUSH2 0x3CEB JUMP JUMPDEST SWAP1 POP SWAP7 SWAP6 POP POP POP POP POP POP JUMP JUMPDEST PUSH2 0x4887 DUP2 PUSH2 0x4593 JUMP JUMPDEST DUP3 MSTORE POP POP JUMP JUMPDEST PUSH1 0x0 PUSH1 0xE0 DUP3 ADD SWAP1 POP PUSH2 0x48A2 PUSH1 0x0 DUP4 ADD DUP11 PUSH2 0x3D86 JUMP JUMPDEST DUP2 DUP2 SUB PUSH1 0x20 DUP4 ADD MSTORE PUSH2 0x48B4 DUP2 DUP10 PUSH2 0x3CEB JUMP JUMPDEST SWAP1 POP DUP2 DUP2 SUB PUSH1 0x40 DUP4 ADD MSTORE PUSH2 0x48C8 DUP2 DUP9 PUSH2 0x3CEB JUMP JUMPDEST SWAP1 POP DUP2 DUP2 SUB PUSH1 0x60 DUP4 ADD MSTORE PUSH2 0x48DC DUP2 DUP8 PUSH2 0x3CEB JUMP JUMPDEST SWAP1 POP PUSH2 0x48EB PUSH1 0x80 DUP4 ADD DUP7 PUSH2 0x3DF6 JUMP JUMPDEST PUSH2 0x48F8 PUSH1 0xA0 DUP4 ADD DUP6 PUSH2 0x3D86 JUMP JUMPDEST PUSH2 0x4905 PUSH1 0xC0 DUP4 ADD DUP5 PUSH2 0x487E JUMP JUMPDEST SWAP9 SWAP8 POP POP POP POP POP POP POP POP JUMP JUMPDEST PUSH2 0x491A DUP2 PUSH2 0x4282 JUMP JUMPDEST DUP2 EQ PUSH2 0x4925 JUMPI PUSH1 0x0 DUP1 REVERT JUMPDEST POP JUMP JUMPDEST PUSH1 0x0 DUP2 CALLDATALOAD SWAP1 POP PUSH2 0x4937 DUP2 PUSH2 0x4911 JUMP JUMPDEST SWAP3 SWAP2 POP POP JUMP JUMPDEST PUSH1 0x0 DUP1 PUSH1 0x0 DUP1 PUSH1 0x0 DUP1 PUSH1 0xC0 DUP8 DUP10 SUB SLT ISZERO PUSH2 0x495A JUMPI PUSH2 0x4959 PUSH2 0x366C JUMP JUMPDEST JUMPDEST PUSH1 0x0 PUSH2 0x4968 DUP10 DUP3 DUP11 ADD PUSH2 0x3697 JUMP JUMPDEST SWAP7 POP POP PUSH1 0x20 DUP8 ADD CALLDATALOAD PUSH8 0xFFFFFFFFFFFFFFFF DUP2 GT ISZERO PUSH2 0x4989 JUMPI PUSH2 0x4988 PUSH2 0x3671 JUMP JUMPDEST JUMPDEST PUSH2 0x4995 DUP10 DUP3 DUP11 ADD PUSH2 0x37C4 JUMP JUMPDEST SWAP6 POP POP PUSH1 0x40 DUP8 ADD CALLDATALOAD PUSH8 0xFFFFFFFFFFFFFFFF DUP2 GT ISZERO PUSH2 0x49B6 JUMPI PUSH2 0x49B5 PUSH2 0x3671 JUMP JUMPDEST JUMPDEST PUSH2 0x49C2 DUP10 DUP3 DUP11 ADD PUSH2 0x37C4 JUMP JUMPDEST SWAP5 POP POP PUSH1 0x60 PUSH2 0x49D3 DUP10 DUP3 DUP11 ADD PUSH2 0x4928 JUMP JUMPDEST SWAP4 POP POP PUSH1 0x80 PUSH2 0x49E4 DUP10 DUP3 DUP11 ADD PUSH2 0x4928 JUMP JUMPDEST SWAP3 POP POP PUSH1 0xA0 DUP8 ADD CALLDATALOAD PUSH8 0xFFFFFFFFFFFFFFFF DUP2 GT ISZERO PUSH2 0x4A05 JUMPI PUSH2 0x4A04 PUSH2 0x3671 JUMP JUMPDEST JUMPDEST PUSH2 0x4A11 DUP10 DUP3 DUP11 ADD PUSH2 0x37C4 JUMP JUMPDEST SWAP2 POP POP SWAP3 SWAP6 POP SWAP3 SWAP6 POP SWAP3 SWAP6 JUMP JUMPDEST PUSH1 0x0 PUSH1 0x60 DUP3 ADD SWAP1 POP PUSH2 0x4A33 PUSH1 0x0 DUP4 ADD DUP7 PUSH2 0x3D86 JUMP JUMPDEST DUP2 DUP2 SUB PUSH1 0x20 DUP4 ADD MSTORE PUSH2 0x4A45 DUP2 DUP6 PUSH2 0x3CEB JUMP JUMPDEST SWAP1 POP DUP2 DUP2 SUB PUSH1 0x40 DUP4 ADD MSTORE PUSH2 0x4A59 DUP2 DUP5 PUSH2 0x3CEB JUMP JUMPDEST SWAP1 POP SWAP5 SWAP4 POP POP POP POP JUMP JUMPDEST PUSH1 0x0 DUP1 PUSH1 0x0 PUSH1 0x60 DUP5 DUP7 SUB SLT ISZERO PUSH2 0x4A7C JUMPI PUSH2 0x4A7B PUSH2 0x366C JUMP JUMPDEST JUMPDEST PUSH1 0x0 DUP5 ADD CALLDATALOAD PUSH8 0xFFFFFFFFFFFFFFFF DUP2 GT ISZERO PUSH2 0x4A9A JUMPI PUSH2 0x4A99 PUSH2 0x3671 JUMP JUMPDEST JUMPDEST PUSH2 0x4AA6 DUP7 DUP3 DUP8 ADD PUSH2 0x37C4 JUMP JUMPDEST SWAP4 POP POP PUSH1 0x20 DUP5 ADD CALLDATALOAD PUSH8 0xFFFFFFFFFFFFFFFF DUP2 GT ISZERO PUSH2 0x4AC7 JUMPI PUSH2 0x4AC6 PUSH2 0x3671 JUMP JUMPDEST JUMPDEST PUSH2 0x4AD3 DUP7 DUP3 DUP8 ADD PUSH2 0x37C4 JUMP JUMPDEST SWAP3 POP POP PUSH1 0x40 DUP5 ADD CALLDATALOAD PUSH8 0xFFFFFFFFFFFFFFFF DUP2 GT ISZERO PUSH2 0x4AF4 JUMPI PUSH2 0x4AF3 PUSH2 0x3671 JUMP JUMPDEST JUMPDEST PUSH2 0x4B00 DUP7 DUP3 DUP8 ADD PUSH2 0x37C4 JUMP JUMPDEST SWAP2 POP POP SWAP3 POP SWAP3 POP SWAP3 JUMP JUMPDEST PUSH1 0x0 PUSH1 0x20 DUP3 ADD SWAP1 POP PUSH2 0x4B1F PUSH1 0x0 DUP4 ADD DUP5 PUSH2 0x3D86 JUMP JUMPDEST SWAP3 SWAP2 POP POP JUMP JUMPDEST PUSH1 0x0 DUP1 PUSH1 0x0 DUP1 PUSH1 0x80 DUP6 DUP8 SUB SLT ISZERO PUSH2 0x4B3F JUMPI PUSH2 0x4B3E PUSH2 0x366C JUMP JUMPDEST JUMPDEST PUSH1 0x0 PUSH2 0x4B4D DUP8 DUP3 DUP9 ADD PUSH2 0x3697 JUMP JUMPDEST SWAP5 POP POP PUSH1 0x20 DUP6 ADD CALLDATALOAD PUSH8 0xFFFFFFFFFFFFFFFF DUP2 GT ISZERO PUSH2 0x4B6E JUMPI PUSH2 0x4B6D PUSH2 0x3671 JUMP JUMPDEST JUMPDEST PUSH2 0x4B7A DUP8 DUP3 DUP9 ADD PUSH2 0x37C4 JUMP JUMPDEST SWAP4 POP POP PUSH1 0x40 PUSH2 0x4B8B DUP8 DUP3 DUP9 ADD PUSH2 0x3697 JUMP JUMPDEST SWAP3 POP POP PUSH1 0x60 PUSH2 0x4B9C DUP8 DUP3 DUP9 ADD PUSH2 0x3697 JUMP JUMPDEST SWAP2 POP POP SWAP3 SWAP6 SWAP2 SWAP5 POP SWAP3 POP JUMP JUMPDEST PUSH1 0x0 PUSH1 0x40 DUP3 ADD SWAP1 POP DUP2 DUP2 SUB PUSH1 0x0 DUP4 ADD MSTORE PUSH2 0x4BC2 DUP2 DUP6 PUSH2 0x3CEB JUMP JUMPDEST SWAP1 POP DUP2 DUP2 SUB PUSH1 0x20 DUP4 ADD MSTORE PUSH2 0x4BD6 DUP2 DUP5 PUSH2 0x3CEB JUMP JUMPDEST SWAP1 POP SWAP4 SWAP3 POP POP POP JUMP JUMPDEST PUSH1 0x0 DUP1 PUSH1 0x0 DUP1 PUSH1 0x0 PUSH1 0xA0 DUP7 DUP9 SUB SLT ISZERO PUSH2 0x4BFB JUMPI PUSH2 0x4BFA PUSH2 0x366C JUMP JUMPDEST JUMPDEST PUSH1 0x0 PUSH2 0x4C09 DUP9 DUP3 DUP10 ADD PUSH2 0x3697 JUMP JUMPDEST SWAP6 POP POP PUSH1 0x20 PUSH2 0x4C1A DUP9 DUP3 DUP10 ADD PUSH2 0x3697 JUMP JUMPDEST SWAP5 POP POP PUSH1 0x40 DUP7 ADD CALLDATALOAD PUSH8 0xFFFFFFFFFFFFFFFF DUP2 GT ISZERO PUSH2 0x4C3B JUMPI PUSH2 0x4C3A PUSH2 0x3671 JUMP JUMPDEST JUMPDEST PUSH2 0x4C47 DUP9 DUP3 DUP10 ADD PUSH2 0x37C4 JUMP JUMPDEST SWAP4 POP POP PUSH1 0x60 PUSH2 0x4C58 DUP9 DUP3 DUP10 ADD PUSH2 0x4928 JUMP JUMPDEST SWAP3 POP POP PUSH1 0x80 PUSH2 0x4C69 DUP9 DUP3 DUP10 ADD PUSH2 0x4928 JUMP JUMPDEST SWAP2 POP POP SWAP3 SWAP6 POP SWAP3 SWAP6 SWAP1 SWAP4 POP JUMP JUMPDEST PUSH32 0x50726F6475637420646F6573206E6F7420657869737400000000000000000000 PUSH1 0x0 DUP3 ADD MSTORE POP JUMP JUMPDEST PUSH1 0x0 PUSH2 0x4CAC PUSH1 0x16 DUP4 PUSH2 0x3CDA JUMP JUMPDEST SWAP2 POP PUSH2 0x4CB7 DUP3 PUSH2 0x4C76 JUMP JUMPDEST PUSH1 0x20 DUP3 ADD SWAP1 POP SWAP2 SWAP1 POP JUMP JUMPDEST PUSH1 0x0 PUSH1 0x20 DUP3 ADD SWAP1 POP DUP2 DUP2 SUB PUSH1 0x0 DUP4 ADD MSTORE PUSH2 0x4CDB DUP2 PUSH2 0x4C9F JUMP JUMPDEST SWAP1 POP SWAP2 SWAP1 POP JUMP JUMPDEST PUSH32 0x4F6E6C79206D616E7566616374757265722063616E2063726561746520726563 PUSH1 0x0 DUP3 ADD MSTORE PUSH32 0x6F72640000000000000000000000000000000000000000000000000000000000 PUSH1 0x20 DUP3 ADD MSTORE POP JUMP JUMPDEST PUSH1 0x0 PUSH2 0x4D3E PUSH1 0x23 DUP4 PUSH2 0x3CDA JUMP JUMPDEST SWAP2 POP PUSH2 0x4D49 DUP3 PUSH2 0x4CE2 JUMP JUMPDEST PUSH1 0x40 DUP3 ADD SWAP1 POP SWAP2 SWAP1 POP JUMP JUMPDEST PUSH1 0x0 PUSH1 0x20 DUP3 ADD SWAP1 POP DUP2 DUP2 SUB PUSH1 0x0 DUP4 ADD MSTORE PUSH2 0x4D6D DUP2 PUSH2 0x4D31 JUMP JUMPDEST SWAP1 POP SWAP2 SWAP1 POP JUMP JUMPDEST PUSH1 0x0 PUSH1 0x40 DUP3 ADD SWAP1 POP PUSH2 0x4D89 PUSH1 0x0 DUP4 ADD DUP6 PUSH2 0x3D86 JUMP JUMPDEST PUSH2 0x4D96 PUSH1 0x20 DUP4 ADD DUP5 PUSH2 0x3D86 JUMP JUMPDEST SWAP4 SWAP3 POP POP POP JUMP JUMPDEST PUSH32 0x4E487B7100000000000000000000000000000000000000000000000000000000 PUSH1 0x0 MSTORE PUSH1 0x22 PUSH1 0x4 MSTORE PUSH1 0x24 PUSH1 0x0 REVERT JUMPDEST PUSH1 0x0 PUSH1 0x2 DUP3 DIV SWAP1 POP PUSH1 0x1 DUP3 AND DUP1 PUSH2 0x4DE4 JUMPI PUSH1 0x7F DUP3 AND SWAP2 POP JUMPDEST PUSH1 0x20 DUP3 LT DUP2 EQ ISZERO PUSH2 0x4DF8 JUMPI PUSH2 0x4DF7 PUSH2 0x4D9D JUMP JUMPDEST JUMPDEST POP SWAP2 SWAP1 POP JUMP JUMPDEST PUSH32 0x4E487B7100000000000000000000000000000000000000000000000000000000 PUSH1 0x0 MSTORE PUSH1 0x11 PUSH1 0x4 MSTORE PUSH1 0x24 PUSH1 0x0 REVERT JUMPDEST PUSH1 0x0 PUSH2 0x4E38 DUP3 PUSH2 0x3676 JUMP JUMPDEST SWAP2 POP PUSH2 0x4E43 DUP4 PUSH2 0x3676 JUMP JUMPDEST SWAP3 POP DUP3 DUP3 LT ISZERO PUSH2 0x4E56 JUMPI PUSH2 0x4E55 PUSH2 0x4DFE JUMP JUMPDEST JUMPDEST DUP3 DUP3 SUB SWAP1 POP SWAP3 SWAP2 POP POP JUMP JUMPDEST PUSH32 0x4E487B7100000000000000000000000000000000000000000000000000000000 PUSH1 0x0 MSTORE PUSH1 0x32 PUSH1 0x4 MSTORE PUSH1 0x24 PUSH1 0x0 REVERT JUMPDEST PUSH1 0x0 PUSH2 0x4E9B DUP3 PUSH2 0x3676 JUMP JUMPDEST SWAP2 POP PUSH32 0xFFFFFFFFFFFFFFFFFFFFFFFFFFFFFFFFFFFFFFFFFFFFFFFFFFFFFFFFFFFFFFFF DUP3 EQ ISZERO PUSH2 0x4ECE JUMPI PUSH2 0x4ECD PUSH2 0x4DFE JUMP JUMPDEST JUMPDEST PUSH1 0x1 DUP3 ADD SWAP1 POP SWAP2 SWAP1 POP JUMP JUMPDEST PUSH32 0x4F6E6C792061737369676E656420636172726965722063616E2061646420726F PUSH1 0x0 DUP3 ADD MSTORE PUSH32 0x75746520706F696E747300000000000000000000000000000000000000000000 PUSH1 0x20 DUP3 ADD MSTORE POP JUMP JUMPDEST PUSH1 0x0 PUSH2 0x4F35 PUSH1 0x2A DUP4 PUSH2 0x3CDA JUMP JUMPDEST SWAP2 POP PUSH2 0x4F40 DUP3 PUSH2 0x4ED9 JUMP JUMPDEST PUSH1 0x40 DUP3 ADD SWAP1 POP SWAP2 SWAP1 POP JUMP JUMPDEST PUSH1 0x0 PUSH1 0x20 DUP3 ADD SWAP1 POP DUP2 DUP2 SUB PUSH1 0x0 DUP4 ADD MSTORE PUSH2 0x4F64 DUP2 PUSH2 0x4F28 JUMP JUMPDEST SWAP1 POP SWAP2 SWAP1 POP JUMP JUMPDEST PUSH32 0x536869706D656E74206E6F7420666F756E640000000000000000000000000000 PUSH1 0x0 DUP3 ADD MSTORE POP JUMP JUMPDEST PUSH1 0x0 PUSH2 0x4FA1 PUSH1 0x12 DUP4 PUSH2 0x3CDA JUMP JUMPDEST SWAP2 POP PUSH2 0x4FAC DUP3 PUSH2 0x4F6B JUMP JUMPDEST PUSH1 0x20 DUP3 ADD SWAP1 POP SWAP2 SWAP1 POP JUMP JUMPDEST PUSH1 0x0 PUSH1 0x20 DUP3 ADD SWAP1 POP DUP2 DUP2 SUB PUSH1 0x0 DUP4 ADD MSTORE PUSH2 0x4FD0 DUP2 PUSH2 0x4F94 JUMP JUMPDEST SWAP1 POP SWAP2 SWAP1 POP JUMP JUMPDEST PUSH32 0x4F6E6C79206D616E7566616374757265722063616E20616464207175616C6974 PUSH1 0x0 DUP3 ADD MSTORE PUSH32 0x7920636865636B73000000000000000000000000000000000000000000000000 PUSH1 0x20 DUP3 ADD MSTORE POP JUMP JUMPDEST PUSH1 0x0 PUSH2 0x5033 PUSH1 0x28 DUP4 PUSH2 0x3CDA JUMP JUMPDEST SWAP2 POP PUSH2 0x503E DUP3 PUSH2 0x4FD7 JUMP JUMPDEST PUSH1 0x40 DUP3 ADD SWAP1 POP SWAP2 SWAP1 POP JUMP JUMPDEST PUSH1 0x0 PUSH1 0x20 DUP3 ADD SWAP1 POP DUP2 DUP2 SUB PUSH1 0x0 DUP4 ADD MSTORE PUSH2 0x5062 DUP2 PUSH2 0x5026 JUMP JUMPDEST SWAP1 POP SWAP2 SWAP1 POP JUMP JUMPDEST PUSH1 0x0 PUSH1 0x40 DUP3 ADD SWAP1 POP PUSH2 0x507E PUSH1 0x0 DUP4 ADD DUP6 PUSH2 0x3D86 JUMP JUMPDEST DUP2 DUP2 SUB PUSH1 0x20 DUP4 ADD MSTORE PUSH2 0x5090 DUP2 DUP5 PUSH2 0x3CEB JUMP JUMPDEST SWAP1 POP SWAP4 SWAP3 POP POP POP JUMP JUMPDEST PUSH32 0x4F6E6C79206D616E7566616374757265722063616E2061646420737465707300 PUSH1 0x0 DUP3 ADD MSTORE POP JUMP JUMPDEST PUSH1 0x0 PUSH2 0x50CF PUSH1 0x1F DUP4 PUSH2 0x3CDA JUMP JUMPDEST SWAP2 POP PUSH2 0x50DA DUP3 PUSH2 0x5099 JUMP JUMPDEST PUSH1 0x20 DUP3 ADD SWAP1 POP SWAP2 SWAP1 POP JUMP JUMPDEST PUSH1 0x0 PUSH1 0x20 DUP3 ADD SWAP1 POP DUP2 DUP2 SUB PUSH1 0x0 DUP4 ADD MSTORE PUSH2 0x50FE DUP2 PUSH2 0x50C2 JUMP JUMPDEST SWAP1 POP SWAP2 SWAP1 POP JUMP JUMPDEST PUSH1 0x0 PUSH1 0x60 DUP3 ADD SWAP1 POP PUSH2 0x511A PUSH1 0x0 DUP4 ADD DUP7 PUSH2 0x3D86 JUMP JUMPDEST PUSH2 0x5127 PUSH1 0x20 DUP4 ADD DUP6 PUSH2 0x3D86 JUMP JUMPDEST DUP2 DUP2 SUB PUSH1 0x40 DUP4 ADD MSTORE PUSH2 0x5139 DUP2 DUP5 PUSH2 0x3CEB JUMP JUMPDEST SWAP1 POP SWAP5 SWAP4 POP POP POP POP JUMP JUMPDEST PUSH32 0x4F6E6C79206D616E7566616374757265722063616E2061646420686172766573 PUSH1 0x0 DUP3 ADD MSTORE PUSH32 0x7420646174610000000000000000000000000000000000000000000000000000 PUSH1 0x20 DUP3 ADD MSTORE POP JUMP JUMPDEST PUSH1 0x0 PUSH2 0x519F PUSH1 0x26 DUP4 PUSH2 0x3CDA JUMP JUMPDEST SWAP2 POP PUSH2 0x51AA DUP3 PUSH2 0x5143 JUMP JUMPDEST PUSH1 0x40 DUP3 ADD SWAP1 POP SWAP2 SWAP1 POP JUMP JUMPDEST PUSH1 0x0 PUSH1 0x20 DUP3 ADD SWAP1 POP DUP2 DUP2 SUB PUSH1 0x0 DUP4 ADD MSTORE PUSH2 0x51CE DUP2 PUSH2 0x5192 JUMP JUMPDEST SWAP1 POP SWAP2 SWAP1 POP JUMP JUMPDEST PUSH1 0x0 PUSH1 0x60 DUP3 ADD SWAP1 POP PUSH2 0x51EA PUSH1 0x0 DUP4 ADD DUP7 PUSH2 0x3D86 JUMP JUMPDEST DUP2 DUP2 SUB PUSH1 0x20 DUP4 ADD MSTORE PUSH2 0x51FC DUP2 DUP6 PUSH2 0x3CEB JUMP JUMPDEST SWAP1 POP PUSH2 0x520B PUSH1 0x40 DUP4 ADD DUP5 PUSH2 0x3DF6 JUMP JUMPDEST SWAP5 SWAP4 POP POP POP POP JUMP JUMPDEST PUSH1 0x0 PUSH1 0x60 DUP3 ADD SWAP1 POP PUSH2 0x5228 PUSH1 0x0 DUP4 ADD DUP7 PUSH2 0x3D86 JUMP JUMPDEST DUP2 DUP2 SUB PUSH1 0x20 DUP4 ADD MSTORE PUSH2 0x523A DUP2 DUP6 PUSH2 0x3CEB JUMP JUMPDEST SWAP1 POP PUSH2 0x5249 PUSH1 0x40 DUP4 ADD DUP5 PUSH2 0x3D86 JUMP JUMPDEST SWAP5 SWAP4 POP POP POP POP JUMP JUMPDEST PUSH32 0x4F6E6C792061737369676E656420636172726965722063616E20757064617465 PUSH1 0x0 DUP3 ADD MSTORE PUSH32 0x206C6F636174696F6E0000000000000000000000000000000000000000000000 PUSH1 0x20 DUP3 ADD MSTORE POP JUMP JUMPDEST PUSH1 0x0 PUSH2 0x52AD PUSH1 0x29 DUP4 PUSH2 0x3CDA JUMP JUMPDEST SWAP2 POP PUSH2 0x52B8 DUP3 PUSH2 0x5251 JUMP JUMPDEST PUSH1 0x40 DUP3 ADD SWAP1 POP SWAP2 SWAP1 POP JUMP JUMPDEST PUSH1 0x0 PUSH1 0x20 DUP3 ADD SWAP1 POP DUP2 DUP2 SUB PUSH1 0x0 DUP4 ADD MSTORE PUSH2 0x52DC DUP2 PUSH2 0x52A0 JUMP JUMPDEST SWAP1 POP SWAP2 SWAP1 POP JUMP INVALID LOG2 PUSH5 0x6970667358 0x22 SLT KECCAK256 RETURN 0xDD PUSH19 0xC95D2D57B15AE02C99B68AF56870022ED51C5C CODESIZE 0x49 0x1F MOD SHL SWAP1 SUB 0xEE 0xA9 MUL PUSH5 0x736F6C6343 STOP ADDMOD MULMOD STOP CALLER "},"methodIdentifiers":{"addHarvestData(uint256,string,string,int256,int256,string)":"a662e917","addManufacturingStep(uint256,string,string,string[])":"64e4e072","addQualityCheck(uint256,string)":"4d7912ff","addRoutePoint(uint256,uint256,string,string)":"4b21a2e4","createManufacturingRecord(uint256,uint256,string,string,string,string)":"00025dbd","createProduct(string,string,string)":"d768468b","createShipment(uint256,string,uint256,uint256)":"e21c3468","getManufacturingSteps(uint256)":"0311e329","getProductDetails(uint256)":"6813b53b","getShipmentDetails(uint256,uint256)":"5e1a2238","manufacturingRecords(uint256)":"326e0f8d","manufacturingSteps(uint256,uint256)":"c41d1b74","manufacturingToolsRequired(uint256,uint256,uint256)":"10ac3226","productHarvestData(uint256)":"6a4c4f89","productShipments(uint256,uint256)":"2fe9f958","products(uint256)":"7acc0b20","qualityChecks(uint256,uint256)":"6106bf04","shipmentLocationUpdates(uint256,uint256,uint256)":"675315dd","shipmentRoutePoints(uint256,uint256,uint256)":"edcf7264","updateShipmentLocation(uint256,uint256,string,int256,int256)":"f2d78f45"}}}}}